{
	"src/VestingToken.sol": {
		"VestingToken": {
			"abi": [
				{
					"inputs": [],
					"stateMutability": "nonpayable",
					"type": "constructor"
				},
				{
					"inputs": [
						{
							"internalType": "address",
							"name": "target",
							"type": "address"
						}
					],
					"name": "AddressEmptyCode",
					"type": "error"
				},
				{
					"inputs": [],
					"name": "CliffBeforeStartTime",
					"type": "error"
				},
				{
					"inputs": [
						{
							"internalType": "address",
							"name": "spender",
							"type": "address"
						},
						{
							"internalType": "uint256",
							"name": "allowance",
							"type": "uint256"
						},
						{
							"internalType": "uint256",
							"name": "needed",
							"type": "uint256"
						}
					],
					"name": "ERC20InsufficientAllowance",
					"type": "error"
				},
				{
					"inputs": [
						{
							"internalType": "address",
							"name": "sender",
							"type": "address"
						},
						{
							"internalType": "uint256",
							"name": "balance",
							"type": "uint256"
						},
						{
							"internalType": "uint256",
							"name": "needed",
							"type": "uint256"
						}
					],
					"name": "ERC20InsufficientBalance",
					"type": "error"
				},
				{
					"inputs": [
						{
							"internalType": "address",
							"name": "approver",
							"type": "address"
						}
					],
					"name": "ERC20InvalidApprover",
					"type": "error"
				},
				{
					"inputs": [
						{
							"internalType": "address",
							"name": "receiver",
							"type": "address"
						}
					],
					"name": "ERC20InvalidReceiver",
					"type": "error"
				},
				{
					"inputs": [
						{
							"internalType": "address",
							"name": "sender",
							"type": "address"
						}
					],
					"name": "ERC20InvalidSender",
					"type": "error"
				},
				{
					"inputs": [
						{
							"internalType": "address",
							"name": "spender",
							"type": "address"
						}
					],
					"name": "ERC20InvalidSpender",
					"type": "error"
				},
				{
					"inputs": [],
					"name": "FailedCall",
					"type": "error"
				},
				{
					"inputs": [],
					"name": "IncorrectSchedulePortions",
					"type": "error"
				},
				{
					"inputs": [
						{
							"internalType": "uint256",
							"name": "incorrectTime",
							"type": "uint256"
						}
					],
					"name": "IncorrectScheduleTime",
					"type": "error"
				},
				{
					"inputs": [
						{
							"internalType": "uint256",
							"name": "balance",
							"type": "uint256"
						},
						{
							"internalType": "uint256",
							"name": "needed",
							"type": "uint256"
						}
					],
					"name": "InsufficientBalance",
					"type": "error"
				},
				{
					"inputs": [],
					"name": "InvalidInitialization",
					"type": "error"
				},
				{
					"inputs": [],
					"name": "MintingAfterCliffIsForbidden",
					"type": "error"
				},
				{
					"inputs": [],
					"name": "NotEnoughTokensToClaim",
					"type": "error"
				},
				{
					"inputs": [],
					"name": "NotInitializing",
					"type": "error"
				},
				{
					"inputs": [],
					"name": "OnlyMinter",
					"type": "error"
				},
				{
					"inputs": [],
					"name": "OnlyVestingManager",
					"type": "error"
				},
				{
					"inputs": [
						{
							"internalType": "address",
							"name": "token",
							"type": "address"
						}
					],
					"name": "SafeERC20FailedOperation",
					"type": "error"
				},
				{
					"inputs": [],
					"name": "StartTimeAlreadyElapsed",
					"type": "error"
				},
				{
					"inputs": [],
					"name": "TransfersNotAllowed",
					"type": "error"
				},
				{
					"anonymous": false,
					"inputs": [
						{
							"indexed": true,
							"internalType": "address",
							"name": "owner",
							"type": "address"
						},
						{
							"indexed": true,
							"internalType": "address",
							"name": "spender",
							"type": "address"
						},
						{
							"indexed": false,
							"internalType": "uint256",
							"name": "value",
							"type": "uint256"
						}
					],
					"name": "Approval",
					"type": "event"
				},
				{
					"anonymous": false,
					"inputs": [
						{
							"indexed": false,
							"internalType": "uint64",
							"name": "version",
							"type": "uint64"
						}
					],
					"name": "Initialized",
					"type": "event"
				},
				{
					"anonymous": false,
					"inputs": [
						{
							"indexed": true,
							"internalType": "address",
							"name": "from",
							"type": "address"
						},
						{
							"indexed": true,
							"internalType": "address",
							"name": "to",
							"type": "address"
						},
						{
							"indexed": false,
							"internalType": "uint256",
							"name": "value",
							"type": "uint256"
						}
					],
					"name": "Transfer",
					"type": "event"
				},
				{
					"inputs": [
						{
							"internalType": "address",
							"name": "owner",
							"type": "address"
						},
						{
							"internalType": "address",
							"name": "spender",
							"type": "address"
						}
					],
					"name": "allowance",
					"outputs": [
						{
							"internalType": "uint256",
							"name": "",
							"type": "uint256"
						}
					],
					"stateMutability": "view",
					"type": "function"
				},
				{
					"inputs": [
						{
							"internalType": "address",
							"name": "spender",
							"type": "address"
						},
						{
							"internalType": "uint256",
							"name": "value",
							"type": "uint256"
						}
					],
					"name": "approve",
					"outputs": [
						{
							"internalType": "bool",
							"name": "",
							"type": "bool"
						}
					],
					"stateMutability": "nonpayable",
					"type": "function"
				},
				{
					"inputs": [
						{
							"internalType": "address",
							"name": "account",
							"type": "address"
						}
					],
					"name": "availableBalanceOf",
					"outputs": [
						{
							"internalType": "uint256",
							"name": "releasable",
							"type": "uint256"
						}
					],
					"stateMutability": "view",
					"type": "function"
				},
				{
					"inputs": [
						{
							"internalType": "address",
							"name": "account",
							"type": "address"
						}
					],
					"name": "balanceOf",
					"outputs": [
						{
							"internalType": "uint256",
							"name": "",
							"type": "uint256"
						}
					],
					"stateMutability": "view",
					"type": "function"
				},
				{
					"inputs": [],
					"name": "claim",
					"outputs": [],
					"stateMutability": "nonpayable",
					"type": "function"
				},
				{
					"inputs": [],
					"name": "decimals",
					"outputs": [
						{
							"internalType": "uint8",
							"name": "",
							"type": "uint8"
						}
					],
					"stateMutability": "view",
					"type": "function"
				},
				{
					"inputs": [],
					"name": "getVestingSchedule",
					"outputs": [
						{
							"components": [
								{
									"internalType": "uint256",
									"name": "startTime",
									"type": "uint256"
								},
								{
									"internalType": "uint256",
									"name": "cliff",
									"type": "uint256"
								},
								{
									"components": [
										{
											"internalType": "uint256",
											"name": "endTime",
											"type": "uint256"
										},
										{
											"internalType": "uint256",
											"name": "portion",
											"type": "uint256"
										}
									],
									"internalType": "struct Schedule[]",
									"name": "schedule",
									"type": "tuple[]"
								}
							],
							"internalType": "struct Vesting",
							"name": "",
							"type": "tuple"
						}
					],
					"stateMutability": "view",
					"type": "function"
				},
				{
					"inputs": [
						{
							"internalType": "string",
							"name": "name",
							"type": "string"
						},
						{
							"internalType": "string",
							"name": "symbol",
							"type": "string"
						},
						{
							"internalType": "address",
							"name": "minter",
							"type": "address"
						},
						{
							"internalType": "address",
							"name": "baseToken",
							"type": "address"
						}
					],
					"name": "initialize",
					"outputs": [],
					"stateMutability": "nonpayable",
					"type": "function"
				},
				{
					"inputs": [],
					"name": "lockedSupply",
					"outputs": [
						{
							"internalType": "uint256",
							"name": "",
							"type": "uint256"
						}
					],
					"stateMutability": "view",
					"type": "function"
				},
				{
					"inputs": [
						{
							"internalType": "address",
							"name": "to",
							"type": "address"
						},
						{
							"internalType": "uint256",
							"name": "amount",
							"type": "uint256"
						}
					],
					"name": "mint",
					"outputs": [],
					"stateMutability": "nonpayable",
					"type": "function"
				},
				{
					"inputs": [],
					"name": "name",
					"outputs": [
						{
							"internalType": "string",
							"name": "",
							"type": "string"
						}
					],
					"stateMutability": "view",
					"type": "function"
				},
				{
					"inputs": [
						{
							"internalType": "uint256",
							"name": "startTime",
							"type": "uint256"
						},
						{
							"internalType": "uint256",
							"name": "cliff",
							"type": "uint256"
						},
						{
							"components": [
								{
									"internalType": "uint256",
									"name": "endTime",
									"type": "uint256"
								},
								{
									"internalType": "uint256",
									"name": "portion",
									"type": "uint256"
								}
							],
							"internalType": "struct Schedule[]",
							"name": "schedule",
							"type": "tuple[]"
						}
					],
					"name": "setVestingSchedule",
					"outputs": [],
					"stateMutability": "nonpayable",
					"type": "function"
				},
				{
					"inputs": [],
					"name": "symbol",
					"outputs": [
						{
							"internalType": "string",
							"name": "",
							"type": "string"
						}
					],
					"stateMutability": "view",
					"type": "function"
				},
				{
					"inputs": [],
					"name": "totalSupply",
					"outputs": [
						{
							"internalType": "uint256",
							"name": "",
							"type": "uint256"
						}
					],
					"stateMutability": "view",
					"type": "function"
				},
				{
					"inputs": [
						{
							"internalType": "address",
							"name": "to",
							"type": "address"
						},
						{
							"internalType": "uint256",
							"name": "value",
							"type": "uint256"
						}
					],
					"name": "transfer",
					"outputs": [
						{
							"internalType": "bool",
							"name": "",
							"type": "bool"
						}
					],
					"stateMutability": "nonpayable",
					"type": "function"
				},
				{
					"inputs": [
						{
							"internalType": "address",
							"name": "from",
							"type": "address"
						},
						{
							"internalType": "address",
							"name": "to",
							"type": "address"
						},
						{
							"internalType": "uint256",
							"name": "value",
							"type": "uint256"
						}
					],
					"name": "transferFrom",
					"outputs": [
						{
							"internalType": "bool",
							"name": "",
							"type": "bool"
						}
					],
					"stateMutability": "nonpayable",
					"type": "function"
				},
				{
					"inputs": [],
					"name": "unlockedSupply",
					"outputs": [
						{
							"internalType": "uint256",
							"name": "",
							"type": "uint256"
						}
					],
					"stateMutability": "view",
					"type": "function"
				}
			],
			"devdoc": {
				"details": "Код предоставлен исключительно в ознакомительных целях и не протестирован Из контракта убрано все лишнее, включая некоторые проверки, геттеры/сеттеры и события",
				"errors": {
					"AddressEmptyCode(address)": [
						{
							"details": "There's no code at `target` (it is not a contract)."
						}
					],
					"ERC20InsufficientAllowance(address,uint256,uint256)": [
						{
							"details": "Indicates a failure with the `spender`’s `allowance`. Used in transfers.",
							"params": {
								"allowance": "Amount of tokens a `spender` is allowed to operate with.",
								"needed": "Minimum amount required to perform a transfer.",
								"spender": "Address that may be allowed to operate on tokens without being their owner."
							}
						}
					],
					"ERC20InsufficientBalance(address,uint256,uint256)": [
						{
							"details": "Indicates an error related to the current `balance` of a `sender`. Used in transfers.",
							"params": {
								"balance": "Current balance for the interacting account.",
								"needed": "Minimum amount required to perform a transfer.",
								"sender": "Address whose tokens are being transferred."
							}
						}
					],
					"ERC20InvalidApprover(address)": [
						{
							"details": "Indicates a failure with the `approver` of a token to be approved. Used in approvals.",
							"params": {
								"approver": "Address initiating an approval operation."
							}
						}
					],
					"ERC20InvalidReceiver(address)": [
						{
							"details": "Indicates a failure with the token `receiver`. Used in transfers.",
							"params": {
								"receiver": "Address to which tokens are being transferred."
							}
						}
					],
					"ERC20InvalidSender(address)": [
						{
							"details": "Indicates a failure with the token `sender`. Used in transfers.",
							"params": {
								"sender": "Address whose tokens are being transferred."
							}
						}
					],
					"ERC20InvalidSpender(address)": [
						{
							"details": "Indicates a failure with the `spender` to be approved. Used in approvals.",
							"params": {
								"spender": "Address that may be allowed to operate on tokens without being their owner."
							}
						}
					],
					"FailedCall()": [
						{
							"details": "A call to an address target failed. The target may have reverted."
						}
					],
					"InsufficientBalance(uint256,uint256)": [
						{
							"details": "The ETH balance of the account is not enough to perform the operation."
						}
					],
					"InvalidInitialization()": [
						{
							"details": "The contract is already initialized."
						}
					],
					"NotInitializing()": [
						{
							"details": "The contract is not initializing."
						}
					],
					"SafeERC20FailedOperation(address)": [
						{
							"details": "An operation with an ERC-20 token failed."
						}
					]
				},
				"events": {
					"Approval(address,address,uint256)": {
						"details": "Emitted when the allowance of a `spender` for an `owner` is set by a call to {approve}. `value` is the new allowance."
					},
					"Initialized(uint64)": {
						"details": "Triggered when the contract has been initialized or reinitialized."
					},
					"Transfer(address,address,uint256)": {
						"details": "Emitted when `value` tokens are moved from one account (`from`) to another (`to`). Note that `value` may be zero."
					}
				},
				"kind": "dev",
				"methods": {
					"allowance(address,address)": {
						"details": "See {IERC20-allowance}."
					},
					"approve(address,uint256)": {
						"details": "See {IERC20-approve}. NOTE: If `value` is the maximum `uint256`, the allowance is not updated on `transferFrom`. This is semantically equivalent to an infinite approval. Requirements: - `spender` cannot be the zero address."
					},
					"balanceOf(address)": {
						"details": "See {IERC20-balanceOf}."
					},
					"decimals()": {
						"details": "Returns the number of decimals used to get its user representation. For example, if `decimals` equals `2`, a balance of `505` tokens should be displayed to a user as `5.05` (`505 / 10 ** 2`). Tokens usually opt for a value of 18, imitating the relationship between Ether and Wei. This is the default value returned by this function, unless it's overridden. NOTE: This information is only used for _display_ purposes: it in no way affects any of the arithmetic of the contract, including {IERC20-balanceOf} and {IERC20-transfer}."
					},
					"initialize(string,string,address,address)": {
						"details": "Создается и инициализируется только контрактом VestingManager"
					},
					"name()": {
						"details": "Returns the name of the token."
					},
					"setVestingSchedule(uint256,uint256,(uint256,uint256)[])": {
						"details": "Здесь важно проверить что расписание было передано корректное"
					},
					"symbol()": {
						"details": "Returns the symbol of the token, usually a shorter version of the name."
					},
					"totalSupply()": {
						"details": "See {IERC20-totalSupply}."
					},
					"transfer(address,uint256)": {
						"details": "See {IERC20-transfer}. Requirements: - `to` cannot be the zero address. - the caller must have a balance of at least `value`."
					},
					"transferFrom(address,address,uint256)": {
						"details": "See {IERC20-transferFrom}. Skips emitting an {Approval} event indicating an allowance update. This is not required by the ERC. See {xref-ERC20-_approve-address-address-uint256-bool-}[_approve]. NOTE: Does not update the allowance if the current allowance is the maximum `uint256`. Requirements: - `from` and `to` cannot be the zero address. - `from` must have a balance of at least `value`. - the caller must have allowance for ``from``'s tokens of at least `value`."
					}
				},
				"title": "Контракт share-токена (вестинг-токен)",
				"version": 1
			},
			"evm": {
				"assembly": "    /* \"src/VestingToken.sol\":1013:8399  contract VestingToken is Initializable, ERC20Upgradeable {... */\n  mstore(0x40, 0x80)\n    /* \"src/VestingToken.sol\":1332:1385  constructor() {... */\n  callvalue\n  dup1\n  iszero\n  tag_1\n  jumpi\n  0x00\n  dup1\n  revert\ntag_1:\n  pop\n    /* \"src/VestingToken.sol\":1356:1378  _disableInitializers() */\n  tag_4\n    /* \"src/VestingToken.sol\":1356:1376  _disableInitializers */\n  shl(0x20, tag_5)\n    /* \"src/VestingToken.sol\":1356:1378  _disableInitializers() */\n  0x20\n  shr\n  jump\t// in\ntag_4:\n    /* \"src/VestingToken.sol\":1013:8399  contract VestingToken is Initializable, ERC20Upgradeable {... */\n  jump(tag_6)\n    /* \"upgradeable/contracts/proxy/utils/Initializable.sol\":7778:8200  function _disableInitializers() internal virtual {... */\ntag_5:\n    /* \"upgradeable/contracts/proxy/utils/Initializable.sol\":7893:7923  InitializableStorage storage $ */\n  0x00\n    /* \"upgradeable/contracts/proxy/utils/Initializable.sol\":7926:7952  _getInitializableStorage() */\n  tag_8\n    /* \"upgradeable/contracts/proxy/utils/Initializable.sol\":7926:7950  _getInitializableStorage */\n  shl(0x20, tag_9)\n    /* \"upgradeable/contracts/proxy/utils/Initializable.sol\":7926:7952  _getInitializableStorage() */\n  0x20\n  shr\n  jump\t// in\ntag_8:\n    /* \"upgradeable/contracts/proxy/utils/Initializable.sol\":7893:7952  InitializableStorage storage $ = _getInitializableStorage() */\n  swap1\n  pop\n    /* \"upgradeable/contracts/proxy/utils/Initializable.sol\":7967:7968  $ */\n  dup1\n    /* \"upgradeable/contracts/proxy/utils/Initializable.sol\":7967:7982  $._initializing */\n  0x00\n  add\n  0x08\n  swap1\n  sload\n  swap1\n  0x0100\n  exp\n  swap1\n  div\n  0xff\n  and\n    /* \"upgradeable/contracts/proxy/utils/Initializable.sol\":7963:8039  if ($._initializing) {... */\n  iszero\n  tag_10\n  jumpi\n    /* \"upgradeable/contracts/proxy/utils/Initializable.sol\":8005:8028  InvalidInitialization() */\n  mload(0x40)\n  0xf92ee8a900000000000000000000000000000000000000000000000000000000\n  dup2\n  mstore\n  0x04\n  add\n  mload(0x40)\n  dup1\n  swap2\n  sub\n  swap1\n  revert\n    /* \"upgradeable/contracts/proxy/utils/Initializable.sol\":7963:8039  if ($._initializing) {... */\ntag_10:\n    /* \"upgradeable/contracts/proxy/utils/Initializable.sol\":8070:8086  type(uint64).max */\n  0xffffffffffffffff\n    /* \"upgradeable/contracts/proxy/utils/Initializable.sol\":8052:8086  $._initialized != type(uint64).max */\n  dup1\n  and\n    /* \"upgradeable/contracts/proxy/utils/Initializable.sol\":8052:8053  $ */\n  dup2\n    /* \"upgradeable/contracts/proxy/utils/Initializable.sol\":8052:8066  $._initialized */\n  0x00\n  add\n  0x00\n  swap1\n  sload\n  swap1\n  0x0100\n  exp\n  swap1\n  div\n  0xffffffffffffffff\n  and\n    /* \"upgradeable/contracts/proxy/utils/Initializable.sol\":8052:8086  $._initialized != type(uint64).max */\n  0xffffffffffffffff\n  and\n  eq\n    /* \"upgradeable/contracts/proxy/utils/Initializable.sol\":8048:8194  if ($._initialized != type(uint64).max) {... */\n  tag_11\n  jumpi\n    /* \"upgradeable/contracts/proxy/utils/Initializable.sol\":8119:8135  type(uint64).max */\n  0xffffffffffffffff\n    /* \"upgradeable/contracts/proxy/utils/Initializable.sol\":8102:8103  $ */\n  dup2\n    /* \"upgradeable/contracts/proxy/utils/Initializable.sol\":8102:8116  $._initialized */\n  0x00\n  add\n  0x00\n    /* \"upgradeable/contracts/proxy/utils/Initializable.sol\":8102:8135  $._initialized = type(uint64).max */\n  0x0100\n  exp\n  dup2\n  sload\n  dup2\n  0xffffffffffffffff\n  mul\n  not\n  and\n  swap1\n  dup4\n  0xffffffffffffffff\n  and\n  mul\n  or\n  swap1\n  sstore\n  pop\n    /* \"upgradeable/contracts/proxy/utils/Initializable.sol\":8154:8183  Initialized(type(uint64).max) */\n  0xc7f505b2f371ae2175ee4913f4499e1f2633a7b5936321eed1cdaeb6115181d2\n    /* \"upgradeable/contracts/proxy/utils/Initializable.sol\":8166:8182  type(uint64).max */\n  0xffffffffffffffff\n    /* \"upgradeable/contracts/proxy/utils/Initializable.sol\":8154:8183  Initialized(type(uint64).max) */\n  mload(0x40)\n  tag_12\n  swap2\n  swap1\n  tag_13\n  jump\t// in\ntag_12:\n  mload(0x40)\n  dup1\n  swap2\n  sub\n  swap1\n  log1\n    /* \"upgradeable/contracts/proxy/utils/Initializable.sol\":8048:8194  if ($._initialized != type(uint64).max) {... */\ntag_11:\n    /* \"upgradeable/contracts/proxy/utils/Initializable.sol\":7827:8200  {... */\n  pop\n    /* \"upgradeable/contracts/proxy/utils/Initializable.sol\":7778:8200  function _disableInitializers() internal virtual {... */\n  jump\t// out\n    /* \"upgradeable/contracts/proxy/utils/Initializable.sol\":8804:8974  function _getInitializableStorage() private pure returns (InitializableStorage storage $) {... */\ntag_9:\n    /* \"upgradeable/contracts/proxy/utils/Initializable.sol\":8862:8892  InitializableStorage storage $ */\n  0x00\n    /* \"upgradeable/contracts/proxy/utils/Initializable.sol\":8937:8958  INITIALIZABLE_STORAGE */\n  0xf0c57e16840df040f15088dc2f81fe391c3923bec73e23a9662efc9c229c6a00\n    /* \"upgradeable/contracts/proxy/utils/Initializable.sol\":8927:8958  $.slot := INITIALIZABLE_STORAGE */\n  swap1\n  pop\n    /* \"upgradeable/contracts/proxy/utils/Initializable.sol\":8804:8974  function _getInitializableStorage() private pure returns (InitializableStorage storage $) {... */\n  swap1\n  jump\t// out\n    /* \"#utility.yul\":7:108   */\ntag_15:\n    /* \"#utility.yul\":43:50   */\n  0x00\n    /* \"#utility.yul\":83:101   */\n  0xffffffffffffffff\n    /* \"#utility.yul\":76:81   */\n  dup3\n    /* \"#utility.yul\":72:102   */\n  and\n    /* \"#utility.yul\":61:102   */\n  swap1\n  pop\n    /* \"#utility.yul\":7:108   */\n  swap2\n  swap1\n  pop\n  jump\t// out\n    /* \"#utility.yul\":114:229   */\ntag_16:\n    /* \"#utility.yul\":199:222   */\n  tag_20\n    /* \"#utility.yul\":216:221   */\n  dup2\n    /* \"#utility.yul\":199:222   */\n  tag_15\n  jump\t// in\ntag_20:\n    /* \"#utility.yul\":194:197   */\n  dup3\n    /* \"#utility.yul\":187:223   */\n  mstore\n    /* \"#utility.yul\":114:229   */\n  pop\n  pop\n  jump\t// out\n    /* \"#utility.yul\":235:453   */\ntag_13:\n    /* \"#utility.yul\":326:330   */\n  0x00\n    /* \"#utility.yul\":364:366   */\n  0x20\n    /* \"#utility.yul\":353:362   */\n  dup3\n    /* \"#utility.yul\":349:367   */\n  add\n    /* \"#utility.yul\":341:367   */\n  swap1\n  pop\n    /* \"#utility.yul\":377:446   */\n  tag_22\n    /* \"#utility.yul\":443:444   */\n  0x00\n    /* \"#utility.yul\":432:441   */\n  dup4\n    /* \"#utility.yul\":428:445   */\n  add\n    /* \"#utility.yul\":419:425   */\n  dup5\n    /* \"#utility.yul\":377:446   */\n  tag_16\n  jump\t// in\ntag_22:\n    /* \"#utility.yul\":235:453   */\n  swap3\n  swap2\n  pop\n  pop\n  jump\t// out\n    /* \"src/VestingToken.sol\":1013:8399  contract VestingToken is Initializable, ERC20Upgradeable {... */\ntag_6:\n  dataSize(sub_0)\n  dup1\n  dataOffset(sub_0)\n  0x00\n  codecopy\n  0x00\n  return\nstop\n\nsub_0: assembly {\n        /* \"src/VestingToken.sol\":1013:8399  contract VestingToken is Initializable, ERC20Upgradeable {... */\n      mstore(0x40, 0x80)\n      callvalue\n      dup1\n      iszero\n      tag_1\n      jumpi\n      0x00\n      dup1\n      revert\n    tag_1:\n      pop\n      jumpi(tag_2, lt(calldatasize, 0x04))\n      shr(0xe0, calldataload(0x00))\n      dup1\n      0x43e8be32\n      gt\n      tag_20\n      jumpi\n      dup1\n      0x95d89b41\n      gt\n      tag_21\n      jumpi\n      dup1\n      0x95d89b41\n      eq\n      tag_15\n      jumpi\n      dup1\n      0xa9059cbb\n      eq\n      tag_16\n      jumpi\n      dup1\n      0xca5c7b91\n      eq\n      tag_17\n      jumpi\n      dup1\n      0xdd62ed3e\n      eq\n      tag_18\n      jumpi\n      dup1\n      0xfd3d27b8\n      eq\n      tag_19\n      jumpi\n      jump(tag_2)\n    tag_21:\n      dup1\n      0x43e8be32\n      eq\n      tag_11\n      jumpi\n      dup1\n      0x4e71d92d\n      eq\n      tag_12\n      jumpi\n      dup1\n      0x70a08231\n      eq\n      tag_13\n      jumpi\n      dup1\n      0x8f15b414\n      eq\n      tag_14\n      jumpi\n      jump(tag_2)\n    tag_20:\n      dup1\n      0x25d998bb\n      gt\n      tag_22\n      jumpi\n      dup1\n      0x25d998bb\n      eq\n      tag_7\n      jumpi\n      dup1\n      0x313ce567\n      eq\n      tag_8\n      jumpi\n      dup1\n      0x3a05f0d8\n      eq\n      tag_9\n      jumpi\n      dup1\n      0x40c10f19\n      eq\n      tag_10\n      jumpi\n      jump(tag_2)\n    tag_22:\n      dup1\n      0x06fdde03\n      eq\n      tag_3\n      jumpi\n      dup1\n      0x095ea7b3\n      eq\n      tag_4\n      jumpi\n      dup1\n      0x18160ddd\n      eq\n      tag_5\n      jumpi\n      dup1\n      0x23b872dd\n      eq\n      tag_6\n      jumpi\n    tag_2:\n      0x00\n      dup1\n      revert\n        /* \"upgradeable/contracts/token/ERC20/ERC20Upgradeable.sol\":2710:2854  function name() public view virtual returns (string memory) {... */\n    tag_3:\n      tag_23\n      tag_24\n      jump\t// in\n    tag_23:\n      mload(0x40)\n      tag_25\n      swap2\n      swap1\n      tag_26\n      jump\t// in\n    tag_25:\n      mload(0x40)\n      dup1\n      swap2\n      sub\n      swap1\n      return\n        /* \"upgradeable/contracts/token/ERC20/ERC20Upgradeable.sol\":5204:5390  function approve(address spender, uint256 value) public virtual returns (bool) {... */\n    tag_4:\n      tag_27\n      0x04\n      dup1\n      calldatasize\n      sub\n      dup2\n      add\n      swap1\n      tag_28\n      swap2\n      swap1\n      tag_29\n      jump\t// in\n    tag_28:\n      tag_30\n      jump\t// in\n    tag_27:\n      mload(0x40)\n      tag_31\n      swap2\n      swap1\n      tag_32\n      jump\t// in\n    tag_31:\n      mload(0x40)\n      dup1\n      swap2\n      sub\n      swap1\n      return\n        /* \"upgradeable/contracts/token/ERC20/ERC20Upgradeable.sol\":3890:4042  function totalSupply() public view virtual returns (uint256) {... */\n    tag_5:\n      tag_33\n      tag_34\n      jump\t// in\n    tag_33:\n      mload(0x40)\n      tag_35\n      swap2\n      swap1\n      tag_36\n      jump\t// in\n    tag_35:\n      mload(0x40)\n      dup1\n      swap2\n      sub\n      swap1\n      return\n        /* \"upgradeable/contracts/token/ERC20/ERC20Upgradeable.sol\":5982:6226  function transferFrom(address from, address to, uint256 value) public virtual returns (bool) {... */\n    tag_6:\n      tag_37\n      0x04\n      dup1\n      calldatasize\n      sub\n      dup2\n      add\n      swap1\n      tag_38\n      swap2\n      swap1\n      tag_39\n      jump\t// in\n    tag_38:\n      tag_40\n      jump\t// in\n    tag_37:\n      mload(0x40)\n      tag_41\n      swap2\n      swap1\n      tag_32\n      jump\t// in\n    tag_41:\n      mload(0x40)\n      dup1\n      swap2\n      sub\n      swap1\n      return\n        /* \"src/VestingToken.sol\":5974:6131  function availableBalanceOf(address account) public view returns (uint256 releasable) {... */\n    tag_7:\n      tag_42\n      0x04\n      dup1\n      calldatasize\n      sub\n      dup2\n      add\n      swap1\n      tag_43\n      swap2\n      swap1\n      tag_44\n      jump\t// in\n    tag_43:\n      tag_45\n      jump\t// in\n    tag_42:\n      mload(0x40)\n      tag_46\n      swap2\n      swap1\n      tag_36\n      jump\t// in\n    tag_46:\n      mload(0x40)\n      dup1\n      swap2\n      sub\n      swap1\n      return\n        /* \"upgradeable/contracts/token/ERC20/ERC20Upgradeable.sol\":3748:3830  function decimals() public view virtual returns (uint8) {... */\n    tag_8:\n      tag_47\n      tag_48\n      jump\t// in\n    tag_47:\n      mload(0x40)\n      tag_49\n      swap2\n      swap1\n      tag_50\n      jump\t// in\n    tag_49:\n      mload(0x40)\n      dup1\n      swap2\n      sub\n      swap1\n      return\n        /* \"src/VestingToken.sol\":5640:5739  function getVestingSchedule() public view returns (Vesting memory) {... */\n    tag_9:\n      tag_51\n      tag_52\n      jump\t// in\n    tag_51:\n      mload(0x40)\n      tag_53\n      swap2\n      swap1\n      tag_54\n      jump\t// in\n    tag_53:\n      mload(0x40)\n      dup1\n      swap2\n      sub\n      swap1\n      return\n        /* \"src/VestingToken.sol\":4684:5043  function mint(address to, uint256 amount) external onlyMinter {... */\n    tag_10:\n      tag_55\n      0x04\n      dup1\n      calldatasize\n      sub\n      dup2\n      add\n      swap1\n      tag_56\n      swap2\n      swap1\n      tag_29\n      jump\t// in\n    tag_56:\n      tag_57\n      jump\t// in\n    tag_55:\n      stop\n        /* \"src/VestingToken.sol\":3163:3624  function setVestingSchedule(uint256 startTime, uint256 cliff, Schedule[] calldata schedule)... */\n    tag_11:\n      tag_58\n      0x04\n      dup1\n      calldatasize\n      sub\n      dup2\n      add\n      swap1\n      tag_59\n      swap2\n      swap1\n      tag_60\n      jump\t// in\n    tag_59:\n      tag_61\n      jump\t// in\n    tag_58:\n      stop\n        /* \"src/VestingToken.sol\":5259:5583  function claim() external {... */\n    tag_12:\n      tag_62\n      tag_63\n      jump\t// in\n    tag_62:\n      stop\n        /* \"upgradeable/contracts/token/ERC20/ERC20Upgradeable.sol\":4100:4271  function balanceOf(address account) public view virtual returns (uint256) {... */\n    tag_13:\n      tag_64\n      0x04\n      dup1\n      calldatasize\n      sub\n      dup2\n      add\n      swap1\n      tag_65\n      swap2\n      swap1\n      tag_44\n      jump\t// in\n    tag_65:\n      tag_66\n      jump\t// in\n    tag_64:\n      mload(0x40)\n      tag_67\n      swap2\n      swap1\n      tag_36\n      jump\t// in\n    tag_67:\n      mload(0x40)\n      dup1\n      swap2\n      sub\n      swap1\n      return\n        /* \"src/VestingToken.sol\":2544:2832  function initialize(string calldata name, string calldata symbol, address minter, address baseToken)... */\n    tag_14:\n      tag_68\n      0x04\n      dup1\n      calldatasize\n      sub\n      dup2\n      add\n      swap1\n      tag_69\n      swap2\n      swap1\n      tag_70\n      jump\t// in\n    tag_69:\n      tag_71\n      jump\t// in\n    tag_68:\n      stop\n        /* \"upgradeable/contracts/token/ERC20/ERC20Upgradeable.sol\":2967:3115  function symbol() public view virtual returns (string memory) {... */\n    tag_15:\n      tag_72\n      tag_73\n      jump\t// in\n    tag_72:\n      mload(0x40)\n      tag_74\n      swap2\n      swap1\n      tag_26\n      jump\t// in\n    tag_74:\n      mload(0x40)\n      dup1\n      swap2\n      sub\n      swap1\n      return\n        /* \"upgradeable/contracts/token/ERC20/ERC20Upgradeable.sol\":4466:4644  function transfer(address to, uint256 value) public virtual returns (bool) {... */\n    tag_16:\n      tag_75\n      0x04\n      dup1\n      calldatasize\n      sub\n      dup2\n      add\n      swap1\n      tag_76\n      swap2\n      swap1\n      tag_29\n      jump\t// in\n    tag_76:\n      tag_77\n      jump\t// in\n    tag_75:\n      mload(0x40)\n      tag_78\n      swap2\n      swap1\n      tag_32\n      jump\t// in\n    tag_78:\n      mload(0x40)\n      dup1\n      swap2\n      sub\n      swap1\n      return\n        /* \"src/VestingToken.sol\":5849:5968  function lockedSupply() external view returns (uint256) {... */\n    tag_17:\n      tag_79\n      tag_80\n      jump\t// in\n    tag_79:\n      mload(0x40)\n      tag_81\n      swap2\n      swap1\n      tag_36\n      jump\t// in\n    tag_81:\n      mload(0x40)\n      dup1\n      swap2\n      sub\n      swap1\n      return\n        /* \"upgradeable/contracts/token/ERC20/ERC20Upgradeable.sol\":4702:4897  function allowance(address owner, address spender) public view virtual returns (uint256) {... */\n    tag_18:\n      tag_82\n      0x04\n      dup1\n      calldatasize\n      sub\n      dup2\n      add\n      swap1\n      tag_83\n      swap2\n      swap1\n      tag_84\n      jump\t// in\n    tag_83:\n      tag_85\n      jump\t// in\n    tag_82:\n      mload(0x40)\n      tag_86\n      swap2\n      swap1\n      tag_36\n      jump\t// in\n    tag_86:\n      mload(0x40)\n      dup1\n      swap2\n      sub\n      swap1\n      return\n        /* \"src/VestingToken.sol\":5745:5843  function unlockedSupply() external view returns (uint256) {... */\n    tag_19:\n      tag_87\n      tag_88\n      jump\t// in\n    tag_87:\n      mload(0x40)\n      tag_89\n      swap2\n      swap1\n      tag_36\n      jump\t// in\n    tag_89:\n      mload(0x40)\n      dup1\n      swap2\n      sub\n      swap1\n      return\n        /* \"upgradeable/contracts/token/ERC20/ERC20Upgradeable.sol\":2710:2854  function name() public view virtual returns (string memory) {... */\n    tag_24:\n        /* \"upgradeable/contracts/token/ERC20/ERC20Upgradeable.sol\":2755:2768  string memory */\n      0x60\n        /* \"upgradeable/contracts/token/ERC20/ERC20Upgradeable.sol\":2780:2802  ERC20Storage storage $ */\n      0x00\n        /* \"upgradeable/contracts/token/ERC20/ERC20Upgradeable.sol\":2805:2823  _getERC20Storage() */\n      tag_91\n        /* \"upgradeable/contracts/token/ERC20/ERC20Upgradeable.sol\":2805:2821  _getERC20Storage */\n      tag_92\n        /* \"upgradeable/contracts/token/ERC20/ERC20Upgradeable.sol\":2805:2823  _getERC20Storage() */\n      jump\t// in\n    tag_91:\n        /* \"upgradeable/contracts/token/ERC20/ERC20Upgradeable.sol\":2780:2823  ERC20Storage storage $ = _getERC20Storage() */\n      swap1\n      pop\n        /* \"upgradeable/contracts/token/ERC20/ERC20Upgradeable.sol\":2840:2841  $ */\n      dup1\n        /* \"upgradeable/contracts/token/ERC20/ERC20Upgradeable.sol\":2840:2847  $._name */\n      0x03\n      add\n        /* \"upgradeable/contracts/token/ERC20/ERC20Upgradeable.sol\":2833:2847  return $._name */\n      dup1\n      sload\n      tag_93\n      swap1\n      tag_94\n      jump\t// in\n    tag_93:\n      dup1\n      0x1f\n      add\n      0x20\n      dup1\n      swap2\n      div\n      mul\n      0x20\n      add\n      mload(0x40)\n      swap1\n      dup2\n      add\n      0x40\n      mstore\n      dup1\n      swap3\n      swap2\n      swap1\n      dup2\n      dup2\n      mstore\n      0x20\n      add\n      dup3\n      dup1\n      sload\n      tag_95\n      swap1\n      tag_94\n      jump\t// in\n    tag_95:\n      dup1\n      iszero\n      tag_96\n      jumpi\n      dup1\n      0x1f\n      lt\n      tag_97\n      jumpi\n      0x0100\n      dup1\n      dup4\n      sload\n      div\n      mul\n      dup4\n      mstore\n      swap2\n      0x20\n      add\n      swap2\n      jump(tag_96)\n    tag_97:\n      dup3\n      add\n      swap2\n      swap1\n      0x00\n      mstore\n      keccak256(0x00, 0x20)\n      swap1\n    tag_98:\n      dup2\n      sload\n      dup2\n      mstore\n      swap1\n      0x01\n      add\n      swap1\n      0x20\n      add\n      dup1\n      dup4\n      gt\n      tag_98\n      jumpi\n      dup3\n      swap1\n      sub\n      0x1f\n      and\n      dup3\n      add\n      swap2\n    tag_96:\n      pop\n      pop\n      pop\n      pop\n      pop\n      swap2\n      pop\n      pop\n        /* \"upgradeable/contracts/token/ERC20/ERC20Upgradeable.sol\":2710:2854  function name() public view virtual returns (string memory) {... */\n      swap1\n      jump\t// out\n        /* \"upgradeable/contracts/token/ERC20/ERC20Upgradeable.sol\":5204:5390  function approve(address spender, uint256 value) public virtual returns (bool) {... */\n    tag_30:\n        /* \"upgradeable/contracts/token/ERC20/ERC20Upgradeable.sol\":5277:5281  bool */\n      0x00\n        /* \"upgradeable/contracts/token/ERC20/ERC20Upgradeable.sol\":5293:5306  address owner */\n      dup1\n        /* \"upgradeable/contracts/token/ERC20/ERC20Upgradeable.sol\":5309:5321  _msgSender() */\n      tag_100\n        /* \"upgradeable/contracts/token/ERC20/ERC20Upgradeable.sol\":5309:5319  _msgSender */\n      tag_101\n        /* \"upgradeable/contracts/token/ERC20/ERC20Upgradeable.sol\":5309:5321  _msgSender() */\n      jump\t// in\n    tag_100:\n        /* \"upgradeable/contracts/token/ERC20/ERC20Upgradeable.sol\":5293:5321  address owner = _msgSender() */\n      swap1\n      pop\n        /* \"upgradeable/contracts/token/ERC20/ERC20Upgradeable.sol\":5331:5362  _approve(owner, spender, value) */\n      tag_102\n        /* \"upgradeable/contracts/token/ERC20/ERC20Upgradeable.sol\":5340:5345  owner */\n      dup2\n        /* \"upgradeable/contracts/token/ERC20/ERC20Upgradeable.sol\":5347:5354  spender */\n      dup6\n        /* \"upgradeable/contracts/token/ERC20/ERC20Upgradeable.sol\":5356:5361  value */\n      dup6\n        /* \"upgradeable/contracts/token/ERC20/ERC20Upgradeable.sol\":5331:5339  _approve */\n      tag_103\n        /* \"upgradeable/contracts/token/ERC20/ERC20Upgradeable.sol\":5331:5362  _approve(owner, spender, value) */\n      jump\t// in\n    tag_102:\n        /* \"upgradeable/contracts/token/ERC20/ERC20Upgradeable.sol\":5379:5383  true */\n      0x01\n        /* \"upgradeable/contracts/token/ERC20/ERC20Upgradeable.sol\":5372:5383  return true */\n      swap2\n      pop\n      pop\n        /* \"upgradeable/contracts/token/ERC20/ERC20Upgradeable.sol\":5204:5390  function approve(address spender, uint256 value) public virtual returns (bool) {... */\n      swap3\n      swap2\n      pop\n      pop\n      jump\t// out\n        /* \"upgradeable/contracts/token/ERC20/ERC20Upgradeable.sol\":3890:4042  function totalSupply() public view virtual returns (uint256) {... */\n    tag_34:\n        /* \"upgradeable/contracts/token/ERC20/ERC20Upgradeable.sol\":3942:3949  uint256 */\n      0x00\n        /* \"upgradeable/contracts/token/ERC20/ERC20Upgradeable.sol\":3961:3983  ERC20Storage storage $ */\n      dup1\n        /* \"upgradeable/contracts/token/ERC20/ERC20Upgradeable.sol\":3986:4004  _getERC20Storage() */\n      tag_105\n        /* \"upgradeable/contracts/token/ERC20/ERC20Upgradeable.sol\":3986:4002  _getERC20Storage */\n      tag_92\n        /* \"upgradeable/contracts/token/ERC20/ERC20Upgradeable.sol\":3986:4004  _getERC20Storage() */\n      jump\t// in\n    tag_105:\n        /* \"upgradeable/contracts/token/ERC20/ERC20Upgradeable.sol\":3961:4004  ERC20Storage storage $ = _getERC20Storage() */\n      swap1\n      pop\n        /* \"upgradeable/contracts/token/ERC20/ERC20Upgradeable.sol\":4021:4022  $ */\n      dup1\n        /* \"upgradeable/contracts/token/ERC20/ERC20Upgradeable.sol\":4021:4035  $._totalSupply */\n      0x02\n      add\n      sload\n        /* \"upgradeable/contracts/token/ERC20/ERC20Upgradeable.sol\":4014:4035  return $._totalSupply */\n      swap2\n      pop\n      pop\n        /* \"upgradeable/contracts/token/ERC20/ERC20Upgradeable.sol\":3890:4042  function totalSupply() public view virtual returns (uint256) {... */\n      swap1\n      jump\t// out\n        /* \"upgradeable/contracts/token/ERC20/ERC20Upgradeable.sol\":5982:6226  function transferFrom(address from, address to, uint256 value) public virtual returns (bool) {... */\n    tag_40:\n        /* \"upgradeable/contracts/token/ERC20/ERC20Upgradeable.sol\":6069:6073  bool */\n      0x00\n        /* \"upgradeable/contracts/token/ERC20/ERC20Upgradeable.sol\":6085:6100  address spender */\n      dup1\n        /* \"upgradeable/contracts/token/ERC20/ERC20Upgradeable.sol\":6103:6115  _msgSender() */\n      tag_107\n        /* \"upgradeable/contracts/token/ERC20/ERC20Upgradeable.sol\":6103:6113  _msgSender */\n      tag_101\n        /* \"upgradeable/contracts/token/ERC20/ERC20Upgradeable.sol\":6103:6115  _msgSender() */\n      jump\t// in\n    tag_107:\n        /* \"upgradeable/contracts/token/ERC20/ERC20Upgradeable.sol\":6085:6115  address spender = _msgSender() */\n      swap1\n      pop\n        /* \"upgradeable/contracts/token/ERC20/ERC20Upgradeable.sol\":6125:6162  _spendAllowance(from, spender, value) */\n      tag_108\n        /* \"upgradeable/contracts/token/ERC20/ERC20Upgradeable.sol\":6141:6145  from */\n      dup6\n        /* \"upgradeable/contracts/token/ERC20/ERC20Upgradeable.sol\":6147:6154  spender */\n      dup3\n        /* \"upgradeable/contracts/token/ERC20/ERC20Upgradeable.sol\":6156:6161  value */\n      dup6\n        /* \"upgradeable/contracts/token/ERC20/ERC20Upgradeable.sol\":6125:6140  _spendAllowance */\n      tag_109\n        /* \"upgradeable/contracts/token/ERC20/ERC20Upgradeable.sol\":6125:6162  _spendAllowance(from, spender, value) */\n      jump\t// in\n    tag_108:\n        /* \"upgradeable/contracts/token/ERC20/ERC20Upgradeable.sol\":6172:6198  _transfer(from, to, value) */\n      tag_110\n        /* \"upgradeable/contracts/token/ERC20/ERC20Upgradeable.sol\":6182:6186  from */\n      dup6\n        /* \"upgradeable/contracts/token/ERC20/ERC20Upgradeable.sol\":6188:6190  to */\n      dup6\n        /* \"upgradeable/contracts/token/ERC20/ERC20Upgradeable.sol\":6192:6197  value */\n      dup6\n        /* \"upgradeable/contracts/token/ERC20/ERC20Upgradeable.sol\":6172:6181  _transfer */\n      tag_111\n        /* \"upgradeable/contracts/token/ERC20/ERC20Upgradeable.sol\":6172:6198  _transfer(from, to, value) */\n      jump\t// in\n    tag_110:\n        /* \"upgradeable/contracts/token/ERC20/ERC20Upgradeable.sol\":6215:6219  true */\n      0x01\n        /* \"upgradeable/contracts/token/ERC20/ERC20Upgradeable.sol\":6208:6219  return true */\n      swap2\n      pop\n      pop\n        /* \"upgradeable/contracts/token/ERC20/ERC20Upgradeable.sol\":5982:6226  function transferFrom(address from, address to, uint256 value) public virtual returns (bool) {... */\n      swap4\n      swap3\n      pop\n      pop\n      pop\n      jump\t// out\n        /* \"src/VestingToken.sol\":5974:6131  function availableBalanceOf(address account) public view returns (uint256 releasable) {... */\n    tag_45:\n        /* \"src/VestingToken.sol\":6040:6058  uint256 releasable */\n      0x00\n        /* \"src/VestingToken.sol\":6106:6115  _released */\n      0x08\n        /* \"src/VestingToken.sol\":6106:6124  _released[account] */\n      0x00\n        /* \"src/VestingToken.sol\":6116:6123  account */\n      dup4\n        /* \"src/VestingToken.sol\":6106:6124  _released[account] */\n      0xffffffffffffffffffffffffffffffffffffffff\n      and\n      0xffffffffffffffffffffffffffffffffffffffff\n      and\n      dup2\n      mstore\n      0x20\n      add\n      swap1\n      dup2\n      mstore\n      0x20\n      add\n      0x00\n      keccak256\n      sload\n        /* \"src/VestingToken.sol\":6083:6103  _unlockedOf(account) */\n      tag_113\n        /* \"src/VestingToken.sol\":6095:6102  account */\n      dup4\n        /* \"src/VestingToken.sol\":6083:6094  _unlockedOf */\n      tag_114\n        /* \"src/VestingToken.sol\":6083:6103  _unlockedOf(account) */\n      jump\t// in\n    tag_113:\n        /* \"src/VestingToken.sol\":6083:6124  _unlockedOf(account) - _released[account] */\n      tag_115\n      swap2\n      swap1\n      tag_116\n      jump\t// in\n    tag_115:\n        /* \"src/VestingToken.sol\":6070:6124  releasable = _unlockedOf(account) - _released[account] */\n      swap1\n      pop\n        /* \"src/VestingToken.sol\":5974:6131  function availableBalanceOf(address account) public view returns (uint256 releasable) {... */\n      swap2\n      swap1\n      pop\n      jump\t// out\n        /* \"upgradeable/contracts/token/ERC20/ERC20Upgradeable.sol\":3748:3830  function decimals() public view virtual returns (uint8) {... */\n    tag_48:\n        /* \"upgradeable/contracts/token/ERC20/ERC20Upgradeable.sol\":3797:3802  uint8 */\n      0x00\n        /* \"upgradeable/contracts/token/ERC20/ERC20Upgradeable.sol\":3821:3823  18 */\n      0x12\n        /* \"upgradeable/contracts/token/ERC20/ERC20Upgradeable.sol\":3814:3823  return 18 */\n      swap1\n      pop\n        /* \"upgradeable/contracts/token/ERC20/ERC20Upgradeable.sol\":3748:3830  function decimals() public view virtual returns (uint8) {... */\n      swap1\n      jump\t// out\n        /* \"src/VestingToken.sol\":5640:5739  function getVestingSchedule() public view returns (Vesting memory) {... */\n    tag_52:\n        /* \"src/VestingToken.sol\":5691:5705  Vesting memory */\n      tag_118\n      tag_119\n      jump\t// in\n    tag_118:\n        /* \"src/VestingToken.sol\":5724:5732  _vesting */\n      0x03\n        /* \"src/VestingToken.sol\":5717:5732  return _vesting */\n      mload(0x40)\n      dup1\n      0x60\n      add\n      0x40\n      mstore\n      swap1\n      dup2\n      0x00\n      dup3\n      add\n      sload\n      dup2\n      mstore\n      0x20\n      add\n      0x01\n      dup3\n      add\n      sload\n      dup2\n      mstore\n      0x20\n      add\n      0x02\n      dup3\n      add\n      dup1\n      sload\n      dup1\n      0x20\n      mul\n      0x20\n      add\n      mload(0x40)\n      swap1\n      dup2\n      add\n      0x40\n      mstore\n      dup1\n      swap3\n      swap2\n      swap1\n      dup2\n      dup2\n      mstore\n      0x20\n      add\n      0x00\n      swap1\n    tag_121:\n      dup3\n      dup3\n      lt\n      iszero\n      tag_122\n      jumpi\n      dup4\n      dup3\n      swap1\n      0x00\n      mstore\n      keccak256(0x00, 0x20)\n      swap1\n      0x02\n      mul\n      add\n      mload(0x40)\n      dup1\n      0x40\n      add\n      0x40\n      mstore\n      swap1\n      dup2\n      0x00\n      dup3\n      add\n      sload\n      dup2\n      mstore\n      0x20\n      add\n      0x01\n      dup3\n      add\n      sload\n      dup2\n      mstore\n      pop\n      pop\n      dup2\n      mstore\n      0x20\n      add\n      swap1\n      0x01\n      add\n      swap1\n      jump(tag_121)\n    tag_122:\n      pop\n      pop\n      pop\n      pop\n      dup2\n      mstore\n      pop\n      pop\n      swap1\n      pop\n        /* \"src/VestingToken.sol\":5640:5739  function getVestingSchedule() public view returns (Vesting memory) {... */\n      swap1\n      jump\t// out\n        /* \"src/VestingToken.sol\":4684:5043  function mint(address to, uint256 amount) external onlyMinter {... */\n    tag_57:\n        /* \"src/VestingToken.sol\":2031:2038  _minter */\n      0x00\n      dup1\n      sload\n      swap1\n      0x0100\n      exp\n      swap1\n      div\n      0xffffffffffffffffffffffffffffffffffffffff\n      and\n        /* \"src/VestingToken.sol\":2017:2038  msg.sender != _minter */\n      0xffffffffffffffffffffffffffffffffffffffff\n      and\n        /* \"src/VestingToken.sol\":2017:2027  msg.sender */\n      caller\n        /* \"src/VestingToken.sol\":2017:2038  msg.sender != _minter */\n      0xffffffffffffffffffffffffffffffffffffffff\n      and\n      eq\n        /* \"src/VestingToken.sol\":2013:2084  if (msg.sender != _minter) {... */\n      tag_125\n      jumpi\n        /* \"src/VestingToken.sol\":2061:2073  OnlyMinter() */\n      mload(0x40)\n      0x9cdc2ed500000000000000000000000000000000000000000000000000000000\n      dup2\n      mstore\n      0x04\n      add\n      mload(0x40)\n      dup1\n      swap2\n      sub\n      swap1\n      revert\n        /* \"src/VestingToken.sol\":2013:2084  if (msg.sender != _minter) {... */\n    tag_125:\n        /* \"src/VestingToken.sol\":4779:4787  _vesting */\n      0x03\n        /* \"src/VestingToken.sol\":4779:4793  _vesting.cliff */\n      0x01\n      add\n      sload\n        /* \"src/VestingToken.sol\":4760:4775  block.timestamp */\n      timestamp\n        /* \"src/VestingToken.sol\":4760:4793  block.timestamp >= _vesting.cliff */\n      lt\n        /* \"src/VestingToken.sol\":4756:4857  if (block.timestamp >= _vesting.cliff) {... */\n      tag_127\n      jumpi\n        /* \"src/VestingToken.sol\":4816:4846  MintingAfterCliffIsForbidden() */\n      mload(0x40)\n      0xd45c7f9500000000000000000000000000000000000000000000000000000000\n      dup2\n      mstore\n      0x04\n      add\n      mload(0x40)\n      dup1\n      swap2\n      sub\n      swap1\n      revert\n        /* \"src/VestingToken.sol\":4756:4857  if (block.timestamp >= _vesting.cliff) {... */\n    tag_127:\n        /* \"src/VestingToken.sol\":4867:4929  _baseToken.safeTransferFrom(msg.sender, address(this), amount) */\n      tag_128\n        /* \"src/VestingToken.sol\":4895:4905  msg.sender */\n      caller\n        /* \"src/VestingToken.sol\":4915:4919  this */\n      address\n        /* \"src/VestingToken.sol\":4922:4928  amount */\n      dup4\n        /* \"src/VestingToken.sol\":4867:4877  _baseToken */\n      0x02\n      0x00\n      swap1\n      sload\n      swap1\n      0x0100\n      exp\n      swap1\n      div\n      0xffffffffffffffffffffffffffffffffffffffff\n      and\n        /* \"src/VestingToken.sol\":4867:4894  _baseToken.safeTransferFrom */\n      0xffffffffffffffffffffffffffffffffffffffff\n      and\n      tag_129\n      swap1\n        /* \"src/VestingToken.sol\":4867:4929  _baseToken.safeTransferFrom(msg.sender, address(this), amount) */\n      swap4\n      swap3\n      swap2\n      swap1\n      0xffffffff\n      and\n      jump\t// in\n    tag_128:\n        /* \"src/VestingToken.sol\":4940:4957  _mint(to, amount) */\n      tag_130\n        /* \"src/VestingToken.sol\":4946:4948  to */\n      dup3\n        /* \"src/VestingToken.sol\":4950:4956  amount */\n      dup3\n        /* \"src/VestingToken.sol\":4940:4945  _mint */\n      tag_131\n        /* \"src/VestingToken.sol\":4940:4957  _mint(to, amount) */\n      jump\t// in\n    tag_130:\n        /* \"src/VestingToken.sol\":4990:4996  amount */\n      dup1\n        /* \"src/VestingToken.sol\":4968:4982  _initialLocked */\n      0x07\n        /* \"src/VestingToken.sol\":4968:4986  _initialLocked[to] */\n      0x00\n        /* \"src/VestingToken.sol\":4983:4985  to */\n      dup5\n        /* \"src/VestingToken.sol\":4968:4986  _initialLocked[to] */\n      0xffffffffffffffffffffffffffffffffffffffff\n      and\n      0xffffffffffffffffffffffffffffffffffffffff\n      and\n      dup2\n      mstore\n      0x20\n      add\n      swap1\n      dup2\n      mstore\n      0x20\n      add\n      0x00\n      keccak256\n      0x00\n        /* \"src/VestingToken.sol\":4968:4996  _initialLocked[to] += amount */\n      dup3\n      dup3\n      sload\n      tag_132\n      swap2\n      swap1\n      tag_133\n      jump\t// in\n    tag_132:\n      swap3\n      pop\n      pop\n      dup2\n      swap1\n      sstore\n      pop\n        /* \"src/VestingToken.sol\":5030:5036  amount */\n      dup1\n        /* \"src/VestingToken.sol\":5006:5026  _initialLockedSupply */\n      0x06\n      0x00\n        /* \"src/VestingToken.sol\":5006:5036  _initialLockedSupply += amount */\n      dup3\n      dup3\n      sload\n      tag_134\n      swap2\n      swap1\n      tag_133\n      jump\t// in\n    tag_134:\n      swap3\n      pop\n      pop\n      dup2\n      swap1\n      sstore\n      pop\n        /* \"src/VestingToken.sol\":4684:5043  function mint(address to, uint256 amount) external onlyMinter {... */\n      pop\n      pop\n      jump\t// out\n        /* \"src/VestingToken.sol\":3163:3624  function setVestingSchedule(uint256 startTime, uint256 cliff, Schedule[] calldata schedule)... */\n    tag_61:\n        /* \"src/VestingToken.sol\":2166:2181  _vestingManager */\n      0x01\n      0x00\n      swap1\n      sload\n      swap1\n      0x0100\n      exp\n      swap1\n      div\n      0xffffffffffffffffffffffffffffffffffffffff\n      and\n        /* \"src/VestingToken.sol\":2152:2181  msg.sender != _vestingManager */\n      0xffffffffffffffffffffffffffffffffffffffff\n      and\n        /* \"src/VestingToken.sol\":2152:2162  msg.sender */\n      caller\n        /* \"src/VestingToken.sol\":2152:2181  msg.sender != _vestingManager */\n      0xffffffffffffffffffffffffffffffffffffffff\n      and\n      eq\n        /* \"src/VestingToken.sol\":2148:2235  if (msg.sender != _vestingManager) {... */\n      tag_136\n      jumpi\n        /* \"src/VestingToken.sol\":2204:2224  OnlyVestingManager() */\n      mload(0x40)\n      0x8eccd8b900000000000000000000000000000000000000000000000000000000\n      dup2\n      mstore\n      0x04\n      add\n      mload(0x40)\n      dup1\n      swap2\n      sub\n      swap1\n      revert\n        /* \"src/VestingToken.sol\":2148:2235  if (msg.sender != _vestingManager) {... */\n    tag_136:\n        /* \"src/VestingToken.sol\":3313:3335  uint256 scheduleLength */\n      0x00\n        /* \"src/VestingToken.sol\":3338:3346  schedule */\n      dup3\n      dup3\n        /* \"src/VestingToken.sol\":3338:3353  schedule.length */\n      swap1\n      pop\n        /* \"src/VestingToken.sol\":3313:3353  uint256 scheduleLength = schedule.length */\n      swap1\n      pop\n        /* \"src/VestingToken.sol\":3364:3429  _checkVestingSchedule(startTime, cliff, schedule, scheduleLength) */\n      tag_138\n        /* \"src/VestingToken.sol\":3386:3395  startTime */\n      dup6\n        /* \"src/VestingToken.sol\":3397:3402  cliff */\n      dup6\n        /* \"src/VestingToken.sol\":3404:3412  schedule */\n      dup6\n      dup6\n        /* \"src/VestingToken.sol\":3414:3428  scheduleLength */\n      dup6\n        /* \"src/VestingToken.sol\":3364:3385  _checkVestingSchedule */\n      tag_139\n        /* \"src/VestingToken.sol\":3364:3429  _checkVestingSchedule(startTime, cliff, schedule, scheduleLength) */\n      jump\t// in\n    tag_138:\n        /* \"src/VestingToken.sol\":3461:3470  startTime */\n      dup5\n        /* \"src/VestingToken.sol\":3440:3448  _vesting */\n      0x03\n        /* \"src/VestingToken.sol\":3440:3458  _vesting.startTime */\n      0x00\n      add\n        /* \"src/VestingToken.sol\":3440:3470  _vesting.startTime = startTime */\n      dup2\n      swap1\n      sstore\n      pop\n        /* \"src/VestingToken.sol\":3497:3502  cliff */\n      dup4\n        /* \"src/VestingToken.sol\":3480:3488  _vesting */\n      0x03\n        /* \"src/VestingToken.sol\":3480:3494  _vesting.cliff */\n      0x01\n      add\n        /* \"src/VestingToken.sol\":3480:3502  _vesting.cliff = cliff */\n      dup2\n      swap1\n      sstore\n      pop\n        /* \"src/VestingToken.sol\":3518:3527  uint256 i */\n      0x00\n        /* \"src/VestingToken.sol\":3513:3618  for (uint256 i = 0; i < scheduleLength; i++) {... */\n    tag_140:\n        /* \"src/VestingToken.sol\":3537:3551  scheduleLength */\n      dup2\n        /* \"src/VestingToken.sol\":3533:3534  i */\n      dup2\n        /* \"src/VestingToken.sol\":3533:3551  i < scheduleLength */\n      lt\n        /* \"src/VestingToken.sol\":3513:3618  for (uint256 i = 0; i < scheduleLength; i++) {... */\n      iszero\n      tag_141\n      jumpi\n        /* \"src/VestingToken.sol\":3572:3580  _vesting */\n      0x03\n        /* \"src/VestingToken.sol\":3572:3589  _vesting.schedule */\n      0x02\n      add\n        /* \"src/VestingToken.sol\":3595:3603  schedule */\n      dup5\n      dup5\n        /* \"src/VestingToken.sol\":3604:3605  i */\n      dup4\n        /* \"src/VestingToken.sol\":3595:3606  schedule[i] */\n      dup2\n      dup2\n      lt\n      tag_143\n      jumpi\n      tag_144\n      tag_145\n      jump\t// in\n    tag_144:\n    tag_143:\n      swap1\n      pop\n      0x40\n      mul\n      add\n        /* \"src/VestingToken.sol\":3572:3607  _vesting.schedule.push(schedule[i]) */\n      swap1\n      dup1\n      0x01\n      dup2\n      sload\n      add\n      dup1\n      dup3\n      sstore\n      dup1\n      swap2\n      pop\n      pop\n      0x01\n      swap1\n      sub\n      swap1\n      0x00\n      mstore\n      keccak256(0x00, 0x20)\n      swap1\n      0x02\n      mul\n      add\n      0x00\n      swap1\n      swap2\n      swap1\n      swap2\n      swap1\n      swap2\n      pop\n      dup2\n      dup2\n      tag_147\n      swap2\n      swap1\n      tag_148\n      jump\t// in\n    tag_147:\n      pop\n      pop\n        /* \"src/VestingToken.sol\":3553:3556  i++ */\n      dup1\n      dup1\n      0x01\n      add\n      swap2\n      pop\n      pop\n        /* \"src/VestingToken.sol\":3513:3618  for (uint256 i = 0; i < scheduleLength; i++) {... */\n      jump(tag_140)\n    tag_141:\n      pop\n        /* \"src/VestingToken.sol\":3303:3624  {... */\n      pop\n        /* \"src/VestingToken.sol\":3163:3624  function setVestingSchedule(uint256 startTime, uint256 cliff, Schedule[] calldata schedule)... */\n      pop\n      pop\n      pop\n      pop\n      jump\t// out\n        /* \"src/VestingToken.sol\":5259:5583  function claim() external {... */\n    tag_63:\n        /* \"src/VestingToken.sol\":5295:5313  uint256 releasable */\n      0x00\n        /* \"src/VestingToken.sol\":5316:5346  availableBalanceOf(msg.sender) */\n      tag_150\n        /* \"src/VestingToken.sol\":5335:5345  msg.sender */\n      caller\n        /* \"src/VestingToken.sol\":5316:5334  availableBalanceOf */\n      tag_45\n        /* \"src/VestingToken.sol\":5316:5346  availableBalanceOf(msg.sender) */\n      jump\t// in\n    tag_150:\n        /* \"src/VestingToken.sol\":5295:5346  uint256 releasable = availableBalanceOf(msg.sender) */\n      swap1\n      pop\n        /* \"src/VestingToken.sol\":5375:5376  0 */\n      0x00\n        /* \"src/VestingToken.sol\":5361:5371  releasable */\n      dup2\n        /* \"src/VestingToken.sol\":5361:5376  releasable == 0 */\n      sub\n        /* \"src/VestingToken.sol\":5357:5434  if (releasable == 0) {... */\n      tag_151\n      jumpi\n        /* \"src/VestingToken.sol\":5399:5423  NotEnoughTokensToClaim() */\n      mload(0x40)\n      0x08bc1cf600000000000000000000000000000000000000000000000000000000\n      dup2\n      mstore\n      0x04\n      add\n      mload(0x40)\n      dup1\n      swap2\n      sub\n      swap1\n      revert\n        /* \"src/VestingToken.sol\":5357:5434  if (releasable == 0) {... */\n    tag_151:\n        /* \"src/VestingToken.sol\":5469:5479  releasable */\n      dup1\n        /* \"src/VestingToken.sol\":5444:5453  _released */\n      0x08\n        /* \"src/VestingToken.sol\":5444:5465  _released[msg.sender] */\n      0x00\n        /* \"src/VestingToken.sol\":5454:5464  msg.sender */\n      caller\n        /* \"src/VestingToken.sol\":5444:5465  _released[msg.sender] */\n      0xffffffffffffffffffffffffffffffffffffffff\n      and\n      0xffffffffffffffffffffffffffffffffffffffff\n      and\n      dup2\n      mstore\n      0x20\n      add\n      swap1\n      dup2\n      mstore\n      0x20\n      add\n      0x00\n      keccak256\n      0x00\n        /* \"src/VestingToken.sol\":5444:5479  _released[msg.sender] += releasable */\n      dup3\n      dup3\n      sload\n      tag_152\n      swap2\n      swap1\n      tag_133\n      jump\t// in\n    tag_152:\n      swap3\n      pop\n      pop\n      dup2\n      swap1\n      sstore\n      pop\n        /* \"src/VestingToken.sol\":5490:5519  _burn(msg.sender, releasable) */\n      tag_153\n        /* \"src/VestingToken.sol\":5496:5506  msg.sender */\n      caller\n        /* \"src/VestingToken.sol\":5508:5518  releasable */\n      dup3\n        /* \"src/VestingToken.sol\":5490:5495  _burn */\n      tag_154\n        /* \"src/VestingToken.sol\":5490:5519  _burn(msg.sender, releasable) */\n      jump\t// in\n    tag_153:\n        /* \"src/VestingToken.sol\":5529:5576  _baseToken.safeTransfer(msg.sender, releasable) */\n      tag_155\n        /* \"src/VestingToken.sol\":5553:5563  msg.sender */\n      caller\n        /* \"src/VestingToken.sol\":5565:5575  releasable */\n      dup3\n        /* \"src/VestingToken.sol\":5529:5539  _baseToken */\n      0x02\n      0x00\n      swap1\n      sload\n      swap1\n      0x0100\n      exp\n      swap1\n      div\n      0xffffffffffffffffffffffffffffffffffffffff\n      and\n        /* \"src/VestingToken.sol\":5529:5552  _baseToken.safeTransfer */\n      0xffffffffffffffffffffffffffffffffffffffff\n      and\n      tag_156\n      swap1\n        /* \"src/VestingToken.sol\":5529:5576  _baseToken.safeTransfer(msg.sender, releasable) */\n      swap3\n      swap2\n      swap1\n      0xffffffff\n      and\n      jump\t// in\n    tag_155:\n        /* \"src/VestingToken.sol\":5285:5583  {... */\n      pop\n        /* \"src/VestingToken.sol\":5259:5583  function claim() external {... */\n      jump\t// out\n        /* \"upgradeable/contracts/token/ERC20/ERC20Upgradeable.sol\":4100:4271  function balanceOf(address account) public view virtual returns (uint256) {... */\n    tag_66:\n        /* \"upgradeable/contracts/token/ERC20/ERC20Upgradeable.sol\":4165:4172  uint256 */\n      0x00\n        /* \"upgradeable/contracts/token/ERC20/ERC20Upgradeable.sol\":4184:4206  ERC20Storage storage $ */\n      dup1\n        /* \"upgradeable/contracts/token/ERC20/ERC20Upgradeable.sol\":4209:4227  _getERC20Storage() */\n      tag_158\n        /* \"upgradeable/contracts/token/ERC20/ERC20Upgradeable.sol\":4209:4225  _getERC20Storage */\n      tag_92\n        /* \"upgradeable/contracts/token/ERC20/ERC20Upgradeable.sol\":4209:4227  _getERC20Storage() */\n      jump\t// in\n    tag_158:\n        /* \"upgradeable/contracts/token/ERC20/ERC20Upgradeable.sol\":4184:4227  ERC20Storage storage $ = _getERC20Storage() */\n      swap1\n      pop\n        /* \"upgradeable/contracts/token/ERC20/ERC20Upgradeable.sol\":4244:4245  $ */\n      dup1\n        /* \"upgradeable/contracts/token/ERC20/ERC20Upgradeable.sol\":4244:4255  $._balances */\n      0x00\n      add\n        /* \"upgradeable/contracts/token/ERC20/ERC20Upgradeable.sol\":4244:4264  $._balances[account] */\n      0x00\n        /* \"upgradeable/contracts/token/ERC20/ERC20Upgradeable.sol\":4256:4263  account */\n      dup5\n        /* \"upgradeable/contracts/token/ERC20/ERC20Upgradeable.sol\":4244:4264  $._balances[account] */\n      0xffffffffffffffffffffffffffffffffffffffff\n      and\n      0xffffffffffffffffffffffffffffffffffffffff\n      and\n      dup2\n      mstore\n      0x20\n      add\n      swap1\n      dup2\n      mstore\n      0x20\n      add\n      0x00\n      keccak256\n      sload\n        /* \"upgradeable/contracts/token/ERC20/ERC20Upgradeable.sol\":4237:4264  return $._balances[account] */\n      swap2\n      pop\n      pop\n        /* \"upgradeable/contracts/token/ERC20/ERC20Upgradeable.sol\":4100:4271  function balanceOf(address account) public view virtual returns (uint256) {... */\n      swap2\n      swap1\n      pop\n      jump\t// out\n        /* \"src/VestingToken.sol\":2544:2832  function initialize(string calldata name, string calldata symbol, address minter, address baseToken)... */\n    tag_71:\n        /* \"upgradeable/contracts/proxy/utils/Initializable.sol\":4225:4255  InitializableStorage storage $ */\n      0x00\n        /* \"upgradeable/contracts/proxy/utils/Initializable.sol\":4258:4284  _getInitializableStorage() */\n      tag_160\n        /* \"upgradeable/contracts/proxy/utils/Initializable.sol\":4258:4282  _getInitializableStorage */\n      tag_161\n        /* \"upgradeable/contracts/proxy/utils/Initializable.sol\":4258:4284  _getInitializableStorage() */\n      jump\t// in\n    tag_160:\n        /* \"upgradeable/contracts/proxy/utils/Initializable.sol\":4225:4284  InitializableStorage storage $ = _getInitializableStorage() */\n      swap1\n      pop\n        /* \"upgradeable/contracts/proxy/utils/Initializable.sol\":4346:4365  bool isTopLevelCall */\n      0x00\n        /* \"upgradeable/contracts/proxy/utils/Initializable.sol\":4369:4370  $ */\n      dup2\n        /* \"upgradeable/contracts/proxy/utils/Initializable.sol\":4369:4384  $._initializing */\n      0x00\n      add\n      0x08\n      swap1\n      sload\n      swap1\n      0x0100\n      exp\n      swap1\n      div\n      0xff\n      and\n        /* \"upgradeable/contracts/proxy/utils/Initializable.sol\":4368:4384  !$._initializing */\n      iszero\n        /* \"upgradeable/contracts/proxy/utils/Initializable.sol\":4346:4384  bool isTopLevelCall = !$._initializing */\n      swap1\n      pop\n        /* \"upgradeable/contracts/proxy/utils/Initializable.sol\":4394:4412  uint64 initialized */\n      0x00\n        /* \"upgradeable/contracts/proxy/utils/Initializable.sol\":4415:4416  $ */\n      dup3\n        /* \"upgradeable/contracts/proxy/utils/Initializable.sol\":4415:4429  $._initialized */\n      0x00\n      add\n      0x00\n      swap1\n      sload\n      swap1\n      0x0100\n      exp\n      swap1\n      div\n      0xffffffffffffffff\n      and\n        /* \"upgradeable/contracts/proxy/utils/Initializable.sol\":4394:4429  uint64 initialized = $._initialized */\n      swap1\n      pop\n        /* \"upgradeable/contracts/proxy/utils/Initializable.sol\":4773:4790  bool initialSetup */\n      0x00\n        /* \"upgradeable/contracts/proxy/utils/Initializable.sol\":4808:4809  0 */\n      dup1\n        /* \"upgradeable/contracts/proxy/utils/Initializable.sol\":4793:4804  initialized */\n      dup3\n        /* \"upgradeable/contracts/proxy/utils/Initializable.sol\":4793:4809  initialized == 0 */\n      0xffffffffffffffff\n      and\n      eq\n        /* \"upgradeable/contracts/proxy/utils/Initializable.sol\":4793:4827  initialized == 0 && isTopLevelCall */\n      dup1\n      iszero\n      tag_162\n      jumpi\n      pop\n        /* \"upgradeable/contracts/proxy/utils/Initializable.sol\":4813:4827  isTopLevelCall */\n      dup3\n        /* \"upgradeable/contracts/proxy/utils/Initializable.sol\":4793:4827  initialized == 0 && isTopLevelCall */\n    tag_162:\n        /* \"upgradeable/contracts/proxy/utils/Initializable.sol\":4773:4827  bool initialSetup = initialized == 0 && isTopLevelCall */\n      swap1\n      pop\n        /* \"upgradeable/contracts/proxy/utils/Initializable.sol\":4837:4854  bool construction */\n      0x00\n        /* \"upgradeable/contracts/proxy/utils/Initializable.sol\":4872:4873  1 */\n      0x01\n        /* \"upgradeable/contracts/proxy/utils/Initializable.sol\":4857:4868  initialized */\n      dup4\n        /* \"upgradeable/contracts/proxy/utils/Initializable.sol\":4857:4873  initialized == 1 */\n      0xffffffffffffffff\n      and\n      eq\n        /* \"upgradeable/contracts/proxy/utils/Initializable.sol\":4857:4907  initialized == 1 && address(this).code.length == 0 */\n      dup1\n      iszero\n      tag_163\n      jumpi\n      pop\n        /* \"upgradeable/contracts/proxy/utils/Initializable.sol\":4906:4907  0 */\n      0x00\n        /* \"upgradeable/contracts/proxy/utils/Initializable.sol\":4885:4889  this */\n      address\n        /* \"upgradeable/contracts/proxy/utils/Initializable.sol\":4877:4902  address(this).code.length */\n      0xffffffffffffffffffffffffffffffffffffffff\n      and\n      extcodesize\n        /* \"upgradeable/contracts/proxy/utils/Initializable.sol\":4877:4907  address(this).code.length == 0 */\n      eq\n        /* \"upgradeable/contracts/proxy/utils/Initializable.sol\":4857:4907  initialized == 1 && address(this).code.length == 0 */\n    tag_163:\n        /* \"upgradeable/contracts/proxy/utils/Initializable.sol\":4837:4907  bool construction = initialized == 1 && address(this).code.length == 0 */\n      swap1\n      pop\n        /* \"upgradeable/contracts/proxy/utils/Initializable.sol\":4923:4935  initialSetup */\n      dup2\n        /* \"upgradeable/contracts/proxy/utils/Initializable.sol\":4922:4935  !initialSetup */\n      iszero\n        /* \"upgradeable/contracts/proxy/utils/Initializable.sol\":4922:4952  !initialSetup && !construction */\n      dup1\n      iszero\n      tag_164\n      jumpi\n      pop\n        /* \"upgradeable/contracts/proxy/utils/Initializable.sol\":4940:4952  construction */\n      dup1\n        /* \"upgradeable/contracts/proxy/utils/Initializable.sol\":4939:4952  !construction */\n      iszero\n        /* \"upgradeable/contracts/proxy/utils/Initializable.sol\":4922:4952  !initialSetup && !construction */\n    tag_164:\n        /* \"upgradeable/contracts/proxy/utils/Initializable.sol\":4918:5009  if (!initialSetup && !construction) {... */\n      iszero\n      tag_165\n      jumpi\n        /* \"upgradeable/contracts/proxy/utils/Initializable.sol\":4975:4998  InvalidInitialization() */\n      mload(0x40)\n      0xf92ee8a900000000000000000000000000000000000000000000000000000000\n      dup2\n      mstore\n      0x04\n      add\n      mload(0x40)\n      dup1\n      swap2\n      sub\n      swap1\n      revert\n        /* \"upgradeable/contracts/proxy/utils/Initializable.sol\":4918:5009  if (!initialSetup && !construction) {... */\n    tag_165:\n        /* \"upgradeable/contracts/proxy/utils/Initializable.sol\":5035:5036  1 */\n      0x01\n        /* \"upgradeable/contracts/proxy/utils/Initializable.sol\":5018:5019  $ */\n      dup6\n        /* \"upgradeable/contracts/proxy/utils/Initializable.sol\":5018:5032  $._initialized */\n      0x00\n      add\n      0x00\n        /* \"upgradeable/contracts/proxy/utils/Initializable.sol\":5018:5036  $._initialized = 1 */\n      0x0100\n      exp\n      dup2\n      sload\n      dup2\n      0xffffffffffffffff\n      mul\n      not\n      and\n      swap1\n      dup4\n      0xffffffffffffffff\n      and\n      mul\n      or\n      swap1\n      sstore\n      pop\n        /* \"upgradeable/contracts/proxy/utils/Initializable.sol\":5050:5064  isTopLevelCall */\n      dup4\n        /* \"upgradeable/contracts/proxy/utils/Initializable.sol\":5046:5113  if (isTopLevelCall) {... */\n      iszero\n      tag_166\n      jumpi\n        /* \"upgradeable/contracts/proxy/utils/Initializable.sol\":5098:5102  true */\n      0x01\n        /* \"upgradeable/contracts/proxy/utils/Initializable.sol\":5080:5081  $ */\n      dup6\n        /* \"upgradeable/contracts/proxy/utils/Initializable.sol\":5080:5095  $._initializing */\n      0x00\n      add\n      0x08\n        /* \"upgradeable/contracts/proxy/utils/Initializable.sol\":5080:5102  $._initializing = true */\n      0x0100\n      exp\n      dup2\n      sload\n      dup2\n      0xff\n      mul\n      not\n      and\n      swap1\n      dup4\n      iszero\n      iszero\n      mul\n      or\n      swap1\n      sstore\n      pop\n        /* \"upgradeable/contracts/proxy/utils/Initializable.sol\":5046:5113  if (isTopLevelCall) {... */\n    tag_166:\n        /* \"src/VestingToken.sol\":2694:2720  __ERC20_init(name, symbol) */\n      tag_168\n        /* \"src/VestingToken.sol\":2707:2711  name */\n      dup12\n      dup12\n        /* \"src/VestingToken.sol\":2694:2720  __ERC20_init(name, symbol) */\n      dup1\n      dup1\n      0x1f\n      add\n      0x20\n      dup1\n      swap2\n      div\n      mul\n      0x20\n      add\n      mload(0x40)\n      swap1\n      dup2\n      add\n      0x40\n      mstore\n      dup1\n      swap4\n      swap3\n      swap2\n      swap1\n      dup2\n      dup2\n      mstore\n      0x20\n      add\n      dup4\n      dup4\n      dup1\n      dup3\n      dup5\n      calldatacopy\n      0x00\n      dup2\n      dup5\n      add\n      mstore\n      not(0x1f)\n      0x1f\n      dup3\n      add\n      and\n      swap1\n      pop\n      dup1\n      dup4\n      add\n      swap3\n      pop\n      pop\n      pop\n      pop\n      pop\n      pop\n      pop\n        /* \"src/VestingToken.sol\":2713:2719  symbol */\n      dup11\n      dup11\n        /* \"src/VestingToken.sol\":2694:2720  __ERC20_init(name, symbol) */\n      dup1\n      dup1\n      0x1f\n      add\n      0x20\n      dup1\n      swap2\n      div\n      mul\n      0x20\n      add\n      mload(0x40)\n      swap1\n      dup2\n      add\n      0x40\n      mstore\n      dup1\n      swap4\n      swap3\n      swap2\n      swap1\n      dup2\n      dup2\n      mstore\n      0x20\n      add\n      dup4\n      dup4\n      dup1\n      dup3\n      dup5\n      calldatacopy\n      0x00\n      dup2\n      dup5\n      add\n      mstore\n      not(0x1f)\n      0x1f\n      dup3\n      add\n      and\n      swap1\n      pop\n      dup1\n      dup4\n      add\n      swap3\n      pop\n      pop\n      pop\n      pop\n      pop\n      pop\n      pop\n        /* \"src/VestingToken.sol\":2694:2706  __ERC20_init */\n      tag_169\n        /* \"src/VestingToken.sol\":2694:2720  __ERC20_init(name, symbol) */\n      jump\t// in\n    tag_168:\n        /* \"src/VestingToken.sol\":2741:2747  minter */\n      dup7\n        /* \"src/VestingToken.sol\":2731:2738  _minter */\n      0x00\n      dup1\n        /* \"src/VestingToken.sol\":2731:2747  _minter = minter */\n      0x0100\n      exp\n      dup2\n      sload\n      dup2\n      0xffffffffffffffffffffffffffffffffffffffff\n      mul\n      not\n      and\n      swap1\n      dup4\n      0xffffffffffffffffffffffffffffffffffffffff\n      and\n      mul\n      or\n      swap1\n      sstore\n      pop\n        /* \"src/VestingToken.sol\":2777:2786  baseToken */\n      dup6\n        /* \"src/VestingToken.sol\":2757:2767  _baseToken */\n      0x02\n      0x00\n        /* \"src/VestingToken.sol\":2757:2787  _baseToken = IERC20(baseToken) */\n      0x0100\n      exp\n      dup2\n      sload\n      dup2\n      0xffffffffffffffffffffffffffffffffffffffff\n      mul\n      not\n      and\n      swap1\n      dup4\n      0xffffffffffffffffffffffffffffffffffffffff\n      and\n      mul\n      or\n      swap1\n      sstore\n      pop\n        /* \"src/VestingToken.sol\":2815:2825  msg.sender */\n      caller\n        /* \"src/VestingToken.sol\":2797:2812  _vestingManager */\n      0x01\n      0x00\n        /* \"src/VestingToken.sol\":2797:2825  _vestingManager = msg.sender */\n      0x0100\n      exp\n      dup2\n      sload\n      dup2\n      0xffffffffffffffffffffffffffffffffffffffff\n      mul\n      not\n      and\n      swap1\n      dup4\n      0xffffffffffffffffffffffffffffffffffffffff\n      and\n      mul\n      or\n      swap1\n      sstore\n      pop\n        /* \"upgradeable/contracts/proxy/utils/Initializable.sol\":5137:5151  isTopLevelCall */\n      dup4\n        /* \"upgradeable/contracts/proxy/utils/Initializable.sol\":5133:5234  if (isTopLevelCall) {... */\n      iszero\n      tag_170\n      jumpi\n        /* \"upgradeable/contracts/proxy/utils/Initializable.sol\":5185:5190  false */\n      0x00\n        /* \"upgradeable/contracts/proxy/utils/Initializable.sol\":5167:5168  $ */\n      dup6\n        /* \"upgradeable/contracts/proxy/utils/Initializable.sol\":5167:5182  $._initializing */\n      0x00\n      add\n      0x08\n        /* \"upgradeable/contracts/proxy/utils/Initializable.sol\":5167:5190  $._initializing = false */\n      0x0100\n      exp\n      dup2\n      sload\n      dup2\n      0xff\n      mul\n      not\n      and\n      swap1\n      dup4\n      iszero\n      iszero\n      mul\n      or\n      swap1\n      sstore\n      pop\n        /* \"upgradeable/contracts/proxy/utils/Initializable.sol\":5209:5223  Initialized(1) */\n      0xc7f505b2f371ae2175ee4913f4499e1f2633a7b5936321eed1cdaeb6115181d2\n        /* \"upgradeable/contracts/proxy/utils/Initializable.sol\":5221:5222  1 */\n      0x01\n        /* \"upgradeable/contracts/proxy/utils/Initializable.sol\":5209:5223  Initialized(1) */\n      mload(0x40)\n      tag_171\n      swap2\n      swap1\n      tag_172\n      jump\t// in\n    tag_171:\n      mload(0x40)\n      dup1\n      swap2\n      sub\n      swap1\n      log1\n        /* \"upgradeable/contracts/proxy/utils/Initializable.sol\":5133:5234  if (isTopLevelCall) {... */\n    tag_170:\n        /* \"upgradeable/contracts/proxy/utils/Initializable.sol\":4159:5240  {... */\n      pop\n      pop\n      pop\n      pop\n      pop\n        /* \"src/VestingToken.sol\":2544:2832  function initialize(string calldata name, string calldata symbol, address minter, address baseToken)... */\n      pop\n      pop\n      pop\n      pop\n      pop\n      pop\n      jump\t// out\n        /* \"upgradeable/contracts/token/ERC20/ERC20Upgradeable.sol\":2967:3115  function symbol() public view virtual returns (string memory) {... */\n    tag_73:\n        /* \"upgradeable/contracts/token/ERC20/ERC20Upgradeable.sol\":3014:3027  string memory */\n      0x60\n        /* \"upgradeable/contracts/token/ERC20/ERC20Upgradeable.sol\":3039:3061  ERC20Storage storage $ */\n      0x00\n        /* \"upgradeable/contracts/token/ERC20/ERC20Upgradeable.sol\":3064:3082  _getERC20Storage() */\n      tag_174\n        /* \"upgradeable/contracts/token/ERC20/ERC20Upgradeable.sol\":3064:3080  _getERC20Storage */\n      tag_92\n        /* \"upgradeable/contracts/token/ERC20/ERC20Upgradeable.sol\":3064:3082  _getERC20Storage() */\n      jump\t// in\n    tag_174:\n        /* \"upgradeable/contracts/token/ERC20/ERC20Upgradeable.sol\":3039:3082  ERC20Storage storage $ = _getERC20Storage() */\n      swap1\n      pop\n        /* \"upgradeable/contracts/token/ERC20/ERC20Upgradeable.sol\":3099:3100  $ */\n      dup1\n        /* \"upgradeable/contracts/token/ERC20/ERC20Upgradeable.sol\":3099:3108  $._symbol */\n      0x04\n      add\n        /* \"upgradeable/contracts/token/ERC20/ERC20Upgradeable.sol\":3092:3108  return $._symbol */\n      dup1\n      sload\n      tag_175\n      swap1\n      tag_94\n      jump\t// in\n    tag_175:\n      dup1\n      0x1f\n      add\n      0x20\n      dup1\n      swap2\n      div\n      mul\n      0x20\n      add\n      mload(0x40)\n      swap1\n      dup2\n      add\n      0x40\n      mstore\n      dup1\n      swap3\n      swap2\n      swap1\n      dup2\n      dup2\n      mstore\n      0x20\n      add\n      dup3\n      dup1\n      sload\n      tag_176\n      swap1\n      tag_94\n      jump\t// in\n    tag_176:\n      dup1\n      iszero\n      tag_177\n      jumpi\n      dup1\n      0x1f\n      lt\n      tag_178\n      jumpi\n      0x0100\n      dup1\n      dup4\n      sload\n      div\n      mul\n      dup4\n      mstore\n      swap2\n      0x20\n      add\n      swap2\n      jump(tag_177)\n    tag_178:\n      dup3\n      add\n      swap2\n      swap1\n      0x00\n      mstore\n      keccak256(0x00, 0x20)\n      swap1\n    tag_179:\n      dup2\n      sload\n      dup2\n      mstore\n      swap1\n      0x01\n      add\n      swap1\n      0x20\n      add\n      dup1\n      dup4\n      gt\n      tag_179\n      jumpi\n      dup3\n      swap1\n      sub\n      0x1f\n      and\n      dup3\n      add\n      swap2\n    tag_177:\n      pop\n      pop\n      pop\n      pop\n      pop\n      swap2\n      pop\n      pop\n        /* \"upgradeable/contracts/token/ERC20/ERC20Upgradeable.sol\":2967:3115  function symbol() public view virtual returns (string memory) {... */\n      swap1\n      jump\t// out\n        /* \"upgradeable/contracts/token/ERC20/ERC20Upgradeable.sol\":4466:4644  function transfer(address to, uint256 value) public virtual returns (bool) {... */\n    tag_77:\n        /* \"upgradeable/contracts/token/ERC20/ERC20Upgradeable.sol\":4535:4539  bool */\n      0x00\n        /* \"upgradeable/contracts/token/ERC20/ERC20Upgradeable.sol\":4551:4564  address owner */\n      dup1\n        /* \"upgradeable/contracts/token/ERC20/ERC20Upgradeable.sol\":4567:4579  _msgSender() */\n      tag_181\n        /* \"upgradeable/contracts/token/ERC20/ERC20Upgradeable.sol\":4567:4577  _msgSender */\n      tag_101\n        /* \"upgradeable/contracts/token/ERC20/ERC20Upgradeable.sol\":4567:4579  _msgSender() */\n      jump\t// in\n    tag_181:\n        /* \"upgradeable/contracts/token/ERC20/ERC20Upgradeable.sol\":4551:4579  address owner = _msgSender() */\n      swap1\n      pop\n        /* \"upgradeable/contracts/token/ERC20/ERC20Upgradeable.sol\":4589:4616  _transfer(owner, to, value) */\n      tag_182\n        /* \"upgradeable/contracts/token/ERC20/ERC20Upgradeable.sol\":4599:4604  owner */\n      dup2\n        /* \"upgradeable/contracts/token/ERC20/ERC20Upgradeable.sol\":4606:4608  to */\n      dup6\n        /* \"upgradeable/contracts/token/ERC20/ERC20Upgradeable.sol\":4610:4615  value */\n      dup6\n        /* \"upgradeable/contracts/token/ERC20/ERC20Upgradeable.sol\":4589:4598  _transfer */\n      tag_111\n        /* \"upgradeable/contracts/token/ERC20/ERC20Upgradeable.sol\":4589:4616  _transfer(owner, to, value) */\n      jump\t// in\n    tag_182:\n        /* \"upgradeable/contracts/token/ERC20/ERC20Upgradeable.sol\":4633:4637  true */\n      0x01\n        /* \"upgradeable/contracts/token/ERC20/ERC20Upgradeable.sol\":4626:4637  return true */\n      swap2\n      pop\n      pop\n        /* \"upgradeable/contracts/token/ERC20/ERC20Upgradeable.sol\":4466:4644  function transfer(address to, uint256 value) public virtual returns (bool) {... */\n      swap3\n      swap2\n      pop\n      pop\n      jump\t// out\n        /* \"src/VestingToken.sol\":5849:5968  function lockedSupply() external view returns (uint256) {... */\n    tag_80:\n        /* \"src/VestingToken.sol\":5896:5903  uint256 */\n      0x00\n        /* \"src/VestingToken.sol\":5945:5961  _totalUnlocked() */\n      tag_184\n        /* \"src/VestingToken.sol\":5945:5959  _totalUnlocked */\n      tag_185\n        /* \"src/VestingToken.sol\":5945:5961  _totalUnlocked() */\n      jump\t// in\n    tag_184:\n        /* \"src/VestingToken.sol\":5922:5942  _initialLockedSupply */\n      sload(0x06)\n        /* \"src/VestingToken.sol\":5922:5961  _initialLockedSupply - _totalUnlocked() */\n      tag_186\n      swap2\n      swap1\n      tag_116\n      jump\t// in\n    tag_186:\n        /* \"src/VestingToken.sol\":5915:5961  return _initialLockedSupply - _totalUnlocked() */\n      swap1\n      pop\n        /* \"src/VestingToken.sol\":5849:5968  function lockedSupply() external view returns (uint256) {... */\n      swap1\n      jump\t// out\n        /* \"upgradeable/contracts/token/ERC20/ERC20Upgradeable.sol\":4702:4897  function allowance(address owner, address spender) public view virtual returns (uint256) {... */\n    tag_85:\n        /* \"upgradeable/contracts/token/ERC20/ERC20Upgradeable.sol\":4782:4789  uint256 */\n      0x00\n        /* \"upgradeable/contracts/token/ERC20/ERC20Upgradeable.sol\":4801:4823  ERC20Storage storage $ */\n      dup1\n        /* \"upgradeable/contracts/token/ERC20/ERC20Upgradeable.sol\":4826:4844  _getERC20Storage() */\n      tag_188\n        /* \"upgradeable/contracts/token/ERC20/ERC20Upgradeable.sol\":4826:4842  _getERC20Storage */\n      tag_92\n        /* \"upgradeable/contracts/token/ERC20/ERC20Upgradeable.sol\":4826:4844  _getERC20Storage() */\n      jump\t// in\n    tag_188:\n        /* \"upgradeable/contracts/token/ERC20/ERC20Upgradeable.sol\":4801:4844  ERC20Storage storage $ = _getERC20Storage() */\n      swap1\n      pop\n        /* \"upgradeable/contracts/token/ERC20/ERC20Upgradeable.sol\":4861:4862  $ */\n      dup1\n        /* \"upgradeable/contracts/token/ERC20/ERC20Upgradeable.sol\":4861:4874  $._allowances */\n      0x01\n      add\n        /* \"upgradeable/contracts/token/ERC20/ERC20Upgradeable.sol\":4861:4881  $._allowances[owner] */\n      0x00\n        /* \"upgradeable/contracts/token/ERC20/ERC20Upgradeable.sol\":4875:4880  owner */\n      dup6\n        /* \"upgradeable/contracts/token/ERC20/ERC20Upgradeable.sol\":4861:4881  $._allowances[owner] */\n      0xffffffffffffffffffffffffffffffffffffffff\n      and\n      0xffffffffffffffffffffffffffffffffffffffff\n      and\n      dup2\n      mstore\n      0x20\n      add\n      swap1\n      dup2\n      mstore\n      0x20\n      add\n      0x00\n      keccak256\n        /* \"upgradeable/contracts/token/ERC20/ERC20Upgradeable.sol\":4861:4890  $._allowances[owner][spender] */\n      0x00\n        /* \"upgradeable/contracts/token/ERC20/ERC20Upgradeable.sol\":4882:4889  spender */\n      dup5\n        /* \"upgradeable/contracts/token/ERC20/ERC20Upgradeable.sol\":4861:4890  $._allowances[owner][spender] */\n      0xffffffffffffffffffffffffffffffffffffffff\n      and\n      0xffffffffffffffffffffffffffffffffffffffff\n      and\n      dup2\n      mstore\n      0x20\n      add\n      swap1\n      dup2\n      mstore\n      0x20\n      add\n      0x00\n      keccak256\n      sload\n        /* \"upgradeable/contracts/token/ERC20/ERC20Upgradeable.sol\":4854:4890  return $._allowances[owner][spender] */\n      swap2\n      pop\n      pop\n        /* \"upgradeable/contracts/token/ERC20/ERC20Upgradeable.sol\":4702:4897  function allowance(address owner, address spender) public view virtual returns (uint256) {... */\n      swap3\n      swap2\n      pop\n      pop\n      jump\t// out\n        /* \"src/VestingToken.sol\":5745:5843  function unlockedSupply() external view returns (uint256) {... */\n    tag_88:\n        /* \"src/VestingToken.sol\":5794:5801  uint256 */\n      0x00\n        /* \"src/VestingToken.sol\":5820:5836  _totalUnlocked() */\n      tag_190\n        /* \"src/VestingToken.sol\":5820:5834  _totalUnlocked */\n      tag_185\n        /* \"src/VestingToken.sol\":5820:5836  _totalUnlocked() */\n      jump\t// in\n    tag_190:\n        /* \"src/VestingToken.sol\":5813:5836  return _totalUnlocked() */\n      swap1\n      pop\n        /* \"src/VestingToken.sol\":5745:5843  function unlockedSupply() external view returns (uint256) {... */\n      swap1\n      jump\t// out\n        /* \"upgradeable/contracts/token/ERC20/ERC20Upgradeable.sol\":1941:2094  function _getERC20Storage() private pure returns (ERC20Storage storage $) {... */\n    tag_92:\n        /* \"upgradeable/contracts/token/ERC20/ERC20Upgradeable.sol\":1991:2013  ERC20Storage storage $ */\n      0x00\n        /* \"upgradeable/contracts/token/ERC20/ERC20Upgradeable.sol\":2058:2078  ERC20StorageLocation */\n      0x52c63247e1f47db19d5ce0460030c497f067ca4cebf71ba98eeadabe20bace00\n        /* \"upgradeable/contracts/token/ERC20/ERC20Upgradeable.sol\":2048:2078  $.slot := ERC20StorageLocation */\n      swap1\n      pop\n        /* \"upgradeable/contracts/token/ERC20/ERC20Upgradeable.sol\":1941:2094  function _getERC20Storage() private pure returns (ERC20Storage storage $) {... */\n      swap1\n      jump\t// out\n        /* \"upgradeable/contracts/utils/ContextUpgradeable.sol\":887:983  function _msgSender() internal view virtual returns (address) {... */\n    tag_101:\n        /* \"upgradeable/contracts/utils/ContextUpgradeable.sol\":940:947  address */\n      0x00\n        /* \"upgradeable/contracts/utils/ContextUpgradeable.sol\":966:976  msg.sender */\n      caller\n        /* \"upgradeable/contracts/utils/ContextUpgradeable.sol\":959:976  return msg.sender */\n      swap1\n      pop\n        /* \"upgradeable/contracts/utils/ContextUpgradeable.sol\":887:983  function _msgSender() internal view virtual returns (address) {... */\n      swap1\n      jump\t// out\n        /* \"upgradeable/contracts/token/ERC20/ERC20Upgradeable.sol\":9995:10123  function _approve(address owner, address spender, uint256 value) internal {... */\n    tag_103:\n        /* \"upgradeable/contracts/token/ERC20/ERC20Upgradeable.sol\":10079:10116  _approve(owner, spender, value, true) */\n      tag_194\n        /* \"upgradeable/contracts/token/ERC20/ERC20Upgradeable.sol\":10088:10093  owner */\n      dup4\n        /* \"upgradeable/contracts/token/ERC20/ERC20Upgradeable.sol\":10095:10102  spender */\n      dup4\n        /* \"upgradeable/contracts/token/ERC20/ERC20Upgradeable.sol\":10104:10109  value */\n      dup4\n        /* \"upgradeable/contracts/token/ERC20/ERC20Upgradeable.sol\":10111:10115  true */\n      0x01\n        /* \"upgradeable/contracts/token/ERC20/ERC20Upgradeable.sol\":10079:10087  _approve */\n      tag_195\n        /* \"upgradeable/contracts/token/ERC20/ERC20Upgradeable.sol\":10079:10116  _approve(owner, spender, value, true) */\n      jump\t// in\n    tag_194:\n        /* \"upgradeable/contracts/token/ERC20/ERC20Upgradeable.sol\":9995:10123  function _approve(address owner, address spender, uint256 value) internal {... */\n      pop\n      pop\n      pop\n      jump\t// out\n        /* \"upgradeable/contracts/token/ERC20/ERC20Upgradeable.sol\":11739:12216  function _spendAllowance(address owner, address spender, uint256 value) internal virtual {... */\n    tag_109:\n        /* \"upgradeable/contracts/token/ERC20/ERC20Upgradeable.sol\":11838:11862  uint256 currentAllowance */\n      0x00\n        /* \"upgradeable/contracts/token/ERC20/ERC20Upgradeable.sol\":11865:11890  allowance(owner, spender) */\n      tag_197\n        /* \"upgradeable/contracts/token/ERC20/ERC20Upgradeable.sol\":11875:11880  owner */\n      dup5\n        /* \"upgradeable/contracts/token/ERC20/ERC20Upgradeable.sol\":11882:11889  spender */\n      dup5\n        /* \"upgradeable/contracts/token/ERC20/ERC20Upgradeable.sol\":11865:11874  allowance */\n      tag_85\n        /* \"upgradeable/contracts/token/ERC20/ERC20Upgradeable.sol\":11865:11890  allowance(owner, spender) */\n      jump\t// in\n    tag_197:\n        /* \"upgradeable/contracts/token/ERC20/ERC20Upgradeable.sol\":11838:11890  uint256 currentAllowance = allowance(owner, spender) */\n      swap1\n      pop\n        /* \"upgradeable/contracts/token/ERC20/ERC20Upgradeable.sol\":11924:11941  type(uint256).max */\n      0xffffffffffffffffffffffffffffffffffffffffffffffffffffffffffffffff\n        /* \"upgradeable/contracts/token/ERC20/ERC20Upgradeable.sol\":11904:11920  currentAllowance */\n      dup2\n        /* \"upgradeable/contracts/token/ERC20/ERC20Upgradeable.sol\":11904:11941  currentAllowance != type(uint256).max */\n      eq\n        /* \"upgradeable/contracts/token/ERC20/ERC20Upgradeable.sol\":11900:12210  if (currentAllowance != type(uint256).max) {... */\n      tag_198\n      jumpi\n        /* \"upgradeable/contracts/token/ERC20/ERC20Upgradeable.sol\":11980:11985  value */\n      dup2\n        /* \"upgradeable/contracts/token/ERC20/ERC20Upgradeable.sol\":11961:11977  currentAllowance */\n      dup2\n        /* \"upgradeable/contracts/token/ERC20/ERC20Upgradeable.sol\":11961:11985  currentAllowance < value */\n      lt\n        /* \"upgradeable/contracts/token/ERC20/ERC20Upgradeable.sol\":11957:12087  if (currentAllowance < value) {... */\n      iszero\n      tag_199\n      jumpi\n        /* \"upgradeable/contracts/token/ERC20/ERC20Upgradeable.sol\":12039:12046  spender */\n      dup3\n        /* \"upgradeable/contracts/token/ERC20/ERC20Upgradeable.sol\":12048:12064  currentAllowance */\n      dup2\n        /* \"upgradeable/contracts/token/ERC20/ERC20Upgradeable.sol\":12066:12071  value */\n      dup4\n        /* \"upgradeable/contracts/token/ERC20/ERC20Upgradeable.sol\":12012:12072  ERC20InsufficientAllowance(spender, currentAllowance, value) */\n      mload(0x40)\n      0xfb8f41b200000000000000000000000000000000000000000000000000000000\n      dup2\n      mstore\n      0x04\n      add\n      tag_200\n      swap4\n      swap3\n      swap2\n      swap1\n      tag_201\n      jump\t// in\n    tag_200:\n      mload(0x40)\n      dup1\n      swap2\n      sub\n      swap1\n      revert\n        /* \"upgradeable/contracts/token/ERC20/ERC20Upgradeable.sol\":11957:12087  if (currentAllowance < value) {... */\n    tag_199:\n        /* \"upgradeable/contracts/token/ERC20/ERC20Upgradeable.sol\":12128:12185  _approve(owner, spender, currentAllowance - value, false) */\n      tag_202\n        /* \"upgradeable/contracts/token/ERC20/ERC20Upgradeable.sol\":12137:12142  owner */\n      dup5\n        /* \"upgradeable/contracts/token/ERC20/ERC20Upgradeable.sol\":12144:12151  spender */\n      dup5\n        /* \"upgradeable/contracts/token/ERC20/ERC20Upgradeable.sol\":12172:12177  value */\n      dup5\n        /* \"upgradeable/contracts/token/ERC20/ERC20Upgradeable.sol\":12153:12169  currentAllowance */\n      dup5\n        /* \"upgradeable/contracts/token/ERC20/ERC20Upgradeable.sol\":12153:12177  currentAllowance - value */\n      sub\n        /* \"upgradeable/contracts/token/ERC20/ERC20Upgradeable.sol\":12179:12184  false */\n      0x00\n        /* \"upgradeable/contracts/token/ERC20/ERC20Upgradeable.sol\":12128:12136  _approve */\n      tag_195\n        /* \"upgradeable/contracts/token/ERC20/ERC20Upgradeable.sol\":12128:12185  _approve(owner, spender, currentAllowance - value, false) */\n      jump\t// in\n    tag_202:\n        /* \"upgradeable/contracts/token/ERC20/ERC20Upgradeable.sol\":11900:12210  if (currentAllowance != type(uint256).max) {... */\n    tag_198:\n        /* \"upgradeable/contracts/token/ERC20/ERC20Upgradeable.sol\":11828:12216  {... */\n      pop\n        /* \"upgradeable/contracts/token/ERC20/ERC20Upgradeable.sol\":11739:12216  function _spendAllowance(address owner, address spender, uint256 value) internal virtual {... */\n      pop\n      pop\n      pop\n      jump\t// out\n        /* \"upgradeable/contracts/token/ERC20/ERC20Upgradeable.sol\":6599:6899  function _transfer(address from, address to, uint256 value) internal {... */\n    tag_111:\n        /* \"upgradeable/contracts/token/ERC20/ERC20Upgradeable.sol\":6698:6699  0 */\n      0x00\n        /* \"upgradeable/contracts/token/ERC20/ERC20Upgradeable.sol\":6682:6700  from == address(0) */\n      0xffffffffffffffffffffffffffffffffffffffff\n      and\n        /* \"upgradeable/contracts/token/ERC20/ERC20Upgradeable.sol\":6682:6686  from */\n      dup4\n        /* \"upgradeable/contracts/token/ERC20/ERC20Upgradeable.sol\":6682:6700  from == address(0) */\n      0xffffffffffffffffffffffffffffffffffffffff\n      and\n      sub\n        /* \"upgradeable/contracts/token/ERC20/ERC20Upgradeable.sol\":6678:6764  if (from == address(0)) {... */\n      tag_204\n      jumpi\n        /* \"upgradeable/contracts/token/ERC20/ERC20Upgradeable.sol\":6750:6751  0 */\n      0x00\n        /* \"upgradeable/contracts/token/ERC20/ERC20Upgradeable.sol\":6723:6753  ERC20InvalidSender(address(0)) */\n      mload(0x40)\n      0x96c6fd1e00000000000000000000000000000000000000000000000000000000\n      dup2\n      mstore\n      0x04\n      add\n      tag_205\n      swap2\n      swap1\n      tag_206\n      jump\t// in\n    tag_205:\n      mload(0x40)\n      dup1\n      swap2\n      sub\n      swap1\n      revert\n        /* \"upgradeable/contracts/token/ERC20/ERC20Upgradeable.sol\":6678:6764  if (from == address(0)) {... */\n    tag_204:\n        /* \"upgradeable/contracts/token/ERC20/ERC20Upgradeable.sol\":6791:6792  0 */\n      0x00\n        /* \"upgradeable/contracts/token/ERC20/ERC20Upgradeable.sol\":6777:6793  to == address(0) */\n      0xffffffffffffffffffffffffffffffffffffffff\n      and\n        /* \"upgradeable/contracts/token/ERC20/ERC20Upgradeable.sol\":6777:6779  to */\n      dup3\n        /* \"upgradeable/contracts/token/ERC20/ERC20Upgradeable.sol\":6777:6793  to == address(0) */\n      0xffffffffffffffffffffffffffffffffffffffff\n      and\n      sub\n        /* \"upgradeable/contracts/token/ERC20/ERC20Upgradeable.sol\":6773:6859  if (to == address(0)) {... */\n      tag_207\n      jumpi\n        /* \"upgradeable/contracts/token/ERC20/ERC20Upgradeable.sol\":6845:6846  0 */\n      0x00\n        /* \"upgradeable/contracts/token/ERC20/ERC20Upgradeable.sol\":6816:6848  ERC20InvalidReceiver(address(0)) */\n      mload(0x40)\n      0xec442f0500000000000000000000000000000000000000000000000000000000\n      dup2\n      mstore\n      0x04\n      add\n      tag_208\n      swap2\n      swap1\n      tag_206\n      jump\t// in\n    tag_208:\n      mload(0x40)\n      dup1\n      swap2\n      sub\n      swap1\n      revert\n        /* \"upgradeable/contracts/token/ERC20/ERC20Upgradeable.sol\":6773:6859  if (to == address(0)) {... */\n    tag_207:\n        /* \"upgradeable/contracts/token/ERC20/ERC20Upgradeable.sol\":6868:6892  _update(from, to, value) */\n      tag_209\n        /* \"upgradeable/contracts/token/ERC20/ERC20Upgradeable.sol\":6876:6880  from */\n      dup4\n        /* \"upgradeable/contracts/token/ERC20/ERC20Upgradeable.sol\":6882:6884  to */\n      dup4\n        /* \"upgradeable/contracts/token/ERC20/ERC20Upgradeable.sol\":6886:6891  value */\n      dup4\n        /* \"upgradeable/contracts/token/ERC20/ERC20Upgradeable.sol\":6868:6875  _update */\n      tag_210\n        /* \"upgradeable/contracts/token/ERC20/ERC20Upgradeable.sol\":6868:6892  _update(from, to, value) */\n      jump\t// in\n    tag_209:\n        /* \"upgradeable/contracts/token/ERC20/ERC20Upgradeable.sol\":6599:6899  function _transfer(address from, address to, uint256 value) internal {... */\n      pop\n      pop\n      pop\n      jump\t// out\n        /* \"src/VestingToken.sol\":6190:6341  function _unlockedOf(address account) private view returns (uint256) {... */\n    tag_114:\n        /* \"src/VestingToken.sol\":6250:6257  uint256 */\n      0x00\n        /* \"src/VestingToken.sol\":6276:6334  _computeUnlocked(_initialLocked[account], block.timestamp) */\n      tag_212\n        /* \"src/VestingToken.sol\":6293:6307  _initialLocked */\n      0x07\n        /* \"src/VestingToken.sol\":6293:6316  _initialLocked[account] */\n      0x00\n        /* \"src/VestingToken.sol\":6308:6315  account */\n      dup5\n        /* \"src/VestingToken.sol\":6293:6316  _initialLocked[account] */\n      0xffffffffffffffffffffffffffffffffffffffff\n      and\n      0xffffffffffffffffffffffffffffffffffffffff\n      and\n      dup2\n      mstore\n      0x20\n      add\n      swap1\n      dup2\n      mstore\n      0x20\n      add\n      0x00\n      keccak256\n      sload\n        /* \"src/VestingToken.sol\":6318:6333  block.timestamp */\n      timestamp\n        /* \"src/VestingToken.sol\":6276:6292  _computeUnlocked */\n      tag_213\n        /* \"src/VestingToken.sol\":6276:6334  _computeUnlocked(_initialLocked[account], block.timestamp) */\n      jump\t// in\n    tag_212:\n        /* \"src/VestingToken.sol\":6269:6334  return _computeUnlocked(_initialLocked[account], block.timestamp) */\n      swap1\n      pop\n        /* \"src/VestingToken.sol\":6190:6341  function _unlockedOf(address account) private view returns (uint256) {... */\n      swap2\n      swap1\n      pop\n      jump\t// out\n        /* \"contracts/token/ERC20/utils/SafeERC20.sol\":1702:1890  function safeTransferFrom(IERC20 token, address from, address to, uint256 value) internal {... */\n    tag_129:\n        /* \"contracts/token/ERC20/utils/SafeERC20.sol\":1802:1883  _callOptionalReturn(token, abi.encodeCall(token.transferFrom, (from, to, value))) */\n      tag_215\n        /* \"contracts/token/ERC20/utils/SafeERC20.sol\":1822:1827  token */\n      dup5\n        /* \"contracts/token/ERC20/utils/SafeERC20.sol\":1844:1849  token */\n      dup6\n        /* \"contracts/token/ERC20/utils/SafeERC20.sol\":1844:1862  token.transferFrom */\n      0xffffffffffffffffffffffffffffffffffffffff\n      and\n      0x23b872dd\n        /* \"contracts/token/ERC20/utils/SafeERC20.sol\":1865:1869  from */\n      dup7\n        /* \"contracts/token/ERC20/utils/SafeERC20.sol\":1871:1873  to */\n      dup7\n        /* \"contracts/token/ERC20/utils/SafeERC20.sol\":1875:1880  value */\n      dup7\n        /* \"contracts/token/ERC20/utils/SafeERC20.sol\":1829:1882  abi.encodeCall(token.transferFrom, (from, to, value)) */\n      add(0x24, mload(0x40))\n      tag_216\n      swap4\n      swap3\n      swap2\n      swap1\n      tag_217\n      jump\t// in\n    tag_216:\n      mload(0x40)\n      0x20\n      dup2\n      dup4\n      sub\n      sub\n      dup2\n      mstore\n      swap1\n      0x40\n      mstore\n      swap2\n      pop\n      0xe0\n      shl\n      0x20\n      dup3\n      add\n      dup1\n      mload\n      0xffffffffffffffffffffffffffffffffffffffffffffffffffffffff\n      dup4\n      dup2\n      dup4\n      and\n      or\n      dup4\n      mstore\n      pop\n      pop\n      pop\n      pop\n        /* \"contracts/token/ERC20/utils/SafeERC20.sol\":1802:1821  _callOptionalReturn */\n      tag_218\n        /* \"contracts/token/ERC20/utils/SafeERC20.sol\":1802:1883  _callOptionalReturn(token, abi.encodeCall(token.transferFrom, (from, to, value))) */\n      jump\t// in\n    tag_215:\n        /* \"contracts/token/ERC20/utils/SafeERC20.sol\":1702:1890  function safeTransferFrom(IERC20 token, address from, address to, uint256 value) internal {... */\n      pop\n      pop\n      pop\n      pop\n      jump\t// out\n        /* \"upgradeable/contracts/token/ERC20/ERC20Upgradeable.sol\":8727:8935  function _mint(address account, uint256 value) internal {... */\n    tag_131:\n        /* \"upgradeable/contracts/token/ERC20/ERC20Upgradeable.sol\":8816:8817  0 */\n      0x00\n        /* \"upgradeable/contracts/token/ERC20/ERC20Upgradeable.sol\":8797:8818  account == address(0) */\n      0xffffffffffffffffffffffffffffffffffffffff\n      and\n        /* \"upgradeable/contracts/token/ERC20/ERC20Upgradeable.sol\":8797:8804  account */\n      dup3\n        /* \"upgradeable/contracts/token/ERC20/ERC20Upgradeable.sol\":8797:8818  account == address(0) */\n      0xffffffffffffffffffffffffffffffffffffffff\n      and\n      sub\n        /* \"upgradeable/contracts/token/ERC20/ERC20Upgradeable.sol\":8793:8884  if (account == address(0)) {... */\n      tag_220\n      jumpi\n        /* \"upgradeable/contracts/token/ERC20/ERC20Upgradeable.sol\":8870:8871  0 */\n      0x00\n        /* \"upgradeable/contracts/token/ERC20/ERC20Upgradeable.sol\":8841:8873  ERC20InvalidReceiver(address(0)) */\n      mload(0x40)\n      0xec442f0500000000000000000000000000000000000000000000000000000000\n      dup2\n      mstore\n      0x04\n      add\n      tag_221\n      swap2\n      swap1\n      tag_206\n      jump\t// in\n    tag_221:\n      mload(0x40)\n      dup1\n      swap2\n      sub\n      swap1\n      revert\n        /* \"upgradeable/contracts/token/ERC20/ERC20Upgradeable.sol\":8793:8884  if (account == address(0)) {... */\n    tag_220:\n        /* \"upgradeable/contracts/token/ERC20/ERC20Upgradeable.sol\":8893:8928  _update(address(0), account, value) */\n      tag_222\n        /* \"upgradeable/contracts/token/ERC20/ERC20Upgradeable.sol\":8909:8910  0 */\n      0x00\n        /* \"upgradeable/contracts/token/ERC20/ERC20Upgradeable.sol\":8913:8920  account */\n      dup4\n        /* \"upgradeable/contracts/token/ERC20/ERC20Upgradeable.sol\":8922:8927  value */\n      dup4\n        /* \"upgradeable/contracts/token/ERC20/ERC20Upgradeable.sol\":8893:8900  _update */\n      tag_210\n        /* \"upgradeable/contracts/token/ERC20/ERC20Upgradeable.sol\":8893:8928  _update(address(0), account, value) */\n      jump\t// in\n    tag_222:\n        /* \"upgradeable/contracts/token/ERC20/ERC20Upgradeable.sol\":8727:8935  function _mint(address account, uint256 value) internal {... */\n      pop\n      pop\n      jump\t// out\n        /* \"src/VestingToken.sol\":3630:4495  function _checkVestingSchedule(... */\n    tag_139:\n        /* \"src/VestingToken.sol\":3826:3841  block.timestamp */\n      timestamp\n        /* \"src/VestingToken.sol\":3814:3823  startTime */\n      dup6\n        /* \"src/VestingToken.sol\":3814:3841  startTime < block.timestamp */\n      lt\n        /* \"src/VestingToken.sol\":3810:3900  if (startTime < block.timestamp) {... */\n      iszero\n      tag_224\n      jumpi\n        /* \"src/VestingToken.sol\":3864:3889  StartTimeAlreadyElapsed() */\n      mload(0x40)\n      0xc18dfcc200000000000000000000000000000000000000000000000000000000\n      dup2\n      mstore\n      0x04\n      add\n      mload(0x40)\n      dup1\n      swap2\n      sub\n      swap1\n      revert\n        /* \"src/VestingToken.sol\":3810:3900  if (startTime < block.timestamp) {... */\n    tag_224:\n        /* \"src/VestingToken.sol\":3926:3931  cliff */\n      dup4\n        /* \"src/VestingToken.sol\":3914:3923  startTime */\n      dup6\n        /* \"src/VestingToken.sol\":3914:3931  startTime > cliff */\n      gt\n        /* \"src/VestingToken.sol\":3910:3987  if (startTime > cliff) {... */\n      iszero\n      tag_225\n      jumpi\n        /* \"src/VestingToken.sol\":3954:3976  CliffBeforeStartTime() */\n      mload(0x40)\n      0x8147e9e200000000000000000000000000000000000000000000000000000000\n      dup2\n      mstore\n      0x04\n      add\n      mload(0x40)\n      dup1\n      swap2\n      sub\n      swap1\n      revert\n        /* \"src/VestingToken.sol\":3910:3987  if (startTime > cliff) {... */\n    tag_225:\n        /* \"src/VestingToken.sol\":3997:4017  uint256 totalPercent */\n      0x00\n        /* \"src/VestingToken.sol\":4033:4042  uint256 i */\n      dup1\n        /* \"src/VestingToken.sol\":4045:4046  0 */\n      0x00\n        /* \"src/VestingToken.sol\":4033:4046  uint256 i = 0 */\n      swap1\n      pop\n        /* \"src/VestingToken.sol\":4028:4386  for (uint256 i = 0; i < scheduleLength; i++) {... */\n    tag_226:\n        /* \"src/VestingToken.sol\":4052:4066  scheduleLength */\n      dup3\n        /* \"src/VestingToken.sol\":4048:4049  i */\n      dup2\n        /* \"src/VestingToken.sol\":4048:4066  i < scheduleLength */\n      lt\n        /* \"src/VestingToken.sol\":4028:4386  for (uint256 i = 0; i < scheduleLength; i++) {... */\n      iszero\n      tag_227\n      jumpi\n        /* \"src/VestingToken.sol\":4103:4111  schedule */\n      dup5\n      dup5\n        /* \"src/VestingToken.sol\":4112:4113  i */\n      dup3\n        /* \"src/VestingToken.sol\":4103:4114  schedule[i] */\n      dup2\n      dup2\n      lt\n      tag_229\n      jumpi\n      tag_230\n      tag_145\n      jump\t// in\n    tag_230:\n    tag_229:\n      swap1\n      pop\n      0x40\n      mul\n      add\n        /* \"src/VestingToken.sol\":4103:4122  schedule[i].portion */\n      0x20\n      add\n      calldataload\n        /* \"src/VestingToken.sol\":4087:4122  totalPercent += schedule[i].portion */\n      dup3\n      tag_231\n      swap2\n      swap1\n      tag_133\n      jump\t// in\n    tag_231:\n      swap2\n      pop\n        /* \"src/VestingToken.sol\":4137:4161  bool isEndTimeOutOfOrder */\n      0x00\n        /* \"src/VestingToken.sol\":4170:4171  0 */\n      dup1\n        /* \"src/VestingToken.sol\":4165:4166  i */\n      dup3\n        /* \"src/VestingToken.sol\":4165:4171  i != 0 */\n      eq\n      iszero\n        /* \"src/VestingToken.sol\":4164:4222  (i != 0) && schedule[i - 1].endTime >= schedule[i].endTime */\n      dup1\n      iszero\n      tag_232\n      jumpi\n      pop\n        /* \"src/VestingToken.sol\":4203:4211  schedule */\n      dup6\n      dup6\n        /* \"src/VestingToken.sol\":4212:4213  i */\n      dup4\n        /* \"src/VestingToken.sol\":4203:4214  schedule[i] */\n      dup2\n      dup2\n      lt\n      tag_233\n      jumpi\n      tag_234\n      tag_145\n      jump\t// in\n    tag_234:\n    tag_233:\n      swap1\n      pop\n      0x40\n      mul\n      add\n        /* \"src/VestingToken.sol\":4203:4222  schedule[i].endTime */\n      0x00\n      add\n      calldataload\n        /* \"src/VestingToken.sol\":4176:4184  schedule */\n      dup7\n      dup7\n        /* \"src/VestingToken.sol\":4189:4190  1 */\n      0x01\n        /* \"src/VestingToken.sol\":4185:4186  i */\n      dup6\n        /* \"src/VestingToken.sol\":4185:4190  i - 1 */\n      tag_235\n      swap2\n      swap1\n      tag_116\n      jump\t// in\n    tag_235:\n        /* \"src/VestingToken.sol\":4176:4191  schedule[i - 1] */\n      dup2\n      dup2\n      lt\n      tag_236\n      jumpi\n      tag_237\n      tag_145\n      jump\t// in\n    tag_237:\n    tag_236:\n      swap1\n      pop\n      0x40\n      mul\n      add\n        /* \"src/VestingToken.sol\":4176:4199  schedule[i - 1].endTime */\n      0x00\n      add\n      calldataload\n        /* \"src/VestingToken.sol\":4176:4222  schedule[i - 1].endTime >= schedule[i].endTime */\n      lt\n      iszero\n        /* \"src/VestingToken.sol\":4164:4222  (i != 0) && schedule[i - 1].endTime >= schedule[i].endTime */\n    tag_232:\n        /* \"src/VestingToken.sol\":4137:4222  bool isEndTimeOutOfOrder = (i != 0) && schedule[i - 1].endTime >= schedule[i].endTime */\n      swap1\n      pop\n        /* \"src/VestingToken.sol\":4250:4258  schedule */\n      dup6\n      dup6\n        /* \"src/VestingToken.sol\":4259:4260  i */\n      dup4\n        /* \"src/VestingToken.sol\":4250:4261  schedule[i] */\n      dup2\n      dup2\n      lt\n      tag_238\n      jumpi\n      tag_239\n      tag_145\n      jump\t// in\n    tag_239:\n    tag_238:\n      swap1\n      pop\n      0x40\n      mul\n      add\n        /* \"src/VestingToken.sol\":4250:4269  schedule[i].endTime */\n      0x00\n      add\n      calldataload\n        /* \"src/VestingToken.sol\":4241:4246  cliff */\n      dup8\n        /* \"src/VestingToken.sol\":4241:4269  cliff >= schedule[i].endTime */\n      lt\n      iszero\n        /* \"src/VestingToken.sol\":4241:4292  cliff >= schedule[i].endTime || isEndTimeOutOfOrder */\n      dup1\n      tag_240\n      jumpi\n      pop\n        /* \"src/VestingToken.sol\":4273:4292  isEndTimeOutOfOrder */\n      dup1\n        /* \"src/VestingToken.sol\":4241:4292  cliff >= schedule[i].endTime || isEndTimeOutOfOrder */\n    tag_240:\n        /* \"src/VestingToken.sol\":4237:4376  if (cliff >= schedule[i].endTime || isEndTimeOutOfOrder) {... */\n      iszero\n      tag_241\n      jumpi\n        /* \"src/VestingToken.sol\":4341:4349  schedule */\n      dup6\n      dup6\n        /* \"src/VestingToken.sol\":4350:4351  i */\n      dup4\n        /* \"src/VestingToken.sol\":4341:4352  schedule[i] */\n      dup2\n      dup2\n      lt\n      tag_242\n      jumpi\n      tag_243\n      tag_145\n      jump\t// in\n    tag_243:\n    tag_242:\n      swap1\n      pop\n      0x40\n      mul\n      add\n        /* \"src/VestingToken.sol\":4341:4360  schedule[i].endTime */\n      0x00\n      add\n      calldataload\n        /* \"src/VestingToken.sol\":4319:4361  IncorrectScheduleTime(schedule[i].endTime) */\n      mload(0x40)\n      0x1a3250bd00000000000000000000000000000000000000000000000000000000\n      dup2\n      mstore\n      0x04\n      add\n      tag_244\n      swap2\n      swap1\n      tag_36\n      jump\t// in\n    tag_244:\n      mload(0x40)\n      dup1\n      swap2\n      sub\n      swap1\n      revert\n        /* \"src/VestingToken.sol\":4237:4376  if (cliff >= schedule[i].endTime || isEndTimeOutOfOrder) {... */\n    tag_241:\n        /* \"src/VestingToken.sol\":4073:4386  {... */\n      pop\n        /* \"src/VestingToken.sol\":4068:4071  i++ */\n      dup1\n      dup1\n      0x01\n      add\n      swap2\n      pop\n      pop\n        /* \"src/VestingToken.sol\":4028:4386  for (uint256 i = 0; i < scheduleLength; i++) {... */\n      jump(tag_226)\n    tag_227:\n      pop\n        /* \"src/VestingToken.sol\":1149:1155  10_000 */\n      0x2710\n        /* \"src/VestingToken.sol\":4400:4412  totalPercent */\n      dup2\n        /* \"src/VestingToken.sol\":4400:4428  totalPercent != BASIS_POINTS */\n      eq\n        /* \"src/VestingToken.sol\":4396:4489  if (totalPercent != BASIS_POINTS) {... */\n      tag_245\n      jumpi\n        /* \"src/VestingToken.sol\":4451:4478  IncorrectSchedulePortions() */\n      mload(0x40)\n      0xc45b8e2700000000000000000000000000000000000000000000000000000000\n      dup2\n      mstore\n      0x04\n      add\n      mload(0x40)\n      dup1\n      swap2\n      sub\n      swap1\n      revert\n        /* \"src/VestingToken.sol\":4396:4489  if (totalPercent != BASIS_POINTS) {... */\n    tag_245:\n        /* \"src/VestingToken.sol\":3800:4495  {... */\n      pop\n        /* \"src/VestingToken.sol\":3630:4495  function _checkVestingSchedule(... */\n      pop\n      pop\n      pop\n      pop\n      pop\n      jump\t// out\n        /* \"upgradeable/contracts/token/ERC20/ERC20Upgradeable.sol\":9253:9459  function _burn(address account, uint256 value) internal {... */\n    tag_154:\n        /* \"upgradeable/contracts/token/ERC20/ERC20Upgradeable.sol\":9342:9343  0 */\n      0x00\n        /* \"upgradeable/contracts/token/ERC20/ERC20Upgradeable.sol\":9323:9344  account == address(0) */\n      0xffffffffffffffffffffffffffffffffffffffff\n      and\n        /* \"upgradeable/contracts/token/ERC20/ERC20Upgradeable.sol\":9323:9330  account */\n      dup3\n        /* \"upgradeable/contracts/token/ERC20/ERC20Upgradeable.sol\":9323:9344  account == address(0) */\n      0xffffffffffffffffffffffffffffffffffffffff\n      and\n      sub\n        /* \"upgradeable/contracts/token/ERC20/ERC20Upgradeable.sol\":9319:9408  if (account == address(0)) {... */\n      tag_247\n      jumpi\n        /* \"upgradeable/contracts/token/ERC20/ERC20Upgradeable.sol\":9394:9395  0 */\n      0x00\n        /* \"upgradeable/contracts/token/ERC20/ERC20Upgradeable.sol\":9367:9397  ERC20InvalidSender(address(0)) */\n      mload(0x40)\n      0x96c6fd1e00000000000000000000000000000000000000000000000000000000\n      dup2\n      mstore\n      0x04\n      add\n      tag_248\n      swap2\n      swap1\n      tag_206\n      jump\t// in\n    tag_248:\n      mload(0x40)\n      dup1\n      swap2\n      sub\n      swap1\n      revert\n        /* \"upgradeable/contracts/token/ERC20/ERC20Upgradeable.sol\":9319:9408  if (account == address(0)) {... */\n    tag_247:\n        /* \"upgradeable/contracts/token/ERC20/ERC20Upgradeable.sol\":9417:9452  _update(account, address(0), value) */\n      tag_249\n        /* \"upgradeable/contracts/token/ERC20/ERC20Upgradeable.sol\":9425:9432  account */\n      dup3\n        /* \"upgradeable/contracts/token/ERC20/ERC20Upgradeable.sol\":9442:9443  0 */\n      0x00\n        /* \"upgradeable/contracts/token/ERC20/ERC20Upgradeable.sol\":9446:9451  value */\n      dup4\n        /* \"upgradeable/contracts/token/ERC20/ERC20Upgradeable.sol\":9417:9424  _update */\n      tag_210\n        /* \"upgradeable/contracts/token/ERC20/ERC20Upgradeable.sol\":9417:9452  _update(account, address(0), value) */\n      jump\t// in\n    tag_249:\n        /* \"upgradeable/contracts/token/ERC20/ERC20Upgradeable.sol\":9253:9459  function _burn(address account, uint256 value) internal {... */\n      pop\n      pop\n      jump\t// out\n        /* \"contracts/token/ERC20/utils/SafeERC20.sol\":1303:1463  function safeTransfer(IERC20 token, address to, uint256 value) internal {... */\n    tag_156:\n        /* \"contracts/token/ERC20/utils/SafeERC20.sol\":1385:1456  _callOptionalReturn(token, abi.encodeCall(token.transfer, (to, value))) */\n      tag_251\n        /* \"contracts/token/ERC20/utils/SafeERC20.sol\":1405:1410  token */\n      dup4\n        /* \"contracts/token/ERC20/utils/SafeERC20.sol\":1427:1432  token */\n      dup5\n        /* \"contracts/token/ERC20/utils/SafeERC20.sol\":1427:1441  token.transfer */\n      0xffffffffffffffffffffffffffffffffffffffff\n      and\n      0xa9059cbb\n        /* \"contracts/token/ERC20/utils/SafeERC20.sol\":1444:1446  to */\n      dup6\n        /* \"contracts/token/ERC20/utils/SafeERC20.sol\":1448:1453  value */\n      dup6\n        /* \"contracts/token/ERC20/utils/SafeERC20.sol\":1412:1455  abi.encodeCall(token.transfer, (to, value)) */\n      add(0x24, mload(0x40))\n      tag_252\n      swap3\n      swap2\n      swap1\n      tag_253\n      jump\t// in\n    tag_252:\n      mload(0x40)\n      0x20\n      dup2\n      dup4\n      sub\n      sub\n      dup2\n      mstore\n      swap1\n      0x40\n      mstore\n      swap2\n      pop\n      0xe0\n      shl\n      0x20\n      dup3\n      add\n      dup1\n      mload\n      0xffffffffffffffffffffffffffffffffffffffffffffffffffffffff\n      dup4\n      dup2\n      dup4\n      and\n      or\n      dup4\n      mstore\n      pop\n      pop\n      pop\n      pop\n        /* \"contracts/token/ERC20/utils/SafeERC20.sol\":1385:1404  _callOptionalReturn */\n      tag_218\n        /* \"contracts/token/ERC20/utils/SafeERC20.sol\":1385:1456  _callOptionalReturn(token, abi.encodeCall(token.transfer, (to, value))) */\n      jump\t// in\n    tag_251:\n        /* \"contracts/token/ERC20/utils/SafeERC20.sol\":1303:1463  function safeTransfer(IERC20 token, address to, uint256 value) internal {... */\n      pop\n      pop\n      pop\n      jump\t// out\n        /* \"upgradeable/contracts/proxy/utils/Initializable.sol\":8804:8974  function _getInitializableStorage() private pure returns (InitializableStorage storage $) {... */\n    tag_161:\n        /* \"upgradeable/contracts/proxy/utils/Initializable.sol\":8862:8892  InitializableStorage storage $ */\n      0x00\n        /* \"upgradeable/contracts/proxy/utils/Initializable.sol\":8937:8958  INITIALIZABLE_STORAGE */\n      0xf0c57e16840df040f15088dc2f81fe391c3923bec73e23a9662efc9c229c6a00\n        /* \"upgradeable/contracts/proxy/utils/Initializable.sol\":8927:8958  $.slot := INITIALIZABLE_STORAGE */\n      swap1\n      pop\n        /* \"upgradeable/contracts/proxy/utils/Initializable.sol\":8804:8974  function _getInitializableStorage() private pure returns (InitializableStorage storage $) {... */\n      swap1\n      jump\t// out\n        /* \"upgradeable/contracts/token/ERC20/ERC20Upgradeable.sol\":2276:2423  function __ERC20_init(string memory name_, string memory symbol_) internal onlyInitializing {... */\n    tag_169:\n        /* \"upgradeable/contracts/proxy/utils/Initializable.sol\":6998:7018  _checkInitializing() */\n      tag_256\n        /* \"upgradeable/contracts/proxy/utils/Initializable.sol\":6998:7016  _checkInitializing */\n      tag_257\n        /* \"upgradeable/contracts/proxy/utils/Initializable.sol\":6998:7018  _checkInitializing() */\n      jump\t// in\n    tag_256:\n        /* \"upgradeable/contracts/token/ERC20/ERC20Upgradeable.sol\":2378:2416  __ERC20_init_unchained(name_, symbol_) */\n      tag_259\n        /* \"upgradeable/contracts/token/ERC20/ERC20Upgradeable.sol\":2401:2406  name_ */\n      dup3\n        /* \"upgradeable/contracts/token/ERC20/ERC20Upgradeable.sol\":2408:2415  symbol_ */\n      dup3\n        /* \"upgradeable/contracts/token/ERC20/ERC20Upgradeable.sol\":2378:2400  __ERC20_init_unchained */\n      tag_260\n        /* \"upgradeable/contracts/token/ERC20/ERC20Upgradeable.sol\":2378:2416  __ERC20_init_unchained(name_, symbol_) */\n      jump\t// in\n    tag_259:\n        /* \"upgradeable/contracts/token/ERC20/ERC20Upgradeable.sol\":2276:2423  function __ERC20_init(string memory name_, string memory symbol_) internal onlyInitializing {... */\n      pop\n      pop\n      jump\t// out\n        /* \"src/VestingToken.sol\":6347:6483  function _totalUnlocked() private view returns (uint256) {... */\n    tag_185:\n        /* \"src/VestingToken.sol\":6395:6402  uint256 */\n      0x00\n        /* \"src/VestingToken.sol\":6421:6476  _computeUnlocked(_initialLockedSupply, block.timestamp) */\n      tag_262\n        /* \"src/VestingToken.sol\":6438:6458  _initialLockedSupply */\n      sload(0x06)\n        /* \"src/VestingToken.sol\":6460:6475  block.timestamp */\n      timestamp\n        /* \"src/VestingToken.sol\":6421:6437  _computeUnlocked */\n      tag_213\n        /* \"src/VestingToken.sol\":6421:6476  _computeUnlocked(_initialLockedSupply, block.timestamp) */\n      jump\t// in\n    tag_262:\n        /* \"src/VestingToken.sol\":6414:6476  return _computeUnlocked(_initialLockedSupply, block.timestamp) */\n      swap1\n      pop\n        /* \"src/VestingToken.sol\":6347:6483  function _totalUnlocked() private view returns (uint256) {... */\n      swap1\n      jump\t// out\n        /* \"upgradeable/contracts/token/ERC20/ERC20Upgradeable.sol\":10970:11457  function _approve(address owner, address spender, uint256 value, bool emitEvent) internal virtual {... */\n    tag_195:\n        /* \"upgradeable/contracts/token/ERC20/ERC20Upgradeable.sol\":11078:11100  ERC20Storage storage $ */\n      0x00\n        /* \"upgradeable/contracts/token/ERC20/ERC20Upgradeable.sol\":11103:11121  _getERC20Storage() */\n      tag_264\n        /* \"upgradeable/contracts/token/ERC20/ERC20Upgradeable.sol\":11103:11119  _getERC20Storage */\n      tag_92\n        /* \"upgradeable/contracts/token/ERC20/ERC20Upgradeable.sol\":11103:11121  _getERC20Storage() */\n      jump\t// in\n    tag_264:\n        /* \"upgradeable/contracts/token/ERC20/ERC20Upgradeable.sol\":11078:11121  ERC20Storage storage $ = _getERC20Storage() */\n      swap1\n      pop\n        /* \"upgradeable/contracts/token/ERC20/ERC20Upgradeable.sol\":11152:11153  0 */\n      0x00\n        /* \"upgradeable/contracts/token/ERC20/ERC20Upgradeable.sol\":11135:11154  owner == address(0) */\n      0xffffffffffffffffffffffffffffffffffffffff\n      and\n        /* \"upgradeable/contracts/token/ERC20/ERC20Upgradeable.sol\":11135:11140  owner */\n      dup6\n        /* \"upgradeable/contracts/token/ERC20/ERC20Upgradeable.sol\":11135:11154  owner == address(0) */\n      0xffffffffffffffffffffffffffffffffffffffff\n      and\n      sub\n        /* \"upgradeable/contracts/token/ERC20/ERC20Upgradeable.sol\":11131:11220  if (owner == address(0)) {... */\n      tag_265\n      jumpi\n        /* \"upgradeable/contracts/token/ERC20/ERC20Upgradeable.sol\":11206:11207  0 */\n      0x00\n        /* \"upgradeable/contracts/token/ERC20/ERC20Upgradeable.sol\":11177:11209  ERC20InvalidApprover(address(0)) */\n      mload(0x40)\n      0xe602df0500000000000000000000000000000000000000000000000000000000\n      dup2\n      mstore\n      0x04\n      add\n      tag_266\n      swap2\n      swap1\n      tag_206\n      jump\t// in\n    tag_266:\n      mload(0x40)\n      dup1\n      swap2\n      sub\n      swap1\n      revert\n        /* \"upgradeable/contracts/token/ERC20/ERC20Upgradeable.sol\":11131:11220  if (owner == address(0)) {... */\n    tag_265:\n        /* \"upgradeable/contracts/token/ERC20/ERC20Upgradeable.sol\":11252:11253  0 */\n      0x00\n        /* \"upgradeable/contracts/token/ERC20/ERC20Upgradeable.sol\":11233:11254  spender == address(0) */\n      0xffffffffffffffffffffffffffffffffffffffff\n      and\n        /* \"upgradeable/contracts/token/ERC20/ERC20Upgradeable.sol\":11233:11240  spender */\n      dup5\n        /* \"upgradeable/contracts/token/ERC20/ERC20Upgradeable.sol\":11233:11254  spender == address(0) */\n      0xffffffffffffffffffffffffffffffffffffffff\n      and\n      sub\n        /* \"upgradeable/contracts/token/ERC20/ERC20Upgradeable.sol\":11229:11319  if (spender == address(0)) {... */\n      tag_267\n      jumpi\n        /* \"upgradeable/contracts/token/ERC20/ERC20Upgradeable.sol\":11305:11306  0 */\n      0x00\n        /* \"upgradeable/contracts/token/ERC20/ERC20Upgradeable.sol\":11277:11308  ERC20InvalidSpender(address(0)) */\n      mload(0x40)\n      0x94280d6200000000000000000000000000000000000000000000000000000000\n      dup2\n      mstore\n      0x04\n      add\n      tag_268\n      swap2\n      swap1\n      tag_206\n      jump\t// in\n    tag_268:\n      mload(0x40)\n      dup1\n      swap2\n      sub\n      swap1\n      revert\n        /* \"upgradeable/contracts/token/ERC20/ERC20Upgradeable.sol\":11229:11319  if (spender == address(0)) {... */\n    tag_267:\n        /* \"upgradeable/contracts/token/ERC20/ERC20Upgradeable.sol\":11360:11365  value */\n      dup3\n        /* \"upgradeable/contracts/token/ERC20/ERC20Upgradeable.sol\":11328:11329  $ */\n      dup2\n        /* \"upgradeable/contracts/token/ERC20/ERC20Upgradeable.sol\":11328:11341  $._allowances */\n      0x01\n      add\n        /* \"upgradeable/contracts/token/ERC20/ERC20Upgradeable.sol\":11328:11348  $._allowances[owner] */\n      0x00\n        /* \"upgradeable/contracts/token/ERC20/ERC20Upgradeable.sol\":11342:11347  owner */\n      dup8\n        /* \"upgradeable/contracts/token/ERC20/ERC20Upgradeable.sol\":11328:11348  $._allowances[owner] */\n      0xffffffffffffffffffffffffffffffffffffffff\n      and\n      0xffffffffffffffffffffffffffffffffffffffff\n      and\n      dup2\n      mstore\n      0x20\n      add\n      swap1\n      dup2\n      mstore\n      0x20\n      add\n      0x00\n      keccak256\n        /* \"upgradeable/contracts/token/ERC20/ERC20Upgradeable.sol\":11328:11357  $._allowances[owner][spender] */\n      0x00\n        /* \"upgradeable/contracts/token/ERC20/ERC20Upgradeable.sol\":11349:11356  spender */\n      dup7\n        /* \"upgradeable/contracts/token/ERC20/ERC20Upgradeable.sol\":11328:11357  $._allowances[owner][spender] */\n      0xffffffffffffffffffffffffffffffffffffffff\n      and\n      0xffffffffffffffffffffffffffffffffffffffff\n      and\n      dup2\n      mstore\n      0x20\n      add\n      swap1\n      dup2\n      mstore\n      0x20\n      add\n      0x00\n      keccak256\n        /* \"upgradeable/contracts/token/ERC20/ERC20Upgradeable.sol\":11328:11365  $._allowances[owner][spender] = value */\n      dup2\n      swap1\n      sstore\n      pop\n        /* \"upgradeable/contracts/token/ERC20/ERC20Upgradeable.sol\":11379:11388  emitEvent */\n      dup2\n        /* \"upgradeable/contracts/token/ERC20/ERC20Upgradeable.sol\":11375:11451  if (emitEvent) {... */\n      iszero\n      tag_269\n      jumpi\n        /* \"upgradeable/contracts/token/ERC20/ERC20Upgradeable.sol\":11425:11432  spender */\n      dup4\n        /* \"upgradeable/contracts/token/ERC20/ERC20Upgradeable.sol\":11409:11440  Approval(owner, spender, value) */\n      0xffffffffffffffffffffffffffffffffffffffff\n      and\n        /* \"upgradeable/contracts/token/ERC20/ERC20Upgradeable.sol\":11418:11423  owner */\n      dup6\n        /* \"upgradeable/contracts/token/ERC20/ERC20Upgradeable.sol\":11409:11440  Approval(owner, spender, value) */\n      0xffffffffffffffffffffffffffffffffffffffff\n      and\n      0x8c5be1e5ebec7d5bd14f71427d1e84f3dd0314c0f7b2291e5b200ac8c7c3b925\n        /* \"upgradeable/contracts/token/ERC20/ERC20Upgradeable.sol\":11434:11439  value */\n      dup6\n        /* \"upgradeable/contracts/token/ERC20/ERC20Upgradeable.sol\":11409:11440  Approval(owner, spender, value) */\n      mload(0x40)\n      tag_270\n      swap2\n      swap1\n      tag_36\n      jump\t// in\n    tag_270:\n      mload(0x40)\n      dup1\n      swap2\n      sub\n      swap1\n      log3\n        /* \"upgradeable/contracts/token/ERC20/ERC20Upgradeable.sol\":11375:11451  if (emitEvent) {... */\n    tag_269:\n        /* \"upgradeable/contracts/token/ERC20/ERC20Upgradeable.sol\":11068:11457  {... */\n      pop\n        /* \"upgradeable/contracts/token/ERC20/ERC20Upgradeable.sol\":10970:11457  function _approve(address owner, address spender, uint256 value, bool emitEvent) internal virtual {... */\n      pop\n      pop\n      pop\n      pop\n      jump\t// out\n        /* \"upgradeable/contracts/token/ERC20/ERC20Upgradeable.sol\":7214:8384  function _update(address from, address to, uint256 value) internal virtual {... */\n    tag_210:\n        /* \"upgradeable/contracts/token/ERC20/ERC20Upgradeable.sol\":7299:7321  ERC20Storage storage $ */\n      0x00\n        /* \"upgradeable/contracts/token/ERC20/ERC20Upgradeable.sol\":7324:7342  _getERC20Storage() */\n      tag_272\n        /* \"upgradeable/contracts/token/ERC20/ERC20Upgradeable.sol\":7324:7340  _getERC20Storage */\n      tag_92\n        /* \"upgradeable/contracts/token/ERC20/ERC20Upgradeable.sol\":7324:7342  _getERC20Storage() */\n      jump\t// in\n    tag_272:\n        /* \"upgradeable/contracts/token/ERC20/ERC20Upgradeable.sol\":7299:7342  ERC20Storage storage $ = _getERC20Storage() */\n      swap1\n      pop\n        /* \"upgradeable/contracts/token/ERC20/ERC20Upgradeable.sol\":7372:7373  0 */\n      0x00\n        /* \"upgradeable/contracts/token/ERC20/ERC20Upgradeable.sol\":7356:7374  from == address(0) */\n      0xffffffffffffffffffffffffffffffffffffffff\n      and\n        /* \"upgradeable/contracts/token/ERC20/ERC20Upgradeable.sol\":7356:7360  from */\n      dup5\n        /* \"upgradeable/contracts/token/ERC20/ERC20Upgradeable.sol\":7356:7374  from == address(0) */\n      0xffffffffffffffffffffffffffffffffffffffff\n      and\n      sub\n        /* \"upgradeable/contracts/token/ERC20/ERC20Upgradeable.sol\":7352:7898  if (from == address(0)) {... */\n      tag_273\n      jumpi\n        /* \"upgradeable/contracts/token/ERC20/ERC20Upgradeable.sol\":7510:7515  value */\n      dup2\n        /* \"upgradeable/contracts/token/ERC20/ERC20Upgradeable.sol\":7492:7493  $ */\n      dup2\n        /* \"upgradeable/contracts/token/ERC20/ERC20Upgradeable.sol\":7492:7506  $._totalSupply */\n      0x02\n      add\n      0x00\n        /* \"upgradeable/contracts/token/ERC20/ERC20Upgradeable.sol\":7492:7515  $._totalSupply += value */\n      dup3\n      dup3\n      sload\n      tag_274\n      swap2\n      swap1\n      tag_133\n      jump\t// in\n    tag_274:\n      swap3\n      pop\n      pop\n      dup2\n      swap1\n      sstore\n      pop\n        /* \"upgradeable/contracts/token/ERC20/ERC20Upgradeable.sol\":7352:7898  if (from == address(0)) {... */\n      jump(tag_275)\n    tag_273:\n        /* \"upgradeable/contracts/token/ERC20/ERC20Upgradeable.sol\":7546:7565  uint256 fromBalance */\n      0x00\n        /* \"upgradeable/contracts/token/ERC20/ERC20Upgradeable.sol\":7568:7569  $ */\n      dup2\n        /* \"upgradeable/contracts/token/ERC20/ERC20Upgradeable.sol\":7568:7579  $._balances */\n      0x00\n      add\n        /* \"upgradeable/contracts/token/ERC20/ERC20Upgradeable.sol\":7568:7585  $._balances[from] */\n      0x00\n        /* \"upgradeable/contracts/token/ERC20/ERC20Upgradeable.sol\":7580:7584  from */\n      dup7\n        /* \"upgradeable/contracts/token/ERC20/ERC20Upgradeable.sol\":7568:7585  $._balances[from] */\n      0xffffffffffffffffffffffffffffffffffffffff\n      and\n      0xffffffffffffffffffffffffffffffffffffffff\n      and\n      dup2\n      mstore\n      0x20\n      add\n      swap1\n      dup2\n      mstore\n      0x20\n      add\n      0x00\n      keccak256\n      sload\n        /* \"upgradeable/contracts/token/ERC20/ERC20Upgradeable.sol\":7546:7585  uint256 fromBalance = $._balances[from] */\n      swap1\n      pop\n        /* \"upgradeable/contracts/token/ERC20/ERC20Upgradeable.sol\":7617:7622  value */\n      dup3\n        /* \"upgradeable/contracts/token/ERC20/ERC20Upgradeable.sol\":7603:7614  fromBalance */\n      dup2\n        /* \"upgradeable/contracts/token/ERC20/ERC20Upgradeable.sol\":7603:7622  fromBalance < value */\n      lt\n        /* \"upgradeable/contracts/token/ERC20/ERC20Upgradeable.sol\":7599:7714  if (fromBalance < value) {... */\n      iszero\n      tag_276\n      jumpi\n        /* \"upgradeable/contracts/token/ERC20/ERC20Upgradeable.sol\":7674:7678  from */\n      dup5\n        /* \"upgradeable/contracts/token/ERC20/ERC20Upgradeable.sol\":7680:7691  fromBalance */\n      dup2\n        /* \"upgradeable/contracts/token/ERC20/ERC20Upgradeable.sol\":7693:7698  value */\n      dup5\n        /* \"upgradeable/contracts/token/ERC20/ERC20Upgradeable.sol\":7649:7699  ERC20InsufficientBalance(from, fromBalance, value) */\n      mload(0x40)\n      0xe450d38c00000000000000000000000000000000000000000000000000000000\n      dup2\n      mstore\n      0x04\n      add\n      tag_277\n      swap4\n      swap3\n      swap2\n      swap1\n      tag_201\n      jump\t// in\n    tag_277:\n      mload(0x40)\n      dup1\n      swap2\n      sub\n      swap1\n      revert\n        /* \"upgradeable/contracts/token/ERC20/ERC20Upgradeable.sol\":7599:7714  if (fromBalance < value) {... */\n    tag_276:\n        /* \"upgradeable/contracts/token/ERC20/ERC20Upgradeable.sol\":7868:7873  value */\n      dup3\n        /* \"upgradeable/contracts/token/ERC20/ERC20Upgradeable.sol\":7854:7865  fromBalance */\n      dup2\n        /* \"upgradeable/contracts/token/ERC20/ERC20Upgradeable.sol\":7854:7873  fromBalance - value */\n      sub\n        /* \"upgradeable/contracts/token/ERC20/ERC20Upgradeable.sol\":7834:7835  $ */\n      dup3\n        /* \"upgradeable/contracts/token/ERC20/ERC20Upgradeable.sol\":7834:7845  $._balances */\n      0x00\n      add\n        /* \"upgradeable/contracts/token/ERC20/ERC20Upgradeable.sol\":7834:7851  $._balances[from] */\n      0x00\n        /* \"upgradeable/contracts/token/ERC20/ERC20Upgradeable.sol\":7846:7850  from */\n      dup8\n        /* \"upgradeable/contracts/token/ERC20/ERC20Upgradeable.sol\":7834:7851  $._balances[from] */\n      0xffffffffffffffffffffffffffffffffffffffff\n      and\n      0xffffffffffffffffffffffffffffffffffffffff\n      and\n      dup2\n      mstore\n      0x20\n      add\n      swap1\n      dup2\n      mstore\n      0x20\n      add\n      0x00\n      keccak256\n        /* \"upgradeable/contracts/token/ERC20/ERC20Upgradeable.sol\":7834:7873  $._balances[from] = fromBalance - value */\n      dup2\n      swap1\n      sstore\n      pop\n        /* \"upgradeable/contracts/token/ERC20/ERC20Upgradeable.sol\":7532:7898  {... */\n      pop\n        /* \"upgradeable/contracts/token/ERC20/ERC20Upgradeable.sol\":7352:7898  if (from == address(0)) {... */\n    tag_275:\n        /* \"upgradeable/contracts/token/ERC20/ERC20Upgradeable.sol\":7926:7927  0 */\n      0x00\n        /* \"upgradeable/contracts/token/ERC20/ERC20Upgradeable.sol\":7912:7928  to == address(0) */\n      0xffffffffffffffffffffffffffffffffffffffff\n      and\n        /* \"upgradeable/contracts/token/ERC20/ERC20Upgradeable.sol\":7912:7914  to */\n      dup4\n        /* \"upgradeable/contracts/token/ERC20/ERC20Upgradeable.sol\":7912:7928  to == address(0) */\n      0xffffffffffffffffffffffffffffffffffffffff\n      and\n      sub\n        /* \"upgradeable/contracts/token/ERC20/ERC20Upgradeable.sol\":7908:8337  if (to == address(0)) {... */\n      tag_278\n      jumpi\n        /* \"upgradeable/contracts/token/ERC20/ERC20Upgradeable.sol\":8093:8098  value */\n      dup2\n        /* \"upgradeable/contracts/token/ERC20/ERC20Upgradeable.sol\":8075:8076  $ */\n      dup2\n        /* \"upgradeable/contracts/token/ERC20/ERC20Upgradeable.sol\":8075:8089  $._totalSupply */\n      0x02\n      add\n      0x00\n        /* \"upgradeable/contracts/token/ERC20/ERC20Upgradeable.sol\":8075:8098  $._totalSupply -= value */\n      dup3\n      dup3\n      sload\n      sub\n      swap3\n      pop\n      pop\n      dup2\n      swap1\n      sstore\n      pop\n        /* \"upgradeable/contracts/token/ERC20/ERC20Upgradeable.sol\":7908:8337  if (to == address(0)) {... */\n      jump(tag_279)\n    tag_278:\n        /* \"upgradeable/contracts/token/ERC20/ERC20Upgradeable.sol\":8307:8312  value */\n      dup2\n        /* \"upgradeable/contracts/token/ERC20/ERC20Upgradeable.sol\":8288:8289  $ */\n      dup2\n        /* \"upgradeable/contracts/token/ERC20/ERC20Upgradeable.sol\":8288:8299  $._balances */\n      0x00\n      add\n        /* \"upgradeable/contracts/token/ERC20/ERC20Upgradeable.sol\":8288:8303  $._balances[to] */\n      0x00\n        /* \"upgradeable/contracts/token/ERC20/ERC20Upgradeable.sol\":8300:8302  to */\n      dup6\n        /* \"upgradeable/contracts/token/ERC20/ERC20Upgradeable.sol\":8288:8303  $._balances[to] */\n      0xffffffffffffffffffffffffffffffffffffffff\n      and\n      0xffffffffffffffffffffffffffffffffffffffff\n      and\n      dup2\n      mstore\n      0x20\n      add\n      swap1\n      dup2\n      mstore\n      0x20\n      add\n      0x00\n      keccak256\n      0x00\n        /* \"upgradeable/contracts/token/ERC20/ERC20Upgradeable.sol\":8288:8312  $._balances[to] += value */\n      dup3\n      dup3\n      sload\n      add\n      swap3\n      pop\n      pop\n      dup2\n      swap1\n      sstore\n      pop\n        /* \"upgradeable/contracts/token/ERC20/ERC20Upgradeable.sol\":7908:8337  if (to == address(0)) {... */\n    tag_279:\n        /* \"upgradeable/contracts/token/ERC20/ERC20Upgradeable.sol\":8367:8369  to */\n      dup3\n        /* \"upgradeable/contracts/token/ERC20/ERC20Upgradeable.sol\":8352:8377  Transfer(from, to, value) */\n      0xffffffffffffffffffffffffffffffffffffffff\n      and\n        /* \"upgradeable/contracts/token/ERC20/ERC20Upgradeable.sol\":8361:8365  from */\n      dup5\n        /* \"upgradeable/contracts/token/ERC20/ERC20Upgradeable.sol\":8352:8377  Transfer(from, to, value) */\n      0xffffffffffffffffffffffffffffffffffffffff\n      and\n      0xddf252ad1be2c89b69c2b068fc378daa952ba7f163c4a11628f55a4df523b3ef\n        /* \"upgradeable/contracts/token/ERC20/ERC20Upgradeable.sol\":8371:8376  value */\n      dup5\n        /* \"upgradeable/contracts/token/ERC20/ERC20Upgradeable.sol\":8352:8377  Transfer(from, to, value) */\n      mload(0x40)\n      tag_280\n      swap2\n      swap1\n      tag_36\n      jump\t// in\n    tag_280:\n      mload(0x40)\n      dup1\n      swap2\n      sub\n      swap1\n      log3\n        /* \"upgradeable/contracts/token/ERC20/ERC20Upgradeable.sol\":7289:8384  {... */\n      pop\n        /* \"upgradeable/contracts/token/ERC20/ERC20Upgradeable.sol\":7214:8384  function _update(address from, address to, uint256 value) internal virtual {... */\n      pop\n      pop\n      pop\n      jump\t// out\n        /* \"src/VestingToken.sol\":6831:7970  function _computeUnlocked(uint256 lockedTokens, uint256 time) private view returns (uint256 unlockedTokens) {... */\n    tag_213:\n        /* \"src/VestingToken.sol\":6915:6937  uint256 unlockedTokens */\n      0x00\n        /* \"src/VestingToken.sol\":6960:6968  _vesting */\n      0x03\n        /* \"src/VestingToken.sol\":6960:6974  _vesting.cliff */\n      0x01\n      add\n      sload\n        /* \"src/VestingToken.sol\":6953:6957  time */\n      dup3\n        /* \"src/VestingToken.sol\":6953:6974  time < _vesting.cliff */\n      lt\n        /* \"src/VestingToken.sol\":6949:7009  if (time < _vesting.cliff) {... */\n      iszero\n      tag_282\n      jumpi\n        /* \"src/VestingToken.sol\":6997:6998  0 */\n      0x00\n        /* \"src/VestingToken.sol\":6990:6998  return 0 */\n      swap1\n      pop\n      jump(tag_281)\n        /* \"src/VestingToken.sol\":6949:7009  if (time < _vesting.cliff) {... */\n    tag_282:\n        /* \"src/VestingToken.sol\":7019:7045  uint256 currentPeriodStart */\n      0x00\n        /* \"src/VestingToken.sol\":7048:7056  _vesting */\n      0x03\n        /* \"src/VestingToken.sol\":7048:7062  _vesting.cliff */\n      0x01\n      add\n      sload\n        /* \"src/VestingToken.sol\":7019:7062  uint256 currentPeriodStart = _vesting.cliff */\n      swap1\n      pop\n        /* \"src/VestingToken.sol\":7072:7098  Schedule[] memory schedule */\n      0x00\n        /* \"src/VestingToken.sol\":7101:7109  _vesting */\n      0x03\n        /* \"src/VestingToken.sol\":7101:7118  _vesting.schedule */\n      0x02\n      add\n        /* \"src/VestingToken.sol\":7072:7118  Schedule[] memory schedule = _vesting.schedule */\n      dup1\n      sload\n      dup1\n      0x20\n      mul\n      0x20\n      add\n      mload(0x40)\n      swap1\n      dup2\n      add\n      0x40\n      mstore\n      dup1\n      swap3\n      swap2\n      swap1\n      dup2\n      dup2\n      mstore\n      0x20\n      add\n      0x00\n      swap1\n    tag_283:\n      dup3\n      dup3\n      lt\n      iszero\n      tag_284\n      jumpi\n      dup4\n      dup3\n      swap1\n      0x00\n      mstore\n      keccak256(0x00, 0x20)\n      swap1\n      0x02\n      mul\n      add\n      mload(0x40)\n      dup1\n      0x40\n      add\n      0x40\n      mstore\n      swap1\n      dup2\n      0x00\n      dup3\n      add\n      sload\n      dup2\n      mstore\n      0x20\n      add\n      0x01\n      dup3\n      add\n      sload\n      dup2\n      mstore\n      pop\n      pop\n      dup2\n      mstore\n      0x20\n      add\n      swap1\n      0x01\n      add\n      swap1\n      jump(tag_283)\n    tag_284:\n      pop\n      pop\n      pop\n      pop\n      swap1\n      pop\n        /* \"src/VestingToken.sol\":7128:7150  uint256 scheduleLength */\n      0x00\n        /* \"src/VestingToken.sol\":7153:7161  schedule */\n      dup2\n        /* \"src/VestingToken.sol\":7153:7168  schedule.length */\n      mload\n        /* \"src/VestingToken.sol\":7128:7168  uint256 scheduleLength = schedule.length */\n      swap1\n      pop\n        /* \"src/VestingToken.sol\":7184:7193  uint256 i */\n      0x00\n        /* \"src/VestingToken.sol\":7179:7964  for (uint256 i = 0; i < scheduleLength; i++) {... */\n    tag_286:\n        /* \"src/VestingToken.sol\":7203:7217  scheduleLength */\n      dup2\n        /* \"src/VestingToken.sol\":7199:7200  i */\n      dup2\n        /* \"src/VestingToken.sol\":7199:7217  i < scheduleLength */\n      lt\n        /* \"src/VestingToken.sol\":7179:7964  for (uint256 i = 0; i < scheduleLength; i++) {... */\n      iszero\n      tag_287\n      jumpi\n        /* \"src/VestingToken.sol\":7238:7267  Schedule memory currentPeriod */\n      0x00\n        /* \"src/VestingToken.sol\":7270:7278  schedule */\n      dup4\n        /* \"src/VestingToken.sol\":7279:7280  i */\n      dup3\n        /* \"src/VestingToken.sol\":7270:7281  schedule[i] */\n      dup2\n      mload\n      dup2\n      lt\n      tag_289\n      jumpi\n      tag_290\n      tag_145\n      jump\t// in\n    tag_290:\n    tag_289:\n      0x20\n      mul\n      0x20\n      add\n      add\n      mload\n        /* \"src/VestingToken.sol\":7238:7281  Schedule memory currentPeriod = schedule[i] */\n      swap1\n      pop\n        /* \"src/VestingToken.sol\":7295:7319  uint256 currentPeriodEnd */\n      0x00\n        /* \"src/VestingToken.sol\":7322:7335  currentPeriod */\n      dup2\n        /* \"src/VestingToken.sol\":7322:7343  currentPeriod.endTime */\n      0x00\n      add\n      mload\n        /* \"src/VestingToken.sol\":7295:7343  uint256 currentPeriodEnd = currentPeriod.endTime */\n      swap1\n      pop\n        /* \"src/VestingToken.sol\":7357:7385  uint256 currentPeriodPortion */\n      0x00\n        /* \"src/VestingToken.sol\":7388:7401  currentPeriod */\n      dup3\n        /* \"src/VestingToken.sol\":7388:7409  currentPeriod.portion */\n      0x20\n      add\n      mload\n        /* \"src/VestingToken.sol\":7357:7409  uint256 currentPeriodPortion = currentPeriod.portion */\n      swap1\n      pop\n        /* \"src/VestingToken.sol\":7435:7451  currentPeriodEnd */\n      dup2\n        /* \"src/VestingToken.sol\":7428:7432  time */\n      dup10\n        /* \"src/VestingToken.sol\":7428:7451  time < currentPeriodEnd */\n      lt\n        /* \"src/VestingToken.sol\":7424:7954  if (time < currentPeriodEnd) {... */\n      iszero\n      tag_291\n      jumpi\n        /* \"src/VestingToken.sol\":7471:7496  uint256 elapsedPeriodTime */\n      0x00\n        /* \"src/VestingToken.sol\":7506:7524  currentPeriodStart */\n      dup8\n        /* \"src/VestingToken.sol\":7499:7503  time */\n      dup11\n        /* \"src/VestingToken.sol\":7499:7524  time - currentPeriodStart */\n      tag_292\n      swap2\n      swap1\n      tag_116\n      jump\t// in\n    tag_292:\n        /* \"src/VestingToken.sol\":7471:7524  uint256 elapsedPeriodTime = time - currentPeriodStart */\n      swap1\n      pop\n        /* \"src/VestingToken.sol\":7542:7564  uint256 periodDuration */\n      0x00\n        /* \"src/VestingToken.sol\":7586:7604  currentPeriodStart */\n      dup9\n        /* \"src/VestingToken.sol\":7567:7583  currentPeriodEnd */\n      dup5\n        /* \"src/VestingToken.sol\":7567:7604  currentPeriodEnd - currentPeriodStart */\n      tag_293\n      swap2\n      swap1\n      tag_116\n      jump\t// in\n    tag_293:\n        /* \"src/VestingToken.sol\":7542:7604  uint256 periodDuration = currentPeriodEnd - currentPeriodStart */\n      swap1\n      pop\n        /* \"src/VestingToken.sol\":1149:1155  10_000 */\n      0x2710\n        /* \"src/VestingToken.sol\":7722:7736  periodDuration */\n      dup2\n        /* \"src/VestingToken.sol\":7722:7751  periodDuration * BASIS_POINTS */\n      tag_294\n      swap2\n      swap1\n      tag_295\n      jump\t// in\n    tag_294:\n        /* \"src/VestingToken.sol\":7697:7717  currentPeriodPortion */\n      dup4\n        /* \"src/VestingToken.sol\":7677:7694  elapsedPeriodTime */\n      dup4\n        /* \"src/VestingToken.sol\":7662:7674  lockedTokens */\n      dup15\n        /* \"src/VestingToken.sol\":7662:7694  lockedTokens * elapsedPeriodTime */\n      tag_296\n      swap2\n      swap1\n      tag_295\n      jump\t// in\n    tag_296:\n        /* \"src/VestingToken.sol\":7662:7717  lockedTokens * elapsedPeriodTime * currentPeriodPortion */\n      tag_297\n      swap2\n      swap1\n      tag_295\n      jump\t// in\n    tag_297:\n        /* \"src/VestingToken.sol\":7661:7752  (lockedTokens * elapsedPeriodTime * currentPeriodPortion) / (periodDuration * BASIS_POINTS) */\n      tag_298\n      swap2\n      swap1\n      tag_299\n      jump\t// in\n    tag_298:\n        /* \"src/VestingToken.sol\":7623:7752  unlockedTokens +=... */\n      dup11\n      tag_300\n      swap2\n      swap1\n      tag_133\n      jump\t// in\n    tag_300:\n      swap10\n      pop\n        /* \"src/VestingToken.sol\":7770:7775  break */\n      pop\n      pop\n      pop\n      pop\n      pop\n      jump(tag_287)\n        /* \"src/VestingToken.sol\":7424:7954  if (time < currentPeriodEnd) {... */\n    tag_291:\n        /* \"src/VestingToken.sol\":1149:1155  10_000 */\n      0x2710\n        /* \"src/VestingToken.sol\":7848:7868  currentPeriodPortion */\n      dup2\n        /* \"src/VestingToken.sol\":7833:7845  lockedTokens */\n      dup12\n        /* \"src/VestingToken.sol\":7833:7868  lockedTokens * currentPeriodPortion */\n      tag_302\n      swap2\n      swap1\n      tag_295\n      jump\t// in\n    tag_302:\n        /* \"src/VestingToken.sol\":7832:7884  (lockedTokens * currentPeriodPortion) / BASIS_POINTS */\n      tag_303\n      swap2\n      swap1\n      tag_299\n      jump\t// in\n    tag_303:\n        /* \"src/VestingToken.sol\":7814:7884  unlockedTokens += (lockedTokens * currentPeriodPortion) / BASIS_POINTS */\n      dup9\n      tag_304\n      swap2\n      swap1\n      tag_133\n      jump\t// in\n    tag_304:\n      swap8\n      pop\n        /* \"src/VestingToken.sol\":7923:7939  currentPeriodEnd */\n      dup2\n        /* \"src/VestingToken.sol\":7902:7939  currentPeriodStart = currentPeriodEnd */\n      swap7\n      pop\n        /* \"src/VestingToken.sol\":7224:7964  {... */\n      pop\n      pop\n      pop\n        /* \"src/VestingToken.sol\":7219:7222  i++ */\n      dup1\n      dup1\n      0x01\n      add\n      swap2\n      pop\n      pop\n        /* \"src/VestingToken.sol\":7179:7964  for (uint256 i = 0; i < scheduleLength; i++) {... */\n      jump(tag_286)\n    tag_287:\n      pop\n        /* \"src/VestingToken.sol\":6939:7970  {... */\n      pop\n      pop\n      pop\n        /* \"src/VestingToken.sol\":6831:7970  function _computeUnlocked(uint256 lockedTokens, uint256 time) private view returns (uint256 unlockedTokens) {... */\n    tag_281:\n      swap3\n      swap2\n      pop\n      pop\n      jump\t// out\n        /* \"contracts/token/ERC20/utils/SafeERC20.sol\":6468:7097  function _callOptionalReturn(IERC20 token, bytes memory data) private {... */\n    tag_218:\n        /* \"contracts/token/ERC20/utils/SafeERC20.sol\":6887:6910  bytes memory returndata */\n      0x00\n        /* \"contracts/token/ERC20/utils/SafeERC20.sol\":6913:6946  address(token).functionCall(data) */\n      tag_306\n        /* \"contracts/token/ERC20/utils/SafeERC20.sol\":6941:6945  data */\n      dup3\n        /* \"contracts/token/ERC20/utils/SafeERC20.sol\":6921:6926  token */\n      dup5\n        /* \"contracts/token/ERC20/utils/SafeERC20.sol\":6913:6940  address(token).functionCall */\n      0xffffffffffffffffffffffffffffffffffffffff\n      and\n      tag_307\n      swap1\n        /* \"contracts/token/ERC20/utils/SafeERC20.sol\":6913:6946  address(token).functionCall(data) */\n      swap2\n      swap1\n      0xffffffff\n      and\n      jump\t// in\n    tag_306:\n        /* \"contracts/token/ERC20/utils/SafeERC20.sol\":6887:6946  bytes memory returndata = address(token).functionCall(data) */\n      swap1\n      pop\n        /* \"contracts/token/ERC20/utils/SafeERC20.sol\":6981:6982  0 */\n      0x00\n        /* \"contracts/token/ERC20/utils/SafeERC20.sol\":6960:6970  returndata */\n      dup2\n        /* \"contracts/token/ERC20/utils/SafeERC20.sol\":6960:6977  returndata.length */\n      mload\n        /* \"contracts/token/ERC20/utils/SafeERC20.sol\":6960:6982  returndata.length != 0 */\n      eq\n      iszero\n        /* \"contracts/token/ERC20/utils/SafeERC20.sol\":6960:7017  returndata.length != 0 && !abi.decode(returndata, (bool)) */\n      dup1\n      iszero\n      tag_308\n      jumpi\n      pop\n        /* \"contracts/token/ERC20/utils/SafeERC20.sol\":6998:7008  returndata */\n      dup1\n        /* \"contracts/token/ERC20/utils/SafeERC20.sol\":6987:7017  abi.decode(returndata, (bool)) */\n      dup1\n      0x20\n      add\n      swap1\n      mload\n      dup2\n      add\n      swap1\n      tag_309\n      swap2\n      swap1\n      tag_310\n      jump\t// in\n    tag_309:\n        /* \"contracts/token/ERC20/utils/SafeERC20.sol\":6986:7017  !abi.decode(returndata, (bool)) */\n      iszero\n        /* \"contracts/token/ERC20/utils/SafeERC20.sol\":6960:7017  returndata.length != 0 && !abi.decode(returndata, (bool)) */\n    tag_308:\n        /* \"contracts/token/ERC20/utils/SafeERC20.sol\":6956:7091  if (returndata.length != 0 && !abi.decode(returndata, (bool))) {... */\n      iszero\n      tag_311\n      jumpi\n        /* \"contracts/token/ERC20/utils/SafeERC20.sol\":7073:7078  token */\n      dup3\n        /* \"contracts/token/ERC20/utils/SafeERC20.sol\":7040:7080  SafeERC20FailedOperation(address(token)) */\n      mload(0x40)\n      0x5274afe700000000000000000000000000000000000000000000000000000000\n      dup2\n      mstore\n      0x04\n      add\n      tag_312\n      swap2\n      swap1\n      tag_206\n      jump\t// in\n    tag_312:\n      mload(0x40)\n      dup1\n      swap2\n      sub\n      swap1\n      revert\n        /* \"contracts/token/ERC20/utils/SafeERC20.sol\":6956:7091  if (returndata.length != 0 && !abi.decode(returndata, (bool))) {... */\n    tag_311:\n        /* \"contracts/token/ERC20/utils/SafeERC20.sol\":6538:7097  {... */\n      pop\n        /* \"contracts/token/ERC20/utils/SafeERC20.sol\":6468:7097  function _callOptionalReturn(IERC20 token, bytes memory data) private {... */\n      pop\n      pop\n      jump\t// out\n        /* \"upgradeable/contracts/proxy/utils/Initializable.sol\":7151:7292  function _checkInitializing() internal view virtual {... */\n    tag_257:\n        /* \"upgradeable/contracts/proxy/utils/Initializable.sol\":7218:7235  _isInitializing() */\n      tag_314\n        /* \"upgradeable/contracts/proxy/utils/Initializable.sol\":7218:7233  _isInitializing */\n      tag_315\n        /* \"upgradeable/contracts/proxy/utils/Initializable.sol\":7218:7235  _isInitializing() */\n      jump\t// in\n    tag_314:\n        /* \"upgradeable/contracts/proxy/utils/Initializable.sol\":7213:7286  if (!_isInitializing()) {... */\n      tag_316\n      jumpi\n        /* \"upgradeable/contracts/proxy/utils/Initializable.sol\":7258:7275  NotInitializing() */\n      mload(0x40)\n      0xd7e6bcf800000000000000000000000000000000000000000000000000000000\n      dup2\n      mstore\n      0x04\n      add\n      mload(0x40)\n      dup1\n      swap2\n      sub\n      swap1\n      revert\n        /* \"upgradeable/contracts/proxy/utils/Initializable.sol\":7213:7286  if (!_isInitializing()) {... */\n    tag_316:\n        /* \"upgradeable/contracts/proxy/utils/Initializable.sol\":7151:7292  function _checkInitializing() internal view virtual {... */\n      jump\t// out\n        /* \"upgradeable/contracts/token/ERC20/ERC20Upgradeable.sol\":2429:2645  function __ERC20_init_unchained(string memory name_, string memory symbol_) internal onlyInitializing {... */\n    tag_260:\n        /* \"upgradeable/contracts/proxy/utils/Initializable.sol\":6998:7018  _checkInitializing() */\n      tag_318\n        /* \"upgradeable/contracts/proxy/utils/Initializable.sol\":6998:7016  _checkInitializing */\n      tag_257\n        /* \"upgradeable/contracts/proxy/utils/Initializable.sol\":6998:7018  _checkInitializing() */\n      jump\t// in\n    tag_318:\n        /* \"upgradeable/contracts/token/ERC20/ERC20Upgradeable.sol\":2541:2563  ERC20Storage storage $ */\n      0x00\n        /* \"upgradeable/contracts/token/ERC20/ERC20Upgradeable.sol\":2566:2584  _getERC20Storage() */\n      tag_320\n        /* \"upgradeable/contracts/token/ERC20/ERC20Upgradeable.sol\":2566:2582  _getERC20Storage */\n      tag_92\n        /* \"upgradeable/contracts/token/ERC20/ERC20Upgradeable.sol\":2566:2584  _getERC20Storage() */\n      jump\t// in\n    tag_320:\n        /* \"upgradeable/contracts/token/ERC20/ERC20Upgradeable.sol\":2541:2584  ERC20Storage storage $ = _getERC20Storage() */\n      swap1\n      pop\n        /* \"upgradeable/contracts/token/ERC20/ERC20Upgradeable.sol\":2604:2609  name_ */\n      dup3\n        /* \"upgradeable/contracts/token/ERC20/ERC20Upgradeable.sol\":2594:2595  $ */\n      dup2\n        /* \"upgradeable/contracts/token/ERC20/ERC20Upgradeable.sol\":2594:2601  $._name */\n      0x03\n      add\n        /* \"upgradeable/contracts/token/ERC20/ERC20Upgradeable.sol\":2594:2609  $._name = name_ */\n      swap1\n      dup2\n      tag_321\n      swap2\n      swap1\n      tag_322\n      jump\t// in\n    tag_321:\n      pop\n        /* \"upgradeable/contracts/token/ERC20/ERC20Upgradeable.sol\":2631:2638  symbol_ */\n      dup2\n        /* \"upgradeable/contracts/token/ERC20/ERC20Upgradeable.sol\":2619:2620  $ */\n      dup2\n        /* \"upgradeable/contracts/token/ERC20/ERC20Upgradeable.sol\":2619:2628  $._symbol */\n      0x04\n      add\n        /* \"upgradeable/contracts/token/ERC20/ERC20Upgradeable.sol\":2619:2638  $._symbol = symbol_ */\n      swap1\n      dup2\n      tag_323\n      swap2\n      swap1\n      tag_322\n      jump\t// in\n    tag_323:\n      pop\n        /* \"upgradeable/contracts/token/ERC20/ERC20Upgradeable.sol\":2531:2645  {... */\n      pop\n        /* \"upgradeable/contracts/token/ERC20/ERC20Upgradeable.sol\":2429:2645  function __ERC20_init_unchained(string memory name_, string memory symbol_) internal onlyInitializing {... */\n      pop\n      pop\n      jump\t// out\n        /* \"contracts/utils/Address.sol\":2484:2635  function functionCall(address target, bytes memory data) internal returns (bytes memory) {... */\n    tag_307:\n        /* \"contracts/utils/Address.sol\":2559:2571  bytes memory */\n      0x60\n        /* \"contracts/utils/Address.sol\":2590:2628  functionCallWithValue(target, data, 0) */\n      tag_325\n        /* \"contracts/utils/Address.sol\":2612:2618  target */\n      dup4\n        /* \"contracts/utils/Address.sol\":2620:2624  data */\n      dup4\n        /* \"contracts/utils/Address.sol\":2626:2627  0 */\n      0x00\n        /* \"contracts/utils/Address.sol\":2590:2611  functionCallWithValue */\n      tag_326\n        /* \"contracts/utils/Address.sol\":2590:2628  functionCallWithValue(target, data, 0) */\n      jump\t// in\n    tag_325:\n        /* \"contracts/utils/Address.sol\":2583:2628  return functionCallWithValue(target, data, 0) */\n      swap1\n      pop\n        /* \"contracts/utils/Address.sol\":2484:2635  function functionCall(address target, bytes memory data) internal returns (bytes memory) {... */\n      swap3\n      swap2\n      pop\n      pop\n      jump\t// out\n        /* \"upgradeable/contracts/proxy/utils/Initializable.sol\":8554:8674  function _isInitializing() internal view returns (bool) {... */\n    tag_315:\n        /* \"upgradeable/contracts/proxy/utils/Initializable.sol\":8604:8608  bool */\n      0x00\n        /* \"upgradeable/contracts/proxy/utils/Initializable.sol\":8627:8653  _getInitializableStorage() */\n      tag_328\n        /* \"upgradeable/contracts/proxy/utils/Initializable.sol\":8627:8651  _getInitializableStorage */\n      tag_161\n        /* \"upgradeable/contracts/proxy/utils/Initializable.sol\":8627:8653  _getInitializableStorage() */\n      jump\t// in\n    tag_328:\n        /* \"upgradeable/contracts/proxy/utils/Initializable.sol\":8627:8667  _getInitializableStorage()._initializing */\n      0x00\n      add\n      0x08\n      swap1\n      sload\n      swap1\n      0x0100\n      exp\n      swap1\n      div\n      0xff\n      and\n        /* \"upgradeable/contracts/proxy/utils/Initializable.sol\":8620:8667  return _getInitializableStorage()._initializing */\n      swap1\n      pop\n        /* \"upgradeable/contracts/proxy/utils/Initializable.sol\":8554:8674  function _isInitializing() internal view returns (bool) {... */\n      swap1\n      jump\t// out\n        /* \"contracts/utils/Address.sol\":2959:3366  function functionCallWithValue(address target, bytes memory data, uint256 value) internal returns (bytes memory) {... */\n    tag_326:\n        /* \"contracts/utils/Address.sol\":3058:3070  bytes memory */\n      0x60\n        /* \"contracts/utils/Address.sol\":3110:3115  value */\n      dup2\n        /* \"contracts/utils/Address.sol\":3086:3107  address(this).balance */\n      selfbalance\n        /* \"contracts/utils/Address.sol\":3086:3115  address(this).balance < value */\n      lt\n        /* \"contracts/utils/Address.sol\":3082:3205  if (address(this).balance < value) {... */\n      iszero\n      tag_330\n      jumpi\n        /* \"contracts/utils/Address.sol\":3165:3186  address(this).balance */\n      selfbalance\n        /* \"contracts/utils/Address.sol\":3188:3193  value */\n      dup3\n        /* \"contracts/utils/Address.sol\":3138:3194  Errors.InsufficientBalance(address(this).balance, value) */\n      mload(0x40)\n      0xcf47918100000000000000000000000000000000000000000000000000000000\n      dup2\n      mstore\n      0x04\n      add\n      tag_331\n      swap3\n      swap2\n      swap1\n      tag_332\n      jump\t// in\n    tag_331:\n      mload(0x40)\n      dup1\n      swap2\n      sub\n      swap1\n      revert\n        /* \"contracts/utils/Address.sol\":3082:3205  if (address(this).balance < value) {... */\n    tag_330:\n        /* \"contracts/utils/Address.sol\":3215:3227  bool success */\n      0x00\n        /* \"contracts/utils/Address.sol\":3229:3252  bytes memory returndata */\n      dup1\n        /* \"contracts/utils/Address.sol\":3256:3262  target */\n      dup6\n        /* \"contracts/utils/Address.sol\":3256:3267  target.call */\n      0xffffffffffffffffffffffffffffffffffffffff\n      and\n        /* \"contracts/utils/Address.sol\":3275:3280  value */\n      dup5\n        /* \"contracts/utils/Address.sol\":3282:3286  data */\n      dup7\n        /* \"contracts/utils/Address.sol\":3256:3287  target.call{value: value}(data) */\n      mload(0x40)\n      tag_333\n      swap2\n      swap1\n      tag_334\n      jump\t// in\n    tag_333:\n      0x00\n      mload(0x40)\n      dup1\n      dup4\n      sub\n      dup2\n      dup6\n      dup8\n      gas\n      call\n      swap3\n      pop\n      pop\n      pop\n      returndatasize\n      dup1\n      0x00\n      dup2\n      eq\n      tag_337\n      jumpi\n      mload(0x40)\n      swap2\n      pop\n      and(add(returndatasize, 0x3f), not(0x1f))\n      dup3\n      add\n      0x40\n      mstore\n      returndatasize\n      dup3\n      mstore\n      returndatasize\n      0x00\n      0x20\n      dup5\n      add\n      returndatacopy\n      jump(tag_336)\n    tag_337:\n      0x60\n      swap2\n      pop\n    tag_336:\n      pop\n        /* \"contracts/utils/Address.sol\":3214:3287  (bool success, bytes memory returndata) = target.call{value: value}(data) */\n      swap2\n      pop\n      swap2\n      pop\n        /* \"contracts/utils/Address.sol\":3304:3359  verifyCallResultFromTarget(target, success, returndata) */\n      tag_338\n        /* \"contracts/utils/Address.sol\":3331:3337  target */\n      dup7\n        /* \"contracts/utils/Address.sol\":3339:3346  success */\n      dup4\n        /* \"contracts/utils/Address.sol\":3348:3358  returndata */\n      dup4\n        /* \"contracts/utils/Address.sol\":3304:3330  verifyCallResultFromTarget */\n      tag_339\n        /* \"contracts/utils/Address.sol\":3304:3359  verifyCallResultFromTarget(target, success, returndata) */\n      jump\t// in\n    tag_338:\n        /* \"contracts/utils/Address.sol\":3297:3359  return verifyCallResultFromTarget(target, success, returndata) */\n      swap3\n      pop\n      pop\n      pop\n        /* \"contracts/utils/Address.sol\":2959:3366  function functionCallWithValue(address target, bytes memory data, uint256 value) internal returns (bytes memory) {... */\n      swap4\n      swap3\n      pop\n      pop\n      pop\n      jump\t// out\n        /* \"contracts/utils/Address.sol\":4421:5003  function verifyCallResultFromTarget(... */\n    tag_339:\n        /* \"contracts/utils/Address.sol\":4565:4577  bytes memory */\n      0x60\n        /* \"contracts/utils/Address.sol\":4594:4601  success */\n      dup3\n        /* \"contracts/utils/Address.sol\":4589:4997  if (!success) {... */\n      tag_341\n      jumpi\n        /* \"contracts/utils/Address.sol\":4617:4636  _revert(returndata) */\n      tag_342\n        /* \"contracts/utils/Address.sol\":4625:4635  returndata */\n      dup3\n        /* \"contracts/utils/Address.sol\":4617:4624  _revert */\n      tag_343\n        /* \"contracts/utils/Address.sol\":4617:4636  _revert(returndata) */\n      jump\t// in\n    tag_342:\n        /* \"contracts/utils/Address.sol\":4589:4997  if (!success) {... */\n      jump(tag_344)\n    tag_341:\n        /* \"contracts/utils/Address.sol\":4862:4863  0 */\n      0x00\n        /* \"contracts/utils/Address.sol\":4841:4851  returndata */\n      dup3\n        /* \"contracts/utils/Address.sol\":4841:4858  returndata.length */\n      mload\n        /* \"contracts/utils/Address.sol\":4841:4863  returndata.length == 0 */\n      eq\n        /* \"contracts/utils/Address.sol\":4841:4890  returndata.length == 0 && target.code.length == 0 */\n      dup1\n      iszero\n      tag_345\n      jumpi\n      pop\n        /* \"contracts/utils/Address.sol\":4889:4890  0 */\n      0x00\n        /* \"contracts/utils/Address.sol\":4867:4873  target */\n      dup5\n        /* \"contracts/utils/Address.sol\":4867:4885  target.code.length */\n      0xffffffffffffffffffffffffffffffffffffffff\n      and\n      extcodesize\n        /* \"contracts/utils/Address.sol\":4867:4890  target.code.length == 0 */\n      eq\n        /* \"contracts/utils/Address.sol\":4841:4890  returndata.length == 0 && target.code.length == 0 */\n    tag_345:\n        /* \"contracts/utils/Address.sol\":4837:4956  if (returndata.length == 0 && target.code.length == 0) {... */\n      iszero\n      tag_346\n      jumpi\n        /* \"contracts/utils/Address.sol\":4934:4940  target */\n      dup4\n        /* \"contracts/utils/Address.sol\":4917:4941  AddressEmptyCode(target) */\n      mload(0x40)\n      0x9996b31500000000000000000000000000000000000000000000000000000000\n      dup2\n      mstore\n      0x04\n      add\n      tag_347\n      swap2\n      swap1\n      tag_206\n      jump\t// in\n    tag_347:\n      mload(0x40)\n      dup1\n      swap2\n      sub\n      swap1\n      revert\n        /* \"contracts/utils/Address.sol\":4837:4956  if (returndata.length == 0 && target.code.length == 0) {... */\n    tag_346:\n        /* \"contracts/utils/Address.sol\":4976:4986  returndata */\n      dup2\n        /* \"contracts/utils/Address.sol\":4969:4986  return returndata */\n      swap1\n      pop\n      jump(tag_340)\n        /* \"contracts/utils/Address.sol\":4589:4997  if (!success) {... */\n    tag_344:\n        /* \"contracts/utils/Address.sol\":4421:5003  function verifyCallResultFromTarget(... */\n    tag_340:\n      swap4\n      swap3\n      pop\n      pop\n      pop\n      jump\t// out\n        /* \"contracts/utils/Address.sol\":5543:6061  function _revert(bytes memory returndata) private pure {... */\n    tag_343:\n        /* \"contracts/utils/Address.sol\":5694:5695  0 */\n      0x00\n        /* \"contracts/utils/Address.sol\":5674:5684  returndata */\n      dup2\n        /* \"contracts/utils/Address.sol\":5674:5691  returndata.length */\n      mload\n        /* \"contracts/utils/Address.sol\":5674:5695  returndata.length > 0 */\n      gt\n        /* \"contracts/utils/Address.sol\":5670:6055  if (returndata.length > 0) {... */\n      iszero\n      tag_349\n      jumpi\n        /* \"contracts/utils/Address.sol\":5902:5912  returndata */\n      dup1\n        /* \"contracts/utils/Address.sol\":5896:5913  mload(returndata) */\n      mload\n        /* \"contracts/utils/Address.sol\":5958:5973  returndata_size */\n      dup1\n        /* \"contracts/utils/Address.sol\":5945:5955  returndata */\n      dup3\n        /* \"contracts/utils/Address.sol\":5941:5943  32 */\n      0x20\n        /* \"contracts/utils/Address.sol\":5937:5956  add(32, returndata) */\n      add\n        /* \"contracts/utils/Address.sol\":5930:5974  revert(add(32, returndata), returndata_size) */\n      revert\n        /* \"contracts/utils/Address.sol\":5670:6055  if (returndata.length > 0) {... */\n    tag_349:\n        /* \"contracts/utils/Address.sol\":6025:6044  Errors.FailedCall() */\n      mload(0x40)\n      0xd6bda27500000000000000000000000000000000000000000000000000000000\n      dup2\n      mstore\n      0x04\n      add\n      mload(0x40)\n      dup1\n      swap2\n      sub\n      swap1\n      revert\n    tag_119:\n      mload(0x40)\n      dup1\n      0x60\n      add\n      0x40\n      mstore\n      dup1\n      0x00\n      dup2\n      mstore\n      0x20\n      add\n      0x00\n      dup2\n      mstore\n      0x20\n      add\n      0x60\n      dup2\n      mstore\n      pop\n      swap1\n      jump\t// out\n        /* \"#utility.yul\":7:106   */\n    tag_351:\n        /* \"#utility.yul\":59:65   */\n      0x00\n        /* \"#utility.yul\":93:98   */\n      dup2\n        /* \"#utility.yul\":87:99   */\n      mload\n        /* \"#utility.yul\":77:99   */\n      swap1\n      pop\n        /* \"#utility.yul\":7:106   */\n      swap2\n      swap1\n      pop\n      jump\t// out\n        /* \"#utility.yul\":112:281   */\n    tag_352:\n        /* \"#utility.yul\":196:207   */\n      0x00\n        /* \"#utility.yul\":230:236   */\n      dup3\n        /* \"#utility.yul\":225:228   */\n      dup3\n        /* \"#utility.yul\":218:237   */\n      mstore\n        /* \"#utility.yul\":270:274   */\n      0x20\n        /* \"#utility.yul\":265:268   */\n      dup3\n        /* \"#utility.yul\":261:275   */\n      add\n        /* \"#utility.yul\":246:275   */\n      swap1\n      pop\n        /* \"#utility.yul\":112:281   */\n      swap3\n      swap2\n      pop\n      pop\n      jump\t// out\n        /* \"#utility.yul\":287:426   */\n    tag_353:\n        /* \"#utility.yul\":376:382   */\n      dup3\n        /* \"#utility.yul\":371:374   */\n      dup2\n        /* \"#utility.yul\":366:369   */\n      dup4\n        /* \"#utility.yul\":360:383   */\n      mcopy\n        /* \"#utility.yul\":417:418   */\n      0x00\n        /* \"#utility.yul\":408:414   */\n      dup4\n        /* \"#utility.yul\":403:406   */\n      dup4\n        /* \"#utility.yul\":399:415   */\n      add\n        /* \"#utility.yul\":392:419   */\n      mstore\n        /* \"#utility.yul\":287:426   */\n      pop\n      pop\n      pop\n      jump\t// out\n        /* \"#utility.yul\":432:534   */\n    tag_354:\n        /* \"#utility.yul\":473:479   */\n      0x00\n        /* \"#utility.yul\":524:526   */\n      0x1f\n        /* \"#utility.yul\":520:527   */\n      not\n        /* \"#utility.yul\":515:517   */\n      0x1f\n        /* \"#utility.yul\":508:513   */\n      dup4\n        /* \"#utility.yul\":504:518   */\n      add\n        /* \"#utility.yul\":500:528   */\n      and\n        /* \"#utility.yul\":490:528   */\n      swap1\n      pop\n        /* \"#utility.yul\":432:534   */\n      swap2\n      swap1\n      pop\n      jump\t// out\n        /* \"#utility.yul\":540:917   */\n    tag_355:\n        /* \"#utility.yul\":628:631   */\n      0x00\n        /* \"#utility.yul\":656:695   */\n      tag_426\n        /* \"#utility.yul\":689:694   */\n      dup3\n        /* \"#utility.yul\":656:695   */\n      tag_351\n      jump\t// in\n    tag_426:\n        /* \"#utility.yul\":711:782   */\n      tag_427\n        /* \"#utility.yul\":775:781   */\n      dup2\n        /* \"#utility.yul\":770:773   */\n      dup6\n        /* \"#utility.yul\":711:782   */\n      tag_352\n      jump\t// in\n    tag_427:\n        /* \"#utility.yul\":704:782   */\n      swap4\n      pop\n        /* \"#utility.yul\":791:856   */\n      tag_428\n        /* \"#utility.yul\":849:855   */\n      dup2\n        /* \"#utility.yul\":844:847   */\n      dup6\n        /* \"#utility.yul\":837:841   */\n      0x20\n        /* \"#utility.yul\":830:835   */\n      dup7\n        /* \"#utility.yul\":826:842   */\n      add\n        /* \"#utility.yul\":791:856   */\n      tag_353\n      jump\t// in\n    tag_428:\n        /* \"#utility.yul\":881:910   */\n      tag_429\n        /* \"#utility.yul\":903:909   */\n      dup2\n        /* \"#utility.yul\":881:910   */\n      tag_354\n      jump\t// in\n    tag_429:\n        /* \"#utility.yul\":876:879   */\n      dup5\n        /* \"#utility.yul\":872:911   */\n      add\n        /* \"#utility.yul\":865:911   */\n      swap2\n      pop\n        /* \"#utility.yul\":632:917   */\n      pop\n        /* \"#utility.yul\":540:917   */\n      swap3\n      swap2\n      pop\n      pop\n      jump\t// out\n        /* \"#utility.yul\":923:1236   */\n    tag_26:\n        /* \"#utility.yul\":1036:1040   */\n      0x00\n        /* \"#utility.yul\":1074:1076   */\n      0x20\n        /* \"#utility.yul\":1063:1072   */\n      dup3\n        /* \"#utility.yul\":1059:1077   */\n      add\n        /* \"#utility.yul\":1051:1077   */\n      swap1\n      pop\n        /* \"#utility.yul\":1123:1132   */\n      dup2\n        /* \"#utility.yul\":1117:1121   */\n      dup2\n        /* \"#utility.yul\":1113:1133   */\n      sub\n        /* \"#utility.yul\":1109:1110   */\n      0x00\n        /* \"#utility.yul\":1098:1107   */\n      dup4\n        /* \"#utility.yul\":1094:1111   */\n      add\n        /* \"#utility.yul\":1087:1134   */\n      mstore\n        /* \"#utility.yul\":1151:1229   */\n      tag_431\n        /* \"#utility.yul\":1224:1228   */\n      dup2\n        /* \"#utility.yul\":1215:1221   */\n      dup5\n        /* \"#utility.yul\":1151:1229   */\n      tag_355\n      jump\t// in\n    tag_431:\n        /* \"#utility.yul\":1143:1229   */\n      swap1\n      pop\n        /* \"#utility.yul\":923:1236   */\n      swap3\n      swap2\n      pop\n      pop\n      jump\t// out\n        /* \"#utility.yul\":1323:1440   */\n    tag_357:\n        /* \"#utility.yul\":1432:1433   */\n      0x00\n        /* \"#utility.yul\":1429:1430   */\n      dup1\n        /* \"#utility.yul\":1422:1434   */\n      revert\n        /* \"#utility.yul\":1446:1563   */\n    tag_358:\n        /* \"#utility.yul\":1555:1556   */\n      0x00\n        /* \"#utility.yul\":1552:1553   */\n      dup1\n        /* \"#utility.yul\":1545:1557   */\n      revert\n        /* \"#utility.yul\":1569:1695   */\n    tag_359:\n        /* \"#utility.yul\":1606:1613   */\n      0x00\n        /* \"#utility.yul\":1646:1688   */\n      0xffffffffffffffffffffffffffffffffffffffff\n        /* \"#utility.yul\":1639:1644   */\n      dup3\n        /* \"#utility.yul\":1635:1689   */\n      and\n        /* \"#utility.yul\":1624:1689   */\n      swap1\n      pop\n        /* \"#utility.yul\":1569:1695   */\n      swap2\n      swap1\n      pop\n      jump\t// out\n        /* \"#utility.yul\":1701:1797   */\n    tag_360:\n        /* \"#utility.yul\":1738:1745   */\n      0x00\n        /* \"#utility.yul\":1767:1791   */\n      tag_437\n        /* \"#utility.yul\":1785:1790   */\n      dup3\n        /* \"#utility.yul\":1767:1791   */\n      tag_359\n      jump\t// in\n    tag_437:\n        /* \"#utility.yul\":1756:1791   */\n      swap1\n      pop\n        /* \"#utility.yul\":1701:1797   */\n      swap2\n      swap1\n      pop\n      jump\t// out\n        /* \"#utility.yul\":1803:1925   */\n    tag_361:\n        /* \"#utility.yul\":1876:1900   */\n      tag_439\n        /* \"#utility.yul\":1894:1899   */\n      dup2\n        /* \"#utility.yul\":1876:1900   */\n      tag_360\n      jump\t// in\n    tag_439:\n        /* \"#utility.yul\":1869:1874   */\n      dup2\n        /* \"#utility.yul\":1866:1901   */\n      eq\n        /* \"#utility.yul\":1856:1919   */\n      tag_440\n      jumpi\n        /* \"#utility.yul\":1915:1916   */\n      0x00\n        /* \"#utility.yul\":1912:1913   */\n      dup1\n        /* \"#utility.yul\":1905:1917   */\n      revert\n        /* \"#utility.yul\":1856:1919   */\n    tag_440:\n        /* \"#utility.yul\":1803:1925   */\n      pop\n      jump\t// out\n        /* \"#utility.yul\":1931:2070   */\n    tag_362:\n        /* \"#utility.yul\":1977:1982   */\n      0x00\n        /* \"#utility.yul\":2015:2021   */\n      dup2\n        /* \"#utility.yul\":2002:2022   */\n      calldataload\n        /* \"#utility.yul\":1993:2022   */\n      swap1\n      pop\n        /* \"#utility.yul\":2031:2064   */\n      tag_442\n        /* \"#utility.yul\":2058:2063   */\n      dup2\n        /* \"#utility.yul\":2031:2064   */\n      tag_361\n      jump\t// in\n    tag_442:\n        /* \"#utility.yul\":1931:2070   */\n      swap3\n      swap2\n      pop\n      pop\n      jump\t// out\n        /* \"#utility.yul\":2076:2153   */\n    tag_363:\n        /* \"#utility.yul\":2113:2120   */\n      0x00\n        /* \"#utility.yul\":2142:2147   */\n      dup2\n        /* \"#utility.yul\":2131:2147   */\n      swap1\n      pop\n        /* \"#utility.yul\":2076:2153   */\n      swap2\n      swap1\n      pop\n      jump\t// out\n        /* \"#utility.yul\":2159:2281   */\n    tag_364:\n        /* \"#utility.yul\":2232:2256   */\n      tag_445\n        /* \"#utility.yul\":2250:2255   */\n      dup2\n        /* \"#utility.yul\":2232:2256   */\n      tag_363\n      jump\t// in\n    tag_445:\n        /* \"#utility.yul\":2225:2230   */\n      dup2\n        /* \"#utility.yul\":2222:2257   */\n      eq\n        /* \"#utility.yul\":2212:2275   */\n      tag_446\n      jumpi\n        /* \"#utility.yul\":2271:2272   */\n      0x00\n        /* \"#utility.yul\":2268:2269   */\n      dup1\n        /* \"#utility.yul\":2261:2273   */\n      revert\n        /* \"#utility.yul\":2212:2275   */\n    tag_446:\n        /* \"#utility.yul\":2159:2281   */\n      pop\n      jump\t// out\n        /* \"#utility.yul\":2287:2426   */\n    tag_365:\n        /* \"#utility.yul\":2333:2338   */\n      0x00\n        /* \"#utility.yul\":2371:2377   */\n      dup2\n        /* \"#utility.yul\":2358:2378   */\n      calldataload\n        /* \"#utility.yul\":2349:2378   */\n      swap1\n      pop\n        /* \"#utility.yul\":2387:2420   */\n      tag_448\n        /* \"#utility.yul\":2414:2419   */\n      dup2\n        /* \"#utility.yul\":2387:2420   */\n      tag_364\n      jump\t// in\n    tag_448:\n        /* \"#utility.yul\":2287:2426   */\n      swap3\n      swap2\n      pop\n      pop\n      jump\t// out\n        /* \"#utility.yul\":2432:2906   */\n    tag_29:\n        /* \"#utility.yul\":2500:2506   */\n      0x00\n        /* \"#utility.yul\":2508:2514   */\n      dup1\n        /* \"#utility.yul\":2557:2559   */\n      0x40\n        /* \"#utility.yul\":2545:2554   */\n      dup4\n        /* \"#utility.yul\":2536:2543   */\n      dup6\n        /* \"#utility.yul\":2532:2555   */\n      sub\n        /* \"#utility.yul\":2528:2560   */\n      slt\n        /* \"#utility.yul\":2525:2644   */\n      iszero\n      tag_450\n      jumpi\n        /* \"#utility.yul\":2563:2642   */\n      tag_451\n      tag_357\n      jump\t// in\n    tag_451:\n        /* \"#utility.yul\":2525:2644   */\n    tag_450:\n        /* \"#utility.yul\":2683:2684   */\n      0x00\n        /* \"#utility.yul\":2708:2761   */\n      tag_452\n        /* \"#utility.yul\":2753:2760   */\n      dup6\n        /* \"#utility.yul\":2744:2750   */\n      dup3\n        /* \"#utility.yul\":2733:2742   */\n      dup7\n        /* \"#utility.yul\":2729:2751   */\n      add\n        /* \"#utility.yul\":2708:2761   */\n      tag_362\n      jump\t// in\n    tag_452:\n        /* \"#utility.yul\":2698:2761   */\n      swap3\n      pop\n        /* \"#utility.yul\":2654:2771   */\n      pop\n        /* \"#utility.yul\":2810:2812   */\n      0x20\n        /* \"#utility.yul\":2836:2889   */\n      tag_453\n        /* \"#utility.yul\":2881:2888   */\n      dup6\n        /* \"#utility.yul\":2872:2878   */\n      dup3\n        /* \"#utility.yul\":2861:2870   */\n      dup7\n        /* \"#utility.yul\":2857:2879   */\n      add\n        /* \"#utility.yul\":2836:2889   */\n      tag_365\n      jump\t// in\n    tag_453:\n        /* \"#utility.yul\":2826:2889   */\n      swap2\n      pop\n        /* \"#utility.yul\":2781:2899   */\n      pop\n        /* \"#utility.yul\":2432:2906   */\n      swap3\n      pop\n      swap3\n      swap1\n      pop\n      jump\t// out\n        /* \"#utility.yul\":2912:3002   */\n    tag_366:\n        /* \"#utility.yul\":2946:2953   */\n      0x00\n        /* \"#utility.yul\":2989:2994   */\n      dup2\n        /* \"#utility.yul\":2982:2995   */\n      iszero\n        /* \"#utility.yul\":2975:2996   */\n      iszero\n        /* \"#utility.yul\":2964:2996   */\n      swap1\n      pop\n        /* \"#utility.yul\":2912:3002   */\n      swap2\n      swap1\n      pop\n      jump\t// out\n        /* \"#utility.yul\":3008:3117   */\n    tag_367:\n        /* \"#utility.yul\":3089:3110   */\n      tag_456\n        /* \"#utility.yul\":3104:3109   */\n      dup2\n        /* \"#utility.yul\":3089:3110   */\n      tag_366\n      jump\t// in\n    tag_456:\n        /* \"#utility.yul\":3084:3087   */\n      dup3\n        /* \"#utility.yul\":3077:3111   */\n      mstore\n        /* \"#utility.yul\":3008:3117   */\n      pop\n      pop\n      jump\t// out\n        /* \"#utility.yul\":3123:3333   */\n    tag_32:\n        /* \"#utility.yul\":3210:3214   */\n      0x00\n        /* \"#utility.yul\":3248:3250   */\n      0x20\n        /* \"#utility.yul\":3237:3246   */\n      dup3\n        /* \"#utility.yul\":3233:3251   */\n      add\n        /* \"#utility.yul\":3225:3251   */\n      swap1\n      pop\n        /* \"#utility.yul\":3261:3326   */\n      tag_458\n        /* \"#utility.yul\":3323:3324   */\n      0x00\n        /* \"#utility.yul\":3312:3321   */\n      dup4\n        /* \"#utility.yul\":3308:3325   */\n      add\n        /* \"#utility.yul\":3299:3305   */\n      dup5\n        /* \"#utility.yul\":3261:3326   */\n      tag_367\n      jump\t// in\n    tag_458:\n        /* \"#utility.yul\":3123:3333   */\n      swap3\n      swap2\n      pop\n      pop\n      jump\t// out\n        /* \"#utility.yul\":3339:3457   */\n    tag_368:\n        /* \"#utility.yul\":3426:3450   */\n      tag_460\n        /* \"#utility.yul\":3444:3449   */\n      dup2\n        /* \"#utility.yul\":3426:3450   */\n      tag_363\n      jump\t// in\n    tag_460:\n        /* \"#utility.yul\":3421:3424   */\n      dup3\n        /* \"#utility.yul\":3414:3451   */\n      mstore\n        /* \"#utility.yul\":3339:3457   */\n      pop\n      pop\n      jump\t// out\n        /* \"#utility.yul\":3463:3685   */\n    tag_36:\n        /* \"#utility.yul\":3556:3560   */\n      0x00\n        /* \"#utility.yul\":3594:3596   */\n      0x20\n        /* \"#utility.yul\":3583:3592   */\n      dup3\n        /* \"#utility.yul\":3579:3597   */\n      add\n        /* \"#utility.yul\":3571:3597   */\n      swap1\n      pop\n        /* \"#utility.yul\":3607:3678   */\n      tag_462\n        /* \"#utility.yul\":3675:3676   */\n      0x00\n        /* \"#utility.yul\":3664:3673   */\n      dup4\n        /* \"#utility.yul\":3660:3677   */\n      add\n        /* \"#utility.yul\":3651:3657   */\n      dup5\n        /* \"#utility.yul\":3607:3678   */\n      tag_368\n      jump\t// in\n    tag_462:\n        /* \"#utility.yul\":3463:3685   */\n      swap3\n      swap2\n      pop\n      pop\n      jump\t// out\n        /* \"#utility.yul\":3691:4310   */\n    tag_39:\n        /* \"#utility.yul\":3768:3774   */\n      0x00\n        /* \"#utility.yul\":3776:3782   */\n      dup1\n        /* \"#utility.yul\":3784:3790   */\n      0x00\n        /* \"#utility.yul\":3833:3835   */\n      0x60\n        /* \"#utility.yul\":3821:3830   */\n      dup5\n        /* \"#utility.yul\":3812:3819   */\n      dup7\n        /* \"#utility.yul\":3808:3831   */\n      sub\n        /* \"#utility.yul\":3804:3836   */\n      slt\n        /* \"#utility.yul\":3801:3920   */\n      iszero\n      tag_464\n      jumpi\n        /* \"#utility.yul\":3839:3918   */\n      tag_465\n      tag_357\n      jump\t// in\n    tag_465:\n        /* \"#utility.yul\":3801:3920   */\n    tag_464:\n        /* \"#utility.yul\":3959:3960   */\n      0x00\n        /* \"#utility.yul\":3984:4037   */\n      tag_466\n        /* \"#utility.yul\":4029:4036   */\n      dup7\n        /* \"#utility.yul\":4020:4026   */\n      dup3\n        /* \"#utility.yul\":4009:4018   */\n      dup8\n        /* \"#utility.yul\":4005:4027   */\n      add\n        /* \"#utility.yul\":3984:4037   */\n      tag_362\n      jump\t// in\n    tag_466:\n        /* \"#utility.yul\":3974:4037   */\n      swap4\n      pop\n        /* \"#utility.yul\":3930:4047   */\n      pop\n        /* \"#utility.yul\":4086:4088   */\n      0x20\n        /* \"#utility.yul\":4112:4165   */\n      tag_467\n        /* \"#utility.yul\":4157:4164   */\n      dup7\n        /* \"#utility.yul\":4148:4154   */\n      dup3\n        /* \"#utility.yul\":4137:4146   */\n      dup8\n        /* \"#utility.yul\":4133:4155   */\n      add\n        /* \"#utility.yul\":4112:4165   */\n      tag_362\n      jump\t// in\n    tag_467:\n        /* \"#utility.yul\":4102:4165   */\n      swap3\n      pop\n        /* \"#utility.yul\":4057:4175   */\n      pop\n        /* \"#utility.yul\":4214:4216   */\n      0x40\n        /* \"#utility.yul\":4240:4293   */\n      tag_468\n        /* \"#utility.yul\":4285:4292   */\n      dup7\n        /* \"#utility.yul\":4276:4282   */\n      dup3\n        /* \"#utility.yul\":4265:4274   */\n      dup8\n        /* \"#utility.yul\":4261:4283   */\n      add\n        /* \"#utility.yul\":4240:4293   */\n      tag_365\n      jump\t// in\n    tag_468:\n        /* \"#utility.yul\":4230:4293   */\n      swap2\n      pop\n        /* \"#utility.yul\":4185:4303   */\n      pop\n        /* \"#utility.yul\":3691:4310   */\n      swap3\n      pop\n      swap3\n      pop\n      swap3\n      jump\t// out\n        /* \"#utility.yul\":4316:4645   */\n    tag_44:\n        /* \"#utility.yul\":4375:4381   */\n      0x00\n        /* \"#utility.yul\":4424:4426   */\n      0x20\n        /* \"#utility.yul\":4412:4421   */\n      dup3\n        /* \"#utility.yul\":4403:4410   */\n      dup5\n        /* \"#utility.yul\":4399:4422   */\n      sub\n        /* \"#utility.yul\":4395:4427   */\n      slt\n        /* \"#utility.yul\":4392:4511   */\n      iszero\n      tag_470\n      jumpi\n        /* \"#utility.yul\":4430:4509   */\n      tag_471\n      tag_357\n      jump\t// in\n    tag_471:\n        /* \"#utility.yul\":4392:4511   */\n    tag_470:\n        /* \"#utility.yul\":4550:4551   */\n      0x00\n        /* \"#utility.yul\":4575:4628   */\n      tag_472\n        /* \"#utility.yul\":4620:4627   */\n      dup5\n        /* \"#utility.yul\":4611:4617   */\n      dup3\n        /* \"#utility.yul\":4600:4609   */\n      dup6\n        /* \"#utility.yul\":4596:4618   */\n      add\n        /* \"#utility.yul\":4575:4628   */\n      tag_362\n      jump\t// in\n    tag_472:\n        /* \"#utility.yul\":4565:4628   */\n      swap2\n      pop\n        /* \"#utility.yul\":4521:4638   */\n      pop\n        /* \"#utility.yul\":4316:4645   */\n      swap3\n      swap2\n      pop\n      pop\n      jump\t// out\n        /* \"#utility.yul\":4651:4737   */\n    tag_369:\n        /* \"#utility.yul\":4686:4693   */\n      0x00\n        /* \"#utility.yul\":4726:4730   */\n      0xff\n        /* \"#utility.yul\":4719:4724   */\n      dup3\n        /* \"#utility.yul\":4715:4731   */\n      and\n        /* \"#utility.yul\":4704:4731   */\n      swap1\n      pop\n        /* \"#utility.yul\":4651:4737   */\n      swap2\n      swap1\n      pop\n      jump\t// out\n        /* \"#utility.yul\":4743:4855   */\n    tag_370:\n        /* \"#utility.yul\":4826:4848   */\n      tag_475\n        /* \"#utility.yul\":4842:4847   */\n      dup2\n        /* \"#utility.yul\":4826:4848   */\n      tag_369\n      jump\t// in\n    tag_475:\n        /* \"#utility.yul\":4821:4824   */\n      dup3\n        /* \"#utility.yul\":4814:4849   */\n      mstore\n        /* \"#utility.yul\":4743:4855   */\n      pop\n      pop\n      jump\t// out\n        /* \"#utility.yul\":4861:5075   */\n    tag_50:\n        /* \"#utility.yul\":4950:4954   */\n      0x00\n        /* \"#utility.yul\":4988:4990   */\n      0x20\n        /* \"#utility.yul\":4977:4986   */\n      dup3\n        /* \"#utility.yul\":4973:4991   */\n      add\n        /* \"#utility.yul\":4965:4991   */\n      swap1\n      pop\n        /* \"#utility.yul\":5001:5068   */\n      tag_477\n        /* \"#utility.yul\":5065:5066   */\n      0x00\n        /* \"#utility.yul\":5054:5063   */\n      dup4\n        /* \"#utility.yul\":5050:5067   */\n      add\n        /* \"#utility.yul\":5041:5047   */\n      dup5\n        /* \"#utility.yul\":5001:5068   */\n      tag_370\n      jump\t// in\n    tag_477:\n        /* \"#utility.yul\":4861:5075   */\n      swap3\n      swap2\n      pop\n      pop\n      jump\t// out\n        /* \"#utility.yul\":5081:5189   */\n    tag_371:\n        /* \"#utility.yul\":5158:5182   */\n      tag_479\n        /* \"#utility.yul\":5176:5181   */\n      dup2\n        /* \"#utility.yul\":5158:5182   */\n      tag_363\n      jump\t// in\n    tag_479:\n        /* \"#utility.yul\":5153:5156   */\n      dup3\n        /* \"#utility.yul\":5146:5183   */\n      mstore\n        /* \"#utility.yul\":5081:5189   */\n      pop\n      pop\n      jump\t// out\n        /* \"#utility.yul\":5195:5335   */\n    tag_372:\n        /* \"#utility.yul\":5288:5294   */\n      0x00\n        /* \"#utility.yul\":5322:5327   */\n      dup2\n        /* \"#utility.yul\":5316:5328   */\n      mload\n        /* \"#utility.yul\":5306:5328   */\n      swap1\n      pop\n        /* \"#utility.yul\":5195:5335   */\n      swap2\n      swap1\n      pop\n      jump\t// out\n        /* \"#utility.yul\":5341:5541   */\n    tag_373:\n        /* \"#utility.yul\":5456:5467   */\n      0x00\n        /* \"#utility.yul\":5490:5496   */\n      dup3\n        /* \"#utility.yul\":5485:5488   */\n      dup3\n        /* \"#utility.yul\":5478:5497   */\n      mstore\n        /* \"#utility.yul\":5530:5534   */\n      0x20\n        /* \"#utility.yul\":5525:5528   */\n      dup3\n        /* \"#utility.yul\":5521:5535   */\n      add\n        /* \"#utility.yul\":5506:5535   */\n      swap1\n      pop\n        /* \"#utility.yul\":5341:5541   */\n      swap3\n      swap2\n      pop\n      pop\n      jump\t// out\n        /* \"#utility.yul\":5547:5705   */\n    tag_374:\n        /* \"#utility.yul\":5640:5644   */\n      0x00\n        /* \"#utility.yul\":5663:5666   */\n      dup2\n        /* \"#utility.yul\":5655:5666   */\n      swap1\n      pop\n        /* \"#utility.yul\":5693:5697   */\n      0x20\n        /* \"#utility.yul\":5688:5691   */\n      dup3\n        /* \"#utility.yul\":5684:5698   */\n      add\n        /* \"#utility.yul\":5676:5698   */\n      swap1\n      pop\n        /* \"#utility.yul\":5547:5705   */\n      swap2\n      swap1\n      pop\n      jump\t// out\n        /* \"#utility.yul\":5753:6258   */\n    tag_375:\n        /* \"#utility.yul\":5892:5896   */\n      0x40\n        /* \"#utility.yul\":5887:5890   */\n      dup3\n        /* \"#utility.yul\":5883:5897   */\n      add\n        /* \"#utility.yul\":5982:5986   */\n      0x00\n        /* \"#utility.yul\":5975:5980   */\n      dup3\n        /* \"#utility.yul\":5971:5987   */\n      add\n        /* \"#utility.yul\":5965:5988   */\n      mload\n        /* \"#utility.yul\":6001:6064   */\n      tag_484\n        /* \"#utility.yul\":6058:6062   */\n      0x00\n        /* \"#utility.yul\":6053:6056   */\n      dup6\n        /* \"#utility.yul\":6049:6063   */\n      add\n        /* \"#utility.yul\":6035:6047   */\n      dup3\n        /* \"#utility.yul\":6001:6064   */\n      tag_371\n      jump\t// in\n    tag_484:\n        /* \"#utility.yul\":5907:6074   */\n      pop\n        /* \"#utility.yul\":6159:6163   */\n      0x20\n        /* \"#utility.yul\":6152:6157   */\n      dup3\n        /* \"#utility.yul\":6148:6164   */\n      add\n        /* \"#utility.yul\":6142:6165   */\n      mload\n        /* \"#utility.yul\":6178:6241   */\n      tag_485\n        /* \"#utility.yul\":6235:6239   */\n      0x20\n        /* \"#utility.yul\":6230:6233   */\n      dup6\n        /* \"#utility.yul\":6226:6240   */\n      add\n        /* \"#utility.yul\":6212:6224   */\n      dup3\n        /* \"#utility.yul\":6178:6241   */\n      tag_371\n      jump\t// in\n    tag_485:\n        /* \"#utility.yul\":6084:6251   */\n      pop\n        /* \"#utility.yul\":5861:6258   */\n      pop\n        /* \"#utility.yul\":5753:6258   */\n      pop\n      pop\n      jump\t// out\n        /* \"#utility.yul\":6264:6547   */\n    tag_376:\n        /* \"#utility.yul\":6385:6395   */\n      0x00\n        /* \"#utility.yul\":6406:6504   */\n      tag_487\n        /* \"#utility.yul\":6500:6503   */\n      dup4\n        /* \"#utility.yul\":6492:6498   */\n      dup4\n        /* \"#utility.yul\":6406:6504   */\n      tag_375\n      jump\t// in\n    tag_487:\n        /* \"#utility.yul\":6536:6540   */\n      0x40\n        /* \"#utility.yul\":6531:6534   */\n      dup4\n        /* \"#utility.yul\":6527:6541   */\n      add\n        /* \"#utility.yul\":6513:6541   */\n      swap1\n      pop\n        /* \"#utility.yul\":6264:6547   */\n      swap3\n      swap2\n      pop\n      pop\n      jump\t// out\n        /* \"#utility.yul\":6553:6692   */\n    tag_377:\n        /* \"#utility.yul\":6649:6653   */\n      0x00\n        /* \"#utility.yul\":6681:6685   */\n      0x20\n        /* \"#utility.yul\":6676:6679   */\n      dup3\n        /* \"#utility.yul\":6672:6686   */\n      add\n        /* \"#utility.yul\":6664:6686   */\n      swap1\n      pop\n        /* \"#utility.yul\":6553:6692   */\n      swap2\n      swap1\n      pop\n      jump\t// out\n        /* \"#utility.yul\":6744:7664   */\n    tag_378:\n        /* \"#utility.yul\":6905:6908   */\n      0x00\n        /* \"#utility.yul\":6934:7014   */\n      tag_490\n        /* \"#utility.yul\":7008:7013   */\n      dup3\n        /* \"#utility.yul\":6934:7014   */\n      tag_372\n      jump\t// in\n    tag_490:\n        /* \"#utility.yul\":7030:7132   */\n      tag_491\n        /* \"#utility.yul\":7125:7131   */\n      dup2\n        /* \"#utility.yul\":7120:7123   */\n      dup6\n        /* \"#utility.yul\":7030:7132   */\n      tag_373\n      jump\t// in\n    tag_491:\n        /* \"#utility.yul\":7023:7132   */\n      swap4\n      pop\n        /* \"#utility.yul\":7156:7238   */\n      tag_492\n        /* \"#utility.yul\":7232:7237   */\n      dup4\n        /* \"#utility.yul\":7156:7238   */\n      tag_374\n      jump\t// in\n    tag_492:\n        /* \"#utility.yul\":7261:7268   */\n      dup1\n        /* \"#utility.yul\":7292:7293   */\n      0x00\n        /* \"#utility.yul\":7277:7639   */\n    tag_493:\n        /* \"#utility.yul\":7302:7308   */\n      dup4\n        /* \"#utility.yul\":7299:7300   */\n      dup2\n        /* \"#utility.yul\":7296:7309   */\n      lt\n        /* \"#utility.yul\":7277:7639   */\n      iszero\n      tag_495\n      jumpi\n        /* \"#utility.yul\":7378:7384   */\n      dup2\n        /* \"#utility.yul\":7372:7385   */\n      mload\n        /* \"#utility.yul\":7405:7520   */\n      tag_496\n        /* \"#utility.yul\":7516:7519   */\n      dup9\n        /* \"#utility.yul\":7501:7514   */\n      dup3\n        /* \"#utility.yul\":7405:7520   */\n      tag_376\n      jump\t// in\n    tag_496:\n        /* \"#utility.yul\":7398:7520   */\n      swap8\n      pop\n        /* \"#utility.yul\":7543:7629   */\n      tag_497\n        /* \"#utility.yul\":7622:7628   */\n      dup4\n        /* \"#utility.yul\":7543:7629   */\n      tag_377\n      jump\t// in\n    tag_497:\n        /* \"#utility.yul\":7533:7629   */\n      swap3\n      pop\n        /* \"#utility.yul\":7337:7639   */\n      pop\n        /* \"#utility.yul\":7324:7325   */\n      0x01\n        /* \"#utility.yul\":7321:7322   */\n      dup2\n        /* \"#utility.yul\":7317:7326   */\n      add\n        /* \"#utility.yul\":7312:7326   */\n      swap1\n      pop\n        /* \"#utility.yul\":7277:7639   */\n      jump(tag_493)\n    tag_495:\n        /* \"#utility.yul\":7281:7295   */\n      pop\n        /* \"#utility.yul\":7655:7658   */\n      dup6\n        /* \"#utility.yul\":7648:7658   */\n      swap4\n      pop\n        /* \"#utility.yul\":6910:7664   */\n      pop\n      pop\n      pop\n        /* \"#utility.yul\":6744:7664   */\n      swap3\n      swap2\n      pop\n      pop\n      jump\t// out\n        /* \"#utility.yul\":7710:8582   */\n    tag_379:\n        /* \"#utility.yul\":7829:7832   */\n      0x00\n        /* \"#utility.yul\":7865:7869   */\n      0x60\n        /* \"#utility.yul\":7860:7863   */\n      dup4\n        /* \"#utility.yul\":7856:7870   */\n      add\n        /* \"#utility.yul\":7957:7961   */\n      0x00\n        /* \"#utility.yul\":7950:7955   */\n      dup4\n        /* \"#utility.yul\":7946:7962   */\n      add\n        /* \"#utility.yul\":7940:7963   */\n      mload\n        /* \"#utility.yul\":7976:8039   */\n      tag_499\n        /* \"#utility.yul\":8033:8037   */\n      0x00\n        /* \"#utility.yul\":8028:8031   */\n      dup7\n        /* \"#utility.yul\":8024:8038   */\n      add\n        /* \"#utility.yul\":8010:8022   */\n      dup3\n        /* \"#utility.yul\":7976:8039   */\n      tag_371\n      jump\t// in\n    tag_499:\n        /* \"#utility.yul\":7880:8049   */\n      pop\n        /* \"#utility.yul\":8132:8136   */\n      0x20\n        /* \"#utility.yul\":8125:8130   */\n      dup4\n        /* \"#utility.yul\":8121:8137   */\n      add\n        /* \"#utility.yul\":8115:8138   */\n      mload\n        /* \"#utility.yul\":8151:8214   */\n      tag_500\n        /* \"#utility.yul\":8208:8212   */\n      0x20\n        /* \"#utility.yul\":8203:8206   */\n      dup7\n        /* \"#utility.yul\":8199:8213   */\n      add\n        /* \"#utility.yul\":8185:8197   */\n      dup3\n        /* \"#utility.yul\":8151:8214   */\n      tag_371\n      jump\t// in\n    tag_500:\n        /* \"#utility.yul\":8059:8224   */\n      pop\n        /* \"#utility.yul\":8310:8314   */\n      0x40\n        /* \"#utility.yul\":8303:8308   */\n      dup4\n        /* \"#utility.yul\":8299:8315   */\n      add\n        /* \"#utility.yul\":8293:8316   */\n      mload\n        /* \"#utility.yul\":8363:8366   */\n      dup5\n        /* \"#utility.yul\":8357:8361   */\n      dup3\n        /* \"#utility.yul\":8353:8367   */\n      sub\n        /* \"#utility.yul\":8346:8350   */\n      0x40\n        /* \"#utility.yul\":8341:8344   */\n      dup7\n        /* \"#utility.yul\":8337:8351   */\n      add\n        /* \"#utility.yul\":8330:8368   */\n      mstore\n        /* \"#utility.yul\":8389:8544   */\n      tag_501\n        /* \"#utility.yul\":8539:8543   */\n      dup3\n        /* \"#utility.yul\":8525:8537   */\n      dup3\n        /* \"#utility.yul\":8389:8544   */\n      tag_378\n      jump\t// in\n    tag_501:\n        /* \"#utility.yul\":8381:8544   */\n      swap2\n      pop\n        /* \"#utility.yul\":8234:8555   */\n      pop\n        /* \"#utility.yul\":8572:8576   */\n      dup1\n        /* \"#utility.yul\":8565:8576   */\n      swap2\n      pop\n        /* \"#utility.yul\":7834:8582   */\n      pop\n        /* \"#utility.yul\":7710:8582   */\n      swap3\n      swap2\n      pop\n      pop\n      jump\t// out\n        /* \"#utility.yul\":8588:8961   */\n    tag_54:\n        /* \"#utility.yul\":8731:8735   */\n      0x00\n        /* \"#utility.yul\":8769:8771   */\n      0x20\n        /* \"#utility.yul\":8758:8767   */\n      dup3\n        /* \"#utility.yul\":8754:8772   */\n      add\n        /* \"#utility.yul\":8746:8772   */\n      swap1\n      pop\n        /* \"#utility.yul\":8818:8827   */\n      dup2\n        /* \"#utility.yul\":8812:8816   */\n      dup2\n        /* \"#utility.yul\":8808:8828   */\n      sub\n        /* \"#utility.yul\":8804:8805   */\n      0x00\n        /* \"#utility.yul\":8793:8802   */\n      dup4\n        /* \"#utility.yul\":8789:8806   */\n      add\n        /* \"#utility.yul\":8782:8829   */\n      mstore\n        /* \"#utility.yul\":8846:8954   */\n      tag_503\n        /* \"#utility.yul\":8949:8953   */\n      dup2\n        /* \"#utility.yul\":8940:8946   */\n      dup5\n        /* \"#utility.yul\":8846:8954   */\n      tag_379\n      jump\t// in\n    tag_503:\n        /* \"#utility.yul\":8838:8954   */\n      swap1\n      pop\n        /* \"#utility.yul\":8588:8961   */\n      swap3\n      swap2\n      pop\n      pop\n      jump\t// out\n        /* \"#utility.yul\":8967:9084   */\n    tag_380:\n        /* \"#utility.yul\":9076:9077   */\n      0x00\n        /* \"#utility.yul\":9073:9074   */\n      dup1\n        /* \"#utility.yul\":9066:9078   */\n      revert\n        /* \"#utility.yul\":9090:9207   */\n    tag_381:\n        /* \"#utility.yul\":9199:9200   */\n      0x00\n        /* \"#utility.yul\":9196:9197   */\n      dup1\n        /* \"#utility.yul\":9189:9201   */\n      revert\n        /* \"#utility.yul\":9213:9330   */\n    tag_382:\n        /* \"#utility.yul\":9322:9323   */\n      0x00\n        /* \"#utility.yul\":9319:9320   */\n      dup1\n        /* \"#utility.yul\":9312:9324   */\n      revert\n        /* \"#utility.yul\":9361:9957   */\n    tag_383:\n        /* \"#utility.yul\":9462:9470   */\n      0x00\n        /* \"#utility.yul\":9472:9478   */\n      dup1\n        /* \"#utility.yul\":9522:9525   */\n      dup4\n        /* \"#utility.yul\":9515:9519   */\n      0x1f\n        /* \"#utility.yul\":9507:9513   */\n      dup5\n        /* \"#utility.yul\":9503:9520   */\n      add\n        /* \"#utility.yul\":9499:9526   */\n      slt\n        /* \"#utility.yul\":9489:9611   */\n      tag_508\n      jumpi\n        /* \"#utility.yul\":9530:9609   */\n      tag_509\n      tag_380\n      jump\t// in\n    tag_509:\n        /* \"#utility.yul\":9489:9611   */\n    tag_508:\n        /* \"#utility.yul\":9643:9649   */\n      dup3\n        /* \"#utility.yul\":9630:9650   */\n      calldataload\n        /* \"#utility.yul\":9620:9650   */\n      swap1\n      pop\n        /* \"#utility.yul\":9673:9691   */\n      0xffffffffffffffff\n        /* \"#utility.yul\":9665:9671   */\n      dup2\n        /* \"#utility.yul\":9662:9692   */\n      gt\n        /* \"#utility.yul\":9659:9776   */\n      iszero\n      tag_510\n      jumpi\n        /* \"#utility.yul\":9695:9774   */\n      tag_511\n      tag_381\n      jump\t// in\n    tag_511:\n        /* \"#utility.yul\":9659:9776   */\n    tag_510:\n        /* \"#utility.yul\":9809:9813   */\n      0x20\n        /* \"#utility.yul\":9801:9807   */\n      dup4\n        /* \"#utility.yul\":9797:9814   */\n      add\n        /* \"#utility.yul\":9785:9814   */\n      swap2\n      pop\n        /* \"#utility.yul\":9863:9866   */\n      dup4\n        /* \"#utility.yul\":9855:9859   */\n      0x40\n        /* \"#utility.yul\":9847:9853   */\n      dup3\n        /* \"#utility.yul\":9843:9860   */\n      mul\n        /* \"#utility.yul\":9833:9841   */\n      dup4\n        /* \"#utility.yul\":9829:9861   */\n      add\n        /* \"#utility.yul\":9826:9867   */\n      gt\n        /* \"#utility.yul\":9823:9951   */\n      iszero\n      tag_512\n      jumpi\n        /* \"#utility.yul\":9870:9949   */\n      tag_513\n      tag_382\n      jump\t// in\n    tag_513:\n        /* \"#utility.yul\":9823:9951   */\n    tag_512:\n        /* \"#utility.yul\":9361:9957   */\n      swap3\n      pop\n      swap3\n      swap1\n      pop\n      jump\t// out\n        /* \"#utility.yul\":9963:10868   */\n    tag_60:\n        /* \"#utility.yul\":10095:10101   */\n      0x00\n        /* \"#utility.yul\":10103:10109   */\n      dup1\n        /* \"#utility.yul\":10111:10117   */\n      0x00\n        /* \"#utility.yul\":10119:10125   */\n      dup1\n        /* \"#utility.yul\":10168:10170   */\n      0x60\n        /* \"#utility.yul\":10156:10165   */\n      dup6\n        /* \"#utility.yul\":10147:10154   */\n      dup8\n        /* \"#utility.yul\":10143:10166   */\n      sub\n        /* \"#utility.yul\":10139:10171   */\n      slt\n        /* \"#utility.yul\":10136:10255   */\n      iszero\n      tag_515\n      jumpi\n        /* \"#utility.yul\":10174:10253   */\n      tag_516\n      tag_357\n      jump\t// in\n    tag_516:\n        /* \"#utility.yul\":10136:10255   */\n    tag_515:\n        /* \"#utility.yul\":10294:10295   */\n      0x00\n        /* \"#utility.yul\":10319:10372   */\n      tag_517\n        /* \"#utility.yul\":10364:10371   */\n      dup8\n        /* \"#utility.yul\":10355:10361   */\n      dup3\n        /* \"#utility.yul\":10344:10353   */\n      dup9\n        /* \"#utility.yul\":10340:10362   */\n      add\n        /* \"#utility.yul\":10319:10372   */\n      tag_365\n      jump\t// in\n    tag_517:\n        /* \"#utility.yul\":10309:10372   */\n      swap5\n      pop\n        /* \"#utility.yul\":10265:10382   */\n      pop\n        /* \"#utility.yul\":10421:10423   */\n      0x20\n        /* \"#utility.yul\":10447:10500   */\n      tag_518\n        /* \"#utility.yul\":10492:10499   */\n      dup8\n        /* \"#utility.yul\":10483:10489   */\n      dup3\n        /* \"#utility.yul\":10472:10481   */\n      dup9\n        /* \"#utility.yul\":10468:10490   */\n      add\n        /* \"#utility.yul\":10447:10500   */\n      tag_365\n      jump\t// in\n    tag_518:\n        /* \"#utility.yul\":10437:10500   */\n      swap4\n      pop\n        /* \"#utility.yul\":10392:10510   */\n      pop\n        /* \"#utility.yul\":10577:10579   */\n      0x40\n        /* \"#utility.yul\":10566:10575   */\n      dup6\n        /* \"#utility.yul\":10562:10580   */\n      add\n        /* \"#utility.yul\":10549:10581   */\n      calldataload\n        /* \"#utility.yul\":10608:10626   */\n      0xffffffffffffffff\n        /* \"#utility.yul\":10600:10606   */\n      dup2\n        /* \"#utility.yul\":10597:10627   */\n      gt\n        /* \"#utility.yul\":10594:10711   */\n      iszero\n      tag_519\n      jumpi\n        /* \"#utility.yul\":10630:10709   */\n      tag_520\n      tag_358\n      jump\t// in\n    tag_520:\n        /* \"#utility.yul\":10594:10711   */\n    tag_519:\n        /* \"#utility.yul\":10743:10851   */\n      tag_521\n        /* \"#utility.yul\":10843:10850   */\n      dup8\n        /* \"#utility.yul\":10834:10840   */\n      dup3\n        /* \"#utility.yul\":10823:10832   */\n      dup9\n        /* \"#utility.yul\":10819:10841   */\n      add\n        /* \"#utility.yul\":10743:10851   */\n      tag_383\n      jump\t// in\n    tag_521:\n        /* \"#utility.yul\":10725:10851   */\n      swap3\n      pop\n      swap3\n      pop\n        /* \"#utility.yul\":10520:10861   */\n      pop\n        /* \"#utility.yul\":9963:10868   */\n      swap3\n      swap6\n      swap2\n      swap5\n      pop\n      swap3\n      pop\n      jump\t// out\n        /* \"#utility.yul\":10888:11441   */\n    tag_384:\n        /* \"#utility.yul\":10946:10954   */\n      0x00\n        /* \"#utility.yul\":10956:10962   */\n      dup1\n        /* \"#utility.yul\":11006:11009   */\n      dup4\n        /* \"#utility.yul\":10999:11003   */\n      0x1f\n        /* \"#utility.yul\":10991:10997   */\n      dup5\n        /* \"#utility.yul\":10987:11004   */\n      add\n        /* \"#utility.yul\":10983:11010   */\n      slt\n        /* \"#utility.yul\":10973:11095   */\n      tag_523\n      jumpi\n        /* \"#utility.yul\":11014:11093   */\n      tag_524\n      tag_380\n      jump\t// in\n    tag_524:\n        /* \"#utility.yul\":10973:11095   */\n    tag_523:\n        /* \"#utility.yul\":11127:11133   */\n      dup3\n        /* \"#utility.yul\":11114:11134   */\n      calldataload\n        /* \"#utility.yul\":11104:11134   */\n      swap1\n      pop\n        /* \"#utility.yul\":11157:11175   */\n      0xffffffffffffffff\n        /* \"#utility.yul\":11149:11155   */\n      dup2\n        /* \"#utility.yul\":11146:11176   */\n      gt\n        /* \"#utility.yul\":11143:11260   */\n      iszero\n      tag_525\n      jumpi\n        /* \"#utility.yul\":11179:11258   */\n      tag_526\n      tag_381\n      jump\t// in\n    tag_526:\n        /* \"#utility.yul\":11143:11260   */\n    tag_525:\n        /* \"#utility.yul\":11293:11297   */\n      0x20\n        /* \"#utility.yul\":11285:11291   */\n      dup4\n        /* \"#utility.yul\":11281:11298   */\n      add\n        /* \"#utility.yul\":11269:11298   */\n      swap2\n      pop\n        /* \"#utility.yul\":11347:11350   */\n      dup4\n        /* \"#utility.yul\":11339:11343   */\n      0x01\n        /* \"#utility.yul\":11331:11337   */\n      dup3\n        /* \"#utility.yul\":11327:11344   */\n      mul\n        /* \"#utility.yul\":11317:11325   */\n      dup4\n        /* \"#utility.yul\":11313:11345   */\n      add\n        /* \"#utility.yul\":11310:11351   */\n      gt\n        /* \"#utility.yul\":11307:11435   */\n      iszero\n      tag_527\n      jumpi\n        /* \"#utility.yul\":11354:11433   */\n      tag_528\n      tag_382\n      jump\t// in\n    tag_528:\n        /* \"#utility.yul\":11307:11435   */\n    tag_527:\n        /* \"#utility.yul\":10888:11441   */\n      swap3\n      pop\n      swap3\n      swap1\n      pop\n      jump\t// out\n        /* \"#utility.yul\":11447:12612   */\n    tag_70:\n        /* \"#utility.yul\":11557:11563   */\n      0x00\n        /* \"#utility.yul\":11565:11571   */\n      dup1\n        /* \"#utility.yul\":11573:11579   */\n      0x00\n        /* \"#utility.yul\":11581:11587   */\n      dup1\n        /* \"#utility.yul\":11589:11595   */\n      0x00\n        /* \"#utility.yul\":11597:11603   */\n      dup1\n        /* \"#utility.yul\":11646:11649   */\n      0x80\n        /* \"#utility.yul\":11634:11643   */\n      dup8\n        /* \"#utility.yul\":11625:11632   */\n      dup10\n        /* \"#utility.yul\":11621:11644   */\n      sub\n        /* \"#utility.yul\":11617:11650   */\n      slt\n        /* \"#utility.yul\":11614:11734   */\n      iszero\n      tag_530\n      jumpi\n        /* \"#utility.yul\":11653:11732   */\n      tag_531\n      tag_357\n      jump\t// in\n    tag_531:\n        /* \"#utility.yul\":11614:11734   */\n    tag_530:\n        /* \"#utility.yul\":11801:11802   */\n      0x00\n        /* \"#utility.yul\":11790:11799   */\n      dup8\n        /* \"#utility.yul\":11786:11803   */\n      add\n        /* \"#utility.yul\":11773:11804   */\n      calldataload\n        /* \"#utility.yul\":11831:11849   */\n      0xffffffffffffffff\n        /* \"#utility.yul\":11823:11829   */\n      dup2\n        /* \"#utility.yul\":11820:11850   */\n      gt\n        /* \"#utility.yul\":11817:11934   */\n      iszero\n      tag_532\n      jumpi\n        /* \"#utility.yul\":11853:11932   */\n      tag_533\n      tag_358\n      jump\t// in\n    tag_533:\n        /* \"#utility.yul\":11817:11934   */\n    tag_532:\n        /* \"#utility.yul\":11966:12031   */\n      tag_534\n        /* \"#utility.yul\":12023:12030   */\n      dup10\n        /* \"#utility.yul\":12014:12020   */\n      dup3\n        /* \"#utility.yul\":12003:12012   */\n      dup11\n        /* \"#utility.yul\":11999:12021   */\n      add\n        /* \"#utility.yul\":11966:12031   */\n      tag_384\n      jump\t// in\n    tag_534:\n        /* \"#utility.yul\":11948:12031   */\n      swap7\n      pop\n      swap7\n      pop\n        /* \"#utility.yul\":11744:12041   */\n      pop\n        /* \"#utility.yul\":12108:12110   */\n      0x20\n        /* \"#utility.yul\":12097:12106   */\n      dup8\n        /* \"#utility.yul\":12093:12111   */\n      add\n        /* \"#utility.yul\":12080:12112   */\n      calldataload\n        /* \"#utility.yul\":12139:12157   */\n      0xffffffffffffffff\n        /* \"#utility.yul\":12131:12137   */\n      dup2\n        /* \"#utility.yul\":12128:12158   */\n      gt\n        /* \"#utility.yul\":12125:12242   */\n      iszero\n      tag_535\n      jumpi\n        /* \"#utility.yul\":12161:12240   */\n      tag_536\n      tag_358\n      jump\t// in\n    tag_536:\n        /* \"#utility.yul\":12125:12242   */\n    tag_535:\n        /* \"#utility.yul\":12274:12339   */\n      tag_537\n        /* \"#utility.yul\":12331:12338   */\n      dup10\n        /* \"#utility.yul\":12322:12328   */\n      dup3\n        /* \"#utility.yul\":12311:12320   */\n      dup11\n        /* \"#utility.yul\":12307:12329   */\n      add\n        /* \"#utility.yul\":12274:12339   */\n      tag_384\n      jump\t// in\n    tag_537:\n        /* \"#utility.yul\":12256:12339   */\n      swap5\n      pop\n      swap5\n      pop\n        /* \"#utility.yul\":12051:12349   */\n      pop\n        /* \"#utility.yul\":12388:12390   */\n      0x40\n        /* \"#utility.yul\":12414:12467   */\n      tag_538\n        /* \"#utility.yul\":12459:12466   */\n      dup10\n        /* \"#utility.yul\":12450:12456   */\n      dup3\n        /* \"#utility.yul\":12439:12448   */\n      dup11\n        /* \"#utility.yul\":12435:12457   */\n      add\n        /* \"#utility.yul\":12414:12467   */\n      tag_362\n      jump\t// in\n    tag_538:\n        /* \"#utility.yul\":12404:12467   */\n      swap3\n      pop\n        /* \"#utility.yul\":12359:12477   */\n      pop\n        /* \"#utility.yul\":12516:12518   */\n      0x60\n        /* \"#utility.yul\":12542:12595   */\n      tag_539\n        /* \"#utility.yul\":12587:12594   */\n      dup10\n        /* \"#utility.yul\":12578:12584   */\n      dup3\n        /* \"#utility.yul\":12567:12576   */\n      dup11\n        /* \"#utility.yul\":12563:12585   */\n      add\n        /* \"#utility.yul\":12542:12595   */\n      tag_362\n      jump\t// in\n    tag_539:\n        /* \"#utility.yul\":12532:12595   */\n      swap2\n      pop\n        /* \"#utility.yul\":12487:12605   */\n      pop\n        /* \"#utility.yul\":11447:12612   */\n      swap3\n      swap6\n      pop\n      swap3\n      swap6\n      pop\n      swap3\n      swap6\n      jump\t// out\n        /* \"#utility.yul\":12618:13092   */\n    tag_84:\n        /* \"#utility.yul\":12686:12692   */\n      0x00\n        /* \"#utility.yul\":12694:12700   */\n      dup1\n        /* \"#utility.yul\":12743:12745   */\n      0x40\n        /* \"#utility.yul\":12731:12740   */\n      dup4\n        /* \"#utility.yul\":12722:12729   */\n      dup6\n        /* \"#utility.yul\":12718:12741   */\n      sub\n        /* \"#utility.yul\":12714:12746   */\n      slt\n        /* \"#utility.yul\":12711:12830   */\n      iszero\n      tag_541\n      jumpi\n        /* \"#utility.yul\":12749:12828   */\n      tag_542\n      tag_357\n      jump\t// in\n    tag_542:\n        /* \"#utility.yul\":12711:12830   */\n    tag_541:\n        /* \"#utility.yul\":12869:12870   */\n      0x00\n        /* \"#utility.yul\":12894:12947   */\n      tag_543\n        /* \"#utility.yul\":12939:12946   */\n      dup6\n        /* \"#utility.yul\":12930:12936   */\n      dup3\n        /* \"#utility.yul\":12919:12928   */\n      dup7\n        /* \"#utility.yul\":12915:12937   */\n      add\n        /* \"#utility.yul\":12894:12947   */\n      tag_362\n      jump\t// in\n    tag_543:\n        /* \"#utility.yul\":12884:12947   */\n      swap3\n      pop\n        /* \"#utility.yul\":12840:12957   */\n      pop\n        /* \"#utility.yul\":12996:12998   */\n      0x20\n        /* \"#utility.yul\":13022:13075   */\n      tag_544\n        /* \"#utility.yul\":13067:13074   */\n      dup6\n        /* \"#utility.yul\":13058:13064   */\n      dup3\n        /* \"#utility.yul\":13047:13056   */\n      dup7\n        /* \"#utility.yul\":13043:13065   */\n      add\n        /* \"#utility.yul\":13022:13075   */\n      tag_362\n      jump\t// in\n    tag_544:\n        /* \"#utility.yul\":13012:13075   */\n      swap2\n      pop\n        /* \"#utility.yul\":12967:13085   */\n      pop\n        /* \"#utility.yul\":12618:13092   */\n      swap3\n      pop\n      swap3\n      swap1\n      pop\n      jump\t// out\n        /* \"#utility.yul\":13098:13278   */\n    tag_385:\n        /* \"#utility.yul\":13146:13223   */\n      0x4e487b7100000000000000000000000000000000000000000000000000000000\n        /* \"#utility.yul\":13143:13144   */\n      0x00\n        /* \"#utility.yul\":13136:13224   */\n      mstore\n        /* \"#utility.yul\":13243:13247   */\n      0x22\n        /* \"#utility.yul\":13240:13241   */\n      0x04\n        /* \"#utility.yul\":13233:13248   */\n      mstore\n        /* \"#utility.yul\":13267:13271   */\n      0x24\n        /* \"#utility.yul\":13264:13265   */\n      0x00\n        /* \"#utility.yul\":13257:13272   */\n      revert\n        /* \"#utility.yul\":13284:13604   */\n    tag_94:\n        /* \"#utility.yul\":13328:13334   */\n      0x00\n        /* \"#utility.yul\":13365:13366   */\n      0x02\n        /* \"#utility.yul\":13359:13363   */\n      dup3\n        /* \"#utility.yul\":13355:13367   */\n      div\n        /* \"#utility.yul\":13345:13367   */\n      swap1\n      pop\n        /* \"#utility.yul\":13412:13413   */\n      0x01\n        /* \"#utility.yul\":13406:13410   */\n      dup3\n        /* \"#utility.yul\":13402:13414   */\n      and\n        /* \"#utility.yul\":13433:13451   */\n      dup1\n        /* \"#utility.yul\":13423:13504   */\n      tag_547\n      jumpi\n        /* \"#utility.yul\":13489:13493   */\n      0x7f\n        /* \"#utility.yul\":13481:13487   */\n      dup3\n        /* \"#utility.yul\":13477:13494   */\n      and\n        /* \"#utility.yul\":13467:13494   */\n      swap2\n      pop\n        /* \"#utility.yul\":13423:13504   */\n    tag_547:\n        /* \"#utility.yul\":13551:13553   */\n      0x20\n        /* \"#utility.yul\":13543:13549   */\n      dup3\n        /* \"#utility.yul\":13540:13554   */\n      lt\n        /* \"#utility.yul\":13520:13538   */\n      dup2\n        /* \"#utility.yul\":13517:13555   */\n      sub\n        /* \"#utility.yul\":13514:13598   */\n      tag_548\n      jumpi\n        /* \"#utility.yul\":13570:13588   */\n      tag_549\n      tag_385\n      jump\t// in\n    tag_549:\n        /* \"#utility.yul\":13514:13598   */\n    tag_548:\n        /* \"#utility.yul\":13335:13604   */\n      pop\n        /* \"#utility.yul\":13284:13604   */\n      swap2\n      swap1\n      pop\n      jump\t// out\n        /* \"#utility.yul\":13610:13790   */\n    tag_386:\n        /* \"#utility.yul\":13658:13735   */\n      0x4e487b7100000000000000000000000000000000000000000000000000000000\n        /* \"#utility.yul\":13655:13656   */\n      0x00\n        /* \"#utility.yul\":13648:13736   */\n      mstore\n        /* \"#utility.yul\":13755:13759   */\n      0x11\n        /* \"#utility.yul\":13752:13753   */\n      0x04\n        /* \"#utility.yul\":13745:13760   */\n      mstore\n        /* \"#utility.yul\":13779:13783   */\n      0x24\n        /* \"#utility.yul\":13776:13777   */\n      0x00\n        /* \"#utility.yul\":13769:13784   */\n      revert\n        /* \"#utility.yul\":13796:13990   */\n    tag_116:\n        /* \"#utility.yul\":13836:13840   */\n      0x00\n        /* \"#utility.yul\":13856:13876   */\n      tag_552\n        /* \"#utility.yul\":13874:13875   */\n      dup3\n        /* \"#utility.yul\":13856:13876   */\n      tag_363\n      jump\t// in\n    tag_552:\n        /* \"#utility.yul\":13851:13876   */\n      swap2\n      pop\n        /* \"#utility.yul\":13890:13910   */\n      tag_553\n        /* \"#utility.yul\":13908:13909   */\n      dup4\n        /* \"#utility.yul\":13890:13910   */\n      tag_363\n      jump\t// in\n    tag_553:\n        /* \"#utility.yul\":13885:13910   */\n      swap3\n      pop\n        /* \"#utility.yul\":13934:13935   */\n      dup3\n        /* \"#utility.yul\":13931:13932   */\n      dup3\n        /* \"#utility.yul\":13927:13936   */\n      sub\n        /* \"#utility.yul\":13919:13936   */\n      swap1\n      pop\n        /* \"#utility.yul\":13958:13959   */\n      dup2\n        /* \"#utility.yul\":13952:13956   */\n      dup2\n        /* \"#utility.yul\":13949:13960   */\n      gt\n        /* \"#utility.yul\":13946:13983   */\n      iszero\n      tag_554\n      jumpi\n        /* \"#utility.yul\":13963:13981   */\n      tag_555\n      tag_386\n      jump\t// in\n    tag_555:\n        /* \"#utility.yul\":13946:13983   */\n    tag_554:\n        /* \"#utility.yul\":13796:13990   */\n      swap3\n      swap2\n      pop\n      pop\n      jump\t// out\n        /* \"#utility.yul\":13996:14187   */\n    tag_133:\n        /* \"#utility.yul\":14036:14039   */\n      0x00\n        /* \"#utility.yul\":14055:14075   */\n      tag_557\n        /* \"#utility.yul\":14073:14074   */\n      dup3\n        /* \"#utility.yul\":14055:14075   */\n      tag_363\n      jump\t// in\n    tag_557:\n        /* \"#utility.yul\":14050:14075   */\n      swap2\n      pop\n        /* \"#utility.yul\":14089:14109   */\n      tag_558\n        /* \"#utility.yul\":14107:14108   */\n      dup4\n        /* \"#utility.yul\":14089:14109   */\n      tag_363\n      jump\t// in\n    tag_558:\n        /* \"#utility.yul\":14084:14109   */\n      swap3\n      pop\n        /* \"#utility.yul\":14132:14133   */\n      dup3\n        /* \"#utility.yul\":14129:14130   */\n      dup3\n        /* \"#utility.yul\":14125:14134   */\n      add\n        /* \"#utility.yul\":14118:14134   */\n      swap1\n      pop\n        /* \"#utility.yul\":14153:14156   */\n      dup1\n        /* \"#utility.yul\":14150:14151   */\n      dup3\n        /* \"#utility.yul\":14147:14157   */\n      gt\n        /* \"#utility.yul\":14144:14180   */\n      iszero\n      tag_559\n      jumpi\n        /* \"#utility.yul\":14160:14178   */\n      tag_560\n      tag_386\n      jump\t// in\n    tag_560:\n        /* \"#utility.yul\":14144:14180   */\n    tag_559:\n        /* \"#utility.yul\":13996:14187   */\n      swap3\n      swap2\n      pop\n      pop\n      jump\t// out\n        /* \"#utility.yul\":14193:14373   */\n    tag_145:\n        /* \"#utility.yul\":14241:14318   */\n      0x4e487b7100000000000000000000000000000000000000000000000000000000\n        /* \"#utility.yul\":14238:14239   */\n      0x00\n        /* \"#utility.yul\":14231:14319   */\n      mstore\n        /* \"#utility.yul\":14338:14342   */\n      0x32\n        /* \"#utility.yul\":14335:14336   */\n      0x04\n        /* \"#utility.yul\":14328:14343   */\n      mstore\n        /* \"#utility.yul\":14362:14366   */\n      0x24\n        /* \"#utility.yul\":14359:14360   */\n      0x00\n        /* \"#utility.yul\":14352:14367   */\n      revert\n        /* \"#utility.yul\":14565:14751   */\n    tag_388:\n        /* \"#utility.yul\":14610:14621   */\n      0x00\n        /* \"#utility.yul\":14659:14662   */\n      dup2\n        /* \"#utility.yul\":14646:14663   */\n      calldataload\n        /* \"#utility.yul\":14672:14705   */\n      tag_564\n        /* \"#utility.yul\":14699:14704   */\n      dup2\n        /* \"#utility.yul\":14672:14705   */\n      tag_364\n      jump\t// in\n    tag_564:\n        /* \"#utility.yul\":14739:14744   */\n      dup1\n        /* \"#utility.yul\":14715:14744   */\n      swap2\n      pop\n        /* \"#utility.yul\":14622:14751   */\n      pop\n        /* \"#utility.yul\":14565:14751   */\n      swap2\n      swap1\n      pop\n      jump\t// out\n        /* \"#utility.yul\":14757:14849   */\n    tag_389:\n        /* \"#utility.yul\":14789:14797   */\n      0x00\n        /* \"#utility.yul\":14836:14841   */\n      dup2\n        /* \"#utility.yul\":14833:14834   */\n      0x00\n        /* \"#utility.yul\":14829:14842   */\n      shl\n        /* \"#utility.yul\":14808:14842   */\n      swap1\n      pop\n        /* \"#utility.yul\":14757:14849   */\n      swap2\n      swap1\n      pop\n      jump\t// out\n        /* \"#utility.yul\":14855:15145   */\n    tag_390:\n        /* \"#utility.yul\":14913:14919   */\n      0x00\n        /* \"#utility.yul\":14942:15008   */\n      0xffffffffffffffffffffffffffffffffffffffffffffffffffffffffffffffff\n        /* \"#utility.yul\":15029:15051   */\n      tag_567\n        /* \"#utility.yul\":15042:15050   */\n      dup5\n        /* \"#utility.yul\":15029:15051   */\n      tag_389\n      jump\t// in\n    tag_567:\n        /* \"#utility.yul\":15017:15051   */\n      swap4\n      pop\n        /* \"#utility.yul\":15084:15088   */\n      dup1\n        /* \"#utility.yul\":15080:15089   */\n      not\n        /* \"#utility.yul\":15073:15078   */\n      dup4\n        /* \"#utility.yul\":15069:15090   */\n      and\n        /* \"#utility.yul\":15060:15090   */\n      swap3\n      pop\n        /* \"#utility.yul\":15133:15137   */\n      dup1\n        /* \"#utility.yul\":15123:15131   */\n      dup5\n        /* \"#utility.yul\":15119:15138   */\n      and\n        /* \"#utility.yul\":15112:15117   */\n      dup4\n        /* \"#utility.yul\":15109:15139   */\n      or\n        /* \"#utility.yul\":15099:15139   */\n      swap2\n      pop\n        /* \"#utility.yul\":14920:15145   */\n      pop\n        /* \"#utility.yul\":14855:15145   */\n      swap3\n      swap2\n      pop\n      pop\n      jump\t// out\n        /* \"#utility.yul\":15151:15211   */\n    tag_391:\n        /* \"#utility.yul\":15179:15182   */\n      0x00\n        /* \"#utility.yul\":15200:15205   */\n      dup2\n        /* \"#utility.yul\":15193:15205   */\n      swap1\n      pop\n        /* \"#utility.yul\":15151:15211   */\n      swap2\n      swap1\n      pop\n      jump\t// out\n        /* \"#utility.yul\":15217:15359   */\n    tag_392:\n        /* \"#utility.yul\":15267:15276   */\n      0x00\n        /* \"#utility.yul\":15300:15353   */\n      tag_570\n        /* \"#utility.yul\":15318:15352   */\n      tag_571\n        /* \"#utility.yul\":15327:15351   */\n      tag_572\n        /* \"#utility.yul\":15345:15350   */\n      dup5\n        /* \"#utility.yul\":15327:15351   */\n      tag_363\n      jump\t// in\n    tag_572:\n        /* \"#utility.yul\":15318:15352   */\n      tag_391\n      jump\t// in\n    tag_571:\n        /* \"#utility.yul\":15300:15353   */\n      tag_363\n      jump\t// in\n    tag_570:\n        /* \"#utility.yul\":15287:15353   */\n      swap1\n      pop\n        /* \"#utility.yul\":15217:15359   */\n      swap2\n      swap1\n      pop\n      jump\t// out\n        /* \"#utility.yul\":15365:15440   */\n    tag_393:\n        /* \"#utility.yul\":15408:15411   */\n      0x00\n        /* \"#utility.yul\":15429:15434   */\n      dup2\n        /* \"#utility.yul\":15422:15434   */\n      swap1\n      pop\n        /* \"#utility.yul\":15365:15440   */\n      swap2\n      swap1\n      pop\n      jump\t// out\n        /* \"#utility.yul\":15446:15708   */\n    tag_394:\n        /* \"#utility.yul\":15556:15595   */\n      tag_575\n        /* \"#utility.yul\":15587:15594   */\n      dup3\n        /* \"#utility.yul\":15556:15595   */\n      tag_392\n      jump\t// in\n    tag_575:\n        /* \"#utility.yul\":15617:15701   */\n      tag_576\n        /* \"#utility.yul\":15659:15700   */\n      tag_577\n        /* \"#utility.yul\":15683:15699   */\n      dup3\n        /* \"#utility.yul\":15659:15700   */\n      tag_393\n      jump\t// in\n    tag_577:\n        /* \"#utility.yul\":15652:15656   */\n      dup4\n        /* \"#utility.yul\":15646:15657   */\n      sload\n        /* \"#utility.yul\":15617:15701   */\n      tag_390\n      jump\t// in\n    tag_576:\n        /* \"#utility.yul\":15611:15615   */\n      dup3\n        /* \"#utility.yul\":15604:15702   */\n      sstore\n        /* \"#utility.yul\":15522:15708   */\n      pop\n        /* \"#utility.yul\":15446:15708   */\n      pop\n      pop\n      jump\t// out\n        /* \"#utility.yul\":15714:16521   */\n    tag_395:\n        /* \"#utility.yul\":15892:15893   */\n      0x00\n        /* \"#utility.yul\":15886:15890   */\n      dup2\n        /* \"#utility.yul\":15882:15894   */\n      add\n        /* \"#utility.yul\":15938:15939   */\n      0x00\n        /* \"#utility.yul\":15931:15936   */\n      dup4\n        /* \"#utility.yul\":15927:15940   */\n      add\n        /* \"#utility.yul\":15988:16000   */\n      dup1\n        /* \"#utility.yul\":16031:16073   */\n      tag_579\n        /* \"#utility.yul\":16059:16072   */\n      dup2\n        /* \"#utility.yul\":16031:16073   */\n      tag_388\n      jump\t// in\n    tag_579:\n        /* \"#utility.yul\":16014:16073   */\n      swap1\n      pop\n        /* \"#utility.yul\":16087:16165   */\n      tag_580\n        /* \"#utility.yul\":16151:16164   */\n      dup2\n        /* \"#utility.yul\":16139:16149   */\n      dup5\n        /* \"#utility.yul\":16087:16165   */\n      tag_394\n      jump\t// in\n    tag_580:\n        /* \"#utility.yul\":15849:16176   */\n      pop\n      pop\n      pop\n        /* \"#utility.yul\":16229:16230   */\n      0x01\n        /* \"#utility.yul\":16223:16227   */\n      dup2\n        /* \"#utility.yul\":16219:16231   */\n      add\n        /* \"#utility.yul\":16275:16277   */\n      0x20\n        /* \"#utility.yul\":16268:16273   */\n      dup4\n        /* \"#utility.yul\":16264:16278   */\n      add\n        /* \"#utility.yul\":16326:16338   */\n      dup1\n        /* \"#utility.yul\":16369:16411   */\n      tag_581\n        /* \"#utility.yul\":16397:16410   */\n      dup2\n        /* \"#utility.yul\":16369:16411   */\n      tag_388\n      jump\t// in\n    tag_581:\n        /* \"#utility.yul\":16352:16411   */\n      swap1\n      pop\n        /* \"#utility.yul\":16425:16503   */\n      tag_582\n        /* \"#utility.yul\":16489:16502   */\n      dup2\n        /* \"#utility.yul\":16477:16487   */\n      dup5\n        /* \"#utility.yul\":16425:16503   */\n      tag_394\n      jump\t// in\n    tag_582:\n        /* \"#utility.yul\":16186:16514   */\n      pop\n      pop\n      pop\n        /* \"#utility.yul\":15714:16521   */\n      pop\n      pop\n      jump\t// out\n        /* \"#utility.yul\":16527:16787   */\n    tag_148:\n        /* \"#utility.yul\":16665:16781   */\n      tag_584\n        /* \"#utility.yul\":16773:16780   */\n      dup3\n        /* \"#utility.yul\":16767:16771   */\n      dup3\n        /* \"#utility.yul\":16665:16781   */\n      tag_395\n      jump\t// in\n    tag_584:\n        /* \"#utility.yul\":16527:16787   */\n      pop\n      pop\n      jump\t// out\n        /* \"#utility.yul\":16793:16878   */\n    tag_396:\n        /* \"#utility.yul\":16838:16845   */\n      0x00\n        /* \"#utility.yul\":16867:16872   */\n      dup2\n        /* \"#utility.yul\":16856:16872   */\n      swap1\n      pop\n        /* \"#utility.yul\":16793:16878   */\n      swap2\n      swap1\n      pop\n      jump\t// out\n        /* \"#utility.yul\":16884:16985   */\n    tag_397:\n        /* \"#utility.yul\":16920:16927   */\n      0x00\n        /* \"#utility.yul\":16960:16978   */\n      0xffffffffffffffff\n        /* \"#utility.yul\":16953:16958   */\n      dup3\n        /* \"#utility.yul\":16949:16979   */\n      and\n        /* \"#utility.yul\":16938:16979   */\n      swap1\n      pop\n        /* \"#utility.yul\":16884:16985   */\n      swap2\n      swap1\n      pop\n      jump\t// out\n        /* \"#utility.yul\":16991:17147   */\n    tag_398:\n        /* \"#utility.yul\":17048:17057   */\n      0x00\n        /* \"#utility.yul\":17081:17141   */\n      tag_588\n        /* \"#utility.yul\":17098:17140   */\n      tag_589\n        /* \"#utility.yul\":17107:17139   */\n      tag_590\n        /* \"#utility.yul\":17133:17138   */\n      dup5\n        /* \"#utility.yul\":17107:17139   */\n      tag_396\n      jump\t// in\n    tag_590:\n        /* \"#utility.yul\":17098:17140   */\n      tag_391\n      jump\t// in\n    tag_589:\n        /* \"#utility.yul\":17081:17141   */\n      tag_397\n      jump\t// in\n    tag_588:\n        /* \"#utility.yul\":17068:17141   */\n      swap1\n      pop\n        /* \"#utility.yul\":16991:17147   */\n      swap2\n      swap1\n      pop\n      jump\t// out\n        /* \"#utility.yul\":17153:17298   */\n    tag_399:\n        /* \"#utility.yul\":17247:17291   */\n      tag_592\n        /* \"#utility.yul\":17285:17290   */\n      dup2\n        /* \"#utility.yul\":17247:17291   */\n      tag_398\n      jump\t// in\n    tag_592:\n        /* \"#utility.yul\":17242:17245   */\n      dup3\n        /* \"#utility.yul\":17235:17292   */\n      mstore\n        /* \"#utility.yul\":17153:17298   */\n      pop\n      pop\n      jump\t// out\n        /* \"#utility.yul\":17304:17540   */\n    tag_172:\n        /* \"#utility.yul\":17404:17408   */\n      0x00\n        /* \"#utility.yul\":17442:17444   */\n      0x20\n        /* \"#utility.yul\":17431:17440   */\n      dup3\n        /* \"#utility.yul\":17427:17445   */\n      add\n        /* \"#utility.yul\":17419:17445   */\n      swap1\n      pop\n        /* \"#utility.yul\":17455:17533   */\n      tag_594\n        /* \"#utility.yul\":17530:17531   */\n      0x00\n        /* \"#utility.yul\":17519:17528   */\n      dup4\n        /* \"#utility.yul\":17515:17532   */\n      add\n        /* \"#utility.yul\":17506:17512   */\n      dup5\n        /* \"#utility.yul\":17455:17533   */\n      tag_399\n      jump\t// in\n    tag_594:\n        /* \"#utility.yul\":17304:17540   */\n      swap3\n      swap2\n      pop\n      pop\n      jump\t// out\n        /* \"#utility.yul\":17546:17664   */\n    tag_400:\n        /* \"#utility.yul\":17633:17657   */\n      tag_596\n        /* \"#utility.yul\":17651:17656   */\n      dup2\n        /* \"#utility.yul\":17633:17657   */\n      tag_360\n      jump\t// in\n    tag_596:\n        /* \"#utility.yul\":17628:17631   */\n      dup3\n        /* \"#utility.yul\":17621:17658   */\n      mstore\n        /* \"#utility.yul\":17546:17664   */\n      pop\n      pop\n      jump\t// out\n        /* \"#utility.yul\":17670:18112   */\n    tag_201:\n        /* \"#utility.yul\":17819:17823   */\n      0x00\n        /* \"#utility.yul\":17857:17859   */\n      0x60\n        /* \"#utility.yul\":17846:17855   */\n      dup3\n        /* \"#utility.yul\":17842:17860   */\n      add\n        /* \"#utility.yul\":17834:17860   */\n      swap1\n      pop\n        /* \"#utility.yul\":17870:17941   */\n      tag_598\n        /* \"#utility.yul\":17938:17939   */\n      0x00\n        /* \"#utility.yul\":17927:17936   */\n      dup4\n        /* \"#utility.yul\":17923:17940   */\n      add\n        /* \"#utility.yul\":17914:17920   */\n      dup7\n        /* \"#utility.yul\":17870:17941   */\n      tag_400\n      jump\t// in\n    tag_598:\n        /* \"#utility.yul\":17951:18023   */\n      tag_599\n        /* \"#utility.yul\":18019:18021   */\n      0x20\n        /* \"#utility.yul\":18008:18017   */\n      dup4\n        /* \"#utility.yul\":18004:18022   */\n      add\n        /* \"#utility.yul\":17995:18001   */\n      dup6\n        /* \"#utility.yul\":17951:18023   */\n      tag_368\n      jump\t// in\n    tag_599:\n        /* \"#utility.yul\":18033:18105   */\n      tag_600\n        /* \"#utility.yul\":18101:18103   */\n      0x40\n        /* \"#utility.yul\":18090:18099   */\n      dup4\n        /* \"#utility.yul\":18086:18104   */\n      add\n        /* \"#utility.yul\":18077:18083   */\n      dup5\n        /* \"#utility.yul\":18033:18105   */\n      tag_368\n      jump\t// in\n    tag_600:\n        /* \"#utility.yul\":17670:18112   */\n      swap5\n      swap4\n      pop\n      pop\n      pop\n      pop\n      jump\t// out\n        /* \"#utility.yul\":18118:18340   */\n    tag_206:\n        /* \"#utility.yul\":18211:18215   */\n      0x00\n        /* \"#utility.yul\":18249:18251   */\n      0x20\n        /* \"#utility.yul\":18238:18247   */\n      dup3\n        /* \"#utility.yul\":18234:18252   */\n      add\n        /* \"#utility.yul\":18226:18252   */\n      swap1\n      pop\n        /* \"#utility.yul\":18262:18333   */\n      tag_602\n        /* \"#utility.yul\":18330:18331   */\n      0x00\n        /* \"#utility.yul\":18319:18328   */\n      dup4\n        /* \"#utility.yul\":18315:18332   */\n      add\n        /* \"#utility.yul\":18306:18312   */\n      dup5\n        /* \"#utility.yul\":18262:18333   */\n      tag_400\n      jump\t// in\n    tag_602:\n        /* \"#utility.yul\":18118:18340   */\n      swap3\n      swap2\n      pop\n      pop\n      jump\t// out\n        /* \"#utility.yul\":18346:18788   */\n    tag_217:\n        /* \"#utility.yul\":18495:18499   */\n      0x00\n        /* \"#utility.yul\":18533:18535   */\n      0x60\n        /* \"#utility.yul\":18522:18531   */\n      dup3\n        /* \"#utility.yul\":18518:18536   */\n      add\n        /* \"#utility.yul\":18510:18536   */\n      swap1\n      pop\n        /* \"#utility.yul\":18546:18617   */\n      tag_604\n        /* \"#utility.yul\":18614:18615   */\n      0x00\n        /* \"#utility.yul\":18603:18612   */\n      dup4\n        /* \"#utility.yul\":18599:18616   */\n      add\n        /* \"#utility.yul\":18590:18596   */\n      dup7\n        /* \"#utility.yul\":18546:18617   */\n      tag_400\n      jump\t// in\n    tag_604:\n        /* \"#utility.yul\":18627:18699   */\n      tag_605\n        /* \"#utility.yul\":18695:18697   */\n      0x20\n        /* \"#utility.yul\":18684:18693   */\n      dup4\n        /* \"#utility.yul\":18680:18698   */\n      add\n        /* \"#utility.yul\":18671:18677   */\n      dup6\n        /* \"#utility.yul\":18627:18699   */\n      tag_400\n      jump\t// in\n    tag_605:\n        /* \"#utility.yul\":18709:18781   */\n      tag_606\n        /* \"#utility.yul\":18777:18779   */\n      0x40\n        /* \"#utility.yul\":18766:18775   */\n      dup4\n        /* \"#utility.yul\":18762:18780   */\n      add\n        /* \"#utility.yul\":18753:18759   */\n      dup5\n        /* \"#utility.yul\":18709:18781   */\n      tag_368\n      jump\t// in\n    tag_606:\n        /* \"#utility.yul\":18346:18788   */\n      swap5\n      swap4\n      pop\n      pop\n      pop\n      pop\n      jump\t// out\n        /* \"#utility.yul\":18794:19126   */\n    tag_253:\n        /* \"#utility.yul\":18915:18919   */\n      0x00\n        /* \"#utility.yul\":18953:18955   */\n      0x40\n        /* \"#utility.yul\":18942:18951   */\n      dup3\n        /* \"#utility.yul\":18938:18956   */\n      add\n        /* \"#utility.yul\":18930:18956   */\n      swap1\n      pop\n        /* \"#utility.yul\":18966:19037   */\n      tag_608\n        /* \"#utility.yul\":19034:19035   */\n      0x00\n        /* \"#utility.yul\":19023:19032   */\n      dup4\n        /* \"#utility.yul\":19019:19036   */\n      add\n        /* \"#utility.yul\":19010:19016   */\n      dup6\n        /* \"#utility.yul\":18966:19037   */\n      tag_400\n      jump\t// in\n    tag_608:\n        /* \"#utility.yul\":19047:19119   */\n      tag_609\n        /* \"#utility.yul\":19115:19117   */\n      0x20\n        /* \"#utility.yul\":19104:19113   */\n      dup4\n        /* \"#utility.yul\":19100:19118   */\n      add\n        /* \"#utility.yul\":19091:19097   */\n      dup5\n        /* \"#utility.yul\":19047:19119   */\n      tag_368\n      jump\t// in\n    tag_609:\n        /* \"#utility.yul\":18794:19126   */\n      swap4\n      swap3\n      pop\n      pop\n      pop\n      jump\t// out\n        /* \"#utility.yul\":19132:19542   */\n    tag_295:\n        /* \"#utility.yul\":19172:19179   */\n      0x00\n        /* \"#utility.yul\":19195:19215   */\n      tag_611\n        /* \"#utility.yul\":19213:19214   */\n      dup3\n        /* \"#utility.yul\":19195:19215   */\n      tag_363\n      jump\t// in\n    tag_611:\n        /* \"#utility.yul\":19190:19215   */\n      swap2\n      pop\n        /* \"#utility.yul\":19229:19249   */\n      tag_612\n        /* \"#utility.yul\":19247:19248   */\n      dup4\n        /* \"#utility.yul\":19229:19249   */\n      tag_363\n      jump\t// in\n    tag_612:\n        /* \"#utility.yul\":19224:19249   */\n      swap3\n      pop\n        /* \"#utility.yul\":19284:19285   */\n      dup3\n        /* \"#utility.yul\":19281:19282   */\n      dup3\n        /* \"#utility.yul\":19277:19286   */\n      mul\n        /* \"#utility.yul\":19306:19336   */\n      tag_613\n        /* \"#utility.yul\":19324:19335   */\n      dup2\n        /* \"#utility.yul\":19306:19336   */\n      tag_363\n      jump\t// in\n    tag_613:\n        /* \"#utility.yul\":19295:19336   */\n      swap2\n      pop\n        /* \"#utility.yul\":19485:19486   */\n      dup3\n        /* \"#utility.yul\":19476:19483   */\n      dup3\n        /* \"#utility.yul\":19472:19487   */\n      div\n        /* \"#utility.yul\":19469:19470   */\n      dup5\n        /* \"#utility.yul\":19466:19488   */\n      eq\n        /* \"#utility.yul\":19446:19447   */\n      dup4\n        /* \"#utility.yul\":19439:19448   */\n      iszero\n        /* \"#utility.yul\":19419:19502   */\n      or\n        /* \"#utility.yul\":19396:19535   */\n      tag_614\n      jumpi\n        /* \"#utility.yul\":19515:19533   */\n      tag_615\n      tag_386\n      jump\t// in\n    tag_615:\n        /* \"#utility.yul\":19396:19535   */\n    tag_614:\n        /* \"#utility.yul\":19180:19542   */\n      pop\n        /* \"#utility.yul\":19132:19542   */\n      swap3\n      swap2\n      pop\n      pop\n      jump\t// out\n        /* \"#utility.yul\":19548:19728   */\n    tag_401:\n        /* \"#utility.yul\":19596:19673   */\n      0x4e487b7100000000000000000000000000000000000000000000000000000000\n        /* \"#utility.yul\":19593:19594   */\n      0x00\n        /* \"#utility.yul\":19586:19674   */\n      mstore\n        /* \"#utility.yul\":19693:19697   */\n      0x12\n        /* \"#utility.yul\":19690:19691   */\n      0x04\n        /* \"#utility.yul\":19683:19698   */\n      mstore\n        /* \"#utility.yul\":19717:19721   */\n      0x24\n        /* \"#utility.yul\":19714:19715   */\n      0x00\n        /* \"#utility.yul\":19707:19722   */\n      revert\n        /* \"#utility.yul\":19734:19919   */\n    tag_299:\n        /* \"#utility.yul\":19774:19775   */\n      0x00\n        /* \"#utility.yul\":19791:19811   */\n      tag_618\n        /* \"#utility.yul\":19809:19810   */\n      dup3\n        /* \"#utility.yul\":19791:19811   */\n      tag_363\n      jump\t// in\n    tag_618:\n        /* \"#utility.yul\":19786:19811   */\n      swap2\n      pop\n        /* \"#utility.yul\":19825:19845   */\n      tag_619\n        /* \"#utility.yul\":19843:19844   */\n      dup4\n        /* \"#utility.yul\":19825:19845   */\n      tag_363\n      jump\t// in\n    tag_619:\n        /* \"#utility.yul\":19820:19845   */\n      swap3\n      pop\n        /* \"#utility.yul\":19864:19865   */\n      dup3\n        /* \"#utility.yul\":19854:19889   */\n      tag_620\n      jumpi\n        /* \"#utility.yul\":19869:19887   */\n      tag_621\n      tag_401\n      jump\t// in\n    tag_621:\n        /* \"#utility.yul\":19854:19889   */\n    tag_620:\n        /* \"#utility.yul\":19911:19912   */\n      dup3\n        /* \"#utility.yul\":19908:19909   */\n      dup3\n        /* \"#utility.yul\":19904:19913   */\n      div\n        /* \"#utility.yul\":19899:19913   */\n      swap1\n      pop\n        /* \"#utility.yul\":19734:19919   */\n      swap3\n      swap2\n      pop\n      pop\n      jump\t// out\n        /* \"#utility.yul\":19925:20041   */\n    tag_402:\n        /* \"#utility.yul\":19995:20016   */\n      tag_623\n        /* \"#utility.yul\":20010:20015   */\n      dup2\n        /* \"#utility.yul\":19995:20016   */\n      tag_366\n      jump\t// in\n    tag_623:\n        /* \"#utility.yul\":19988:19993   */\n      dup2\n        /* \"#utility.yul\":19985:20017   */\n      eq\n        /* \"#utility.yul\":19975:20035   */\n      tag_624\n      jumpi\n        /* \"#utility.yul\":20031:20032   */\n      0x00\n        /* \"#utility.yul\":20028:20029   */\n      dup1\n        /* \"#utility.yul\":20021:20033   */\n      revert\n        /* \"#utility.yul\":19975:20035   */\n    tag_624:\n        /* \"#utility.yul\":19925:20041   */\n      pop\n      jump\t// out\n        /* \"#utility.yul\":20047:20184   */\n    tag_403:\n        /* \"#utility.yul\":20101:20106   */\n      0x00\n        /* \"#utility.yul\":20132:20138   */\n      dup2\n        /* \"#utility.yul\":20126:20139   */\n      mload\n        /* \"#utility.yul\":20117:20139   */\n      swap1\n      pop\n        /* \"#utility.yul\":20148:20178   */\n      tag_626\n        /* \"#utility.yul\":20172:20177   */\n      dup2\n        /* \"#utility.yul\":20148:20178   */\n      tag_402\n      jump\t// in\n    tag_626:\n        /* \"#utility.yul\":20047:20184   */\n      swap3\n      swap2\n      pop\n      pop\n      jump\t// out\n        /* \"#utility.yul\":20190:20535   */\n    tag_310:\n        /* \"#utility.yul\":20257:20263   */\n      0x00\n        /* \"#utility.yul\":20306:20308   */\n      0x20\n        /* \"#utility.yul\":20294:20303   */\n      dup3\n        /* \"#utility.yul\":20285:20292   */\n      dup5\n        /* \"#utility.yul\":20281:20304   */\n      sub\n        /* \"#utility.yul\":20277:20309   */\n      slt\n        /* \"#utility.yul\":20274:20393   */\n      iszero\n      tag_628\n      jumpi\n        /* \"#utility.yul\":20312:20391   */\n      tag_629\n      tag_357\n      jump\t// in\n    tag_629:\n        /* \"#utility.yul\":20274:20393   */\n    tag_628:\n        /* \"#utility.yul\":20432:20433   */\n      0x00\n        /* \"#utility.yul\":20457:20518   */\n      tag_630\n        /* \"#utility.yul\":20510:20517   */\n      dup5\n        /* \"#utility.yul\":20501:20507   */\n      dup3\n        /* \"#utility.yul\":20490:20499   */\n      dup6\n        /* \"#utility.yul\":20486:20508   */\n      add\n        /* \"#utility.yul\":20457:20518   */\n      tag_403\n      jump\t// in\n    tag_630:\n        /* \"#utility.yul\":20447:20518   */\n      swap2\n      pop\n        /* \"#utility.yul\":20403:20528   */\n      pop\n        /* \"#utility.yul\":20190:20535   */\n      swap3\n      swap2\n      pop\n      pop\n      jump\t// out\n        /* \"#utility.yul\":20541:20721   */\n    tag_404:\n        /* \"#utility.yul\":20589:20666   */\n      0x4e487b7100000000000000000000000000000000000000000000000000000000\n        /* \"#utility.yul\":20586:20587   */\n      0x00\n        /* \"#utility.yul\":20579:20667   */\n      mstore\n        /* \"#utility.yul\":20686:20690   */\n      0x41\n        /* \"#utility.yul\":20683:20684   */\n      0x04\n        /* \"#utility.yul\":20676:20691   */\n      mstore\n        /* \"#utility.yul\":20710:20714   */\n      0x24\n        /* \"#utility.yul\":20707:20708   */\n      0x00\n        /* \"#utility.yul\":20700:20715   */\n      revert\n        /* \"#utility.yul\":20727:20868   */\n    tag_405:\n        /* \"#utility.yul\":20776:20780   */\n      0x00\n        /* \"#utility.yul\":20799:20802   */\n      dup2\n        /* \"#utility.yul\":20791:20802   */\n      swap1\n      pop\n        /* \"#utility.yul\":20822:20825   */\n      dup2\n        /* \"#utility.yul\":20819:20820   */\n      0x00\n        /* \"#utility.yul\":20812:20826   */\n      mstore\n        /* \"#utility.yul\":20856:20860   */\n      0x20\n        /* \"#utility.yul\":20853:20854   */\n      0x00\n        /* \"#utility.yul\":20843:20861   */\n      keccak256\n        /* \"#utility.yul\":20835:20861   */\n      swap1\n      pop\n        /* \"#utility.yul\":20727:20868   */\n      swap2\n      swap1\n      pop\n      jump\t// out\n        /* \"#utility.yul\":20874:20967   */\n    tag_406:\n        /* \"#utility.yul\":20911:20917   */\n      0x00\n        /* \"#utility.yul\":20958:20960   */\n      0x20\n        /* \"#utility.yul\":20953:20955   */\n      0x1f\n        /* \"#utility.yul\":20946:20951   */\n      dup4\n        /* \"#utility.yul\":20942:20956   */\n      add\n        /* \"#utility.yul\":20938:20961   */\n      div\n        /* \"#utility.yul\":20928:20961   */\n      swap1\n      pop\n        /* \"#utility.yul\":20874:20967   */\n      swap2\n      swap1\n      pop\n      jump\t// out\n        /* \"#utility.yul\":20973:21080   */\n    tag_407:\n        /* \"#utility.yul\":21017:21025   */\n      0x00\n        /* \"#utility.yul\":21067:21072   */\n      dup3\n        /* \"#utility.yul\":21061:21065   */\n      dup3\n        /* \"#utility.yul\":21057:21073   */\n      shl\n        /* \"#utility.yul\":21036:21073   */\n      swap1\n      pop\n        /* \"#utility.yul\":20973:21080   */\n      swap3\n      swap2\n      pop\n      pop\n      jump\t// out\n        /* \"#utility.yul\":21086:21479   */\n    tag_408:\n        /* \"#utility.yul\":21155:21161   */\n      0x00\n        /* \"#utility.yul\":21205:21206   */\n      0x08\n        /* \"#utility.yul\":21193:21203   */\n      dup4\n        /* \"#utility.yul\":21189:21207   */\n      mul\n        /* \"#utility.yul\":21228:21325   */\n      tag_636\n        /* \"#utility.yul\":21258:21324   */\n      0xffffffffffffffffffffffffffffffffffffffffffffffffffffffffffffffff\n        /* \"#utility.yul\":21247:21256   */\n      dup3\n        /* \"#utility.yul\":21228:21325   */\n      tag_407\n      jump\t// in\n    tag_636:\n        /* \"#utility.yul\":21346:21385   */\n      tag_637\n        /* \"#utility.yul\":21376:21384   */\n      dup7\n        /* \"#utility.yul\":21365:21374   */\n      dup4\n        /* \"#utility.yul\":21346:21385   */\n      tag_407\n      jump\t// in\n    tag_637:\n        /* \"#utility.yul\":21334:21385   */\n      swap6\n      pop\n        /* \"#utility.yul\":21418:21422   */\n      dup1\n        /* \"#utility.yul\":21414:21423   */\n      not\n        /* \"#utility.yul\":21407:21412   */\n      dup5\n        /* \"#utility.yul\":21403:21424   */\n      and\n        /* \"#utility.yul\":21394:21424   */\n      swap4\n      pop\n        /* \"#utility.yul\":21467:21471   */\n      dup1\n        /* \"#utility.yul\":21457:21465   */\n      dup7\n        /* \"#utility.yul\":21453:21472   */\n      and\n        /* \"#utility.yul\":21446:21451   */\n      dup5\n        /* \"#utility.yul\":21443:21473   */\n      or\n        /* \"#utility.yul\":21433:21473   */\n      swap3\n      pop\n        /* \"#utility.yul\":21162:21479   */\n      pop\n      pop\n        /* \"#utility.yul\":21086:21479   */\n      swap4\n      swap3\n      pop\n      pop\n      pop\n      jump\t// out\n        /* \"#utility.yul\":21485:21754   */\n    tag_409:\n        /* \"#utility.yul\":21595:21634   */\n      tag_639\n        /* \"#utility.yul\":21626:21633   */\n      dup4\n        /* \"#utility.yul\":21595:21634   */\n      tag_392\n      jump\t// in\n    tag_639:\n        /* \"#utility.yul\":21656:21747   */\n      tag_640\n        /* \"#utility.yul\":21705:21746   */\n      tag_641\n        /* \"#utility.yul\":21729:21745   */\n      dup3\n        /* \"#utility.yul\":21705:21746   */\n      tag_393\n      jump\t// in\n    tag_641:\n        /* \"#utility.yul\":21697:21703   */\n      dup5\n        /* \"#utility.yul\":21690:21694   */\n      dup5\n        /* \"#utility.yul\":21684:21695   */\n      sload\n        /* \"#utility.yul\":21656:21747   */\n      tag_408\n      jump\t// in\n    tag_640:\n        /* \"#utility.yul\":21650:21654   */\n      dup3\n        /* \"#utility.yul\":21643:21748   */\n      sstore\n        /* \"#utility.yul\":21561:21754   */\n      pop\n        /* \"#utility.yul\":21485:21754   */\n      pop\n      pop\n      pop\n      jump\t// out\n        /* \"#utility.yul\":21760:21833   */\n    tag_410:\n        /* \"#utility.yul\":21805:21808   */\n      0x00\n        /* \"#utility.yul\":21760:21833   */\n      swap1\n      jump\t// out\n        /* \"#utility.yul\":21839:22028   */\n    tag_411:\n        /* \"#utility.yul\":21916:21948   */\n      tag_644\n      tag_410\n      jump\t// in\n    tag_644:\n        /* \"#utility.yul\":21957:22022   */\n      tag_645\n        /* \"#utility.yul\":22015:22021   */\n      dup2\n        /* \"#utility.yul\":22007:22013   */\n      dup5\n        /* \"#utility.yul\":22001:22005   */\n      dup5\n        /* \"#utility.yul\":21957:22022   */\n      tag_409\n      jump\t// in\n    tag_645:\n        /* \"#utility.yul\":21892:22028   */\n      pop\n        /* \"#utility.yul\":21839:22028   */\n      pop\n      pop\n      jump\t// out\n        /* \"#utility.yul\":22034:22220   */\n    tag_412:\n        /* \"#utility.yul\":22094:22214   */\n    tag_647:\n        /* \"#utility.yul\":22111:22114   */\n      dup2\n        /* \"#utility.yul\":22104:22109   */\n      dup2\n        /* \"#utility.yul\":22101:22115   */\n      lt\n        /* \"#utility.yul\":22094:22214   */\n      iszero\n      tag_649\n      jumpi\n        /* \"#utility.yul\":22165:22204   */\n      tag_650\n        /* \"#utility.yul\":22202:22203   */\n      0x00\n        /* \"#utility.yul\":22195:22200   */\n      dup3\n        /* \"#utility.yul\":22165:22204   */\n      tag_411\n      jump\t// in\n    tag_650:\n        /* \"#utility.yul\":22138:22139   */\n      0x01\n        /* \"#utility.yul\":22131:22136   */\n      dup2\n        /* \"#utility.yul\":22127:22140   */\n      add\n        /* \"#utility.yul\":22118:22140   */\n      swap1\n      pop\n        /* \"#utility.yul\":22094:22214   */\n      jump(tag_647)\n    tag_649:\n        /* \"#utility.yul\":22034:22220   */\n      pop\n      pop\n      jump\t// out\n        /* \"#utility.yul\":22226:22769   */\n    tag_413:\n        /* \"#utility.yul\":22327:22329   */\n      0x1f\n        /* \"#utility.yul\":22322:22325   */\n      dup3\n        /* \"#utility.yul\":22319:22330   */\n      gt\n        /* \"#utility.yul\":22316:22762   */\n      iszero\n      tag_652\n      jumpi\n        /* \"#utility.yul\":22361:22399   */\n      tag_653\n        /* \"#utility.yul\":22393:22398   */\n      dup2\n        /* \"#utility.yul\":22361:22399   */\n      tag_405\n      jump\t// in\n    tag_653:\n        /* \"#utility.yul\":22445:22474   */\n      tag_654\n        /* \"#utility.yul\":22463:22473   */\n      dup5\n        /* \"#utility.yul\":22445:22474   */\n      tag_406\n      jump\t// in\n    tag_654:\n        /* \"#utility.yul\":22435:22443   */\n      dup2\n        /* \"#utility.yul\":22431:22475   */\n      add\n        /* \"#utility.yul\":22628:22630   */\n      0x20\n        /* \"#utility.yul\":22616:22626   */\n      dup6\n        /* \"#utility.yul\":22613:22631   */\n      lt\n        /* \"#utility.yul\":22610:22659   */\n      iszero\n      tag_655\n      jumpi\n        /* \"#utility.yul\":22649:22657   */\n      dup2\n        /* \"#utility.yul\":22634:22657   */\n      swap1\n      pop\n        /* \"#utility.yul\":22610:22659   */\n    tag_655:\n        /* \"#utility.yul\":22672:22752   */\n      tag_656\n        /* \"#utility.yul\":22728:22750   */\n      tag_657\n        /* \"#utility.yul\":22746:22749   */\n      dup6\n        /* \"#utility.yul\":22728:22750   */\n      tag_406\n      jump\t// in\n    tag_657:\n        /* \"#utility.yul\":22718:22726   */\n      dup4\n        /* \"#utility.yul\":22714:22751   */\n      add\n        /* \"#utility.yul\":22701:22712   */\n      dup3\n        /* \"#utility.yul\":22672:22752   */\n      tag_412\n      jump\t// in\n    tag_656:\n        /* \"#utility.yul\":22331:22762   */\n      pop\n      pop\n        /* \"#utility.yul\":22316:22762   */\n    tag_652:\n        /* \"#utility.yul\":22226:22769   */\n      pop\n      pop\n      pop\n      jump\t// out\n        /* \"#utility.yul\":22775:22892   */\n    tag_414:\n        /* \"#utility.yul\":22829:22837   */\n      0x00\n        /* \"#utility.yul\":22879:22884   */\n      dup3\n        /* \"#utility.yul\":22873:22877   */\n      dup3\n        /* \"#utility.yul\":22869:22885   */\n      shr\n        /* \"#utility.yul\":22848:22885   */\n      swap1\n      pop\n        /* \"#utility.yul\":22775:22892   */\n      swap3\n      swap2\n      pop\n      pop\n      jump\t// out\n        /* \"#utility.yul\":22898:23067   */\n    tag_415:\n        /* \"#utility.yul\":22942:22948   */\n      0x00\n        /* \"#utility.yul\":22975:23026   */\n      tag_660\n        /* \"#utility.yul\":23023:23024   */\n      0x00\n        /* \"#utility.yul\":23019:23025   */\n      not\n        /* \"#utility.yul\":23011:23016   */\n      dup5\n        /* \"#utility.yul\":23008:23009   */\n      0x08\n        /* \"#utility.yul\":23004:23017   */\n      mul\n        /* \"#utility.yul\":22975:23026   */\n      tag_414\n      jump\t// in\n    tag_660:\n        /* \"#utility.yul\":22971:23027   */\n      not\n        /* \"#utility.yul\":23056:23060   */\n      dup1\n        /* \"#utility.yul\":23050:23054   */\n      dup4\n        /* \"#utility.yul\":23046:23061   */\n      and\n        /* \"#utility.yul\":23036:23061   */\n      swap2\n      pop\n        /* \"#utility.yul\":22949:23067   */\n      pop\n        /* \"#utility.yul\":22898:23067   */\n      swap3\n      swap2\n      pop\n      pop\n      jump\t// out\n        /* \"#utility.yul\":23072:23367   */\n    tag_416:\n        /* \"#utility.yul\":23148:23152   */\n      0x00\n        /* \"#utility.yul\":23294:23323   */\n      tag_662\n        /* \"#utility.yul\":23319:23322   */\n      dup4\n        /* \"#utility.yul\":23313:23317   */\n      dup4\n        /* \"#utility.yul\":23294:23323   */\n      tag_415\n      jump\t// in\n    tag_662:\n        /* \"#utility.yul\":23286:23323   */\n      swap2\n      pop\n        /* \"#utility.yul\":23356:23359   */\n      dup3\n        /* \"#utility.yul\":23353:23354   */\n      0x02\n        /* \"#utility.yul\":23349:23360   */\n      mul\n        /* \"#utility.yul\":23343:23347   */\n      dup3\n        /* \"#utility.yul\":23340:23361   */\n      or\n        /* \"#utility.yul\":23332:23361   */\n      swap1\n      pop\n        /* \"#utility.yul\":23072:23367   */\n      swap3\n      swap2\n      pop\n      pop\n      jump\t// out\n        /* \"#utility.yul\":23372:24767   */\n    tag_322:\n        /* \"#utility.yul\":23489:23526   */\n      tag_664\n        /* \"#utility.yul\":23522:23525   */\n      dup3\n        /* \"#utility.yul\":23489:23526   */\n      tag_351\n      jump\t// in\n    tag_664:\n        /* \"#utility.yul\":23591:23609   */\n      0xffffffffffffffff\n        /* \"#utility.yul\":23583:23589   */\n      dup2\n        /* \"#utility.yul\":23580:23610   */\n      gt\n        /* \"#utility.yul\":23577:23633   */\n      iszero\n      tag_665\n      jumpi\n        /* \"#utility.yul\":23613:23631   */\n      tag_666\n      tag_404\n      jump\t// in\n    tag_666:\n        /* \"#utility.yul\":23577:23633   */\n    tag_665:\n        /* \"#utility.yul\":23657:23695   */\n      tag_667\n        /* \"#utility.yul\":23689:23693   */\n      dup3\n        /* \"#utility.yul\":23683:23694   */\n      sload\n        /* \"#utility.yul\":23657:23695   */\n      tag_94\n      jump\t// in\n    tag_667:\n        /* \"#utility.yul\":23742:23809   */\n      tag_668\n        /* \"#utility.yul\":23802:23808   */\n      dup3\n        /* \"#utility.yul\":23794:23800   */\n      dup3\n        /* \"#utility.yul\":23788:23792   */\n      dup6\n        /* \"#utility.yul\":23742:23809   */\n      tag_413\n      jump\t// in\n    tag_668:\n        /* \"#utility.yul\":23836:23837   */\n      0x00\n        /* \"#utility.yul\":23860:23864   */\n      0x20\n        /* \"#utility.yul\":23847:23864   */\n      swap1\n      pop\n        /* \"#utility.yul\":23892:23894   */\n      0x1f\n        /* \"#utility.yul\":23884:23890   */\n      dup4\n        /* \"#utility.yul\":23881:23895   */\n      gt\n        /* \"#utility.yul\":23909:23910   */\n      0x01\n        /* \"#utility.yul\":23904:24522   */\n      dup2\n      eq\n      tag_670\n      jumpi\n        /* \"#utility.yul\":24566:24567   */\n      0x00\n        /* \"#utility.yul\":24583:24589   */\n      dup5\n        /* \"#utility.yul\":24580:24657   */\n      iszero\n      tag_671\n      jumpi\n        /* \"#utility.yul\":24632:24641   */\n      dup3\n        /* \"#utility.yul\":24627:24630   */\n      dup8\n        /* \"#utility.yul\":24623:24642   */\n      add\n        /* \"#utility.yul\":24617:24643   */\n      mload\n        /* \"#utility.yul\":24608:24643   */\n      swap1\n      pop\n        /* \"#utility.yul\":24580:24657   */\n    tag_671:\n        /* \"#utility.yul\":24683:24750   */\n      tag_672\n        /* \"#utility.yul\":24743:24749   */\n      dup6\n        /* \"#utility.yul\":24736:24741   */\n      dup3\n        /* \"#utility.yul\":24683:24750   */\n      tag_416\n      jump\t// in\n    tag_672:\n        /* \"#utility.yul\":24677:24681   */\n      dup7\n        /* \"#utility.yul\":24670:24751   */\n      sstore\n        /* \"#utility.yul\":24539:24761   */\n      pop\n        /* \"#utility.yul\":23874:24761   */\n      jump(tag_669)\n        /* \"#utility.yul\":23904:24522   */\n    tag_670:\n        /* \"#utility.yul\":23956:23960   */\n      0x1f\n        /* \"#utility.yul\":23952:23961   */\n      not\n        /* \"#utility.yul\":23944:23950   */\n      dup5\n        /* \"#utility.yul\":23940:23962   */\n      and\n        /* \"#utility.yul\":23990:24027   */\n      tag_673\n        /* \"#utility.yul\":24022:24026   */\n      dup7\n        /* \"#utility.yul\":23990:24027   */\n      tag_405\n      jump\t// in\n    tag_673:\n        /* \"#utility.yul\":24049:24050   */\n      0x00\n        /* \"#utility.yul\":24063:24271   */\n    tag_674:\n        /* \"#utility.yul\":24077:24084   */\n      dup3\n        /* \"#utility.yul\":24074:24075   */\n      dup2\n        /* \"#utility.yul\":24071:24085   */\n      lt\n        /* \"#utility.yul\":24063:24271   */\n      iszero\n      tag_676\n      jumpi\n        /* \"#utility.yul\":24156:24165   */\n      dup5\n        /* \"#utility.yul\":24151:24154   */\n      dup10\n        /* \"#utility.yul\":24147:24166   */\n      add\n        /* \"#utility.yul\":24141:24167   */\n      mload\n        /* \"#utility.yul\":24133:24139   */\n      dup3\n        /* \"#utility.yul\":24126:24168   */\n      sstore\n        /* \"#utility.yul\":24207:24208   */\n      0x01\n        /* \"#utility.yul\":24199:24205   */\n      dup3\n        /* \"#utility.yul\":24195:24209   */\n      add\n        /* \"#utility.yul\":24185:24209   */\n      swap2\n      pop\n        /* \"#utility.yul\":24254:24256   */\n      0x20\n        /* \"#utility.yul\":24243:24252   */\n      dup6\n        /* \"#utility.yul\":24239:24257   */\n      add\n        /* \"#utility.yul\":24226:24257   */\n      swap5\n      pop\n        /* \"#utility.yul\":24100:24104   */\n      0x20\n        /* \"#utility.yul\":24097:24098   */\n      dup2\n        /* \"#utility.yul\":24093:24105   */\n      add\n        /* \"#utility.yul\":24088:24105   */\n      swap1\n      pop\n        /* \"#utility.yul\":24063:24271   */\n      jump(tag_674)\n    tag_676:\n        /* \"#utility.yul\":24299:24305   */\n      dup7\n        /* \"#utility.yul\":24290:24297   */\n      dup4\n        /* \"#utility.yul\":24287:24306   */\n      lt\n        /* \"#utility.yul\":24284:24463   */\n      iszero\n      tag_677\n      jumpi\n        /* \"#utility.yul\":24357:24366   */\n      dup5\n        /* \"#utility.yul\":24352:24355   */\n      dup10\n        /* \"#utility.yul\":24348:24367   */\n      add\n        /* \"#utility.yul\":24342:24368   */\n      mload\n        /* \"#utility.yul\":24400:24448   */\n      tag_678\n        /* \"#utility.yul\":24442:24446   */\n      0x1f\n        /* \"#utility.yul\":24434:24440   */\n      dup10\n        /* \"#utility.yul\":24430:24447   */\n      and\n        /* \"#utility.yul\":24419:24428   */\n      dup3\n        /* \"#utility.yul\":24400:24448   */\n      tag_415\n      jump\t// in\n    tag_678:\n        /* \"#utility.yul\":24392:24398   */\n      dup4\n        /* \"#utility.yul\":24385:24449   */\n      sstore\n        /* \"#utility.yul\":24307:24463   */\n      pop\n        /* \"#utility.yul\":24284:24463   */\n    tag_677:\n        /* \"#utility.yul\":24509:24510   */\n      0x01\n        /* \"#utility.yul\":24505:24506   */\n      0x02\n        /* \"#utility.yul\":24497:24503   */\n      dup9\n        /* \"#utility.yul\":24493:24507   */\n      mul\n        /* \"#utility.yul\":24489:24511   */\n      add\n        /* \"#utility.yul\":24483:24487   */\n      dup9\n        /* \"#utility.yul\":24476:24512   */\n      sstore\n        /* \"#utility.yul\":23911:24522   */\n      pop\n      pop\n      pop\n        /* \"#utility.yul\":23874:24761   */\n    tag_669:\n      pop\n        /* \"#utility.yul\":23464:24767   */\n      pop\n      pop\n      pop\n        /* \"#utility.yul\":23372:24767   */\n      pop\n      pop\n      jump\t// out\n        /* \"#utility.yul\":24773:25105   */\n    tag_332:\n        /* \"#utility.yul\":24894:24898   */\n      0x00\n        /* \"#utility.yul\":24932:24934   */\n      0x40\n        /* \"#utility.yul\":24921:24930   */\n      dup3\n        /* \"#utility.yul\":24917:24935   */\n      add\n        /* \"#utility.yul\":24909:24935   */\n      swap1\n      pop\n        /* \"#utility.yul\":24945:25016   */\n      tag_680\n        /* \"#utility.yul\":25013:25014   */\n      0x00\n        /* \"#utility.yul\":25002:25011   */\n      dup4\n        /* \"#utility.yul\":24998:25015   */\n      add\n        /* \"#utility.yul\":24989:24995   */\n      dup6\n        /* \"#utility.yul\":24945:25016   */\n      tag_368\n      jump\t// in\n    tag_680:\n        /* \"#utility.yul\":25026:25098   */\n      tag_681\n        /* \"#utility.yul\":25094:25096   */\n      0x20\n        /* \"#utility.yul\":25083:25092   */\n      dup4\n        /* \"#utility.yul\":25079:25097   */\n      add\n        /* \"#utility.yul\":25070:25076   */\n      dup5\n        /* \"#utility.yul\":25026:25098   */\n      tag_368\n      jump\t// in\n    tag_681:\n        /* \"#utility.yul\":24773:25105   */\n      swap4\n      swap3\n      pop\n      pop\n      pop\n      jump\t// out\n        /* \"#utility.yul\":25111:25209   */\n    tag_417:\n        /* \"#utility.yul\":25162:25168   */\n      0x00\n        /* \"#utility.yul\":25196:25201   */\n      dup2\n        /* \"#utility.yul\":25190:25202   */\n      mload\n        /* \"#utility.yul\":25180:25202   */\n      swap1\n      pop\n        /* \"#utility.yul\":25111:25209   */\n      swap2\n      swap1\n      pop\n      jump\t// out\n        /* \"#utility.yul\":25215:25362   */\n    tag_418:\n        /* \"#utility.yul\":25316:25327   */\n      0x00\n        /* \"#utility.yul\":25353:25356   */\n      dup2\n        /* \"#utility.yul\":25338:25356   */\n      swap1\n      pop\n        /* \"#utility.yul\":25215:25362   */\n      swap3\n      swap2\n      pop\n      pop\n      jump\t// out\n        /* \"#utility.yul\":25368:25754   */\n    tag_419:\n        /* \"#utility.yul\":25472:25475   */\n      0x00\n        /* \"#utility.yul\":25500:25538   */\n      tag_685\n        /* \"#utility.yul\":25532:25537   */\n      dup3\n        /* \"#utility.yul\":25500:25538   */\n      tag_417\n      jump\t// in\n    tag_685:\n        /* \"#utility.yul\":25554:25642   */\n      tag_686\n        /* \"#utility.yul\":25635:25641   */\n      dup2\n        /* \"#utility.yul\":25630:25633   */\n      dup6\n        /* \"#utility.yul\":25554:25642   */\n      tag_418\n      jump\t// in\n    tag_686:\n        /* \"#utility.yul\":25547:25642   */\n      swap4\n      pop\n        /* \"#utility.yul\":25651:25716   */\n      tag_687\n        /* \"#utility.yul\":25709:25715   */\n      dup2\n        /* \"#utility.yul\":25704:25707   */\n      dup6\n        /* \"#utility.yul\":25697:25701   */\n      0x20\n        /* \"#utility.yul\":25690:25695   */\n      dup7\n        /* \"#utility.yul\":25686:25702   */\n      add\n        /* \"#utility.yul\":25651:25716   */\n      tag_353\n      jump\t// in\n    tag_687:\n        /* \"#utility.yul\":25741:25747   */\n      dup1\n        /* \"#utility.yul\":25736:25739   */\n      dup5\n        /* \"#utility.yul\":25732:25748   */\n      add\n        /* \"#utility.yul\":25725:25748   */\n      swap2\n      pop\n        /* \"#utility.yul\":25476:25754   */\n      pop\n        /* \"#utility.yul\":25368:25754   */\n      swap3\n      swap2\n      pop\n      pop\n      jump\t// out\n        /* \"#utility.yul\":25760:26031   */\n    tag_334:\n        /* \"#utility.yul\":25890:25893   */\n      0x00\n        /* \"#utility.yul\":25912:26005   */\n      tag_689\n        /* \"#utility.yul\":26001:26004   */\n      dup3\n        /* \"#utility.yul\":25992:25998   */\n      dup5\n        /* \"#utility.yul\":25912:26005   */\n      tag_419\n      jump\t// in\n    tag_689:\n        /* \"#utility.yul\":25905:26005   */\n      swap2\n      pop\n        /* \"#utility.yul\":26022:26025   */\n      dup2\n        /* \"#utility.yul\":26015:26025   */\n      swap1\n      pop\n        /* \"#utility.yul\":25760:26031   */\n      swap3\n      swap2\n      pop\n      pop\n      jump\t// out\n\n    auxdata: 0xa26469706673582212202c783ece8850b56f72678b3039e0e3b3c6778d793cdce73474d7c30a64a2e6b464736f6c63430008190033\n}\n",
				"bytecode": {
					"linkReferences": {},
					"object": "608060405234801561000f575f80fd5b5061001e61002360201b60201c565b610183565b5f61003261012160201b60201c565b9050805f0160089054906101000a900460ff161561007c576040517ff92ee8a900000000000000000000000000000000000000000000000000000000815260040160405180910390fd5b67ffffffffffffffff8016815f015f9054906101000a900467ffffffffffffffff1667ffffffffffffffff161461011e5767ffffffffffffffff815f015f6101000a81548167ffffffffffffffff021916908367ffffffffffffffff1602179055507fc7f505b2f371ae2175ee4913f4499e1f2633a7b5936321eed1cdaeb6115181d267ffffffffffffffff604051610115919061016a565b60405180910390a15b50565b5f7ff0c57e16840df040f15088dc2f81fe391c3923bec73e23a9662efc9c229c6a00905090565b5f67ffffffffffffffff82169050919050565b61016481610148565b82525050565b5f60208201905061017d5f83018461015b565b92915050565b612963806101905f395ff3fe608060405234801561000f575f80fd5b5060043610610109575f3560e01c806343e8be32116100a057806395d89b411161006f57806395d89b41146102a3578063a9059cbb146102c1578063ca5c7b91146102f1578063dd62ed3e1461030f578063fd3d27b81461033f57610109565b806343e8be32146102315780634e71d92d1461024d57806370a08231146102575780638f15b4141461028757610109565b806325d998bb116100dc57806325d998bb146101a9578063313ce567146101d95780633a05f0d8146101f757806340c10f191461021557610109565b806306fdde031461010d578063095ea7b31461012b57806318160ddd1461015b57806323b872dd14610179575b5f80fd5b61011561035d565b6040516101229190611cb9565b60405180910390f35b61014560048036038101906101409190611d6e565b6103fb565b6040516101529190611dc6565b60405180910390f35b61016361041d565b6040516101709190611dee565b60405180910390f35b610193600480360381019061018e9190611e07565b610434565b6040516101a09190611dc6565b60405180910390f35b6101c360048036038101906101be9190611e57565b610462565b6040516101d09190611dee565b60405180910390f35b6101e16104bb565b6040516101ee9190611e9d565b60405180910390f35b6101ff6104c3565b60405161020c9190611fe7565b60405180910390f35b61022f600480360381019061022a9190611d6e565b61055f565b005b61024b60048036038101906102469190612068565b6106e8565b005b610255610806565b005b610271600480360381019061026c9190611e57565b6108f7565b60405161027e9190611dee565b60405180910390f35b6102a1600480360381019061029c919061212e565b61094a565b005b6102ab610c16565b6040516102b89190611cb9565b60405180910390f35b6102db60048036038101906102d69190611d6e565b610cb4565b6040516102e89190611dc6565b60405180910390f35b6102f9610cd6565b6040516103069190611dee565b60405180910390f35b610329600480360381019061032491906121d1565b610cf1565b6040516103369190611dee565b60405180910390f35b610347610d81565b6040516103549190611dee565b60405180910390f35b60605f610368610d8f565b90508060030180546103799061223c565b80601f01602080910402602001604051908101604052809291908181526020018280546103a59061223c565b80156103f05780601f106103c7576101008083540402835291602001916103f0565b820191905f5260205f20905b8154815290600101906020018083116103d357829003601f168201915b505050505091505090565b5f80610405610db6565b9050610412818585610dbd565b600191505092915050565b5f80610427610d8f565b9050806002015491505090565b5f8061043e610db6565b905061044b858285610dcf565b610456858585610e61565b60019150509392505050565b5f60085f8373ffffffffffffffffffffffffffffffffffffffff1673ffffffffffffffffffffffffffffffffffffffff1681526020019081526020015f20546104aa83610f51565b6104b49190612299565b9050919050565b5f6012905090565b6104cb611c2a565b60036040518060600160405290815f82015481526020016001820154815260200160028201805480602002602001604051908101604052809291908181526020015f905b82821015610552578382905f5260205f2090600202016040518060400160405290815f82015481526020016001820154815250508152602001906001019061050f565b5050505081525050905090565b5f8054906101000a900473ffffffffffffffffffffffffffffffffffffffff1673ffffffffffffffffffffffffffffffffffffffff163373ffffffffffffffffffffffffffffffffffffffff16146105e3576040517f9cdc2ed500000000000000000000000000000000000000000000000000000000815260040160405180910390fd5b6003600101544210610621576040517fd45c7f9500000000000000000000000000000000000000000000000000000000815260040160405180910390fd5b61066f33308360025f9054906101000a900473ffffffffffffffffffffffffffffffffffffffff1673ffffffffffffffffffffffffffffffffffffffff16610fa0909392919063ffffffff16565b6106798282611022565b8060075f8473ffffffffffffffffffffffffffffffffffffffff1673ffffffffffffffffffffffffffffffffffffffff1681526020019081526020015f205f8282546106c591906122cc565b925050819055508060065f8282546106dd91906122cc565b925050819055505050565b60015f9054906101000a900473ffffffffffffffffffffffffffffffffffffffff1673ffffffffffffffffffffffffffffffffffffffff163373ffffffffffffffffffffffffffffffffffffffff161461076e576040517f8eccd8b900000000000000000000000000000000000000000000000000000000815260040160405180910390fd5b5f82829050905061078285858585856110a1565b8460035f0181905550836003600101819055505f5b818110156107fe5760036002018484838181106107b7576107b66122ff565b5b905060400201908060018154018082558091505060019003905f5260205f2090600202015f9091909190915081816107ef9190612427565b50508080600101915050610797565b505050505050565b5f61081033610462565b90505f810361084b576040517f08bc1cf600000000000000000000000000000000000000000000000000000000815260040160405180910390fd5b8060085f3373ffffffffffffffffffffffffffffffffffffffff1673ffffffffffffffffffffffffffffffffffffffff1681526020019081526020015f205f82825461089791906122cc565b925050819055506108a83382611278565b6108f4338260025f9054906101000a900473ffffffffffffffffffffffffffffffffffffffff1673ffffffffffffffffffffffffffffffffffffffff166112f79092919063ffffffff16565b50565b5f80610901610d8f565b9050805f015f8473ffffffffffffffffffffffffffffffffffffffff1673ffffffffffffffffffffffffffffffffffffffff1681526020019081526020015f2054915050919050565b5f610953611376565b90505f815f0160089054906101000a900460ff161590505f825f015f9054906101000a900467ffffffffffffffff1690505f808267ffffffffffffffff1614801561099b5750825b90505f60018367ffffffffffffffff161480156109ce57505f3073ffffffffffffffffffffffffffffffffffffffff163b145b9050811580156109dc575080155b15610a13576040517ff92ee8a900000000000000000000000000000000000000000000000000000000815260040160405180910390fd5b6001855f015f6101000a81548167ffffffffffffffff021916908367ffffffffffffffff1602179055508315610a60576001855f0160086101000a81548160ff0219169083151502179055505b610af08b8b8080601f0160208091040260200160405190810160405280939291908181526020018383808284375f81840152601f19601f820116905080830192505050505050508a8a8080601f0160208091040260200160405190810160405280939291908181526020018383808284375f81840152601f19601f8201169050808301925050505050505061139d565b865f806101000a81548173ffffffffffffffffffffffffffffffffffffffff021916908373ffffffffffffffffffffffffffffffffffffffff1602179055508560025f6101000a81548173ffffffffffffffffffffffffffffffffffffffff021916908373ffffffffffffffffffffffffffffffffffffffff1602179055503360015f6101000a81548173ffffffffffffffffffffffffffffffffffffffff021916908373ffffffffffffffffffffffffffffffffffffffff1602179055508315610c09575f855f0160086101000a81548160ff0219169083151502179055507fc7f505b2f371ae2175ee4913f4499e1f2633a7b5936321eed1cdaeb6115181d26001604051610c009190612481565b60405180910390a15b5050505050505050505050565b60605f610c21610d8f565b9050806004018054610c329061223c565b80601f0160208091040260200160405190810160405280929190818152602001828054610c5e9061223c565b8015610ca95780601f10610c8057610100808354040283529160200191610ca9565b820191905f5260205f20905b815481529060010190602001808311610c8c57829003601f168201915b505050505091505090565b5f80610cbe610db6565b9050610ccb818585610e61565b600191505092915050565b5f610cdf6113b3565b600654610cec9190612299565b905090565b5f80610cfb610d8f565b9050806001015f8573ffffffffffffffffffffffffffffffffffffffff1673ffffffffffffffffffffffffffffffffffffffff1681526020019081526020015f205f8473ffffffffffffffffffffffffffffffffffffffff1673ffffffffffffffffffffffffffffffffffffffff1681526020019081526020015f205491505092915050565b5f610d8a6113b3565b905090565b5f7f52c63247e1f47db19d5ce0460030c497f067ca4cebf71ba98eeadabe20bace00905090565b5f33905090565b610dca83838360016113c5565b505050565b5f610dda8484610cf1565b90507fffffffffffffffffffffffffffffffffffffffffffffffffffffffffffffffff8114610e5b5781811015610e4c578281836040517ffb8f41b2000000000000000000000000000000000000000000000000000000008152600401610e43939291906124a9565b60405180910390fd5b610e5a84848484035f6113c5565b5b50505050565b5f73ffffffffffffffffffffffffffffffffffffffff168373ffffffffffffffffffffffffffffffffffffffff1603610ed1575f6040517f96c6fd1e000000000000000000000000000000000000000000000000000000008152600401610ec891906124de565b60405180910390fd5b5f73ffffffffffffffffffffffffffffffffffffffff168273ffffffffffffffffffffffffffffffffffffffff1603610f41575f6040517fec442f05000000000000000000000000000000000000000000000000000000008152600401610f3891906124de565b60405180910390fd5b610f4c8383836115a2565b505050565b5f610f9960075f8473ffffffffffffffffffffffffffffffffffffffff1673ffffffffffffffffffffffffffffffffffffffff1681526020019081526020015f2054426117d1565b9050919050565b61101c848573ffffffffffffffffffffffffffffffffffffffff166323b872dd868686604051602401610fd5939291906124f7565b604051602081830303815290604052915060e01b6020820180517bffffffffffffffffffffffffffffffffffffffffffffffffffffffff838183161783525050505061194a565b50505050565b5f73ffffffffffffffffffffffffffffffffffffffff168273ffffffffffffffffffffffffffffffffffffffff1603611092575f6040517fec442f0500000000000000000000000000000000000000000000000000000000815260040161108991906124de565b60405180910390fd5b61109d5f83836115a2565b5050565b428510156110db576040517fc18dfcc200000000000000000000000000000000000000000000000000000000815260040160405180910390fd5b83851115611115576040517f8147e9e200000000000000000000000000000000000000000000000000000000815260040160405180910390fd5b5f805f90505b8281101561123457848482818110611136576111356122ff565b5b905060400201602001358261114b91906122cc565b91505f8082141580156111a0575085858381811061116c5761116b6122ff565b5b9050604002015f013586866001856111849190612299565b818110611194576111936122ff565b5b9050604002015f013510155b90508585838181106111b5576111b46122ff565b5b9050604002015f0135871015806111c95750805b15611226578585838181106111e1576111e06122ff565b5b9050604002015f01356040517f1a3250bd00000000000000000000000000000000000000000000000000000000815260040161121d9190611dee565b60405180910390fd5b50808060010191505061111b565b506127108114611270576040517fc45b8e2700000000000000000000000000000000000000000000000000000000815260040160405180910390fd5b505050505050565b5f73ffffffffffffffffffffffffffffffffffffffff168273ffffffffffffffffffffffffffffffffffffffff16036112e8575f6040517f96c6fd1e0000000000000000000000000000000000000000000000000000000081526004016112df91906124de565b60405180910390fd5b6112f3825f836115a2565b5050565b611371838473ffffffffffffffffffffffffffffffffffffffff1663a9059cbb858560405160240161132a92919061252c565b604051602081830303815290604052915060e01b6020820180517bffffffffffffffffffffffffffffffffffffffffffffffffffffffff838183161783525050505061194a565b505050565b5f7ff0c57e16840df040f15088dc2f81fe391c3923bec73e23a9662efc9c229c6a00905090565b6113a56119df565b6113af8282611a1f565b5050565b5f6113c0600654426117d1565b905090565b5f6113ce610d8f565b90505f73ffffffffffffffffffffffffffffffffffffffff168573ffffffffffffffffffffffffffffffffffffffff1603611440575f6040517fe602df0500000000000000000000000000000000000000000000000000000000815260040161143791906124de565b60405180910390fd5b5f73ffffffffffffffffffffffffffffffffffffffff168473ffffffffffffffffffffffffffffffffffffffff16036114b0575f6040517f94280d620000000000000000000000000000000000000000000000000000000081526004016114a791906124de565b60405180910390fd5b82816001015f8773ffffffffffffffffffffffffffffffffffffffff1673ffffffffffffffffffffffffffffffffffffffff1681526020019081526020015f205f8673ffffffffffffffffffffffffffffffffffffffff1673ffffffffffffffffffffffffffffffffffffffff1681526020019081526020015f2081905550811561159b578373ffffffffffffffffffffffffffffffffffffffff168573ffffffffffffffffffffffffffffffffffffffff167f8c5be1e5ebec7d5bd14f71427d1e84f3dd0314c0f7b2291e5b200ac8c7c3b925856040516115929190611dee565b60405180910390a35b5050505050565b5f6115ab610d8f565b90505f73ffffffffffffffffffffffffffffffffffffffff168473ffffffffffffffffffffffffffffffffffffffff16036115ff5781816002015f8282546115f391906122cc565b925050819055506116d1565b5f815f015f8673ffffffffffffffffffffffffffffffffffffffff1673ffffffffffffffffffffffffffffffffffffffff1681526020019081526020015f205490508281101561168a578481846040517fe450d38c000000000000000000000000000000000000000000000000000000008152600401611681939291906124a9565b60405180910390fd5b828103825f015f8773ffffffffffffffffffffffffffffffffffffffff1673ffffffffffffffffffffffffffffffffffffffff1681526020019081526020015f2081905550505b5f73ffffffffffffffffffffffffffffffffffffffff168373ffffffffffffffffffffffffffffffffffffffff160361171a5781816002015f8282540392505081905550611766565b81815f015f8573ffffffffffffffffffffffffffffffffffffffff1673ffffffffffffffffffffffffffffffffffffffff1681526020019081526020015f205f82825401925050819055505b8273ffffffffffffffffffffffffffffffffffffffff168473ffffffffffffffffffffffffffffffffffffffff167fddf252ad1be2c89b69c2b068fc378daa952ba7f163c4a11628f55a4df523b3ef846040516117c39190611dee565b60405180910390a350505050565b5f6003600101548210156117e7575f9050611944565b5f60036001015490505f6003600201805480602002602001604051908101604052809291908181526020015f905b82821015611858578382905f5260205f2090600202016040518060400160405290815f820154815260200160018201548152505081526020019060010190611815565b5050505090505f815190505f5b8181101561193f575f838281518110611881576118806122ff565b5b602002602001015190505f815f015190505f8260200151905081891015611906575f878a6118af9190612299565b90505f88846118be9190612299565b9050612710816118ce9190612553565b83838e6118db9190612553565b6118e59190612553565b6118ef91906125c1565b8a6118fa91906122cc565b9950505050505061193f565b612710818b6119159190612553565b61191f91906125c1565b8861192a91906122cc565b97508196505050508080600101915050611865565b505050505b92915050565b5f611974828473ffffffffffffffffffffffffffffffffffffffff16611a5b90919063ffffffff16565b90505f815114158015611998575080806020019051810190611996919061261b565b155b156119da57826040517f5274afe70000000000000000000000000000000000000000000000000000000081526004016119d191906124de565b60405180910390fd5b505050565b6119e7611a70565b611a1d576040517fd7e6bcf800000000000000000000000000000000000000000000000000000000815260040160405180910390fd5b565b611a276119df565b5f611a30610d8f565b905082816003019081611a4391906127dd565b5081816004019081611a5591906127dd565b50505050565b6060611a6883835f611a8e565b905092915050565b5f611a79611376565b5f0160089054906101000a900460ff16905090565b606081471015611ad75747826040517fcf479181000000000000000000000000000000000000000000000000000000008152600401611ace9291906128ac565b60405180910390fd5b5f808573ffffffffffffffffffffffffffffffffffffffff168486604051611aff9190612917565b5f6040518083038185875af1925050503d805f8114611b39576040519150601f19603f3d011682016040523d82523d5f602084013e611b3e565b606091505b5091509150611b4e868383611b59565b925050509392505050565b606082611b6e57611b6982611be6565b611bde565b5f8251148015611b9457505f8473ffffffffffffffffffffffffffffffffffffffff163b145b15611bd657836040517f9996b315000000000000000000000000000000000000000000000000000000008152600401611bcd91906124de565b60405180910390fd5b819050611bdf565b5b9392505050565b5f81511115611bf85780518082602001fd5b6040517fd6bda27500000000000000000000000000000000000000000000000000000000815260040160405180910390fd5b60405180606001604052805f81526020015f8152602001606081525090565b5f81519050919050565b5f82825260208201905092915050565b8281835e5f83830152505050565b5f601f19601f8301169050919050565b5f611c8b82611c49565b611c958185611c53565b9350611ca5818560208601611c63565b611cae81611c71565b840191505092915050565b5f6020820190508181035f830152611cd18184611c81565b905092915050565b5f80fd5b5f80fd5b5f73ffffffffffffffffffffffffffffffffffffffff82169050919050565b5f611d0a82611ce1565b9050919050565b611d1a81611d00565b8114611d24575f80fd5b50565b5f81359050611d3581611d11565b92915050565b5f819050919050565b611d4d81611d3b565b8114611d57575f80fd5b50565b5f81359050611d6881611d44565b92915050565b5f8060408385031215611d8457611d83611cd9565b5b5f611d9185828601611d27565b9250506020611da285828601611d5a565b9150509250929050565b5f8115159050919050565b611dc081611dac565b82525050565b5f602082019050611dd95f830184611db7565b92915050565b611de881611d3b565b82525050565b5f602082019050611e015f830184611ddf565b92915050565b5f805f60608486031215611e1e57611e1d611cd9565b5b5f611e2b86828701611d27565b9350506020611e3c86828701611d27565b9250506040611e4d86828701611d5a565b9150509250925092565b5f60208284031215611e6c57611e6b611cd9565b5b5f611e7984828501611d27565b91505092915050565b5f60ff82169050919050565b611e9781611e82565b82525050565b5f602082019050611eb05f830184611e8e565b92915050565b611ebf81611d3b565b82525050565b5f81519050919050565b5f82825260208201905092915050565b5f819050602082019050919050565b604082015f820151611f025f850182611eb6565b506020820151611f156020850182611eb6565b50505050565b5f611f268383611eee565b60408301905092915050565b5f602082019050919050565b5f611f4882611ec5565b611f528185611ecf565b9350611f5d83611edf565b805f5b83811015611f8d578151611f748882611f1b565b9750611f7f83611f32565b925050600181019050611f60565b5085935050505092915050565b5f606083015f830151611faf5f860182611eb6565b506020830151611fc26020860182611eb6565b5060408301518482036040860152611fda8282611f3e565b9150508091505092915050565b5f6020820190508181035f830152611fff8184611f9a565b905092915050565b5f80fd5b5f80fd5b5f80fd5b5f8083601f84011261202857612027612007565b5b8235905067ffffffffffffffff8111156120455761204461200b565b5b6020830191508360408202830111156120615761206061200f565b5b9250929050565b5f805f80606085870312156120805761207f611cd9565b5b5f61208d87828801611d5a565b945050602061209e87828801611d5a565b935050604085013567ffffffffffffffff8111156120bf576120be611cdd565b5b6120cb87828801612013565b925092505092959194509250565b5f8083601f8401126120ee576120ed612007565b5b8235905067ffffffffffffffff81111561210b5761210a61200b565b5b6020830191508360018202830111156121275761212661200f565b5b9250929050565b5f805f805f806080878903121561214857612147611cd9565b5b5f87013567ffffffffffffffff81111561216557612164611cdd565b5b61217189828a016120d9565b9650965050602087013567ffffffffffffffff81111561219457612193611cdd565b5b6121a089828a016120d9565b945094505060406121b389828a01611d27565b92505060606121c489828a01611d27565b9150509295509295509295565b5f80604083850312156121e7576121e6611cd9565b5b5f6121f485828601611d27565b925050602061220585828601611d27565b9150509250929050565b7f4e487b71000000000000000000000000000000000000000000000000000000005f52602260045260245ffd5b5f600282049050600182168061225357607f821691505b6020821081036122665761226561220f565b5b50919050565b7f4e487b71000000000000000000000000000000000000000000000000000000005f52601160045260245ffd5b5f6122a382611d3b565b91506122ae83611d3b565b92508282039050818111156122c6576122c561226c565b5b92915050565b5f6122d682611d3b565b91506122e183611d3b565b92508282019050808211156122f9576122f861226c565b5b92915050565b7f4e487b71000000000000000000000000000000000000000000000000000000005f52603260045260245ffd5b5f813561233881611d44565b80915050919050565b5f815f1b9050919050565b5f7fffffffffffffffffffffffffffffffffffffffffffffffffffffffffffffffff61237784612341565b9350801983169250808416831791505092915050565b5f819050919050565b5f6123b06123ab6123a684611d3b565b61238d565b611d3b565b9050919050565b5f819050919050565b6123c982612396565b6123dc6123d5826123b7565b835461234c565b8255505050565b5f81015f8301806123f38161232c565b90506123ff81846123c0565b5050506001810160208301806124148161232c565b905061242081846123c0565b5050505050565b61243182826123e3565b5050565b5f819050919050565b5f67ffffffffffffffff82169050919050565b5f61246b61246661246184612435565b61238d565b61243e565b9050919050565b61247b81612451565b82525050565b5f6020820190506124945f830184612472565b92915050565b6124a381611d00565b82525050565b5f6060820190506124bc5f83018661249a565b6124c96020830185611ddf565b6124d66040830184611ddf565b949350505050565b5f6020820190506124f15f83018461249a565b92915050565b5f60608201905061250a5f83018661249a565b612517602083018561249a565b6125246040830184611ddf565b949350505050565b5f60408201905061253f5f83018561249a565b61254c6020830184611ddf565b9392505050565b5f61255d82611d3b565b915061256883611d3b565b925082820261257681611d3b565b9150828204841483151761258d5761258c61226c565b5b5092915050565b7f4e487b71000000000000000000000000000000000000000000000000000000005f52601260045260245ffd5b5f6125cb82611d3b565b91506125d683611d3b565b9250826125e6576125e5612594565b5b828204905092915050565b6125fa81611dac565b8114612604575f80fd5b50565b5f81519050612615816125f1565b92915050565b5f602082840312156126305761262f611cd9565b5b5f61263d84828501612607565b91505092915050565b7f4e487b71000000000000000000000000000000000000000000000000000000005f52604160045260245ffd5b5f819050815f5260205f209050919050565b5f6020601f8301049050919050565b5f82821b905092915050565b5f600883026126cf7fffffffffffffffffffffffffffffffffffffffffffffffffffffffffffffffff82612694565b6126d98683612694565b95508019841693508086168417925050509392505050565b6126fa83612396565b61270e612706826123b7565b8484546126a0565b825550505050565b5f90565b612722612716565b61272d8184846126f1565b505050565b5b81811015612750576127455f8261271a565b600181019050612733565b5050565b601f8211156127955761276681612673565b61276f84612685565b8101602085101561277e578190505b61279261278a85612685565b830182612732565b50505b505050565b5f82821c905092915050565b5f6127b55f198460080261279a565b1980831691505092915050565b5f6127cd83836127a6565b9150826002028217905092915050565b6127e682611c49565b67ffffffffffffffff8111156127ff576127fe612646565b5b612809825461223c565b612814828285612754565b5f60209050601f831160018114612845575f8415612833578287015190505b61283d85826127c2565b8655506128a4565b601f19841661285386612673565b5f5b8281101561287a57848901518255600182019150602085019450602081019050612855565b868310156128975784890151612893601f8916826127a6565b8355505b6001600288020188555050505b505050505050565b5f6040820190506128bf5f830185611ddf565b6128cc6020830184611ddf565b9392505050565b5f81519050919050565b5f81905092915050565b5f6128f1826128d3565b6128fb81856128dd565b935061290b818560208601611c63565b80840191505092915050565b5f61292282846128e7565b91508190509291505056fea26469706673582212202c783ece8850b56f72678b3039e0e3b3c6778d793cdce73474d7c30a64a2e6b464736f6c63430008190033",
					"opcodes": "PUSH1 0x80 PUSH1 0x40 MSTORE CALLVALUE DUP1 ISZERO PUSH2 0xF JUMPI PUSH0 DUP1 REVERT JUMPDEST POP PUSH2 0x1E PUSH2 0x23 PUSH1 0x20 SHL PUSH1 0x20 SHR JUMP JUMPDEST PUSH2 0x183 JUMP JUMPDEST PUSH0 PUSH2 0x32 PUSH2 0x121 PUSH1 0x20 SHL PUSH1 0x20 SHR JUMP JUMPDEST SWAP1 POP DUP1 PUSH0 ADD PUSH1 0x8 SWAP1 SLOAD SWAP1 PUSH2 0x100 EXP SWAP1 DIV PUSH1 0xFF AND ISZERO PUSH2 0x7C JUMPI PUSH1 0x40 MLOAD PUSH32 0xF92EE8A900000000000000000000000000000000000000000000000000000000 DUP2 MSTORE PUSH1 0x4 ADD PUSH1 0x40 MLOAD DUP1 SWAP2 SUB SWAP1 REVERT JUMPDEST PUSH8 0xFFFFFFFFFFFFFFFF DUP1 AND DUP2 PUSH0 ADD PUSH0 SWAP1 SLOAD SWAP1 PUSH2 0x100 EXP SWAP1 DIV PUSH8 0xFFFFFFFFFFFFFFFF AND PUSH8 0xFFFFFFFFFFFFFFFF AND EQ PUSH2 0x11E JUMPI PUSH8 0xFFFFFFFFFFFFFFFF DUP2 PUSH0 ADD PUSH0 PUSH2 0x100 EXP DUP2 SLOAD DUP2 PUSH8 0xFFFFFFFFFFFFFFFF MUL NOT AND SWAP1 DUP4 PUSH8 0xFFFFFFFFFFFFFFFF AND MUL OR SWAP1 SSTORE POP PUSH32 0xC7F505B2F371AE2175EE4913F4499E1F2633A7B5936321EED1CDAEB6115181D2 PUSH8 0xFFFFFFFFFFFFFFFF PUSH1 0x40 MLOAD PUSH2 0x115 SWAP2 SWAP1 PUSH2 0x16A JUMP JUMPDEST PUSH1 0x40 MLOAD DUP1 SWAP2 SUB SWAP1 LOG1 JUMPDEST POP JUMP JUMPDEST PUSH0 PUSH32 0xF0C57E16840DF040F15088DC2F81FE391C3923BEC73E23A9662EFC9C229C6A00 SWAP1 POP SWAP1 JUMP JUMPDEST PUSH0 PUSH8 0xFFFFFFFFFFFFFFFF DUP3 AND SWAP1 POP SWAP2 SWAP1 POP JUMP JUMPDEST PUSH2 0x164 DUP2 PUSH2 0x148 JUMP JUMPDEST DUP3 MSTORE POP POP JUMP JUMPDEST PUSH0 PUSH1 0x20 DUP3 ADD SWAP1 POP PUSH2 0x17D PUSH0 DUP4 ADD DUP5 PUSH2 0x15B JUMP JUMPDEST SWAP3 SWAP2 POP POP JUMP JUMPDEST PUSH2 0x2963 DUP1 PUSH2 0x190 PUSH0 CODECOPY PUSH0 RETURN INVALID PUSH1 0x80 PUSH1 0x40 MSTORE CALLVALUE DUP1 ISZERO PUSH2 0xF JUMPI PUSH0 DUP1 REVERT JUMPDEST POP PUSH1 0x4 CALLDATASIZE LT PUSH2 0x109 JUMPI PUSH0 CALLDATALOAD PUSH1 0xE0 SHR DUP1 PUSH4 0x43E8BE32 GT PUSH2 0xA0 JUMPI DUP1 PUSH4 0x95D89B41 GT PUSH2 0x6F JUMPI DUP1 PUSH4 0x95D89B41 EQ PUSH2 0x2A3 JUMPI DUP1 PUSH4 0xA9059CBB EQ PUSH2 0x2C1 JUMPI DUP1 PUSH4 0xCA5C7B91 EQ PUSH2 0x2F1 JUMPI DUP1 PUSH4 0xDD62ED3E EQ PUSH2 0x30F JUMPI DUP1 PUSH4 0xFD3D27B8 EQ PUSH2 0x33F JUMPI PUSH2 0x109 JUMP JUMPDEST DUP1 PUSH4 0x43E8BE32 EQ PUSH2 0x231 JUMPI DUP1 PUSH4 0x4E71D92D EQ PUSH2 0x24D JUMPI DUP1 PUSH4 0x70A08231 EQ PUSH2 0x257 JUMPI DUP1 PUSH4 0x8F15B414 EQ PUSH2 0x287 JUMPI PUSH2 0x109 JUMP JUMPDEST DUP1 PUSH4 0x25D998BB GT PUSH2 0xDC JUMPI DUP1 PUSH4 0x25D998BB EQ PUSH2 0x1A9 JUMPI DUP1 PUSH4 0x313CE567 EQ PUSH2 0x1D9 JUMPI DUP1 PUSH4 0x3A05F0D8 EQ PUSH2 0x1F7 JUMPI DUP1 PUSH4 0x40C10F19 EQ PUSH2 0x215 JUMPI PUSH2 0x109 JUMP JUMPDEST DUP1 PUSH4 0x6FDDE03 EQ PUSH2 0x10D JUMPI DUP1 PUSH4 0x95EA7B3 EQ PUSH2 0x12B JUMPI DUP1 PUSH4 0x18160DDD EQ PUSH2 0x15B JUMPI DUP1 PUSH4 0x23B872DD EQ PUSH2 0x179 JUMPI JUMPDEST PUSH0 DUP1 REVERT JUMPDEST PUSH2 0x115 PUSH2 0x35D JUMP JUMPDEST PUSH1 0x40 MLOAD PUSH2 0x122 SWAP2 SWAP1 PUSH2 0x1CB9 JUMP JUMPDEST PUSH1 0x40 MLOAD DUP1 SWAP2 SUB SWAP1 RETURN JUMPDEST PUSH2 0x145 PUSH1 0x4 DUP1 CALLDATASIZE SUB DUP2 ADD SWAP1 PUSH2 0x140 SWAP2 SWAP1 PUSH2 0x1D6E JUMP JUMPDEST PUSH2 0x3FB JUMP JUMPDEST PUSH1 0x40 MLOAD PUSH2 0x152 SWAP2 SWAP1 PUSH2 0x1DC6 JUMP JUMPDEST PUSH1 0x40 MLOAD DUP1 SWAP2 SUB SWAP1 RETURN JUMPDEST PUSH2 0x163 PUSH2 0x41D JUMP JUMPDEST PUSH1 0x40 MLOAD PUSH2 0x170 SWAP2 SWAP1 PUSH2 0x1DEE JUMP JUMPDEST PUSH1 0x40 MLOAD DUP1 SWAP2 SUB SWAP1 RETURN JUMPDEST PUSH2 0x193 PUSH1 0x4 DUP1 CALLDATASIZE SUB DUP2 ADD SWAP1 PUSH2 0x18E SWAP2 SWAP1 PUSH2 0x1E07 JUMP JUMPDEST PUSH2 0x434 JUMP JUMPDEST PUSH1 0x40 MLOAD PUSH2 0x1A0 SWAP2 SWAP1 PUSH2 0x1DC6 JUMP JUMPDEST PUSH1 0x40 MLOAD DUP1 SWAP2 SUB SWAP1 RETURN JUMPDEST PUSH2 0x1C3 PUSH1 0x4 DUP1 CALLDATASIZE SUB DUP2 ADD SWAP1 PUSH2 0x1BE SWAP2 SWAP1 PUSH2 0x1E57 JUMP JUMPDEST PUSH2 0x462 JUMP JUMPDEST PUSH1 0x40 MLOAD PUSH2 0x1D0 SWAP2 SWAP1 PUSH2 0x1DEE JUMP JUMPDEST PUSH1 0x40 MLOAD DUP1 SWAP2 SUB SWAP1 RETURN JUMPDEST PUSH2 0x1E1 PUSH2 0x4BB JUMP JUMPDEST PUSH1 0x40 MLOAD PUSH2 0x1EE SWAP2 SWAP1 PUSH2 0x1E9D JUMP JUMPDEST PUSH1 0x40 MLOAD DUP1 SWAP2 SUB SWAP1 RETURN JUMPDEST PUSH2 0x1FF PUSH2 0x4C3 JUMP JUMPDEST PUSH1 0x40 MLOAD PUSH2 0x20C SWAP2 SWAP1 PUSH2 0x1FE7 JUMP JUMPDEST PUSH1 0x40 MLOAD DUP1 SWAP2 SUB SWAP1 RETURN JUMPDEST PUSH2 0x22F PUSH1 0x4 DUP1 CALLDATASIZE SUB DUP2 ADD SWAP1 PUSH2 0x22A SWAP2 SWAP1 PUSH2 0x1D6E JUMP JUMPDEST PUSH2 0x55F JUMP JUMPDEST STOP JUMPDEST PUSH2 0x24B PUSH1 0x4 DUP1 CALLDATASIZE SUB DUP2 ADD SWAP1 PUSH2 0x246 SWAP2 SWAP1 PUSH2 0x2068 JUMP JUMPDEST PUSH2 0x6E8 JUMP JUMPDEST STOP JUMPDEST PUSH2 0x255 PUSH2 0x806 JUMP JUMPDEST STOP JUMPDEST PUSH2 0x271 PUSH1 0x4 DUP1 CALLDATASIZE SUB DUP2 ADD SWAP1 PUSH2 0x26C SWAP2 SWAP1 PUSH2 0x1E57 JUMP JUMPDEST PUSH2 0x8F7 JUMP JUMPDEST PUSH1 0x40 MLOAD PUSH2 0x27E SWAP2 SWAP1 PUSH2 0x1DEE JUMP JUMPDEST PUSH1 0x40 MLOAD DUP1 SWAP2 SUB SWAP1 RETURN JUMPDEST PUSH2 0x2A1 PUSH1 0x4 DUP1 CALLDATASIZE SUB DUP2 ADD SWAP1 PUSH2 0x29C SWAP2 SWAP1 PUSH2 0x212E JUMP JUMPDEST PUSH2 0x94A JUMP JUMPDEST STOP JUMPDEST PUSH2 0x2AB PUSH2 0xC16 JUMP JUMPDEST PUSH1 0x40 MLOAD PUSH2 0x2B8 SWAP2 SWAP1 PUSH2 0x1CB9 JUMP JUMPDEST PUSH1 0x40 MLOAD DUP1 SWAP2 SUB SWAP1 RETURN JUMPDEST PUSH2 0x2DB PUSH1 0x4 DUP1 CALLDATASIZE SUB DUP2 ADD SWAP1 PUSH2 0x2D6 SWAP2 SWAP1 PUSH2 0x1D6E JUMP JUMPDEST PUSH2 0xCB4 JUMP JUMPDEST PUSH1 0x40 MLOAD PUSH2 0x2E8 SWAP2 SWAP1 PUSH2 0x1DC6 JUMP JUMPDEST PUSH1 0x40 MLOAD DUP1 SWAP2 SUB SWAP1 RETURN JUMPDEST PUSH2 0x2F9 PUSH2 0xCD6 JUMP JUMPDEST PUSH1 0x40 MLOAD PUSH2 0x306 SWAP2 SWAP1 PUSH2 0x1DEE JUMP JUMPDEST PUSH1 0x40 MLOAD DUP1 SWAP2 SUB SWAP1 RETURN JUMPDEST PUSH2 0x329 PUSH1 0x4 DUP1 CALLDATASIZE SUB DUP2 ADD SWAP1 PUSH2 0x324 SWAP2 SWAP1 PUSH2 0x21D1 JUMP JUMPDEST PUSH2 0xCF1 JUMP JUMPDEST PUSH1 0x40 MLOAD PUSH2 0x336 SWAP2 SWAP1 PUSH2 0x1DEE JUMP JUMPDEST PUSH1 0x40 MLOAD DUP1 SWAP2 SUB SWAP1 RETURN JUMPDEST PUSH2 0x347 PUSH2 0xD81 JUMP JUMPDEST PUSH1 0x40 MLOAD PUSH2 0x354 SWAP2 SWAP1 PUSH2 0x1DEE JUMP JUMPDEST PUSH1 0x40 MLOAD DUP1 SWAP2 SUB SWAP1 RETURN JUMPDEST PUSH1 0x60 PUSH0 PUSH2 0x368 PUSH2 0xD8F JUMP JUMPDEST SWAP1 POP DUP1 PUSH1 0x3 ADD DUP1 SLOAD PUSH2 0x379 SWAP1 PUSH2 0x223C JUMP JUMPDEST DUP1 PUSH1 0x1F ADD PUSH1 0x20 DUP1 SWAP2 DIV MUL PUSH1 0x20 ADD PUSH1 0x40 MLOAD SWAP1 DUP2 ADD PUSH1 0x40 MSTORE DUP1 SWAP3 SWAP2 SWAP1 DUP2 DUP2 MSTORE PUSH1 0x20 ADD DUP3 DUP1 SLOAD PUSH2 0x3A5 SWAP1 PUSH2 0x223C JUMP JUMPDEST DUP1 ISZERO PUSH2 0x3F0 JUMPI DUP1 PUSH1 0x1F LT PUSH2 0x3C7 JUMPI PUSH2 0x100 DUP1 DUP4 SLOAD DIV MUL DUP4 MSTORE SWAP2 PUSH1 0x20 ADD SWAP2 PUSH2 0x3F0 JUMP JUMPDEST DUP3 ADD SWAP2 SWAP1 PUSH0 MSTORE PUSH1 0x20 PUSH0 KECCAK256 SWAP1 JUMPDEST DUP2 SLOAD DUP2 MSTORE SWAP1 PUSH1 0x1 ADD SWAP1 PUSH1 0x20 ADD DUP1 DUP4 GT PUSH2 0x3D3 JUMPI DUP3 SWAP1 SUB PUSH1 0x1F AND DUP3 ADD SWAP2 JUMPDEST POP POP POP POP POP SWAP2 POP POP SWAP1 JUMP JUMPDEST PUSH0 DUP1 PUSH2 0x405 PUSH2 0xDB6 JUMP JUMPDEST SWAP1 POP PUSH2 0x412 DUP2 DUP6 DUP6 PUSH2 0xDBD JUMP JUMPDEST PUSH1 0x1 SWAP2 POP POP SWAP3 SWAP2 POP POP JUMP JUMPDEST PUSH0 DUP1 PUSH2 0x427 PUSH2 0xD8F JUMP JUMPDEST SWAP1 POP DUP1 PUSH1 0x2 ADD SLOAD SWAP2 POP POP SWAP1 JUMP JUMPDEST PUSH0 DUP1 PUSH2 0x43E PUSH2 0xDB6 JUMP JUMPDEST SWAP1 POP PUSH2 0x44B DUP6 DUP3 DUP6 PUSH2 0xDCF JUMP JUMPDEST PUSH2 0x456 DUP6 DUP6 DUP6 PUSH2 0xE61 JUMP JUMPDEST PUSH1 0x1 SWAP2 POP POP SWAP4 SWAP3 POP POP POP JUMP JUMPDEST PUSH0 PUSH1 0x8 PUSH0 DUP4 PUSH20 0xFFFFFFFFFFFFFFFFFFFFFFFFFFFFFFFFFFFFFFFF AND PUSH20 0xFFFFFFFFFFFFFFFFFFFFFFFFFFFFFFFFFFFFFFFF AND DUP2 MSTORE PUSH1 0x20 ADD SWAP1 DUP2 MSTORE PUSH1 0x20 ADD PUSH0 KECCAK256 SLOAD PUSH2 0x4AA DUP4 PUSH2 0xF51 JUMP JUMPDEST PUSH2 0x4B4 SWAP2 SWAP1 PUSH2 0x2299 JUMP JUMPDEST SWAP1 POP SWAP2 SWAP1 POP JUMP JUMPDEST PUSH0 PUSH1 0x12 SWAP1 POP SWAP1 JUMP JUMPDEST PUSH2 0x4CB PUSH2 0x1C2A JUMP JUMPDEST PUSH1 0x3 PUSH1 0x40 MLOAD DUP1 PUSH1 0x60 ADD PUSH1 0x40 MSTORE SWAP1 DUP2 PUSH0 DUP3 ADD SLOAD DUP2 MSTORE PUSH1 0x20 ADD PUSH1 0x1 DUP3 ADD SLOAD DUP2 MSTORE PUSH1 0x20 ADD PUSH1 0x2 DUP3 ADD DUP1 SLOAD DUP1 PUSH1 0x20 MUL PUSH1 0x20 ADD PUSH1 0x40 MLOAD SWAP1 DUP2 ADD PUSH1 0x40 MSTORE DUP1 SWAP3 SWAP2 SWAP1 DUP2 DUP2 MSTORE PUSH1 0x20 ADD PUSH0 SWAP1 JUMPDEST DUP3 DUP3 LT ISZERO PUSH2 0x552 JUMPI DUP4 DUP3 SWAP1 PUSH0 MSTORE PUSH1 0x20 PUSH0 KECCAK256 SWAP1 PUSH1 0x2 MUL ADD PUSH1 0x40 MLOAD DUP1 PUSH1 0x40 ADD PUSH1 0x40 MSTORE SWAP1 DUP2 PUSH0 DUP3 ADD SLOAD DUP2 MSTORE PUSH1 0x20 ADD PUSH1 0x1 DUP3 ADD SLOAD DUP2 MSTORE POP POP DUP2 MSTORE PUSH1 0x20 ADD SWAP1 PUSH1 0x1 ADD SWAP1 PUSH2 0x50F JUMP JUMPDEST POP POP POP POP DUP2 MSTORE POP POP SWAP1 POP SWAP1 JUMP JUMPDEST PUSH0 DUP1 SLOAD SWAP1 PUSH2 0x100 EXP SWAP1 DIV PUSH20 0xFFFFFFFFFFFFFFFFFFFFFFFFFFFFFFFFFFFFFFFF AND PUSH20 0xFFFFFFFFFFFFFFFFFFFFFFFFFFFFFFFFFFFFFFFF AND CALLER PUSH20 0xFFFFFFFFFFFFFFFFFFFFFFFFFFFFFFFFFFFFFFFF AND EQ PUSH2 0x5E3 JUMPI PUSH1 0x40 MLOAD PUSH32 0x9CDC2ED500000000000000000000000000000000000000000000000000000000 DUP2 MSTORE PUSH1 0x4 ADD PUSH1 0x40 MLOAD DUP1 SWAP2 SUB SWAP1 REVERT JUMPDEST PUSH1 0x3 PUSH1 0x1 ADD SLOAD TIMESTAMP LT PUSH2 0x621 JUMPI PUSH1 0x40 MLOAD PUSH32 0xD45C7F9500000000000000000000000000000000000000000000000000000000 DUP2 MSTORE PUSH1 0x4 ADD PUSH1 0x40 MLOAD DUP1 SWAP2 SUB SWAP1 REVERT JUMPDEST PUSH2 0x66F CALLER ADDRESS DUP4 PUSH1 0x2 PUSH0 SWAP1 SLOAD SWAP1 PUSH2 0x100 EXP SWAP1 DIV PUSH20 0xFFFFFFFFFFFFFFFFFFFFFFFFFFFFFFFFFFFFFFFF AND PUSH20 0xFFFFFFFFFFFFFFFFFFFFFFFFFFFFFFFFFFFFFFFF AND PUSH2 0xFA0 SWAP1 SWAP4 SWAP3 SWAP2 SWAP1 PUSH4 0xFFFFFFFF AND JUMP JUMPDEST PUSH2 0x679 DUP3 DUP3 PUSH2 0x1022 JUMP JUMPDEST DUP1 PUSH1 0x7 PUSH0 DUP5 PUSH20 0xFFFFFFFFFFFFFFFFFFFFFFFFFFFFFFFFFFFFFFFF AND PUSH20 0xFFFFFFFFFFFFFFFFFFFFFFFFFFFFFFFFFFFFFFFF AND DUP2 MSTORE PUSH1 0x20 ADD SWAP1 DUP2 MSTORE PUSH1 0x20 ADD PUSH0 KECCAK256 PUSH0 DUP3 DUP3 SLOAD PUSH2 0x6C5 SWAP2 SWAP1 PUSH2 0x22CC JUMP JUMPDEST SWAP3 POP POP DUP2 SWAP1 SSTORE POP DUP1 PUSH1 0x6 PUSH0 DUP3 DUP3 SLOAD PUSH2 0x6DD SWAP2 SWAP1 PUSH2 0x22CC JUMP JUMPDEST SWAP3 POP POP DUP2 SWAP1 SSTORE POP POP POP JUMP JUMPDEST PUSH1 0x1 PUSH0 SWAP1 SLOAD SWAP1 PUSH2 0x100 EXP SWAP1 DIV PUSH20 0xFFFFFFFFFFFFFFFFFFFFFFFFFFFFFFFFFFFFFFFF AND PUSH20 0xFFFFFFFFFFFFFFFFFFFFFFFFFFFFFFFFFFFFFFFF AND CALLER PUSH20 0xFFFFFFFFFFFFFFFFFFFFFFFFFFFFFFFFFFFFFFFF AND EQ PUSH2 0x76E JUMPI PUSH1 0x40 MLOAD PUSH32 0x8ECCD8B900000000000000000000000000000000000000000000000000000000 DUP2 MSTORE PUSH1 0x4 ADD PUSH1 0x40 MLOAD DUP1 SWAP2 SUB SWAP1 REVERT JUMPDEST PUSH0 DUP3 DUP3 SWAP1 POP SWAP1 POP PUSH2 0x782 DUP6 DUP6 DUP6 DUP6 DUP6 PUSH2 0x10A1 JUMP JUMPDEST DUP5 PUSH1 0x3 PUSH0 ADD DUP2 SWAP1 SSTORE POP DUP4 PUSH1 0x3 PUSH1 0x1 ADD DUP2 SWAP1 SSTORE POP PUSH0 JUMPDEST DUP2 DUP2 LT ISZERO PUSH2 0x7FE JUMPI PUSH1 0x3 PUSH1 0x2 ADD DUP5 DUP5 DUP4 DUP2 DUP2 LT PUSH2 0x7B7 JUMPI PUSH2 0x7B6 PUSH2 0x22FF JUMP JUMPDEST JUMPDEST SWAP1 POP PUSH1 0x40 MUL ADD SWAP1 DUP1 PUSH1 0x1 DUP2 SLOAD ADD DUP1 DUP3 SSTORE DUP1 SWAP2 POP POP PUSH1 0x1 SWAP1 SUB SWAP1 PUSH0 MSTORE PUSH1 0x20 PUSH0 KECCAK256 SWAP1 PUSH1 0x2 MUL ADD PUSH0 SWAP1 SWAP2 SWAP1 SWAP2 SWAP1 SWAP2 POP DUP2 DUP2 PUSH2 0x7EF SWAP2 SWAP1 PUSH2 0x2427 JUMP JUMPDEST POP POP DUP1 DUP1 PUSH1 0x1 ADD SWAP2 POP POP PUSH2 0x797 JUMP JUMPDEST POP POP POP POP POP POP JUMP JUMPDEST PUSH0 PUSH2 0x810 CALLER PUSH2 0x462 JUMP JUMPDEST SWAP1 POP PUSH0 DUP2 SUB PUSH2 0x84B JUMPI PUSH1 0x40 MLOAD PUSH32 0x8BC1CF600000000000000000000000000000000000000000000000000000000 DUP2 MSTORE PUSH1 0x4 ADD PUSH1 0x40 MLOAD DUP1 SWAP2 SUB SWAP1 REVERT JUMPDEST DUP1 PUSH1 0x8 PUSH0 CALLER PUSH20 0xFFFFFFFFFFFFFFFFFFFFFFFFFFFFFFFFFFFFFFFF AND PUSH20 0xFFFFFFFFFFFFFFFFFFFFFFFFFFFFFFFFFFFFFFFF AND DUP2 MSTORE PUSH1 0x20 ADD SWAP1 DUP2 MSTORE PUSH1 0x20 ADD PUSH0 KECCAK256 PUSH0 DUP3 DUP3 SLOAD PUSH2 0x897 SWAP2 SWAP1 PUSH2 0x22CC JUMP JUMPDEST SWAP3 POP POP DUP2 SWAP1 SSTORE POP PUSH2 0x8A8 CALLER DUP3 PUSH2 0x1278 JUMP JUMPDEST PUSH2 0x8F4 CALLER DUP3 PUSH1 0x2 PUSH0 SWAP1 SLOAD SWAP1 PUSH2 0x100 EXP SWAP1 DIV PUSH20 0xFFFFFFFFFFFFFFFFFFFFFFFFFFFFFFFFFFFFFFFF AND PUSH20 0xFFFFFFFFFFFFFFFFFFFFFFFFFFFFFFFFFFFFFFFF AND PUSH2 0x12F7 SWAP1 SWAP3 SWAP2 SWAP1 PUSH4 0xFFFFFFFF AND JUMP JUMPDEST POP JUMP JUMPDEST PUSH0 DUP1 PUSH2 0x901 PUSH2 0xD8F JUMP JUMPDEST SWAP1 POP DUP1 PUSH0 ADD PUSH0 DUP5 PUSH20 0xFFFFFFFFFFFFFFFFFFFFFFFFFFFFFFFFFFFFFFFF AND PUSH20 0xFFFFFFFFFFFFFFFFFFFFFFFFFFFFFFFFFFFFFFFF AND DUP2 MSTORE PUSH1 0x20 ADD SWAP1 DUP2 MSTORE PUSH1 0x20 ADD PUSH0 KECCAK256 SLOAD SWAP2 POP POP SWAP2 SWAP1 POP JUMP JUMPDEST PUSH0 PUSH2 0x953 PUSH2 0x1376 JUMP JUMPDEST SWAP1 POP PUSH0 DUP2 PUSH0 ADD PUSH1 0x8 SWAP1 SLOAD SWAP1 PUSH2 0x100 EXP SWAP1 DIV PUSH1 0xFF AND ISZERO SWAP1 POP PUSH0 DUP3 PUSH0 ADD PUSH0 SWAP1 SLOAD SWAP1 PUSH2 0x100 EXP SWAP1 DIV PUSH8 0xFFFFFFFFFFFFFFFF AND SWAP1 POP PUSH0 DUP1 DUP3 PUSH8 0xFFFFFFFFFFFFFFFF AND EQ DUP1 ISZERO PUSH2 0x99B JUMPI POP DUP3 JUMPDEST SWAP1 POP PUSH0 PUSH1 0x1 DUP4 PUSH8 0xFFFFFFFFFFFFFFFF AND EQ DUP1 ISZERO PUSH2 0x9CE JUMPI POP PUSH0 ADDRESS PUSH20 0xFFFFFFFFFFFFFFFFFFFFFFFFFFFFFFFFFFFFFFFF AND EXTCODESIZE EQ JUMPDEST SWAP1 POP DUP2 ISZERO DUP1 ISZERO PUSH2 0x9DC JUMPI POP DUP1 ISZERO JUMPDEST ISZERO PUSH2 0xA13 JUMPI PUSH1 0x40 MLOAD PUSH32 0xF92EE8A900000000000000000000000000000000000000000000000000000000 DUP2 MSTORE PUSH1 0x4 ADD PUSH1 0x40 MLOAD DUP1 SWAP2 SUB SWAP1 REVERT JUMPDEST PUSH1 0x1 DUP6 PUSH0 ADD PUSH0 PUSH2 0x100 EXP DUP2 SLOAD DUP2 PUSH8 0xFFFFFFFFFFFFFFFF MUL NOT AND SWAP1 DUP4 PUSH8 0xFFFFFFFFFFFFFFFF AND MUL OR SWAP1 SSTORE POP DUP4 ISZERO PUSH2 0xA60 JUMPI PUSH1 0x1 DUP6 PUSH0 ADD PUSH1 0x8 PUSH2 0x100 EXP DUP2 SLOAD DUP2 PUSH1 0xFF MUL NOT AND SWAP1 DUP4 ISZERO ISZERO MUL OR SWAP1 SSTORE POP JUMPDEST PUSH2 0xAF0 DUP12 DUP12 DUP1 DUP1 PUSH1 0x1F ADD PUSH1 0x20 DUP1 SWAP2 DIV MUL PUSH1 0x20 ADD PUSH1 0x40 MLOAD SWAP1 DUP2 ADD PUSH1 0x40 MSTORE DUP1 SWAP4 SWAP3 SWAP2 SWAP1 DUP2 DUP2 MSTORE PUSH1 0x20 ADD DUP4 DUP4 DUP1 DUP3 DUP5 CALLDATACOPY PUSH0 DUP2 DUP5 ADD MSTORE PUSH1 0x1F NOT PUSH1 0x1F DUP3 ADD AND SWAP1 POP DUP1 DUP4 ADD SWAP3 POP POP POP POP POP POP POP DUP11 DUP11 DUP1 DUP1 PUSH1 0x1F ADD PUSH1 0x20 DUP1 SWAP2 DIV MUL PUSH1 0x20 ADD PUSH1 0x40 MLOAD SWAP1 DUP2 ADD PUSH1 0x40 MSTORE DUP1 SWAP4 SWAP3 SWAP2 SWAP1 DUP2 DUP2 MSTORE PUSH1 0x20 ADD DUP4 DUP4 DUP1 DUP3 DUP5 CALLDATACOPY PUSH0 DUP2 DUP5 ADD MSTORE PUSH1 0x1F NOT PUSH1 0x1F DUP3 ADD AND SWAP1 POP DUP1 DUP4 ADD SWAP3 POP POP POP POP POP POP POP PUSH2 0x139D JUMP JUMPDEST DUP7 PUSH0 DUP1 PUSH2 0x100 EXP DUP2 SLOAD DUP2 PUSH20 0xFFFFFFFFFFFFFFFFFFFFFFFFFFFFFFFFFFFFFFFF MUL NOT AND SWAP1 DUP4 PUSH20 0xFFFFFFFFFFFFFFFFFFFFFFFFFFFFFFFFFFFFFFFF AND MUL OR SWAP1 SSTORE POP DUP6 PUSH1 0x2 PUSH0 PUSH2 0x100 EXP DUP2 SLOAD DUP2 PUSH20 0xFFFFFFFFFFFFFFFFFFFFFFFFFFFFFFFFFFFFFFFF MUL NOT AND SWAP1 DUP4 PUSH20 0xFFFFFFFFFFFFFFFFFFFFFFFFFFFFFFFFFFFFFFFF AND MUL OR SWAP1 SSTORE POP CALLER PUSH1 0x1 PUSH0 PUSH2 0x100 EXP DUP2 SLOAD DUP2 PUSH20 0xFFFFFFFFFFFFFFFFFFFFFFFFFFFFFFFFFFFFFFFF MUL NOT AND SWAP1 DUP4 PUSH20 0xFFFFFFFFFFFFFFFFFFFFFFFFFFFFFFFFFFFFFFFF AND MUL OR SWAP1 SSTORE POP DUP4 ISZERO PUSH2 0xC09 JUMPI PUSH0 DUP6 PUSH0 ADD PUSH1 0x8 PUSH2 0x100 EXP DUP2 SLOAD DUP2 PUSH1 0xFF MUL NOT AND SWAP1 DUP4 ISZERO ISZERO MUL OR SWAP1 SSTORE POP PUSH32 0xC7F505B2F371AE2175EE4913F4499E1F2633A7B5936321EED1CDAEB6115181D2 PUSH1 0x1 PUSH1 0x40 MLOAD PUSH2 0xC00 SWAP2 SWAP1 PUSH2 0x2481 JUMP JUMPDEST PUSH1 0x40 MLOAD DUP1 SWAP2 SUB SWAP1 LOG1 JUMPDEST POP POP POP POP POP POP POP POP POP POP POP JUMP JUMPDEST PUSH1 0x60 PUSH0 PUSH2 0xC21 PUSH2 0xD8F JUMP JUMPDEST SWAP1 POP DUP1 PUSH1 0x4 ADD DUP1 SLOAD PUSH2 0xC32 SWAP1 PUSH2 0x223C JUMP JUMPDEST DUP1 PUSH1 0x1F ADD PUSH1 0x20 DUP1 SWAP2 DIV MUL PUSH1 0x20 ADD PUSH1 0x40 MLOAD SWAP1 DUP2 ADD PUSH1 0x40 MSTORE DUP1 SWAP3 SWAP2 SWAP1 DUP2 DUP2 MSTORE PUSH1 0x20 ADD DUP3 DUP1 SLOAD PUSH2 0xC5E SWAP1 PUSH2 0x223C JUMP JUMPDEST DUP1 ISZERO PUSH2 0xCA9 JUMPI DUP1 PUSH1 0x1F LT PUSH2 0xC80 JUMPI PUSH2 0x100 DUP1 DUP4 SLOAD DIV MUL DUP4 MSTORE SWAP2 PUSH1 0x20 ADD SWAP2 PUSH2 0xCA9 JUMP JUMPDEST DUP3 ADD SWAP2 SWAP1 PUSH0 MSTORE PUSH1 0x20 PUSH0 KECCAK256 SWAP1 JUMPDEST DUP2 SLOAD DUP2 MSTORE SWAP1 PUSH1 0x1 ADD SWAP1 PUSH1 0x20 ADD DUP1 DUP4 GT PUSH2 0xC8C JUMPI DUP3 SWAP1 SUB PUSH1 0x1F AND DUP3 ADD SWAP2 JUMPDEST POP POP POP POP POP SWAP2 POP POP SWAP1 JUMP JUMPDEST PUSH0 DUP1 PUSH2 0xCBE PUSH2 0xDB6 JUMP JUMPDEST SWAP1 POP PUSH2 0xCCB DUP2 DUP6 DUP6 PUSH2 0xE61 JUMP JUMPDEST PUSH1 0x1 SWAP2 POP POP SWAP3 SWAP2 POP POP JUMP JUMPDEST PUSH0 PUSH2 0xCDF PUSH2 0x13B3 JUMP JUMPDEST PUSH1 0x6 SLOAD PUSH2 0xCEC SWAP2 SWAP1 PUSH2 0x2299 JUMP JUMPDEST SWAP1 POP SWAP1 JUMP JUMPDEST PUSH0 DUP1 PUSH2 0xCFB PUSH2 0xD8F JUMP JUMPDEST SWAP1 POP DUP1 PUSH1 0x1 ADD PUSH0 DUP6 PUSH20 0xFFFFFFFFFFFFFFFFFFFFFFFFFFFFFFFFFFFFFFFF AND PUSH20 0xFFFFFFFFFFFFFFFFFFFFFFFFFFFFFFFFFFFFFFFF AND DUP2 MSTORE PUSH1 0x20 ADD SWAP1 DUP2 MSTORE PUSH1 0x20 ADD PUSH0 KECCAK256 PUSH0 DUP5 PUSH20 0xFFFFFFFFFFFFFFFFFFFFFFFFFFFFFFFFFFFFFFFF AND PUSH20 0xFFFFFFFFFFFFFFFFFFFFFFFFFFFFFFFFFFFFFFFF AND DUP2 MSTORE PUSH1 0x20 ADD SWAP1 DUP2 MSTORE PUSH1 0x20 ADD PUSH0 KECCAK256 SLOAD SWAP2 POP POP SWAP3 SWAP2 POP POP JUMP JUMPDEST PUSH0 PUSH2 0xD8A PUSH2 0x13B3 JUMP JUMPDEST SWAP1 POP SWAP1 JUMP JUMPDEST PUSH0 PUSH32 0x52C63247E1F47DB19D5CE0460030C497F067CA4CEBF71BA98EEADABE20BACE00 SWAP1 POP SWAP1 JUMP JUMPDEST PUSH0 CALLER SWAP1 POP SWAP1 JUMP JUMPDEST PUSH2 0xDCA DUP4 DUP4 DUP4 PUSH1 0x1 PUSH2 0x13C5 JUMP JUMPDEST POP POP POP JUMP JUMPDEST PUSH0 PUSH2 0xDDA DUP5 DUP5 PUSH2 0xCF1 JUMP JUMPDEST SWAP1 POP PUSH32 0xFFFFFFFFFFFFFFFFFFFFFFFFFFFFFFFFFFFFFFFFFFFFFFFFFFFFFFFFFFFFFFFF DUP2 EQ PUSH2 0xE5B JUMPI DUP2 DUP2 LT ISZERO PUSH2 0xE4C JUMPI DUP3 DUP2 DUP4 PUSH1 0x40 MLOAD PUSH32 0xFB8F41B200000000000000000000000000000000000000000000000000000000 DUP2 MSTORE PUSH1 0x4 ADD PUSH2 0xE43 SWAP4 SWAP3 SWAP2 SWAP1 PUSH2 0x24A9 JUMP JUMPDEST PUSH1 0x40 MLOAD DUP1 SWAP2 SUB SWAP1 REVERT JUMPDEST PUSH2 0xE5A DUP5 DUP5 DUP5 DUP5 SUB PUSH0 PUSH2 0x13C5 JUMP JUMPDEST JUMPDEST POP POP POP POP JUMP JUMPDEST PUSH0 PUSH20 0xFFFFFFFFFFFFFFFFFFFFFFFFFFFFFFFFFFFFFFFF AND DUP4 PUSH20 0xFFFFFFFFFFFFFFFFFFFFFFFFFFFFFFFFFFFFFFFF AND SUB PUSH2 0xED1 JUMPI PUSH0 PUSH1 0x40 MLOAD PUSH32 0x96C6FD1E00000000000000000000000000000000000000000000000000000000 DUP2 MSTORE PUSH1 0x4 ADD PUSH2 0xEC8 SWAP2 SWAP1 PUSH2 0x24DE JUMP JUMPDEST PUSH1 0x40 MLOAD DUP1 SWAP2 SUB SWAP1 REVERT JUMPDEST PUSH0 PUSH20 0xFFFFFFFFFFFFFFFFFFFFFFFFFFFFFFFFFFFFFFFF AND DUP3 PUSH20 0xFFFFFFFFFFFFFFFFFFFFFFFFFFFFFFFFFFFFFFFF AND SUB PUSH2 0xF41 JUMPI PUSH0 PUSH1 0x40 MLOAD PUSH32 0xEC442F0500000000000000000000000000000000000000000000000000000000 DUP2 MSTORE PUSH1 0x4 ADD PUSH2 0xF38 SWAP2 SWAP1 PUSH2 0x24DE JUMP JUMPDEST PUSH1 0x40 MLOAD DUP1 SWAP2 SUB SWAP1 REVERT JUMPDEST PUSH2 0xF4C DUP4 DUP4 DUP4 PUSH2 0x15A2 JUMP JUMPDEST POP POP POP JUMP JUMPDEST PUSH0 PUSH2 0xF99 PUSH1 0x7 PUSH0 DUP5 PUSH20 0xFFFFFFFFFFFFFFFFFFFFFFFFFFFFFFFFFFFFFFFF AND PUSH20 0xFFFFFFFFFFFFFFFFFFFFFFFFFFFFFFFFFFFFFFFF AND DUP2 MSTORE PUSH1 0x20 ADD SWAP1 DUP2 MSTORE PUSH1 0x20 ADD PUSH0 KECCAK256 SLOAD TIMESTAMP PUSH2 0x17D1 JUMP JUMPDEST SWAP1 POP SWAP2 SWAP1 POP JUMP JUMPDEST PUSH2 0x101C DUP5 DUP6 PUSH20 0xFFFFFFFFFFFFFFFFFFFFFFFFFFFFFFFFFFFFFFFF AND PUSH4 0x23B872DD DUP7 DUP7 DUP7 PUSH1 0x40 MLOAD PUSH1 0x24 ADD PUSH2 0xFD5 SWAP4 SWAP3 SWAP2 SWAP1 PUSH2 0x24F7 JUMP JUMPDEST PUSH1 0x40 MLOAD PUSH1 0x20 DUP2 DUP4 SUB SUB DUP2 MSTORE SWAP1 PUSH1 0x40 MSTORE SWAP2 POP PUSH1 0xE0 SHL PUSH1 0x20 DUP3 ADD DUP1 MLOAD PUSH28 0xFFFFFFFFFFFFFFFFFFFFFFFFFFFFFFFFFFFFFFFFFFFFFFFFFFFFFFFF DUP4 DUP2 DUP4 AND OR DUP4 MSTORE POP POP POP POP PUSH2 0x194A JUMP JUMPDEST POP POP POP POP JUMP JUMPDEST PUSH0 PUSH20 0xFFFFFFFFFFFFFFFFFFFFFFFFFFFFFFFFFFFFFFFF AND DUP3 PUSH20 0xFFFFFFFFFFFFFFFFFFFFFFFFFFFFFFFFFFFFFFFF AND SUB PUSH2 0x1092 JUMPI PUSH0 PUSH1 0x40 MLOAD PUSH32 0xEC442F0500000000000000000000000000000000000000000000000000000000 DUP2 MSTORE PUSH1 0x4 ADD PUSH2 0x1089 SWAP2 SWAP1 PUSH2 0x24DE JUMP JUMPDEST PUSH1 0x40 MLOAD DUP1 SWAP2 SUB SWAP1 REVERT JUMPDEST PUSH2 0x109D PUSH0 DUP4 DUP4 PUSH2 0x15A2 JUMP JUMPDEST POP POP JUMP JUMPDEST TIMESTAMP DUP6 LT ISZERO PUSH2 0x10DB JUMPI PUSH1 0x40 MLOAD PUSH32 0xC18DFCC200000000000000000000000000000000000000000000000000000000 DUP2 MSTORE PUSH1 0x4 ADD PUSH1 0x40 MLOAD DUP1 SWAP2 SUB SWAP1 REVERT JUMPDEST DUP4 DUP6 GT ISZERO PUSH2 0x1115 JUMPI PUSH1 0x40 MLOAD PUSH32 0x8147E9E200000000000000000000000000000000000000000000000000000000 DUP2 MSTORE PUSH1 0x4 ADD PUSH1 0x40 MLOAD DUP1 SWAP2 SUB SWAP1 REVERT JUMPDEST PUSH0 DUP1 PUSH0 SWAP1 POP JUMPDEST DUP3 DUP2 LT ISZERO PUSH2 0x1234 JUMPI DUP5 DUP5 DUP3 DUP2 DUP2 LT PUSH2 0x1136 JUMPI PUSH2 0x1135 PUSH2 0x22FF JUMP JUMPDEST JUMPDEST SWAP1 POP PUSH1 0x40 MUL ADD PUSH1 0x20 ADD CALLDATALOAD DUP3 PUSH2 0x114B SWAP2 SWAP1 PUSH2 0x22CC JUMP JUMPDEST SWAP2 POP PUSH0 DUP1 DUP3 EQ ISZERO DUP1 ISZERO PUSH2 0x11A0 JUMPI POP DUP6 DUP6 DUP4 DUP2 DUP2 LT PUSH2 0x116C JUMPI PUSH2 0x116B PUSH2 0x22FF JUMP JUMPDEST JUMPDEST SWAP1 POP PUSH1 0x40 MUL ADD PUSH0 ADD CALLDATALOAD DUP7 DUP7 PUSH1 0x1 DUP6 PUSH2 0x1184 SWAP2 SWAP1 PUSH2 0x2299 JUMP JUMPDEST DUP2 DUP2 LT PUSH2 0x1194 JUMPI PUSH2 0x1193 PUSH2 0x22FF JUMP JUMPDEST JUMPDEST SWAP1 POP PUSH1 0x40 MUL ADD PUSH0 ADD CALLDATALOAD LT ISZERO JUMPDEST SWAP1 POP DUP6 DUP6 DUP4 DUP2 DUP2 LT PUSH2 0x11B5 JUMPI PUSH2 0x11B4 PUSH2 0x22FF JUMP JUMPDEST JUMPDEST SWAP1 POP PUSH1 0x40 MUL ADD PUSH0 ADD CALLDATALOAD DUP8 LT ISZERO DUP1 PUSH2 0x11C9 JUMPI POP DUP1 JUMPDEST ISZERO PUSH2 0x1226 JUMPI DUP6 DUP6 DUP4 DUP2 DUP2 LT PUSH2 0x11E1 JUMPI PUSH2 0x11E0 PUSH2 0x22FF JUMP JUMPDEST JUMPDEST SWAP1 POP PUSH1 0x40 MUL ADD PUSH0 ADD CALLDATALOAD PUSH1 0x40 MLOAD PUSH32 0x1A3250BD00000000000000000000000000000000000000000000000000000000 DUP2 MSTORE PUSH1 0x4 ADD PUSH2 0x121D SWAP2 SWAP1 PUSH2 0x1DEE JUMP JUMPDEST PUSH1 0x40 MLOAD DUP1 SWAP2 SUB SWAP1 REVERT JUMPDEST POP DUP1 DUP1 PUSH1 0x1 ADD SWAP2 POP POP PUSH2 0x111B JUMP JUMPDEST POP PUSH2 0x2710 DUP2 EQ PUSH2 0x1270 JUMPI PUSH1 0x40 MLOAD PUSH32 0xC45B8E2700000000000000000000000000000000000000000000000000000000 DUP2 MSTORE PUSH1 0x4 ADD PUSH1 0x40 MLOAD DUP1 SWAP2 SUB SWAP1 REVERT JUMPDEST POP POP POP POP POP POP JUMP JUMPDEST PUSH0 PUSH20 0xFFFFFFFFFFFFFFFFFFFFFFFFFFFFFFFFFFFFFFFF AND DUP3 PUSH20 0xFFFFFFFFFFFFFFFFFFFFFFFFFFFFFFFFFFFFFFFF AND SUB PUSH2 0x12E8 JUMPI PUSH0 PUSH1 0x40 MLOAD PUSH32 0x96C6FD1E00000000000000000000000000000000000000000000000000000000 DUP2 MSTORE PUSH1 0x4 ADD PUSH2 0x12DF SWAP2 SWAP1 PUSH2 0x24DE JUMP JUMPDEST PUSH1 0x40 MLOAD DUP1 SWAP2 SUB SWAP1 REVERT JUMPDEST PUSH2 0x12F3 DUP3 PUSH0 DUP4 PUSH2 0x15A2 JUMP JUMPDEST POP POP JUMP JUMPDEST PUSH2 0x1371 DUP4 DUP5 PUSH20 0xFFFFFFFFFFFFFFFFFFFFFFFFFFFFFFFFFFFFFFFF AND PUSH4 0xA9059CBB DUP6 DUP6 PUSH1 0x40 MLOAD PUSH1 0x24 ADD PUSH2 0x132A SWAP3 SWAP2 SWAP1 PUSH2 0x252C JUMP JUMPDEST PUSH1 0x40 MLOAD PUSH1 0x20 DUP2 DUP4 SUB SUB DUP2 MSTORE SWAP1 PUSH1 0x40 MSTORE SWAP2 POP PUSH1 0xE0 SHL PUSH1 0x20 DUP3 ADD DUP1 MLOAD PUSH28 0xFFFFFFFFFFFFFFFFFFFFFFFFFFFFFFFFFFFFFFFFFFFFFFFFFFFFFFFF DUP4 DUP2 DUP4 AND OR DUP4 MSTORE POP POP POP POP PUSH2 0x194A JUMP JUMPDEST POP POP POP JUMP JUMPDEST PUSH0 PUSH32 0xF0C57E16840DF040F15088DC2F81FE391C3923BEC73E23A9662EFC9C229C6A00 SWAP1 POP SWAP1 JUMP JUMPDEST PUSH2 0x13A5 PUSH2 0x19DF JUMP JUMPDEST PUSH2 0x13AF DUP3 DUP3 PUSH2 0x1A1F JUMP JUMPDEST POP POP JUMP JUMPDEST PUSH0 PUSH2 0x13C0 PUSH1 0x6 SLOAD TIMESTAMP PUSH2 0x17D1 JUMP JUMPDEST SWAP1 POP SWAP1 JUMP JUMPDEST PUSH0 PUSH2 0x13CE PUSH2 0xD8F JUMP JUMPDEST SWAP1 POP PUSH0 PUSH20 0xFFFFFFFFFFFFFFFFFFFFFFFFFFFFFFFFFFFFFFFF AND DUP6 PUSH20 0xFFFFFFFFFFFFFFFFFFFFFFFFFFFFFFFFFFFFFFFF AND SUB PUSH2 0x1440 JUMPI PUSH0 PUSH1 0x40 MLOAD PUSH32 0xE602DF0500000000000000000000000000000000000000000000000000000000 DUP2 MSTORE PUSH1 0x4 ADD PUSH2 0x1437 SWAP2 SWAP1 PUSH2 0x24DE JUMP JUMPDEST PUSH1 0x40 MLOAD DUP1 SWAP2 SUB SWAP1 REVERT JUMPDEST PUSH0 PUSH20 0xFFFFFFFFFFFFFFFFFFFFFFFFFFFFFFFFFFFFFFFF AND DUP5 PUSH20 0xFFFFFFFFFFFFFFFFFFFFFFFFFFFFFFFFFFFFFFFF AND SUB PUSH2 0x14B0 JUMPI PUSH0 PUSH1 0x40 MLOAD PUSH32 0x94280D6200000000000000000000000000000000000000000000000000000000 DUP2 MSTORE PUSH1 0x4 ADD PUSH2 0x14A7 SWAP2 SWAP1 PUSH2 0x24DE JUMP JUMPDEST PUSH1 0x40 MLOAD DUP1 SWAP2 SUB SWAP1 REVERT JUMPDEST DUP3 DUP2 PUSH1 0x1 ADD PUSH0 DUP8 PUSH20 0xFFFFFFFFFFFFFFFFFFFFFFFFFFFFFFFFFFFFFFFF AND PUSH20 0xFFFFFFFFFFFFFFFFFFFFFFFFFFFFFFFFFFFFFFFF AND DUP2 MSTORE PUSH1 0x20 ADD SWAP1 DUP2 MSTORE PUSH1 0x20 ADD PUSH0 KECCAK256 PUSH0 DUP7 PUSH20 0xFFFFFFFFFFFFFFFFFFFFFFFFFFFFFFFFFFFFFFFF AND PUSH20 0xFFFFFFFFFFFFFFFFFFFFFFFFFFFFFFFFFFFFFFFF AND DUP2 MSTORE PUSH1 0x20 ADD SWAP1 DUP2 MSTORE PUSH1 0x20 ADD PUSH0 KECCAK256 DUP2 SWAP1 SSTORE POP DUP2 ISZERO PUSH2 0x159B JUMPI DUP4 PUSH20 0xFFFFFFFFFFFFFFFFFFFFFFFFFFFFFFFFFFFFFFFF AND DUP6 PUSH20 0xFFFFFFFFFFFFFFFFFFFFFFFFFFFFFFFFFFFFFFFF AND PUSH32 0x8C5BE1E5EBEC7D5BD14F71427D1E84F3DD0314C0F7B2291E5B200AC8C7C3B925 DUP6 PUSH1 0x40 MLOAD PUSH2 0x1592 SWAP2 SWAP1 PUSH2 0x1DEE JUMP JUMPDEST PUSH1 0x40 MLOAD DUP1 SWAP2 SUB SWAP1 LOG3 JUMPDEST POP POP POP POP POP JUMP JUMPDEST PUSH0 PUSH2 0x15AB PUSH2 0xD8F JUMP JUMPDEST SWAP1 POP PUSH0 PUSH20 0xFFFFFFFFFFFFFFFFFFFFFFFFFFFFFFFFFFFFFFFF AND DUP5 PUSH20 0xFFFFFFFFFFFFFFFFFFFFFFFFFFFFFFFFFFFFFFFF AND SUB PUSH2 0x15FF JUMPI DUP2 DUP2 PUSH1 0x2 ADD PUSH0 DUP3 DUP3 SLOAD PUSH2 0x15F3 SWAP2 SWAP1 PUSH2 0x22CC JUMP JUMPDEST SWAP3 POP POP DUP2 SWAP1 SSTORE POP PUSH2 0x16D1 JUMP JUMPDEST PUSH0 DUP2 PUSH0 ADD PUSH0 DUP7 PUSH20 0xFFFFFFFFFFFFFFFFFFFFFFFFFFFFFFFFFFFFFFFF AND PUSH20 0xFFFFFFFFFFFFFFFFFFFFFFFFFFFFFFFFFFFFFFFF AND DUP2 MSTORE PUSH1 0x20 ADD SWAP1 DUP2 MSTORE PUSH1 0x20 ADD PUSH0 KECCAK256 SLOAD SWAP1 POP DUP3 DUP2 LT ISZERO PUSH2 0x168A JUMPI DUP5 DUP2 DUP5 PUSH1 0x40 MLOAD PUSH32 0xE450D38C00000000000000000000000000000000000000000000000000000000 DUP2 MSTORE PUSH1 0x4 ADD PUSH2 0x1681 SWAP4 SWAP3 SWAP2 SWAP1 PUSH2 0x24A9 JUMP JUMPDEST PUSH1 0x40 MLOAD DUP1 SWAP2 SUB SWAP1 REVERT JUMPDEST DUP3 DUP2 SUB DUP3 PUSH0 ADD PUSH0 DUP8 PUSH20 0xFFFFFFFFFFFFFFFFFFFFFFFFFFFFFFFFFFFFFFFF AND PUSH20 0xFFFFFFFFFFFFFFFFFFFFFFFFFFFFFFFFFFFFFFFF AND DUP2 MSTORE PUSH1 0x20 ADD SWAP1 DUP2 MSTORE PUSH1 0x20 ADD PUSH0 KECCAK256 DUP2 SWAP1 SSTORE POP POP JUMPDEST PUSH0 PUSH20 0xFFFFFFFFFFFFFFFFFFFFFFFFFFFFFFFFFFFFFFFF AND DUP4 PUSH20 0xFFFFFFFFFFFFFFFFFFFFFFFFFFFFFFFFFFFFFFFF AND SUB PUSH2 0x171A JUMPI DUP2 DUP2 PUSH1 0x2 ADD PUSH0 DUP3 DUP3 SLOAD SUB SWAP3 POP POP DUP2 SWAP1 SSTORE POP PUSH2 0x1766 JUMP JUMPDEST DUP2 DUP2 PUSH0 ADD PUSH0 DUP6 PUSH20 0xFFFFFFFFFFFFFFFFFFFFFFFFFFFFFFFFFFFFFFFF AND PUSH20 0xFFFFFFFFFFFFFFFFFFFFFFFFFFFFFFFFFFFFFFFF AND DUP2 MSTORE PUSH1 0x20 ADD SWAP1 DUP2 MSTORE PUSH1 0x20 ADD PUSH0 KECCAK256 PUSH0 DUP3 DUP3 SLOAD ADD SWAP3 POP POP DUP2 SWAP1 SSTORE POP JUMPDEST DUP3 PUSH20 0xFFFFFFFFFFFFFFFFFFFFFFFFFFFFFFFFFFFFFFFF AND DUP5 PUSH20 0xFFFFFFFFFFFFFFFFFFFFFFFFFFFFFFFFFFFFFFFF AND PUSH32 0xDDF252AD1BE2C89B69C2B068FC378DAA952BA7F163C4A11628F55A4DF523B3EF DUP5 PUSH1 0x40 MLOAD PUSH2 0x17C3 SWAP2 SWAP1 PUSH2 0x1DEE JUMP JUMPDEST PUSH1 0x40 MLOAD DUP1 SWAP2 SUB SWAP1 LOG3 POP POP POP POP JUMP JUMPDEST PUSH0 PUSH1 0x3 PUSH1 0x1 ADD SLOAD DUP3 LT ISZERO PUSH2 0x17E7 JUMPI PUSH0 SWAP1 POP PUSH2 0x1944 JUMP JUMPDEST PUSH0 PUSH1 0x3 PUSH1 0x1 ADD SLOAD SWAP1 POP PUSH0 PUSH1 0x3 PUSH1 0x2 ADD DUP1 SLOAD DUP1 PUSH1 0x20 MUL PUSH1 0x20 ADD PUSH1 0x40 MLOAD SWAP1 DUP2 ADD PUSH1 0x40 MSTORE DUP1 SWAP3 SWAP2 SWAP1 DUP2 DUP2 MSTORE PUSH1 0x20 ADD PUSH0 SWAP1 JUMPDEST DUP3 DUP3 LT ISZERO PUSH2 0x1858 JUMPI DUP4 DUP3 SWAP1 PUSH0 MSTORE PUSH1 0x20 PUSH0 KECCAK256 SWAP1 PUSH1 0x2 MUL ADD PUSH1 0x40 MLOAD DUP1 PUSH1 0x40 ADD PUSH1 0x40 MSTORE SWAP1 DUP2 PUSH0 DUP3 ADD SLOAD DUP2 MSTORE PUSH1 0x20 ADD PUSH1 0x1 DUP3 ADD SLOAD DUP2 MSTORE POP POP DUP2 MSTORE PUSH1 0x20 ADD SWAP1 PUSH1 0x1 ADD SWAP1 PUSH2 0x1815 JUMP JUMPDEST POP POP POP POP SWAP1 POP PUSH0 DUP2 MLOAD SWAP1 POP PUSH0 JUMPDEST DUP2 DUP2 LT ISZERO PUSH2 0x193F JUMPI PUSH0 DUP4 DUP3 DUP2 MLOAD DUP2 LT PUSH2 0x1881 JUMPI PUSH2 0x1880 PUSH2 0x22FF JUMP JUMPDEST JUMPDEST PUSH1 0x20 MUL PUSH1 0x20 ADD ADD MLOAD SWAP1 POP PUSH0 DUP2 PUSH0 ADD MLOAD SWAP1 POP PUSH0 DUP3 PUSH1 0x20 ADD MLOAD SWAP1 POP DUP2 DUP10 LT ISZERO PUSH2 0x1906 JUMPI PUSH0 DUP8 DUP11 PUSH2 0x18AF SWAP2 SWAP1 PUSH2 0x2299 JUMP JUMPDEST SWAP1 POP PUSH0 DUP9 DUP5 PUSH2 0x18BE SWAP2 SWAP1 PUSH2 0x2299 JUMP JUMPDEST SWAP1 POP PUSH2 0x2710 DUP2 PUSH2 0x18CE SWAP2 SWAP1 PUSH2 0x2553 JUMP JUMPDEST DUP4 DUP4 DUP15 PUSH2 0x18DB SWAP2 SWAP1 PUSH2 0x2553 JUMP JUMPDEST PUSH2 0x18E5 SWAP2 SWAP1 PUSH2 0x2553 JUMP JUMPDEST PUSH2 0x18EF SWAP2 SWAP1 PUSH2 0x25C1 JUMP JUMPDEST DUP11 PUSH2 0x18FA SWAP2 SWAP1 PUSH2 0x22CC JUMP JUMPDEST SWAP10 POP POP POP POP POP POP PUSH2 0x193F JUMP JUMPDEST PUSH2 0x2710 DUP2 DUP12 PUSH2 0x1915 SWAP2 SWAP1 PUSH2 0x2553 JUMP JUMPDEST PUSH2 0x191F SWAP2 SWAP1 PUSH2 0x25C1 JUMP JUMPDEST DUP9 PUSH2 0x192A SWAP2 SWAP1 PUSH2 0x22CC JUMP JUMPDEST SWAP8 POP DUP2 SWAP7 POP POP POP POP DUP1 DUP1 PUSH1 0x1 ADD SWAP2 POP POP PUSH2 0x1865 JUMP JUMPDEST POP POP POP POP JUMPDEST SWAP3 SWAP2 POP POP JUMP JUMPDEST PUSH0 PUSH2 0x1974 DUP3 DUP5 PUSH20 0xFFFFFFFFFFFFFFFFFFFFFFFFFFFFFFFFFFFFFFFF AND PUSH2 0x1A5B SWAP1 SWAP2 SWAP1 PUSH4 0xFFFFFFFF AND JUMP JUMPDEST SWAP1 POP PUSH0 DUP2 MLOAD EQ ISZERO DUP1 ISZERO PUSH2 0x1998 JUMPI POP DUP1 DUP1 PUSH1 0x20 ADD SWAP1 MLOAD DUP2 ADD SWAP1 PUSH2 0x1996 SWAP2 SWAP1 PUSH2 0x261B JUMP JUMPDEST ISZERO JUMPDEST ISZERO PUSH2 0x19DA JUMPI DUP3 PUSH1 0x40 MLOAD PUSH32 0x5274AFE700000000000000000000000000000000000000000000000000000000 DUP2 MSTORE PUSH1 0x4 ADD PUSH2 0x19D1 SWAP2 SWAP1 PUSH2 0x24DE JUMP JUMPDEST PUSH1 0x40 MLOAD DUP1 SWAP2 SUB SWAP1 REVERT JUMPDEST POP POP POP JUMP JUMPDEST PUSH2 0x19E7 PUSH2 0x1A70 JUMP JUMPDEST PUSH2 0x1A1D JUMPI PUSH1 0x40 MLOAD PUSH32 0xD7E6BCF800000000000000000000000000000000000000000000000000000000 DUP2 MSTORE PUSH1 0x4 ADD PUSH1 0x40 MLOAD DUP1 SWAP2 SUB SWAP1 REVERT JUMPDEST JUMP JUMPDEST PUSH2 0x1A27 PUSH2 0x19DF JUMP JUMPDEST PUSH0 PUSH2 0x1A30 PUSH2 0xD8F JUMP JUMPDEST SWAP1 POP DUP3 DUP2 PUSH1 0x3 ADD SWAP1 DUP2 PUSH2 0x1A43 SWAP2 SWAP1 PUSH2 0x27DD JUMP JUMPDEST POP DUP2 DUP2 PUSH1 0x4 ADD SWAP1 DUP2 PUSH2 0x1A55 SWAP2 SWAP1 PUSH2 0x27DD JUMP JUMPDEST POP POP POP POP JUMP JUMPDEST PUSH1 0x60 PUSH2 0x1A68 DUP4 DUP4 PUSH0 PUSH2 0x1A8E JUMP JUMPDEST SWAP1 POP SWAP3 SWAP2 POP POP JUMP JUMPDEST PUSH0 PUSH2 0x1A79 PUSH2 0x1376 JUMP JUMPDEST PUSH0 ADD PUSH1 0x8 SWAP1 SLOAD SWAP1 PUSH2 0x100 EXP SWAP1 DIV PUSH1 0xFF AND SWAP1 POP SWAP1 JUMP JUMPDEST PUSH1 0x60 DUP2 SELFBALANCE LT ISZERO PUSH2 0x1AD7 JUMPI SELFBALANCE DUP3 PUSH1 0x40 MLOAD PUSH32 0xCF47918100000000000000000000000000000000000000000000000000000000 DUP2 MSTORE PUSH1 0x4 ADD PUSH2 0x1ACE SWAP3 SWAP2 SWAP1 PUSH2 0x28AC JUMP JUMPDEST PUSH1 0x40 MLOAD DUP1 SWAP2 SUB SWAP1 REVERT JUMPDEST PUSH0 DUP1 DUP6 PUSH20 0xFFFFFFFFFFFFFFFFFFFFFFFFFFFFFFFFFFFFFFFF AND DUP5 DUP7 PUSH1 0x40 MLOAD PUSH2 0x1AFF SWAP2 SWAP1 PUSH2 0x2917 JUMP JUMPDEST PUSH0 PUSH1 0x40 MLOAD DUP1 DUP4 SUB DUP2 DUP6 DUP8 GAS CALL SWAP3 POP POP POP RETURNDATASIZE DUP1 PUSH0 DUP2 EQ PUSH2 0x1B39 JUMPI PUSH1 0x40 MLOAD SWAP2 POP PUSH1 0x1F NOT PUSH1 0x3F RETURNDATASIZE ADD AND DUP3 ADD PUSH1 0x40 MSTORE RETURNDATASIZE DUP3 MSTORE RETURNDATASIZE PUSH0 PUSH1 0x20 DUP5 ADD RETURNDATACOPY PUSH2 0x1B3E JUMP JUMPDEST PUSH1 0x60 SWAP2 POP JUMPDEST POP SWAP2 POP SWAP2 POP PUSH2 0x1B4E DUP7 DUP4 DUP4 PUSH2 0x1B59 JUMP JUMPDEST SWAP3 POP POP POP SWAP4 SWAP3 POP POP POP JUMP JUMPDEST PUSH1 0x60 DUP3 PUSH2 0x1B6E JUMPI PUSH2 0x1B69 DUP3 PUSH2 0x1BE6 JUMP JUMPDEST PUSH2 0x1BDE JUMP JUMPDEST PUSH0 DUP3 MLOAD EQ DUP1 ISZERO PUSH2 0x1B94 JUMPI POP PUSH0 DUP5 PUSH20 0xFFFFFFFFFFFFFFFFFFFFFFFFFFFFFFFFFFFFFFFF AND EXTCODESIZE EQ JUMPDEST ISZERO PUSH2 0x1BD6 JUMPI DUP4 PUSH1 0x40 MLOAD PUSH32 0x9996B31500000000000000000000000000000000000000000000000000000000 DUP2 MSTORE PUSH1 0x4 ADD PUSH2 0x1BCD SWAP2 SWAP1 PUSH2 0x24DE JUMP JUMPDEST PUSH1 0x40 MLOAD DUP1 SWAP2 SUB SWAP1 REVERT JUMPDEST DUP2 SWAP1 POP PUSH2 0x1BDF JUMP JUMPDEST JUMPDEST SWAP4 SWAP3 POP POP POP JUMP JUMPDEST PUSH0 DUP2 MLOAD GT ISZERO PUSH2 0x1BF8 JUMPI DUP1 MLOAD DUP1 DUP3 PUSH1 0x20 ADD REVERT JUMPDEST PUSH1 0x40 MLOAD PUSH32 0xD6BDA27500000000000000000000000000000000000000000000000000000000 DUP2 MSTORE PUSH1 0x4 ADD PUSH1 0x40 MLOAD DUP1 SWAP2 SUB SWAP1 REVERT JUMPDEST PUSH1 0x40 MLOAD DUP1 PUSH1 0x60 ADD PUSH1 0x40 MSTORE DUP1 PUSH0 DUP2 MSTORE PUSH1 0x20 ADD PUSH0 DUP2 MSTORE PUSH1 0x20 ADD PUSH1 0x60 DUP2 MSTORE POP SWAP1 JUMP JUMPDEST PUSH0 DUP2 MLOAD SWAP1 POP SWAP2 SWAP1 POP JUMP JUMPDEST PUSH0 DUP3 DUP3 MSTORE PUSH1 0x20 DUP3 ADD SWAP1 POP SWAP3 SWAP2 POP POP JUMP JUMPDEST DUP3 DUP2 DUP4 MCOPY PUSH0 DUP4 DUP4 ADD MSTORE POP POP POP JUMP JUMPDEST PUSH0 PUSH1 0x1F NOT PUSH1 0x1F DUP4 ADD AND SWAP1 POP SWAP2 SWAP1 POP JUMP JUMPDEST PUSH0 PUSH2 0x1C8B DUP3 PUSH2 0x1C49 JUMP JUMPDEST PUSH2 0x1C95 DUP2 DUP6 PUSH2 0x1C53 JUMP JUMPDEST SWAP4 POP PUSH2 0x1CA5 DUP2 DUP6 PUSH1 0x20 DUP7 ADD PUSH2 0x1C63 JUMP JUMPDEST PUSH2 0x1CAE DUP2 PUSH2 0x1C71 JUMP JUMPDEST DUP5 ADD SWAP2 POP POP SWAP3 SWAP2 POP POP JUMP JUMPDEST PUSH0 PUSH1 0x20 DUP3 ADD SWAP1 POP DUP2 DUP2 SUB PUSH0 DUP4 ADD MSTORE PUSH2 0x1CD1 DUP2 DUP5 PUSH2 0x1C81 JUMP JUMPDEST SWAP1 POP SWAP3 SWAP2 POP POP JUMP JUMPDEST PUSH0 DUP1 REVERT JUMPDEST PUSH0 DUP1 REVERT JUMPDEST PUSH0 PUSH20 0xFFFFFFFFFFFFFFFFFFFFFFFFFFFFFFFFFFFFFFFF DUP3 AND SWAP1 POP SWAP2 SWAP1 POP JUMP JUMPDEST PUSH0 PUSH2 0x1D0A DUP3 PUSH2 0x1CE1 JUMP JUMPDEST SWAP1 POP SWAP2 SWAP1 POP JUMP JUMPDEST PUSH2 0x1D1A DUP2 PUSH2 0x1D00 JUMP JUMPDEST DUP2 EQ PUSH2 0x1D24 JUMPI PUSH0 DUP1 REVERT JUMPDEST POP JUMP JUMPDEST PUSH0 DUP2 CALLDATALOAD SWAP1 POP PUSH2 0x1D35 DUP2 PUSH2 0x1D11 JUMP JUMPDEST SWAP3 SWAP2 POP POP JUMP JUMPDEST PUSH0 DUP2 SWAP1 POP SWAP2 SWAP1 POP JUMP JUMPDEST PUSH2 0x1D4D DUP2 PUSH2 0x1D3B JUMP JUMPDEST DUP2 EQ PUSH2 0x1D57 JUMPI PUSH0 DUP1 REVERT JUMPDEST POP JUMP JUMPDEST PUSH0 DUP2 CALLDATALOAD SWAP1 POP PUSH2 0x1D68 DUP2 PUSH2 0x1D44 JUMP JUMPDEST SWAP3 SWAP2 POP POP JUMP JUMPDEST PUSH0 DUP1 PUSH1 0x40 DUP4 DUP6 SUB SLT ISZERO PUSH2 0x1D84 JUMPI PUSH2 0x1D83 PUSH2 0x1CD9 JUMP JUMPDEST JUMPDEST PUSH0 PUSH2 0x1D91 DUP6 DUP3 DUP7 ADD PUSH2 0x1D27 JUMP JUMPDEST SWAP3 POP POP PUSH1 0x20 PUSH2 0x1DA2 DUP6 DUP3 DUP7 ADD PUSH2 0x1D5A JUMP JUMPDEST SWAP2 POP POP SWAP3 POP SWAP3 SWAP1 POP JUMP JUMPDEST PUSH0 DUP2 ISZERO ISZERO SWAP1 POP SWAP2 SWAP1 POP JUMP JUMPDEST PUSH2 0x1DC0 DUP2 PUSH2 0x1DAC JUMP JUMPDEST DUP3 MSTORE POP POP JUMP JUMPDEST PUSH0 PUSH1 0x20 DUP3 ADD SWAP1 POP PUSH2 0x1DD9 PUSH0 DUP4 ADD DUP5 PUSH2 0x1DB7 JUMP JUMPDEST SWAP3 SWAP2 POP POP JUMP JUMPDEST PUSH2 0x1DE8 DUP2 PUSH2 0x1D3B JUMP JUMPDEST DUP3 MSTORE POP POP JUMP JUMPDEST PUSH0 PUSH1 0x20 DUP3 ADD SWAP1 POP PUSH2 0x1E01 PUSH0 DUP4 ADD DUP5 PUSH2 0x1DDF JUMP JUMPDEST SWAP3 SWAP2 POP POP JUMP JUMPDEST PUSH0 DUP1 PUSH0 PUSH1 0x60 DUP5 DUP7 SUB SLT ISZERO PUSH2 0x1E1E JUMPI PUSH2 0x1E1D PUSH2 0x1CD9 JUMP JUMPDEST JUMPDEST PUSH0 PUSH2 0x1E2B DUP7 DUP3 DUP8 ADD PUSH2 0x1D27 JUMP JUMPDEST SWAP4 POP POP PUSH1 0x20 PUSH2 0x1E3C DUP7 DUP3 DUP8 ADD PUSH2 0x1D27 JUMP JUMPDEST SWAP3 POP POP PUSH1 0x40 PUSH2 0x1E4D DUP7 DUP3 DUP8 ADD PUSH2 0x1D5A JUMP JUMPDEST SWAP2 POP POP SWAP3 POP SWAP3 POP SWAP3 JUMP JUMPDEST PUSH0 PUSH1 0x20 DUP3 DUP5 SUB SLT ISZERO PUSH2 0x1E6C JUMPI PUSH2 0x1E6B PUSH2 0x1CD9 JUMP JUMPDEST JUMPDEST PUSH0 PUSH2 0x1E79 DUP5 DUP3 DUP6 ADD PUSH2 0x1D27 JUMP JUMPDEST SWAP2 POP POP SWAP3 SWAP2 POP POP JUMP JUMPDEST PUSH0 PUSH1 0xFF DUP3 AND SWAP1 POP SWAP2 SWAP1 POP JUMP JUMPDEST PUSH2 0x1E97 DUP2 PUSH2 0x1E82 JUMP JUMPDEST DUP3 MSTORE POP POP JUMP JUMPDEST PUSH0 PUSH1 0x20 DUP3 ADD SWAP1 POP PUSH2 0x1EB0 PUSH0 DUP4 ADD DUP5 PUSH2 0x1E8E JUMP JUMPDEST SWAP3 SWAP2 POP POP JUMP JUMPDEST PUSH2 0x1EBF DUP2 PUSH2 0x1D3B JUMP JUMPDEST DUP3 MSTORE POP POP JUMP JUMPDEST PUSH0 DUP2 MLOAD SWAP1 POP SWAP2 SWAP1 POP JUMP JUMPDEST PUSH0 DUP3 DUP3 MSTORE PUSH1 0x20 DUP3 ADD SWAP1 POP SWAP3 SWAP2 POP POP JUMP JUMPDEST PUSH0 DUP2 SWAP1 POP PUSH1 0x20 DUP3 ADD SWAP1 POP SWAP2 SWAP1 POP JUMP JUMPDEST PUSH1 0x40 DUP3 ADD PUSH0 DUP3 ADD MLOAD PUSH2 0x1F02 PUSH0 DUP6 ADD DUP3 PUSH2 0x1EB6 JUMP JUMPDEST POP PUSH1 0x20 DUP3 ADD MLOAD PUSH2 0x1F15 PUSH1 0x20 DUP6 ADD DUP3 PUSH2 0x1EB6 JUMP JUMPDEST POP POP POP POP JUMP JUMPDEST PUSH0 PUSH2 0x1F26 DUP4 DUP4 PUSH2 0x1EEE JUMP JUMPDEST PUSH1 0x40 DUP4 ADD SWAP1 POP SWAP3 SWAP2 POP POP JUMP JUMPDEST PUSH0 PUSH1 0x20 DUP3 ADD SWAP1 POP SWAP2 SWAP1 POP JUMP JUMPDEST PUSH0 PUSH2 0x1F48 DUP3 PUSH2 0x1EC5 JUMP JUMPDEST PUSH2 0x1F52 DUP2 DUP6 PUSH2 0x1ECF JUMP JUMPDEST SWAP4 POP PUSH2 0x1F5D DUP4 PUSH2 0x1EDF JUMP JUMPDEST DUP1 PUSH0 JUMPDEST DUP4 DUP2 LT ISZERO PUSH2 0x1F8D JUMPI DUP2 MLOAD PUSH2 0x1F74 DUP9 DUP3 PUSH2 0x1F1B JUMP JUMPDEST SWAP8 POP PUSH2 0x1F7F DUP4 PUSH2 0x1F32 JUMP JUMPDEST SWAP3 POP POP PUSH1 0x1 DUP2 ADD SWAP1 POP PUSH2 0x1F60 JUMP JUMPDEST POP DUP6 SWAP4 POP POP POP POP SWAP3 SWAP2 POP POP JUMP JUMPDEST PUSH0 PUSH1 0x60 DUP4 ADD PUSH0 DUP4 ADD MLOAD PUSH2 0x1FAF PUSH0 DUP7 ADD DUP3 PUSH2 0x1EB6 JUMP JUMPDEST POP PUSH1 0x20 DUP4 ADD MLOAD PUSH2 0x1FC2 PUSH1 0x20 DUP7 ADD DUP3 PUSH2 0x1EB6 JUMP JUMPDEST POP PUSH1 0x40 DUP4 ADD MLOAD DUP5 DUP3 SUB PUSH1 0x40 DUP7 ADD MSTORE PUSH2 0x1FDA DUP3 DUP3 PUSH2 0x1F3E JUMP JUMPDEST SWAP2 POP POP DUP1 SWAP2 POP POP SWAP3 SWAP2 POP POP JUMP JUMPDEST PUSH0 PUSH1 0x20 DUP3 ADD SWAP1 POP DUP2 DUP2 SUB PUSH0 DUP4 ADD MSTORE PUSH2 0x1FFF DUP2 DUP5 PUSH2 0x1F9A JUMP JUMPDEST SWAP1 POP SWAP3 SWAP2 POP POP JUMP JUMPDEST PUSH0 DUP1 REVERT JUMPDEST PUSH0 DUP1 REVERT JUMPDEST PUSH0 DUP1 REVERT JUMPDEST PUSH0 DUP1 DUP4 PUSH1 0x1F DUP5 ADD SLT PUSH2 0x2028 JUMPI PUSH2 0x2027 PUSH2 0x2007 JUMP JUMPDEST JUMPDEST DUP3 CALLDATALOAD SWAP1 POP PUSH8 0xFFFFFFFFFFFFFFFF DUP2 GT ISZERO PUSH2 0x2045 JUMPI PUSH2 0x2044 PUSH2 0x200B JUMP JUMPDEST JUMPDEST PUSH1 0x20 DUP4 ADD SWAP2 POP DUP4 PUSH1 0x40 DUP3 MUL DUP4 ADD GT ISZERO PUSH2 0x2061 JUMPI PUSH2 0x2060 PUSH2 0x200F JUMP JUMPDEST JUMPDEST SWAP3 POP SWAP3 SWAP1 POP JUMP JUMPDEST PUSH0 DUP1 PUSH0 DUP1 PUSH1 0x60 DUP6 DUP8 SUB SLT ISZERO PUSH2 0x2080 JUMPI PUSH2 0x207F PUSH2 0x1CD9 JUMP JUMPDEST JUMPDEST PUSH0 PUSH2 0x208D DUP8 DUP3 DUP9 ADD PUSH2 0x1D5A JUMP JUMPDEST SWAP5 POP POP PUSH1 0x20 PUSH2 0x209E DUP8 DUP3 DUP9 ADD PUSH2 0x1D5A JUMP JUMPDEST SWAP4 POP POP PUSH1 0x40 DUP6 ADD CALLDATALOAD PUSH8 0xFFFFFFFFFFFFFFFF DUP2 GT ISZERO PUSH2 0x20BF JUMPI PUSH2 0x20BE PUSH2 0x1CDD JUMP JUMPDEST JUMPDEST PUSH2 0x20CB DUP8 DUP3 DUP9 ADD PUSH2 0x2013 JUMP JUMPDEST SWAP3 POP SWAP3 POP POP SWAP3 SWAP6 SWAP2 SWAP5 POP SWAP3 POP JUMP JUMPDEST PUSH0 DUP1 DUP4 PUSH1 0x1F DUP5 ADD SLT PUSH2 0x20EE JUMPI PUSH2 0x20ED PUSH2 0x2007 JUMP JUMPDEST JUMPDEST DUP3 CALLDATALOAD SWAP1 POP PUSH8 0xFFFFFFFFFFFFFFFF DUP2 GT ISZERO PUSH2 0x210B JUMPI PUSH2 0x210A PUSH2 0x200B JUMP JUMPDEST JUMPDEST PUSH1 0x20 DUP4 ADD SWAP2 POP DUP4 PUSH1 0x1 DUP3 MUL DUP4 ADD GT ISZERO PUSH2 0x2127 JUMPI PUSH2 0x2126 PUSH2 0x200F JUMP JUMPDEST JUMPDEST SWAP3 POP SWAP3 SWAP1 POP JUMP JUMPDEST PUSH0 DUP1 PUSH0 DUP1 PUSH0 DUP1 PUSH1 0x80 DUP8 DUP10 SUB SLT ISZERO PUSH2 0x2148 JUMPI PUSH2 0x2147 PUSH2 0x1CD9 JUMP JUMPDEST JUMPDEST PUSH0 DUP8 ADD CALLDATALOAD PUSH8 0xFFFFFFFFFFFFFFFF DUP2 GT ISZERO PUSH2 0x2165 JUMPI PUSH2 0x2164 PUSH2 0x1CDD JUMP JUMPDEST JUMPDEST PUSH2 0x2171 DUP10 DUP3 DUP11 ADD PUSH2 0x20D9 JUMP JUMPDEST SWAP7 POP SWAP7 POP POP PUSH1 0x20 DUP8 ADD CALLDATALOAD PUSH8 0xFFFFFFFFFFFFFFFF DUP2 GT ISZERO PUSH2 0x2194 JUMPI PUSH2 0x2193 PUSH2 0x1CDD JUMP JUMPDEST JUMPDEST PUSH2 0x21A0 DUP10 DUP3 DUP11 ADD PUSH2 0x20D9 JUMP JUMPDEST SWAP5 POP SWAP5 POP POP PUSH1 0x40 PUSH2 0x21B3 DUP10 DUP3 DUP11 ADD PUSH2 0x1D27 JUMP JUMPDEST SWAP3 POP POP PUSH1 0x60 PUSH2 0x21C4 DUP10 DUP3 DUP11 ADD PUSH2 0x1D27 JUMP JUMPDEST SWAP2 POP POP SWAP3 SWAP6 POP SWAP3 SWAP6 POP SWAP3 SWAP6 JUMP JUMPDEST PUSH0 DUP1 PUSH1 0x40 DUP4 DUP6 SUB SLT ISZERO PUSH2 0x21E7 JUMPI PUSH2 0x21E6 PUSH2 0x1CD9 JUMP JUMPDEST JUMPDEST PUSH0 PUSH2 0x21F4 DUP6 DUP3 DUP7 ADD PUSH2 0x1D27 JUMP JUMPDEST SWAP3 POP POP PUSH1 0x20 PUSH2 0x2205 DUP6 DUP3 DUP7 ADD PUSH2 0x1D27 JUMP JUMPDEST SWAP2 POP POP SWAP3 POP SWAP3 SWAP1 POP JUMP JUMPDEST PUSH32 0x4E487B7100000000000000000000000000000000000000000000000000000000 PUSH0 MSTORE PUSH1 0x22 PUSH1 0x4 MSTORE PUSH1 0x24 PUSH0 REVERT JUMPDEST PUSH0 PUSH1 0x2 DUP3 DIV SWAP1 POP PUSH1 0x1 DUP3 AND DUP1 PUSH2 0x2253 JUMPI PUSH1 0x7F DUP3 AND SWAP2 POP JUMPDEST PUSH1 0x20 DUP3 LT DUP2 SUB PUSH2 0x2266 JUMPI PUSH2 0x2265 PUSH2 0x220F JUMP JUMPDEST JUMPDEST POP SWAP2 SWAP1 POP JUMP JUMPDEST PUSH32 0x4E487B7100000000000000000000000000000000000000000000000000000000 PUSH0 MSTORE PUSH1 0x11 PUSH1 0x4 MSTORE PUSH1 0x24 PUSH0 REVERT JUMPDEST PUSH0 PUSH2 0x22A3 DUP3 PUSH2 0x1D3B JUMP JUMPDEST SWAP2 POP PUSH2 0x22AE DUP4 PUSH2 0x1D3B JUMP JUMPDEST SWAP3 POP DUP3 DUP3 SUB SWAP1 POP DUP2 DUP2 GT ISZERO PUSH2 0x22C6 JUMPI PUSH2 0x22C5 PUSH2 0x226C JUMP JUMPDEST JUMPDEST SWAP3 SWAP2 POP POP JUMP JUMPDEST PUSH0 PUSH2 0x22D6 DUP3 PUSH2 0x1D3B JUMP JUMPDEST SWAP2 POP PUSH2 0x22E1 DUP4 PUSH2 0x1D3B JUMP JUMPDEST SWAP3 POP DUP3 DUP3 ADD SWAP1 POP DUP1 DUP3 GT ISZERO PUSH2 0x22F9 JUMPI PUSH2 0x22F8 PUSH2 0x226C JUMP JUMPDEST JUMPDEST SWAP3 SWAP2 POP POP JUMP JUMPDEST PUSH32 0x4E487B7100000000000000000000000000000000000000000000000000000000 PUSH0 MSTORE PUSH1 0x32 PUSH1 0x4 MSTORE PUSH1 0x24 PUSH0 REVERT JUMPDEST PUSH0 DUP2 CALLDATALOAD PUSH2 0x2338 DUP2 PUSH2 0x1D44 JUMP JUMPDEST DUP1 SWAP2 POP POP SWAP2 SWAP1 POP JUMP JUMPDEST PUSH0 DUP2 PUSH0 SHL SWAP1 POP SWAP2 SWAP1 POP JUMP JUMPDEST PUSH0 PUSH32 0xFFFFFFFFFFFFFFFFFFFFFFFFFFFFFFFFFFFFFFFFFFFFFFFFFFFFFFFFFFFFFFFF PUSH2 0x2377 DUP5 PUSH2 0x2341 JUMP JUMPDEST SWAP4 POP DUP1 NOT DUP4 AND SWAP3 POP DUP1 DUP5 AND DUP4 OR SWAP2 POP POP SWAP3 SWAP2 POP POP JUMP JUMPDEST PUSH0 DUP2 SWAP1 POP SWAP2 SWAP1 POP JUMP JUMPDEST PUSH0 PUSH2 0x23B0 PUSH2 0x23AB PUSH2 0x23A6 DUP5 PUSH2 0x1D3B JUMP JUMPDEST PUSH2 0x238D JUMP JUMPDEST PUSH2 0x1D3B JUMP JUMPDEST SWAP1 POP SWAP2 SWAP1 POP JUMP JUMPDEST PUSH0 DUP2 SWAP1 POP SWAP2 SWAP1 POP JUMP JUMPDEST PUSH2 0x23C9 DUP3 PUSH2 0x2396 JUMP JUMPDEST PUSH2 0x23DC PUSH2 0x23D5 DUP3 PUSH2 0x23B7 JUMP JUMPDEST DUP4 SLOAD PUSH2 0x234C JUMP JUMPDEST DUP3 SSTORE POP POP POP JUMP JUMPDEST PUSH0 DUP2 ADD PUSH0 DUP4 ADD DUP1 PUSH2 0x23F3 DUP2 PUSH2 0x232C JUMP JUMPDEST SWAP1 POP PUSH2 0x23FF DUP2 DUP5 PUSH2 0x23C0 JUMP JUMPDEST POP POP POP PUSH1 0x1 DUP2 ADD PUSH1 0x20 DUP4 ADD DUP1 PUSH2 0x2414 DUP2 PUSH2 0x232C JUMP JUMPDEST SWAP1 POP PUSH2 0x2420 DUP2 DUP5 PUSH2 0x23C0 JUMP JUMPDEST POP POP POP POP POP JUMP JUMPDEST PUSH2 0x2431 DUP3 DUP3 PUSH2 0x23E3 JUMP JUMPDEST POP POP JUMP JUMPDEST PUSH0 DUP2 SWAP1 POP SWAP2 SWAP1 POP JUMP JUMPDEST PUSH0 PUSH8 0xFFFFFFFFFFFFFFFF DUP3 AND SWAP1 POP SWAP2 SWAP1 POP JUMP JUMPDEST PUSH0 PUSH2 0x246B PUSH2 0x2466 PUSH2 0x2461 DUP5 PUSH2 0x2435 JUMP JUMPDEST PUSH2 0x238D JUMP JUMPDEST PUSH2 0x243E JUMP JUMPDEST SWAP1 POP SWAP2 SWAP1 POP JUMP JUMPDEST PUSH2 0x247B DUP2 PUSH2 0x2451 JUMP JUMPDEST DUP3 MSTORE POP POP JUMP JUMPDEST PUSH0 PUSH1 0x20 DUP3 ADD SWAP1 POP PUSH2 0x2494 PUSH0 DUP4 ADD DUP5 PUSH2 0x2472 JUMP JUMPDEST SWAP3 SWAP2 POP POP JUMP JUMPDEST PUSH2 0x24A3 DUP2 PUSH2 0x1D00 JUMP JUMPDEST DUP3 MSTORE POP POP JUMP JUMPDEST PUSH0 PUSH1 0x60 DUP3 ADD SWAP1 POP PUSH2 0x24BC PUSH0 DUP4 ADD DUP7 PUSH2 0x249A JUMP JUMPDEST PUSH2 0x24C9 PUSH1 0x20 DUP4 ADD DUP6 PUSH2 0x1DDF JUMP JUMPDEST PUSH2 0x24D6 PUSH1 0x40 DUP4 ADD DUP5 PUSH2 0x1DDF JUMP JUMPDEST SWAP5 SWAP4 POP POP POP POP JUMP JUMPDEST PUSH0 PUSH1 0x20 DUP3 ADD SWAP1 POP PUSH2 0x24F1 PUSH0 DUP4 ADD DUP5 PUSH2 0x249A JUMP JUMPDEST SWAP3 SWAP2 POP POP JUMP JUMPDEST PUSH0 PUSH1 0x60 DUP3 ADD SWAP1 POP PUSH2 0x250A PUSH0 DUP4 ADD DUP7 PUSH2 0x249A JUMP JUMPDEST PUSH2 0x2517 PUSH1 0x20 DUP4 ADD DUP6 PUSH2 0x249A JUMP JUMPDEST PUSH2 0x2524 PUSH1 0x40 DUP4 ADD DUP5 PUSH2 0x1DDF JUMP JUMPDEST SWAP5 SWAP4 POP POP POP POP JUMP JUMPDEST PUSH0 PUSH1 0x40 DUP3 ADD SWAP1 POP PUSH2 0x253F PUSH0 DUP4 ADD DUP6 PUSH2 0x249A JUMP JUMPDEST PUSH2 0x254C PUSH1 0x20 DUP4 ADD DUP5 PUSH2 0x1DDF JUMP JUMPDEST SWAP4 SWAP3 POP POP POP JUMP JUMPDEST PUSH0 PUSH2 0x255D DUP3 PUSH2 0x1D3B JUMP JUMPDEST SWAP2 POP PUSH2 0x2568 DUP4 PUSH2 0x1D3B JUMP JUMPDEST SWAP3 POP DUP3 DUP3 MUL PUSH2 0x2576 DUP2 PUSH2 0x1D3B JUMP JUMPDEST SWAP2 POP DUP3 DUP3 DIV DUP5 EQ DUP4 ISZERO OR PUSH2 0x258D JUMPI PUSH2 0x258C PUSH2 0x226C JUMP JUMPDEST JUMPDEST POP SWAP3 SWAP2 POP POP JUMP JUMPDEST PUSH32 0x4E487B7100000000000000000000000000000000000000000000000000000000 PUSH0 MSTORE PUSH1 0x12 PUSH1 0x4 MSTORE PUSH1 0x24 PUSH0 REVERT JUMPDEST PUSH0 PUSH2 0x25CB DUP3 PUSH2 0x1D3B JUMP JUMPDEST SWAP2 POP PUSH2 0x25D6 DUP4 PUSH2 0x1D3B JUMP JUMPDEST SWAP3 POP DUP3 PUSH2 0x25E6 JUMPI PUSH2 0x25E5 PUSH2 0x2594 JUMP JUMPDEST JUMPDEST DUP3 DUP3 DIV SWAP1 POP SWAP3 SWAP2 POP POP JUMP JUMPDEST PUSH2 0x25FA DUP2 PUSH2 0x1DAC JUMP JUMPDEST DUP2 EQ PUSH2 0x2604 JUMPI PUSH0 DUP1 REVERT JUMPDEST POP JUMP JUMPDEST PUSH0 DUP2 MLOAD SWAP1 POP PUSH2 0x2615 DUP2 PUSH2 0x25F1 JUMP JUMPDEST SWAP3 SWAP2 POP POP JUMP JUMPDEST PUSH0 PUSH1 0x20 DUP3 DUP5 SUB SLT ISZERO PUSH2 0x2630 JUMPI PUSH2 0x262F PUSH2 0x1CD9 JUMP JUMPDEST JUMPDEST PUSH0 PUSH2 0x263D DUP5 DUP3 DUP6 ADD PUSH2 0x2607 JUMP JUMPDEST SWAP2 POP POP SWAP3 SWAP2 POP POP JUMP JUMPDEST PUSH32 0x4E487B7100000000000000000000000000000000000000000000000000000000 PUSH0 MSTORE PUSH1 0x41 PUSH1 0x4 MSTORE PUSH1 0x24 PUSH0 REVERT JUMPDEST PUSH0 DUP2 SWAP1 POP DUP2 PUSH0 MSTORE PUSH1 0x20 PUSH0 KECCAK256 SWAP1 POP SWAP2 SWAP1 POP JUMP JUMPDEST PUSH0 PUSH1 0x20 PUSH1 0x1F DUP4 ADD DIV SWAP1 POP SWAP2 SWAP1 POP JUMP JUMPDEST PUSH0 DUP3 DUP3 SHL SWAP1 POP SWAP3 SWAP2 POP POP JUMP JUMPDEST PUSH0 PUSH1 0x8 DUP4 MUL PUSH2 0x26CF PUSH32 0xFFFFFFFFFFFFFFFFFFFFFFFFFFFFFFFFFFFFFFFFFFFFFFFFFFFFFFFFFFFFFFFF DUP3 PUSH2 0x2694 JUMP JUMPDEST PUSH2 0x26D9 DUP7 DUP4 PUSH2 0x2694 JUMP JUMPDEST SWAP6 POP DUP1 NOT DUP5 AND SWAP4 POP DUP1 DUP7 AND DUP5 OR SWAP3 POP POP POP SWAP4 SWAP3 POP POP POP JUMP JUMPDEST PUSH2 0x26FA DUP4 PUSH2 0x2396 JUMP JUMPDEST PUSH2 0x270E PUSH2 0x2706 DUP3 PUSH2 0x23B7 JUMP JUMPDEST DUP5 DUP5 SLOAD PUSH2 0x26A0 JUMP JUMPDEST DUP3 SSTORE POP POP POP POP JUMP JUMPDEST PUSH0 SWAP1 JUMP JUMPDEST PUSH2 0x2722 PUSH2 0x2716 JUMP JUMPDEST PUSH2 0x272D DUP2 DUP5 DUP5 PUSH2 0x26F1 JUMP JUMPDEST POP POP POP JUMP JUMPDEST JUMPDEST DUP2 DUP2 LT ISZERO PUSH2 0x2750 JUMPI PUSH2 0x2745 PUSH0 DUP3 PUSH2 0x271A JUMP JUMPDEST PUSH1 0x1 DUP2 ADD SWAP1 POP PUSH2 0x2733 JUMP JUMPDEST POP POP JUMP JUMPDEST PUSH1 0x1F DUP3 GT ISZERO PUSH2 0x2795 JUMPI PUSH2 0x2766 DUP2 PUSH2 0x2673 JUMP JUMPDEST PUSH2 0x276F DUP5 PUSH2 0x2685 JUMP JUMPDEST DUP2 ADD PUSH1 0x20 DUP6 LT ISZERO PUSH2 0x277E JUMPI DUP2 SWAP1 POP JUMPDEST PUSH2 0x2792 PUSH2 0x278A DUP6 PUSH2 0x2685 JUMP JUMPDEST DUP4 ADD DUP3 PUSH2 0x2732 JUMP JUMPDEST POP POP JUMPDEST POP POP POP JUMP JUMPDEST PUSH0 DUP3 DUP3 SHR SWAP1 POP SWAP3 SWAP2 POP POP JUMP JUMPDEST PUSH0 PUSH2 0x27B5 PUSH0 NOT DUP5 PUSH1 0x8 MUL PUSH2 0x279A JUMP JUMPDEST NOT DUP1 DUP4 AND SWAP2 POP POP SWAP3 SWAP2 POP POP JUMP JUMPDEST PUSH0 PUSH2 0x27CD DUP4 DUP4 PUSH2 0x27A6 JUMP JUMPDEST SWAP2 POP DUP3 PUSH1 0x2 MUL DUP3 OR SWAP1 POP SWAP3 SWAP2 POP POP JUMP JUMPDEST PUSH2 0x27E6 DUP3 PUSH2 0x1C49 JUMP JUMPDEST PUSH8 0xFFFFFFFFFFFFFFFF DUP2 GT ISZERO PUSH2 0x27FF JUMPI PUSH2 0x27FE PUSH2 0x2646 JUMP JUMPDEST JUMPDEST PUSH2 0x2809 DUP3 SLOAD PUSH2 0x223C JUMP JUMPDEST PUSH2 0x2814 DUP3 DUP3 DUP6 PUSH2 0x2754 JUMP JUMPDEST PUSH0 PUSH1 0x20 SWAP1 POP PUSH1 0x1F DUP4 GT PUSH1 0x1 DUP2 EQ PUSH2 0x2845 JUMPI PUSH0 DUP5 ISZERO PUSH2 0x2833 JUMPI DUP3 DUP8 ADD MLOAD SWAP1 POP JUMPDEST PUSH2 0x283D DUP6 DUP3 PUSH2 0x27C2 JUMP JUMPDEST DUP7 SSTORE POP PUSH2 0x28A4 JUMP JUMPDEST PUSH1 0x1F NOT DUP5 AND PUSH2 0x2853 DUP7 PUSH2 0x2673 JUMP JUMPDEST PUSH0 JUMPDEST DUP3 DUP2 LT ISZERO PUSH2 0x287A JUMPI DUP5 DUP10 ADD MLOAD DUP3 SSTORE PUSH1 0x1 DUP3 ADD SWAP2 POP PUSH1 0x20 DUP6 ADD SWAP5 POP PUSH1 0x20 DUP2 ADD SWAP1 POP PUSH2 0x2855 JUMP JUMPDEST DUP7 DUP4 LT ISZERO PUSH2 0x2897 JUMPI DUP5 DUP10 ADD MLOAD PUSH2 0x2893 PUSH1 0x1F DUP10 AND DUP3 PUSH2 0x27A6 JUMP JUMPDEST DUP4 SSTORE POP JUMPDEST PUSH1 0x1 PUSH1 0x2 DUP9 MUL ADD DUP9 SSTORE POP POP POP JUMPDEST POP POP POP POP POP POP JUMP JUMPDEST PUSH0 PUSH1 0x40 DUP3 ADD SWAP1 POP PUSH2 0x28BF PUSH0 DUP4 ADD DUP6 PUSH2 0x1DDF JUMP JUMPDEST PUSH2 0x28CC PUSH1 0x20 DUP4 ADD DUP5 PUSH2 0x1DDF JUMP JUMPDEST SWAP4 SWAP3 POP POP POP JUMP JUMPDEST PUSH0 DUP2 MLOAD SWAP1 POP SWAP2 SWAP1 POP JUMP JUMPDEST PUSH0 DUP2 SWAP1 POP SWAP3 SWAP2 POP POP JUMP JUMPDEST PUSH0 PUSH2 0x28F1 DUP3 PUSH2 0x28D3 JUMP JUMPDEST PUSH2 0x28FB DUP2 DUP6 PUSH2 0x28DD JUMP JUMPDEST SWAP4 POP PUSH2 0x290B DUP2 DUP6 PUSH1 0x20 DUP7 ADD PUSH2 0x1C63 JUMP JUMPDEST DUP1 DUP5 ADD SWAP2 POP POP SWAP3 SWAP2 POP POP JUMP JUMPDEST PUSH0 PUSH2 0x2922 DUP3 DUP5 PUSH2 0x28E7 JUMP JUMPDEST SWAP2 POP DUP2 SWAP1 POP SWAP3 SWAP2 POP POP JUMP INVALID LOG2 PUSH5 0x6970667358 0x22 SLT KECCAK256 0x2C PUSH25 0x3ECE8850B56F72678B3039E0E3B3C6778D793CDCE73474D7C3 EXP PUSH5 0xA2E6B46473 PUSH16 0x6C634300081900330000000000000000 "
				},
				"gasEstimates": {
					"creation": {
						"codeDepositCost": "2119000",
						"executionCost": "infinite",
						"totalCost": "infinite"
					},
					"external": {
						"allowance(address,address)": "infinite",
						"approve(address,uint256)": "infinite",
						"availableBalanceOf(address)": "infinite",
						"balanceOf(address)": "2948",
						"claim()": "infinite",
						"decimals()": "383",
						"getVestingSchedule()": "infinite",
						"initialize(string,string,address,address)": "infinite",
						"lockedSupply()": "infinite",
						"mint(address,uint256)": "infinite",
						"name()": "infinite",
						"setVestingSchedule(uint256,uint256,(uint256,uint256)[])": "infinite",
						"symbol()": "infinite",
						"totalSupply()": "2553",
						"transfer(address,uint256)": "infinite",
						"transferFrom(address,address,uint256)": "infinite",
						"unlockedSupply()": "infinite"
					},
					"internal": {
						"_checkVestingSchedule(uint256,uint256,struct Schedule calldata[] calldata,uint256)": "infinite",
						"_computeUnlocked(uint256,uint256)": "infinite",
						"_totalUnlocked()": "infinite",
						"_unlockedOf(address)": "infinite"
					}
				},
				"methodIdentifiers": {
					"allowance(address,address)": "dd62ed3e",
					"approve(address,uint256)": "095ea7b3",
					"availableBalanceOf(address)": "25d998bb",
					"balanceOf(address)": "70a08231",
					"claim()": "4e71d92d",
					"decimals()": "313ce567",
					"getVestingSchedule()": "3a05f0d8",
					"initialize(string,string,address,address)": "8f15b414",
					"lockedSupply()": "ca5c7b91",
					"mint(address,uint256)": "40c10f19",
					"name()": "06fdde03",
					"setVestingSchedule(uint256,uint256,(uint256,uint256)[])": "43e8be32",
					"symbol()": "95d89b41",
					"totalSupply()": "18160ddd",
					"transfer(address,uint256)": "a9059cbb",
					"transferFrom(address,address,uint256)": "23b872dd",
					"unlockedSupply()": "fd3d27b8"
				}
			},
			"storageLayout": {
				"storage": [
					{
						"astId": 1119,
						"contract": "src/VestingToken.sol:VestingToken",
						"label": "_minter",
						"offset": 0,
						"slot": "0",
						"type": "t_address"
					},
					{
						"astId": 1121,
						"contract": "src/VestingToken.sol:VestingToken",
						"label": "_vestingManager",
						"offset": 0,
						"slot": "1",
						"type": "t_address"
					},
					{
						"astId": 1124,
						"contract": "src/VestingToken.sol:VestingToken",
						"label": "_baseToken",
						"offset": 0,
						"slot": "2",
						"type": "t_contract(IERC20)304"
					},
					{
						"astId": 1127,
						"contract": "src/VestingToken.sol:VestingToken",
						"label": "_vesting",
						"offset": 0,
						"slot": "3",
						"type": "t_struct(Vesting)1057_storage"
					},
					{
						"astId": 1129,
						"contract": "src/VestingToken.sol:VestingToken",
						"label": "_initialLockedSupply",
						"offset": 0,
						"slot": "6",
						"type": "t_uint256"
					},
					{
						"astId": 1140,
						"contract": "src/VestingToken.sol:VestingToken",
						"label": "_initialLocked",
						"offset": 0,
						"slot": "7",
						"type": "t_mapping(t_address,t_uint256)"
					},
					{
						"astId": 1144,
						"contract": "src/VestingToken.sol:VestingToken",
						"label": "_released",
						"offset": 0,
						"slot": "8",
						"type": "t_mapping(t_address,t_uint256)"
					}
				],
				"types": {
					"t_address": {
						"encoding": "inplace",
						"label": "address",
						"numberOfBytes": "20"
					},
					"t_array(t_struct(Schedule)1048_storage)dyn_storage": {
						"base": "t_struct(Schedule)1048_storage",
						"encoding": "dynamic_array",
						"label": "struct Schedule[]",
						"numberOfBytes": "32"
					},
					"t_contract(IERC20)304": {
						"encoding": "inplace",
						"label": "contract IERC20",
						"numberOfBytes": "20"
					},
					"t_mapping(t_address,t_uint256)": {
						"encoding": "mapping",
						"key": "t_address",
						"label": "mapping(address => uint256)",
						"numberOfBytes": "32",
						"value": "t_uint256"
					},
					"t_struct(Schedule)1048_storage": {
						"encoding": "inplace",
						"label": "struct Schedule",
						"members": [
							{
								"astId": 1045,
								"contract": "src/VestingToken.sol:VestingToken",
								"label": "endTime",
								"offset": 0,
								"slot": "0",
								"type": "t_uint256"
							},
							{
								"astId": 1047,
								"contract": "src/VestingToken.sol:VestingToken",
								"label": "portion",
								"offset": 0,
								"slot": "1",
								"type": "t_uint256"
							}
						],
						"numberOfBytes": "64"
					},
					"t_struct(Vesting)1057_storage": {
						"encoding": "inplace",
						"label": "struct Vesting",
						"members": [
							{
								"astId": 1050,
								"contract": "src/VestingToken.sol:VestingToken",
								"label": "startTime",
								"offset": 0,
								"slot": "0",
								"type": "t_uint256"
							},
							{
								"astId": 1052,
								"contract": "src/VestingToken.sol:VestingToken",
								"label": "cliff",
								"offset": 0,
								"slot": "1",
								"type": "t_uint256"
							},
							{
								"astId": 1056,
								"contract": "src/VestingToken.sol:VestingToken",
								"label": "schedule",
								"offset": 0,
								"slot": "2",
								"type": "t_array(t_struct(Schedule)1048_storage)dyn_storage"
							}
						],
						"numberOfBytes": "96"
					},
					"t_uint256": {
						"encoding": "inplace",
						"label": "uint256",
						"numberOfBytes": "32"
					}
				}
			},
			"userdoc": {
				"kind": "user",
				"methods": {
					"claim()": {
						"notice": "Сжигаем share-токен и переводим бенефициару разблокированные базовые токены"
					},
					"initialize(string,string,address,address)": {
						"notice": "Так как это прокси, нужно выполнить инициализацию"
					},
					"mint(address,uint256)": {
						"notice": "Списываем токен который будем блокировать и минтим share-токен"
					},
					"setVestingSchedule(uint256,uint256,(uint256,uint256)[])": {
						"notice": "Установка расписания также выполняется контрактом VestingManager"
					}
				},
				"notice": "Отвечает за логику блокировки/разблокировки средств",
				"version": 1
			}
		}
	}
}