{
	"ManagedVestingWallet/ManagedVestingWallet.sol.sol": {
		"ManagedVestingWallet": {
			"abi": [
				{
					"inputs": [],
					"stateMutability": "nonpayable",
					"type": "constructor"
				},
				{
					"inputs": [
						{
							"internalType": "address",
							"name": "target",
							"type": "address"
						}
					],
					"name": "AddressEmptyCode",
					"type": "error"
				},
				{
					"inputs": [
						{
							"internalType": "address",
							"name": "account",
							"type": "address"
						}
					],
					"name": "AddressInsufficientBalance",
					"type": "error"
				},
				{
					"inputs": [],
					"name": "FailedInnerCall",
					"type": "error"
				},
				{
					"inputs": [
						{
							"internalType": "address",
							"name": "token",
							"type": "address"
						}
					],
					"name": "SafeERC20FailedOperation",
					"type": "error"
				},
				{
					"anonymous": false,
					"inputs": [
						{
							"indexed": true,
							"internalType": "address",
							"name": "token",
							"type": "address"
						},
						{
							"indexed": false,
							"internalType": "uint256",
							"name": "amount",
							"type": "uint256"
						}
					],
					"name": "ERC20Released",
					"type": "event"
				},
				{
					"inputs": [],
					"name": "beneficiary",
					"outputs": [
						{
							"internalType": "address",
							"name": "",
							"type": "address"
						}
					],
					"stateMutability": "view",
					"type": "function"
				},
				{
					"inputs": [],
					"name": "duration",
					"outputs": [
						{
							"internalType": "uint256",
							"name": "",
							"type": "uint256"
						}
					],
					"stateMutability": "view",
					"type": "function"
				},
				{
					"inputs": [
						{
							"internalType": "address",
							"name": "beneficiary_",
							"type": "address"
						},
						{
							"internalType": "address",
							"name": "vestingManager_",
							"type": "address"
						}
					],
					"name": "initialize",
					"outputs": [
						{
							"internalType": "bool",
							"name": "",
							"type": "bool"
						}
					],
					"stateMutability": "nonpayable",
					"type": "function"
				},
				{
					"inputs": [
						{
							"internalType": "address",
							"name": "token",
							"type": "address"
						}
					],
					"name": "releasable",
					"outputs": [
						{
							"internalType": "uint256",
							"name": "",
							"type": "uint256"
						}
					],
					"stateMutability": "view",
					"type": "function"
				},
				{
					"inputs": [
						{
							"internalType": "address",
							"name": "token",
							"type": "address"
						}
					],
					"name": "release",
					"outputs": [],
					"stateMutability": "nonpayable",
					"type": "function"
				},
				{
					"inputs": [
						{
							"internalType": "address",
							"name": "token",
							"type": "address"
						}
					],
					"name": "released",
					"outputs": [
						{
							"internalType": "uint256",
							"name": "",
							"type": "uint256"
						}
					],
					"stateMutability": "view",
					"type": "function"
				},
				{
					"inputs": [],
					"name": "start",
					"outputs": [
						{
							"internalType": "uint256",
							"name": "",
							"type": "uint256"
						}
					],
					"stateMutability": "view",
					"type": "function"
				},
				{
					"inputs": [
						{
							"internalType": "address",
							"name": "token",
							"type": "address"
						},
						{
							"internalType": "uint64",
							"name": "timestamp",
							"type": "uint64"
						}
					],
					"name": "vestedAmount",
					"outputs": [
						{
							"internalType": "uint256",
							"name": "",
							"type": "uint256"
						}
					],
					"stateMutability": "view",
					"type": "function"
				},
				{
					"inputs": [],
					"name": "vestingManager",
					"outputs": [
						{
							"internalType": "address",
							"name": "",
							"type": "address"
						}
					],
					"stateMutability": "view",
					"type": "function"
				}
			],
			"devdoc": {
				"details": "This contract derived from @openzeppelin\\VestingWallet and handles the vesting of Eth and ERC20 tokens for a given beneficiary. Start and duration can be configured by VestingManager.",
				"errors": {
					"AddressEmptyCode(address)": [
						{
							"details": "There's no code at `target` (it is not a contract)."
						}
					],
					"AddressInsufficientBalance(address)": [
						{
							"details": "The ETH balance of the account is not enough to perform the operation."
						}
					],
					"FailedInnerCall()": [
						{
							"details": "A call to an address target failed. The target may have reverted."
						}
					],
					"SafeERC20FailedOperation(address)": [
						{
							"details": "An operation with an ERC20 token failed."
						}
					]
				},
				"kind": "dev",
				"methods": {
					"beneficiary()": {
						"details": "Getter for the beneficiary address."
					},
					"duration()": {
						"details": "Getter for the vesting duration."
					},
					"releasable(address)": {
						"details": "Getter for the amount of releasable `token` tokens. `token` should be the address of an IERC20 contract."
					},
					"release(address)": {
						"details": "Release the tokens that have already vested. Emits a {ERC20Released} event."
					},
					"released(address)": {
						"details": "Amount of token already released"
					},
					"start()": {
						"details": "Getter for the start timestamp."
					},
					"vestedAmount(address,uint64)": {
						"details": "Calculates the amount of tokens that has already vested. Default implementation is a linear vesting curve."
					}
				},
				"title": "ManagedVestingWallet",
				"version": 1
			},
			"evm": {
				"assembly": "    /* \"ManagedVestingWallet/ManagedVestingWallet.sol.sol\":366:1616  contract ManagedVestingWallet is VestingWallet {... */\n  mstore(0x40, 0xa0)\n    /* \"ManagedVestingWallet/ManagedVestingWallet.sol.sol\":657:709  constructor() {... */\n  callvalue\n  dup1\n  iszero\n  tag_1\n  jumpi\n  0x00\n  dup1\n  revert\ntag_1:\n  pop\n    /* \"ManagedVestingWallet/ManagedVestingWallet.sol.sol\":692:702  msg.sender */\n  caller\n    /* \"ManagedVestingWallet/ManagedVestingWallet.sol.sol\":681:702  _factory = msg.sender */\n  0xffffffffffffffffffffffffffffffffffffffff\n  and\n  0x80\n  dup2\n  0xffffffffffffffffffffffffffffffffffffffff\n  and\n  dup2\n  mstore\n  pop\n  pop\n    /* \"ManagedVestingWallet/ManagedVestingWallet.sol.sol\":366:1616  contract ManagedVestingWallet is VestingWallet {... */\n  mload(0x80)\n  codecopy(0x00, dataOffset(sub_0), dataSize(sub_0))\n  0x00\n  assignImmutable(\"0xa752a62a6f5fb32dd4e041dbf29a56f1f90fbf8d8356b6069d6d3304e11d2d2e\")\n  return(0x00, dataSize(sub_0))\nstop\n\nsub_0: assembly {\n        /* \"ManagedVestingWallet/ManagedVestingWallet.sol.sol\":366:1616  contract ManagedVestingWallet is VestingWallet {... */\n      mstore(0x40, 0x80)\n      callvalue\n      dup1\n      iszero\n      tag_1\n      jumpi\n      0x00\n      dup1\n      revert\n    tag_1:\n      pop\n      jumpi(tag_2, lt(calldatasize, 0x04))\n      shr(0xe0, calldataload(0x00))\n      dup1\n      0x810ec23b\n      gt\n      tag_12\n      jumpi\n      dup1\n      0x810ec23b\n      eq\n      tag_7\n      jumpi\n      dup1\n      0x9852595c\n      eq\n      tag_8\n      jumpi\n      dup1\n      0xa3f8eace\n      eq\n      tag_9\n      jumpi\n      dup1\n      0xbe9a6555\n      eq\n      tag_10\n      jumpi\n      dup1\n      0xdb27b8dd\n      eq\n      tag_11\n      jumpi\n      jump(tag_2)\n    tag_12:\n      dup1\n      0x0fb5a6b4\n      eq\n      tag_3\n      jumpi\n      dup1\n      0x19165587\n      eq\n      tag_4\n      jumpi\n      dup1\n      0x38af3eed\n      eq\n      tag_5\n      jumpi\n      dup1\n      0x485cc955\n      eq\n      tag_6\n      jumpi\n    tag_2:\n      0x00\n      dup1\n      revert\n        /* \"ManagedVestingWallet/ManagedVestingWallet.sol.sol\":849:983  function duration() public view virtual override returns (uint256) {... */\n    tag_3:\n      tag_13\n      tag_14\n      jump\t// in\n    tag_13:\n      mload(0x40)\n      tag_15\n      swap2\n      swap1\n      tag_16\n      jump\t// in\n    tag_15:\n      mload(0x40)\n      dup1\n      swap2\n      sub\n      swap1\n      return\n        /* \"ManagedVestingWallet/VestingWallet.sol\":2085:2337  function release(address token) public virtual {... */\n    tag_4:\n      tag_17\n      0x04\n      dup1\n      calldatasize\n      sub\n      dup2\n      add\n      swap1\n      tag_18\n      swap2\n      swap1\n      tag_19\n      jump\t// in\n    tag_18:\n      tag_20\n      jump\t// in\n    tag_17:\n      stop\n        /* \"ManagedVestingWallet/ManagedVestingWallet.sol.sol\":989:1095  function beneficiary() public view virtual override returns (address) {... */\n    tag_5:\n      tag_21\n      tag_22\n      jump\t// in\n    tag_21:\n      mload(0x40)\n      tag_23\n      swap2\n      swap1\n      tag_24\n      jump\t// in\n    tag_23:\n      mload(0x40)\n      dup1\n      swap2\n      sub\n      swap1\n      return\n        /* \"ManagedVestingWallet/ManagedVestingWallet.sol.sol\":1202:1614  function initialize(address beneficiary_, address vestingManager_) public onlyFactory returns (bool) {... */\n    tag_6:\n      tag_25\n      0x04\n      dup1\n      calldatasize\n      sub\n      dup2\n      add\n      swap1\n      tag_26\n      swap2\n      swap1\n      tag_27\n      jump\t// in\n    tag_26:\n      tag_28\n      jump\t// in\n    tag_25:\n      mload(0x40)\n      tag_29\n      swap2\n      swap1\n      tag_30\n      jump\t// in\n    tag_29:\n      mload(0x40)\n      dup1\n      swap2\n      sub\n      swap1\n      return\n        /* \"ManagedVestingWallet/VestingWallet.sol\":2478:2680  function vestedAmount(address token, uint64 timestamp) public view virtual returns (uint256) {... */\n    tag_7:\n      tag_31\n      0x04\n      dup1\n      calldatasize\n      sub\n      dup2\n      add\n      swap1\n      tag_32\n      swap2\n      swap1\n      tag_33\n      jump\t// in\n    tag_32:\n      tag_34\n      jump\t// in\n    tag_31:\n      mload(0x40)\n      tag_35\n      swap2\n      swap1\n      tag_16\n      jump\t// in\n    tag_35:\n      mload(0x40)\n      dup1\n      swap2\n      sub\n      swap1\n      return\n        /* \"ManagedVestingWallet/VestingWallet.sol\":1540:1656  function released(address token) public view virtual returns (uint256) {... */\n    tag_8:\n      tag_36\n      0x04\n      dup1\n      calldatasize\n      sub\n      dup2\n      add\n      swap1\n      tag_37\n      swap2\n      swap1\n      tag_19\n      jump\t// in\n    tag_37:\n      tag_38\n      jump\t// in\n    tag_36:\n      mload(0x40)\n      tag_39\n      swap2\n      swap1\n      tag_16\n      jump\t// in\n    tag_39:\n      mload(0x40)\n      dup1\n      swap2\n      sub\n      swap1\n      return\n        /* \"ManagedVestingWallet/VestingWallet.sol\":1802:1961  function releasable(address token) public view virtual returns (uint256) {... */\n    tag_9:\n      tag_40\n      0x04\n      dup1\n      calldatasize\n      sub\n      dup2\n      add\n      swap1\n      tag_41\n      swap2\n      swap1\n      tag_19\n      jump\t// in\n    tag_41:\n      tag_42\n      jump\t// in\n    tag_40:\n      mload(0x40)\n      tag_43\n      swap2\n      swap1\n      tag_16\n      jump\t// in\n    tag_43:\n      mload(0x40)\n      dup1\n      swap2\n      sub\n      swap1\n      return\n        /* \"ManagedVestingWallet/ManagedVestingWallet.sol.sol\":715:843  function start() public view virtual override returns (uint256) {... */\n    tag_10:\n      tag_44\n      tag_45\n      jump\t// in\n    tag_44:\n      mload(0x40)\n      tag_46\n      swap2\n      swap1\n      tag_16\n      jump\t// in\n    tag_46:\n      mload(0x40)\n      dup1\n      swap2\n      sub\n      swap1\n      return\n        /* \"ManagedVestingWallet/ManagedVestingWallet.sol.sol\":1101:1196  function vestingManager() public view returns (address) {... */\n    tag_11:\n      tag_47\n      tag_48\n      jump\t// in\n    tag_47:\n      mload(0x40)\n      tag_49\n      swap2\n      swap1\n      tag_24\n      jump\t// in\n    tag_49:\n      mload(0x40)\n      dup1\n      swap2\n      sub\n      swap1\n      return\n        /* \"ManagedVestingWallet/ManagedVestingWallet.sol.sol\":849:983  function duration() public view virtual override returns (uint256) {... */\n    tag_14:\n        /* \"ManagedVestingWallet/ManagedVestingWallet.sol.sol\":907:914  uint256 */\n      0x00\n        /* \"ManagedVestingWallet/ManagedVestingWallet.sol.sol\":949:964  _vestingManager */\n      0x01\n      0x00\n      swap1\n      sload\n      swap1\n      0x0100\n      exp\n      swap1\n      div\n      0xffffffffffffffffffffffffffffffffffffffff\n      and\n        /* \"ManagedVestingWallet/ManagedVestingWallet.sol.sol\":933:974  IVestingManager(_vestingManager).duration */\n      0xffffffffffffffffffffffffffffffffffffffff\n      and\n      0x0fb5a6b4\n        /* \"ManagedVestingWallet/ManagedVestingWallet.sol.sol\":933:976  IVestingManager(_vestingManager).duration() */\n      mload(0x40)\n      dup2\n      0xffffffff\n      and\n      0xe0\n      shl\n      dup2\n      mstore\n      0x04\n      add\n      0x20\n      mload(0x40)\n      dup1\n      dup4\n      sub\n      dup2\n      dup7\n      gas\n      staticcall\n      iszero\n      dup1\n      iszero\n      tag_52\n      jumpi\n      returndatasize\n      0x00\n      dup1\n      returndatacopy\n      revert(0x00, returndatasize)\n    tag_52:\n      pop\n      pop\n      pop\n      pop\n      mload(0x40)\n      returndatasize\n      not(0x1f)\n      0x1f\n      dup3\n      add\n      and\n      dup3\n      add\n      dup1\n      0x40\n      mstore\n      pop\n      dup2\n      add\n      swap1\n      tag_53\n      swap2\n      swap1\n      tag_54\n      jump\t// in\n    tag_53:\n        /* \"ManagedVestingWallet/ManagedVestingWallet.sol.sol\":926:976  return IVestingManager(_vestingManager).duration() */\n      0xffffffffffffffff\n      and\n      swap1\n      pop\n        /* \"ManagedVestingWallet/ManagedVestingWallet.sol.sol\":849:983  function duration() public view virtual override returns (uint256) {... */\n      swap1\n      jump\t// out\n        /* \"ManagedVestingWallet/VestingWallet.sol\":2085:2337  function release(address token) public virtual {... */\n    tag_20:\n        /* \"ManagedVestingWallet/VestingWallet.sol\":2142:2156  uint256 amount */\n      0x00\n        /* \"ManagedVestingWallet/VestingWallet.sol\":2159:2176  releasable(token) */\n      tag_56\n        /* \"ManagedVestingWallet/VestingWallet.sol\":2170:2175  token */\n      dup3\n        /* \"ManagedVestingWallet/VestingWallet.sol\":2159:2169  releasable */\n      tag_42\n        /* \"ManagedVestingWallet/VestingWallet.sol\":2159:2176  releasable(token) */\n      jump\t// in\n    tag_56:\n        /* \"ManagedVestingWallet/VestingWallet.sol\":2142:2176  uint256 amount = releasable(token) */\n      swap1\n      pop\n        /* \"ManagedVestingWallet/VestingWallet.sol\":2211:2217  amount */\n      dup1\n        /* \"ManagedVestingWallet/VestingWallet.sol\":2186:2200  _erc20Released */\n      0x00\n        /* \"ManagedVestingWallet/VestingWallet.sol\":2186:2207  _erc20Released[token] */\n      dup1\n        /* \"ManagedVestingWallet/VestingWallet.sol\":2201:2206  token */\n      dup5\n        /* \"ManagedVestingWallet/VestingWallet.sol\":2186:2207  _erc20Released[token] */\n      0xffffffffffffffffffffffffffffffffffffffff\n      and\n      0xffffffffffffffffffffffffffffffffffffffff\n      and\n      dup2\n      mstore\n      0x20\n      add\n      swap1\n      dup2\n      mstore\n      0x20\n      add\n      0x00\n      keccak256\n      0x00\n        /* \"ManagedVestingWallet/VestingWallet.sol\":2186:2217  _erc20Released[token] += amount */\n      dup3\n      dup3\n      sload\n      tag_57\n      swap2\n      swap1\n      tag_58\n      jump\t// in\n    tag_57:\n      swap3\n      pop\n      pop\n      dup2\n      swap1\n      sstore\n      pop\n        /* \"ManagedVestingWallet/VestingWallet.sol\":2246:2251  token */\n      dup2\n        /* \"ManagedVestingWallet/VestingWallet.sol\":2232:2260  ERC20Released(token, amount) */\n      0xffffffffffffffffffffffffffffffffffffffff\n      and\n      0xc0e523490dd523c33b1878c9eb14ff46991e3f5b2cd33710918618f2a39cba1b\n        /* \"ManagedVestingWallet/VestingWallet.sol\":2253:2259  amount */\n      dup3\n        /* \"ManagedVestingWallet/VestingWallet.sol\":2232:2260  ERC20Released(token, amount) */\n      mload(0x40)\n      tag_59\n      swap2\n      swap1\n      tag_16\n      jump\t// in\n    tag_59:\n      mload(0x40)\n      dup1\n      swap2\n      sub\n      swap1\n      log2\n        /* \"ManagedVestingWallet/VestingWallet.sol\":2270:2330  SafeERC20.safeTransfer(IERC20(token), beneficiary(), amount) */\n      tag_60\n        /* \"ManagedVestingWallet/VestingWallet.sol\":2300:2305  token */\n      dup3\n        /* \"ManagedVestingWallet/VestingWallet.sol\":2308:2321  beneficiary() */\n      tag_61\n        /* \"ManagedVestingWallet/VestingWallet.sol\":2308:2319  beneficiary */\n      tag_22\n        /* \"ManagedVestingWallet/VestingWallet.sol\":2308:2321  beneficiary() */\n      jump\t// in\n    tag_61:\n        /* \"ManagedVestingWallet/VestingWallet.sol\":2323:2329  amount */\n      dup4\n        /* \"ManagedVestingWallet/VestingWallet.sol\":2270:2292  SafeERC20.safeTransfer */\n      tag_62\n        /* \"ManagedVestingWallet/VestingWallet.sol\":2270:2330  SafeERC20.safeTransfer(IERC20(token), beneficiary(), amount) */\n      jump\t// in\n    tag_60:\n        /* \"ManagedVestingWallet/VestingWallet.sol\":2132:2337  {... */\n      pop\n        /* \"ManagedVestingWallet/VestingWallet.sol\":2085:2337  function release(address token) public virtual {... */\n      pop\n      jump\t// out\n        /* \"ManagedVestingWallet/ManagedVestingWallet.sol.sol\":989:1095  function beneficiary() public view virtual override returns (address) {... */\n    tag_22:\n        /* \"ManagedVestingWallet/ManagedVestingWallet.sol.sol\":1050:1057  address */\n      0x00\n        /* \"ManagedVestingWallet/ManagedVestingWallet.sol.sol\":1076:1088  _beneficiary */\n      0x02\n      0x00\n      swap1\n      sload\n      swap1\n      0x0100\n      exp\n      swap1\n      div\n      0xffffffffffffffffffffffffffffffffffffffff\n      and\n        /* \"ManagedVestingWallet/ManagedVestingWallet.sol.sol\":1069:1088  return _beneficiary */\n      swap1\n      pop\n        /* \"ManagedVestingWallet/ManagedVestingWallet.sol.sol\":989:1095  function beneficiary() public view virtual override returns (address) {... */\n      swap1\n      jump\t// out\n        /* \"ManagedVestingWallet/ManagedVestingWallet.sol.sol\":1202:1614  function initialize(address beneficiary_, address vestingManager_) public onlyFactory returns (bool) {... */\n    tag_28:\n        /* \"ManagedVestingWallet/ManagedVestingWallet.sol.sol\":1297:1301  bool */\n      0x00\n        /* \"ManagedVestingWallet/ManagedVestingWallet.sol.sol\":584:594  msg.sender */\n      caller\n        /* \"ManagedVestingWallet/ManagedVestingWallet.sol.sol\":572:594  _factory == msg.sender */\n      0xffffffffffffffffffffffffffffffffffffffff\n      and\n        /* \"ManagedVestingWallet/ManagedVestingWallet.sol.sol\":572:580  _factory */\n      immutable(\"0xa752a62a6f5fb32dd4e041dbf29a56f1f90fbf8d8356b6069d6d3304e11d2d2e\")\n        /* \"ManagedVestingWallet/ManagedVestingWallet.sol.sol\":572:594  _factory == msg.sender */\n      0xffffffffffffffffffffffffffffffffffffffff\n      and\n      eq\n        /* \"ManagedVestingWallet/ManagedVestingWallet.sol.sol\":564:633  require(_factory == msg.sender, \"ManagedVestingWallet: only factory\") */\n      tag_65\n      jumpi\n      mload(0x40)\n      0x08c379a000000000000000000000000000000000000000000000000000000000\n      dup2\n      mstore\n      0x04\n      add\n      tag_66\n      swap1\n      tag_67\n      jump\t// in\n    tag_66:\n      mload(0x40)\n      dup1\n      swap2\n      sub\n      swap1\n      revert\n    tag_65:\n        /* \"ManagedVestingWallet/ManagedVestingWallet.sol.sol\":1348:1349  0 */\n      0x00\n        /* \"ManagedVestingWallet/ManagedVestingWallet.sol.sol\":1321:1350  vestingManager_ != address(0) */\n      0xffffffffffffffffffffffffffffffffffffffff\n      and\n        /* \"ManagedVestingWallet/ManagedVestingWallet.sol.sol\":1321:1336  vestingManager_ */\n      dup3\n        /* \"ManagedVestingWallet/ManagedVestingWallet.sol.sol\":1321:1350  vestingManager_ != address(0) */\n      0xffffffffffffffffffffffffffffffffffffffff\n      and\n      sub\n        /* \"ManagedVestingWallet/ManagedVestingWallet.sol.sol\":1313:1408  require(vestingManager_ != address(0), \"ManagedVestingWallet: vesting manager is zero address\") */\n      tag_69\n      jumpi\n      mload(0x40)\n      0x08c379a000000000000000000000000000000000000000000000000000000000\n      dup2\n      mstore\n      0x04\n      add\n      tag_70\n      swap1\n      tag_71\n      jump\t// in\n    tag_70:\n      mload(0x40)\n      dup1\n      swap2\n      sub\n      swap1\n      revert\n    tag_69:\n        /* \"ManagedVestingWallet/ManagedVestingWallet.sol.sol\":1450:1451  0 */\n      0x00\n        /* \"ManagedVestingWallet/ManagedVestingWallet.sol.sol\":1426:1452  beneficiary_ != address(0) */\n      0xffffffffffffffffffffffffffffffffffffffff\n      and\n        /* \"ManagedVestingWallet/ManagedVestingWallet.sol.sol\":1426:1438  beneficiary_ */\n      dup4\n        /* \"ManagedVestingWallet/ManagedVestingWallet.sol.sol\":1426:1452  beneficiary_ != address(0) */\n      0xffffffffffffffffffffffffffffffffffffffff\n      and\n      sub\n        /* \"ManagedVestingWallet/ManagedVestingWallet.sol.sol\":1418:1506  require(beneficiary_ != address(0), \"ManagedVestingWallet: beneficiary is zero address\") */\n      tag_72\n      jumpi\n      mload(0x40)\n      0x08c379a000000000000000000000000000000000000000000000000000000000\n      dup2\n      mstore\n      0x04\n      add\n      tag_73\n      swap1\n      tag_74\n      jump\t// in\n    tag_73:\n      mload(0x40)\n      dup1\n      swap2\n      sub\n      swap1\n      revert\n    tag_72:\n        /* \"ManagedVestingWallet/ManagedVestingWallet.sol.sol\":1534:1549  vestingManager_ */\n      dup2\n        /* \"ManagedVestingWallet/ManagedVestingWallet.sol.sol\":1516:1531  _vestingManager */\n      0x01\n      0x00\n        /* \"ManagedVestingWallet/ManagedVestingWallet.sol.sol\":1516:1549  _vestingManager = vestingManager_ */\n      0x0100\n      exp\n      dup2\n      sload\n      dup2\n      0xffffffffffffffffffffffffffffffffffffffff\n      mul\n      not\n      and\n      swap1\n      dup4\n      0xffffffffffffffffffffffffffffffffffffffff\n      and\n      mul\n      or\n      swap1\n      sstore\n      pop\n        /* \"ManagedVestingWallet/ManagedVestingWallet.sol.sol\":1574:1586  beneficiary_ */\n      dup3\n        /* \"ManagedVestingWallet/ManagedVestingWallet.sol.sol\":1559:1571  _beneficiary */\n      0x02\n      0x00\n        /* \"ManagedVestingWallet/ManagedVestingWallet.sol.sol\":1559:1586  _beneficiary = beneficiary_ */\n      0x0100\n      exp\n      dup2\n      sload\n      dup2\n      0xffffffffffffffffffffffffffffffffffffffff\n      mul\n      not\n      and\n      swap1\n      dup4\n      0xffffffffffffffffffffffffffffffffffffffff\n      and\n      mul\n      or\n      swap1\n      sstore\n      pop\n        /* \"ManagedVestingWallet/ManagedVestingWallet.sol.sol\":1603:1607  true */\n      0x01\n        /* \"ManagedVestingWallet/ManagedVestingWallet.sol.sol\":1596:1607  return true */\n      swap1\n      pop\n        /* \"ManagedVestingWallet/ManagedVestingWallet.sol.sol\":1202:1614  function initialize(address beneficiary_, address vestingManager_) public onlyFactory returns (bool) {... */\n      swap3\n      swap2\n      pop\n      pop\n      jump\t// out\n        /* \"ManagedVestingWallet/VestingWallet.sol\":2478:2680  function vestedAmount(address token, uint64 timestamp) public view virtual returns (uint256) {... */\n    tag_34:\n        /* \"ManagedVestingWallet/VestingWallet.sol\":2562:2569  uint256 */\n      0x00\n        /* \"ManagedVestingWallet/VestingWallet.sol\":2588:2673  _vestingSchedule(IERC20(token).balanceOf(address(this)) + released(token), timestamp) */\n      tag_76\n        /* \"ManagedVestingWallet/VestingWallet.sol\":2646:2661  released(token) */\n      tag_77\n        /* \"ManagedVestingWallet/VestingWallet.sol\":2655:2660  token */\n      dup5\n        /* \"ManagedVestingWallet/VestingWallet.sol\":2646:2654  released */\n      tag_38\n        /* \"ManagedVestingWallet/VestingWallet.sol\":2646:2661  released(token) */\n      jump\t// in\n    tag_77:\n        /* \"ManagedVestingWallet/VestingWallet.sol\":2612:2617  token */\n      dup5\n        /* \"ManagedVestingWallet/VestingWallet.sol\":2605:2628  IERC20(token).balanceOf */\n      0xffffffffffffffffffffffffffffffffffffffff\n      and\n      0x70a08231\n        /* \"ManagedVestingWallet/VestingWallet.sol\":2637:2641  this */\n      address\n        /* \"ManagedVestingWallet/VestingWallet.sol\":2605:2643  IERC20(token).balanceOf(address(this)) */\n      mload(0x40)\n      dup3\n      0xffffffff\n      and\n      0xe0\n      shl\n      dup2\n      mstore\n      0x04\n      add\n      tag_78\n      swap2\n      swap1\n      tag_24\n      jump\t// in\n    tag_78:\n      0x20\n      mload(0x40)\n      dup1\n      dup4\n      sub\n      dup2\n      dup7\n      gas\n      staticcall\n      iszero\n      dup1\n      iszero\n      tag_80\n      jumpi\n      returndatasize\n      0x00\n      dup1\n      returndatacopy\n      revert(0x00, returndatasize)\n    tag_80:\n      pop\n      pop\n      pop\n      pop\n      mload(0x40)\n      returndatasize\n      not(0x1f)\n      0x1f\n      dup3\n      add\n      and\n      dup3\n      add\n      dup1\n      0x40\n      mstore\n      pop\n      dup2\n      add\n      swap1\n      tag_81\n      swap2\n      swap1\n      tag_82\n      jump\t// in\n    tag_81:\n        /* \"ManagedVestingWallet/VestingWallet.sol\":2605:2661  IERC20(token).balanceOf(address(this)) + released(token) */\n      tag_83\n      swap2\n      swap1\n      tag_58\n      jump\t// in\n    tag_83:\n        /* \"ManagedVestingWallet/VestingWallet.sol\":2663:2672  timestamp */\n      dup4\n        /* \"ManagedVestingWallet/VestingWallet.sol\":2588:2604  _vestingSchedule */\n      tag_84\n        /* \"ManagedVestingWallet/VestingWallet.sol\":2588:2673  _vestingSchedule(IERC20(token).balanceOf(address(this)) + released(token), timestamp) */\n      jump\t// in\n    tag_76:\n        /* \"ManagedVestingWallet/VestingWallet.sol\":2581:2673  return _vestingSchedule(IERC20(token).balanceOf(address(this)) + released(token), timestamp) */\n      swap1\n      pop\n        /* \"ManagedVestingWallet/VestingWallet.sol\":2478:2680  function vestedAmount(address token, uint64 timestamp) public view virtual returns (uint256) {... */\n      swap3\n      swap2\n      pop\n      pop\n      jump\t// out\n        /* \"ManagedVestingWallet/VestingWallet.sol\":1540:1656  function released(address token) public view virtual returns (uint256) {... */\n    tag_38:\n        /* \"ManagedVestingWallet/VestingWallet.sol\":1602:1609  uint256 */\n      0x00\n        /* \"ManagedVestingWallet/VestingWallet.sol\":1628:1642  _erc20Released */\n      dup1\n        /* \"ManagedVestingWallet/VestingWallet.sol\":1628:1649  _erc20Released[token] */\n      0x00\n        /* \"ManagedVestingWallet/VestingWallet.sol\":1643:1648  token */\n      dup4\n        /* \"ManagedVestingWallet/VestingWallet.sol\":1628:1649  _erc20Released[token] */\n      0xffffffffffffffffffffffffffffffffffffffff\n      and\n      0xffffffffffffffffffffffffffffffffffffffff\n      and\n      dup2\n      mstore\n      0x20\n      add\n      swap1\n      dup2\n      mstore\n      0x20\n      add\n      0x00\n      keccak256\n      sload\n        /* \"ManagedVestingWallet/VestingWallet.sol\":1621:1649  return _erc20Released[token] */\n      swap1\n      pop\n        /* \"ManagedVestingWallet/VestingWallet.sol\":1540:1656  function released(address token) public view virtual returns (uint256) {... */\n      swap2\n      swap1\n      pop\n      jump\t// out\n        /* \"ManagedVestingWallet/VestingWallet.sol\":1802:1961  function releasable(address token) public view virtual returns (uint256) {... */\n    tag_42:\n        /* \"ManagedVestingWallet/VestingWallet.sol\":1866:1873  uint256 */\n      0x00\n        /* \"ManagedVestingWallet/VestingWallet.sol\":1939:1954  released(token) */\n      tag_87\n        /* \"ManagedVestingWallet/VestingWallet.sol\":1948:1953  token */\n      dup3\n        /* \"ManagedVestingWallet/VestingWallet.sol\":1939:1947  released */\n      tag_38\n        /* \"ManagedVestingWallet/VestingWallet.sol\":1939:1954  released(token) */\n      jump\t// in\n    tag_87:\n        /* \"ManagedVestingWallet/VestingWallet.sol\":1892:1936  vestedAmount(token, uint64(block.timestamp)) */\n      tag_88\n        /* \"ManagedVestingWallet/VestingWallet.sol\":1905:1910  token */\n      dup4\n        /* \"ManagedVestingWallet/VestingWallet.sol\":1919:1934  block.timestamp */\n      timestamp\n        /* \"ManagedVestingWallet/VestingWallet.sol\":1892:1904  vestedAmount */\n      tag_34\n        /* \"ManagedVestingWallet/VestingWallet.sol\":1892:1936  vestedAmount(token, uint64(block.timestamp)) */\n      jump\t// in\n    tag_88:\n        /* \"ManagedVestingWallet/VestingWallet.sol\":1892:1954  vestedAmount(token, uint64(block.timestamp)) - released(token) */\n      tag_89\n      swap2\n      swap1\n      tag_90\n      jump\t// in\n    tag_89:\n        /* \"ManagedVestingWallet/VestingWallet.sol\":1885:1954  return vestedAmount(token, uint64(block.timestamp)) - released(token) */\n      swap1\n      pop\n        /* \"ManagedVestingWallet/VestingWallet.sol\":1802:1961  function releasable(address token) public view virtual returns (uint256) {... */\n      swap2\n      swap1\n      pop\n      jump\t// out\n        /* \"ManagedVestingWallet/ManagedVestingWallet.sol.sol\":715:843  function start() public view virtual override returns (uint256) {... */\n    tag_45:\n        /* \"ManagedVestingWallet/ManagedVestingWallet.sol.sol\":770:777  uint256 */\n      0x00\n        /* \"ManagedVestingWallet/ManagedVestingWallet.sol.sol\":812:827  _vestingManager */\n      0x01\n      0x00\n      swap1\n      sload\n      swap1\n      0x0100\n      exp\n      swap1\n      div\n      0xffffffffffffffffffffffffffffffffffffffff\n      and\n        /* \"ManagedVestingWallet/ManagedVestingWallet.sol.sol\":796:834  IVestingManager(_vestingManager).start */\n      0xffffffffffffffffffffffffffffffffffffffff\n      and\n      0xbe9a6555\n        /* \"ManagedVestingWallet/ManagedVestingWallet.sol.sol\":796:836  IVestingManager(_vestingManager).start() */\n      mload(0x40)\n      dup2\n      0xffffffff\n      and\n      0xe0\n      shl\n      dup2\n      mstore\n      0x04\n      add\n      0x20\n      mload(0x40)\n      dup1\n      dup4\n      sub\n      dup2\n      dup7\n      gas\n      staticcall\n      iszero\n      dup1\n      iszero\n      tag_93\n      jumpi\n      returndatasize\n      0x00\n      dup1\n      returndatacopy\n      revert(0x00, returndatasize)\n    tag_93:\n      pop\n      pop\n      pop\n      pop\n      mload(0x40)\n      returndatasize\n      not(0x1f)\n      0x1f\n      dup3\n      add\n      and\n      dup3\n      add\n      dup1\n      0x40\n      mstore\n      pop\n      dup2\n      add\n      swap1\n      tag_94\n      swap2\n      swap1\n      tag_54\n      jump\t// in\n    tag_94:\n        /* \"ManagedVestingWallet/ManagedVestingWallet.sol.sol\":789:836  return IVestingManager(_vestingManager).start() */\n      0xffffffffffffffff\n      and\n      swap1\n      pop\n        /* \"ManagedVestingWallet/ManagedVestingWallet.sol.sol\":715:843  function start() public view virtual override returns (uint256) {... */\n      swap1\n      jump\t// out\n        /* \"ManagedVestingWallet/ManagedVestingWallet.sol.sol\":1101:1196  function vestingManager() public view returns (address) {... */\n    tag_48:\n        /* \"ManagedVestingWallet/ManagedVestingWallet.sol.sol\":1148:1155  address */\n      0x00\n        /* \"ManagedVestingWallet/ManagedVestingWallet.sol.sol\":1174:1189  _vestingManager */\n      0x01\n      0x00\n      swap1\n      sload\n      swap1\n      0x0100\n      exp\n      swap1\n      div\n      0xffffffffffffffffffffffffffffffffffffffff\n      and\n        /* \"ManagedVestingWallet/ManagedVestingWallet.sol.sol\":1167:1189  return _vestingManager */\n      swap1\n      pop\n        /* \"ManagedVestingWallet/ManagedVestingWallet.sol.sol\":1101:1196  function vestingManager() public view returns (address) {... */\n      swap1\n      jump\t// out\n        /* \"@openzeppelin/contracts/token/ERC20/utils/SafeERC20.sol\":1303:1463  function safeTransfer(IERC20 token, address to, uint256 value) internal {... */\n    tag_62:\n        /* \"@openzeppelin/contracts/token/ERC20/utils/SafeERC20.sol\":1385:1456  _callOptionalReturn(token, abi.encodeCall(token.transfer, (to, value))) */\n      tag_97\n        /* \"@openzeppelin/contracts/token/ERC20/utils/SafeERC20.sol\":1405:1410  token */\n      dup4\n        /* \"@openzeppelin/contracts/token/ERC20/utils/SafeERC20.sol\":1427:1432  token */\n      dup5\n        /* \"@openzeppelin/contracts/token/ERC20/utils/SafeERC20.sol\":1427:1441  token.transfer */\n      0xffffffffffffffffffffffffffffffffffffffff\n      and\n      0xa9059cbb\n        /* \"@openzeppelin/contracts/token/ERC20/utils/SafeERC20.sol\":1444:1446  to */\n      dup6\n        /* \"@openzeppelin/contracts/token/ERC20/utils/SafeERC20.sol\":1448:1453  value */\n      dup6\n        /* \"@openzeppelin/contracts/token/ERC20/utils/SafeERC20.sol\":1412:1455  abi.encodeCall(token.transfer, (to, value)) */\n      add(0x24, mload(0x40))\n      tag_98\n      swap3\n      swap2\n      swap1\n      tag_99\n      jump\t// in\n    tag_98:\n      mload(0x40)\n      0x20\n      dup2\n      dup4\n      sub\n      sub\n      dup2\n      mstore\n      swap1\n      0x40\n      mstore\n      swap2\n      pop\n      0xe0\n      shl\n      0x20\n      dup3\n      add\n      dup1\n      mload\n      0xffffffffffffffffffffffffffffffffffffffffffffffffffffffff\n      dup4\n      dup2\n      dup4\n      and\n      or\n      dup4\n      mstore\n      pop\n      pop\n      pop\n      pop\n        /* \"@openzeppelin/contracts/token/ERC20/utils/SafeERC20.sol\":1385:1404  _callOptionalReturn */\n      tag_100\n        /* \"@openzeppelin/contracts/token/ERC20/utils/SafeERC20.sol\":1385:1456  _callOptionalReturn(token, abi.encodeCall(token.transfer, (to, value))) */\n      jump\t// in\n    tag_97:\n        /* \"@openzeppelin/contracts/token/ERC20/utils/SafeERC20.sol\":1303:1463  function safeTransfer(IERC20 token, address to, uint256 value) internal {... */\n      pop\n      pop\n      pop\n      jump\t// out\n        /* \"ManagedVestingWallet/VestingWallet.sol\":2875:3241  function _vestingSchedule(uint256 totalAllocation, uint64 timestamp) internal view virtual returns (uint256) {... */\n    tag_84:\n        /* \"ManagedVestingWallet/VestingWallet.sol\":2975:2982  uint256 */\n      0x00\n        /* \"ManagedVestingWallet/VestingWallet.sol\":3010:3017  start() */\n      tag_102\n        /* \"ManagedVestingWallet/VestingWallet.sol\":3010:3015  start */\n      tag_45\n        /* \"ManagedVestingWallet/VestingWallet.sol\":3010:3017  start() */\n      jump\t// in\n    tag_102:\n        /* \"ManagedVestingWallet/VestingWallet.sol\":2998:3007  timestamp */\n      dup3\n        /* \"ManagedVestingWallet/VestingWallet.sol\":2998:3017  timestamp < start() */\n      0xffffffffffffffff\n      and\n      lt\n        /* \"ManagedVestingWallet/VestingWallet.sol\":2994:3235  if (timestamp < start()) {... */\n      iszero\n      tag_103\n      jumpi\n        /* \"ManagedVestingWallet/VestingWallet.sol\":3040:3041  0 */\n      0x00\n        /* \"ManagedVestingWallet/VestingWallet.sol\":3033:3041  return 0 */\n      swap1\n      pop\n      jump(tag_101)\n        /* \"ManagedVestingWallet/VestingWallet.sol\":2994:3235  if (timestamp < start()) {... */\n    tag_103:\n        /* \"ManagedVestingWallet/VestingWallet.sol\":3084:3094  duration() */\n      tag_105\n        /* \"ManagedVestingWallet/VestingWallet.sol\":3084:3092  duration */\n      tag_14\n        /* \"ManagedVestingWallet/VestingWallet.sol\":3084:3094  duration() */\n      jump\t// in\n    tag_105:\n        /* \"ManagedVestingWallet/VestingWallet.sol\":3074:3081  start() */\n      tag_106\n        /* \"ManagedVestingWallet/VestingWallet.sol\":3074:3079  start */\n      tag_45\n        /* \"ManagedVestingWallet/VestingWallet.sol\":3074:3081  start() */\n      jump\t// in\n    tag_106:\n        /* \"ManagedVestingWallet/VestingWallet.sol\":3074:3094  start() + duration() */\n      tag_107\n      swap2\n      swap1\n      tag_58\n      jump\t// in\n    tag_107:\n        /* \"ManagedVestingWallet/VestingWallet.sol\":3062:3071  timestamp */\n      dup3\n        /* \"ManagedVestingWallet/VestingWallet.sol\":3062:3094  timestamp > start() + duration() */\n      0xffffffffffffffff\n      and\n      gt\n        /* \"ManagedVestingWallet/VestingWallet.sol\":3058:3235  if (timestamp > start() + duration()) {... */\n      iszero\n      tag_108\n      jumpi\n        /* \"ManagedVestingWallet/VestingWallet.sol\":3117:3132  totalAllocation */\n      dup3\n        /* \"ManagedVestingWallet/VestingWallet.sol\":3110:3132  return totalAllocation */\n      swap1\n      pop\n      jump(tag_101)\n        /* \"ManagedVestingWallet/VestingWallet.sol\":3058:3235  if (timestamp > start() + duration()) {... */\n    tag_108:\n        /* \"ManagedVestingWallet/VestingWallet.sol\":3214:3224  duration() */\n      tag_110\n        /* \"ManagedVestingWallet/VestingWallet.sol\":3214:3222  duration */\n      tag_14\n        /* \"ManagedVestingWallet/VestingWallet.sol\":3214:3224  duration() */\n      jump\t// in\n    tag_110:\n        /* \"ManagedVestingWallet/VestingWallet.sol\":3202:3209  start() */\n      tag_111\n        /* \"ManagedVestingWallet/VestingWallet.sol\":3202:3207  start */\n      tag_45\n        /* \"ManagedVestingWallet/VestingWallet.sol\":3202:3209  start() */\n      jump\t// in\n    tag_111:\n        /* \"ManagedVestingWallet/VestingWallet.sol\":3190:3199  timestamp */\n      dup4\n        /* \"ManagedVestingWallet/VestingWallet.sol\":3190:3209  timestamp - start() */\n      0xffffffffffffffff\n      and\n      tag_112\n      swap2\n      swap1\n      tag_90\n      jump\t// in\n    tag_112:\n        /* \"ManagedVestingWallet/VestingWallet.sol\":3171:3186  totalAllocation */\n      dup5\n        /* \"ManagedVestingWallet/VestingWallet.sol\":3171:3210  totalAllocation * (timestamp - start()) */\n      tag_113\n      swap2\n      swap1\n      tag_114\n      jump\t// in\n    tag_113:\n        /* \"ManagedVestingWallet/VestingWallet.sol\":3170:3224  (totalAllocation * (timestamp - start())) / duration() */\n      tag_115\n      swap2\n      swap1\n      tag_116\n      jump\t// in\n    tag_115:\n        /* \"ManagedVestingWallet/VestingWallet.sol\":3163:3224  return (totalAllocation * (timestamp - start())) / duration() */\n      swap1\n      pop\n        /* \"ManagedVestingWallet/VestingWallet.sol\":2875:3241  function _vestingSchedule(uint256 totalAllocation, uint64 timestamp) internal view virtual returns (uint256) {... */\n    tag_101:\n      swap3\n      swap2\n      pop\n      pop\n      jump\t// out\n        /* \"@openzeppelin/contracts/token/ERC20/utils/SafeERC20.sol\":4059:4688  function _callOptionalReturn(IERC20 token, bytes memory data) private {... */\n    tag_100:\n        /* \"@openzeppelin/contracts/token/ERC20/utils/SafeERC20.sol\":4478:4501  bytes memory returndata */\n      0x00\n        /* \"@openzeppelin/contracts/token/ERC20/utils/SafeERC20.sol\":4504:4537  address(token).functionCall(data) */\n      tag_118\n        /* \"@openzeppelin/contracts/token/ERC20/utils/SafeERC20.sol\":4532:4536  data */\n      dup3\n        /* \"@openzeppelin/contracts/token/ERC20/utils/SafeERC20.sol\":4512:4517  token */\n      dup5\n        /* \"@openzeppelin/contracts/token/ERC20/utils/SafeERC20.sol\":4504:4531  address(token).functionCall */\n      0xffffffffffffffffffffffffffffffffffffffff\n      and\n      tag_119\n      swap1\n        /* \"@openzeppelin/contracts/token/ERC20/utils/SafeERC20.sol\":4504:4537  address(token).functionCall(data) */\n      swap2\n      swap1\n      0xffffffff\n      and\n      jump\t// in\n    tag_118:\n        /* \"@openzeppelin/contracts/token/ERC20/utils/SafeERC20.sol\":4478:4537  bytes memory returndata = address(token).functionCall(data) */\n      swap1\n      pop\n        /* \"@openzeppelin/contracts/token/ERC20/utils/SafeERC20.sol\":4572:4573  0 */\n      0x00\n        /* \"@openzeppelin/contracts/token/ERC20/utils/SafeERC20.sol\":4551:4561  returndata */\n      dup2\n        /* \"@openzeppelin/contracts/token/ERC20/utils/SafeERC20.sol\":4551:4568  returndata.length */\n      mload\n        /* \"@openzeppelin/contracts/token/ERC20/utils/SafeERC20.sol\":4551:4573  returndata.length != 0 */\n      eq\n      iszero\n        /* \"@openzeppelin/contracts/token/ERC20/utils/SafeERC20.sol\":4551:4608  returndata.length != 0 && !abi.decode(returndata, (bool)) */\n      dup1\n      iszero\n      tag_120\n      jumpi\n      pop\n        /* \"@openzeppelin/contracts/token/ERC20/utils/SafeERC20.sol\":4589:4599  returndata */\n      dup1\n        /* \"@openzeppelin/contracts/token/ERC20/utils/SafeERC20.sol\":4578:4608  abi.decode(returndata, (bool)) */\n      dup1\n      0x20\n      add\n      swap1\n      mload\n      dup2\n      add\n      swap1\n      tag_121\n      swap2\n      swap1\n      tag_122\n      jump\t// in\n    tag_121:\n        /* \"@openzeppelin/contracts/token/ERC20/utils/SafeERC20.sol\":4577:4608  !abi.decode(returndata, (bool)) */\n      iszero\n        /* \"@openzeppelin/contracts/token/ERC20/utils/SafeERC20.sol\":4551:4608  returndata.length != 0 && !abi.decode(returndata, (bool)) */\n    tag_120:\n        /* \"@openzeppelin/contracts/token/ERC20/utils/SafeERC20.sol\":4547:4682  if (returndata.length != 0 && !abi.decode(returndata, (bool))) {... */\n      iszero\n      tag_123\n      jumpi\n        /* \"@openzeppelin/contracts/token/ERC20/utils/SafeERC20.sol\":4664:4669  token */\n      dup3\n        /* \"@openzeppelin/contracts/token/ERC20/utils/SafeERC20.sol\":4631:4671  SafeERC20FailedOperation(address(token)) */\n      mload(0x40)\n      0x5274afe700000000000000000000000000000000000000000000000000000000\n      dup2\n      mstore\n      0x04\n      add\n      tag_124\n      swap2\n      swap1\n      tag_24\n      jump\t// in\n    tag_124:\n      mload(0x40)\n      dup1\n      swap2\n      sub\n      swap1\n      revert\n        /* \"@openzeppelin/contracts/token/ERC20/utils/SafeERC20.sol\":4547:4682  if (returndata.length != 0 && !abi.decode(returndata, (bool))) {... */\n    tag_123:\n        /* \"@openzeppelin/contracts/token/ERC20/utils/SafeERC20.sol\":4129:4688  {... */\n      pop\n        /* \"@openzeppelin/contracts/token/ERC20/utils/SafeERC20.sol\":4059:4688  function _callOptionalReturn(IERC20 token, bytes memory data) private {... */\n      pop\n      pop\n      jump\t// out\n        /* \"@openzeppelin/contracts/utils/Address.sol\":2705:2856  function functionCall(address target, bytes memory data) internal returns (bytes memory) {... */\n    tag_119:\n        /* \"@openzeppelin/contracts/utils/Address.sol\":2780:2792  bytes memory */\n      0x60\n        /* \"@openzeppelin/contracts/utils/Address.sol\":2811:2849  functionCallWithValue(target, data, 0) */\n      tag_126\n        /* \"@openzeppelin/contracts/utils/Address.sol\":2833:2839  target */\n      dup4\n        /* \"@openzeppelin/contracts/utils/Address.sol\":2841:2845  data */\n      dup4\n        /* \"@openzeppelin/contracts/utils/Address.sol\":2847:2848  0 */\n      0x00\n        /* \"@openzeppelin/contracts/utils/Address.sol\":2811:2832  functionCallWithValue */\n      tag_127\n        /* \"@openzeppelin/contracts/utils/Address.sol\":2811:2849  functionCallWithValue(target, data, 0) */\n      jump\t// in\n    tag_126:\n        /* \"@openzeppelin/contracts/utils/Address.sol\":2804:2849  return functionCallWithValue(target, data, 0) */\n      swap1\n      pop\n        /* \"@openzeppelin/contracts/utils/Address.sol\":2705:2856  function functionCall(address target, bytes memory data) internal returns (bytes memory) {... */\n      swap3\n      swap2\n      pop\n      pop\n      jump\t// out\n        /* \"@openzeppelin/contracts/utils/Address.sol\":3180:3572  function functionCallWithValue(address target, bytes memory data, uint256 value) internal returns (bytes memory) {... */\n    tag_127:\n        /* \"@openzeppelin/contracts/utils/Address.sol\":3279:3291  bytes memory */\n      0x60\n        /* \"@openzeppelin/contracts/utils/Address.sol\":3331:3336  value */\n      dup2\n        /* \"@openzeppelin/contracts/utils/Address.sol\":3307:3328  address(this).balance */\n      selfbalance\n        /* \"@openzeppelin/contracts/utils/Address.sol\":3307:3336  address(this).balance < value */\n      lt\n        /* \"@openzeppelin/contracts/utils/Address.sol\":3303:3411  if (address(this).balance < value) {... */\n      iszero\n      tag_129\n      jumpi\n        /* \"@openzeppelin/contracts/utils/Address.sol\":3394:3398  this */\n      address\n        /* \"@openzeppelin/contracts/utils/Address.sol\":3359:3400  AddressInsufficientBalance(address(this)) */\n      mload(0x40)\n      0xcd78605900000000000000000000000000000000000000000000000000000000\n      dup2\n      mstore\n      0x04\n      add\n      tag_130\n      swap2\n      swap1\n      tag_24\n      jump\t// in\n    tag_130:\n      mload(0x40)\n      dup1\n      swap2\n      sub\n      swap1\n      revert\n        /* \"@openzeppelin/contracts/utils/Address.sol\":3303:3411  if (address(this).balance < value) {... */\n    tag_129:\n        /* \"@openzeppelin/contracts/utils/Address.sol\":3421:3433  bool success */\n      0x00\n        /* \"@openzeppelin/contracts/utils/Address.sol\":3435:3458  bytes memory returndata */\n      dup1\n        /* \"@openzeppelin/contracts/utils/Address.sol\":3462:3468  target */\n      dup6\n        /* \"@openzeppelin/contracts/utils/Address.sol\":3462:3473  target.call */\n      0xffffffffffffffffffffffffffffffffffffffff\n      and\n        /* \"@openzeppelin/contracts/utils/Address.sol\":3481:3486  value */\n      dup5\n        /* \"@openzeppelin/contracts/utils/Address.sol\":3488:3492  data */\n      dup7\n        /* \"@openzeppelin/contracts/utils/Address.sol\":3462:3493  target.call{value: value}(data) */\n      mload(0x40)\n      tag_131\n      swap2\n      swap1\n      tag_132\n      jump\t// in\n    tag_131:\n      0x00\n      mload(0x40)\n      dup1\n      dup4\n      sub\n      dup2\n      dup6\n      dup8\n      gas\n      call\n      swap3\n      pop\n      pop\n      pop\n      returndatasize\n      dup1\n      0x00\n      dup2\n      eq\n      tag_135\n      jumpi\n      mload(0x40)\n      swap2\n      pop\n      and(add(returndatasize, 0x3f), not(0x1f))\n      dup3\n      add\n      0x40\n      mstore\n      returndatasize\n      dup3\n      mstore\n      returndatasize\n      0x00\n      0x20\n      dup5\n      add\n      returndatacopy\n      jump(tag_134)\n    tag_135:\n      0x60\n      swap2\n      pop\n    tag_134:\n      pop\n        /* \"@openzeppelin/contracts/utils/Address.sol\":3420:3493  (bool success, bytes memory returndata) = target.call{value: value}(data) */\n      swap2\n      pop\n      swap2\n      pop\n        /* \"@openzeppelin/contracts/utils/Address.sol\":3510:3565  verifyCallResultFromTarget(target, success, returndata) */\n      tag_136\n        /* \"@openzeppelin/contracts/utils/Address.sol\":3537:3543  target */\n      dup7\n        /* \"@openzeppelin/contracts/utils/Address.sol\":3545:3552  success */\n      dup4\n        /* \"@openzeppelin/contracts/utils/Address.sol\":3554:3564  returndata */\n      dup4\n        /* \"@openzeppelin/contracts/utils/Address.sol\":3510:3536  verifyCallResultFromTarget */\n      tag_137\n        /* \"@openzeppelin/contracts/utils/Address.sol\":3510:3565  verifyCallResultFromTarget(target, success, returndata) */\n      jump\t// in\n    tag_136:\n        /* \"@openzeppelin/contracts/utils/Address.sol\":3503:3565  return verifyCallResultFromTarget(target, success, returndata) */\n      swap3\n      pop\n      pop\n      pop\n        /* \"@openzeppelin/contracts/utils/Address.sol\":3180:3572  function functionCallWithValue(address target, bytes memory data, uint256 value) internal returns (bytes memory) {... */\n      swap4\n      swap3\n      pop\n      pop\n      pop\n      jump\t// out\n        /* \"@openzeppelin/contracts/utils/Address.sol\":4625:5207  function verifyCallResultFromTarget(... */\n    tag_137:\n        /* \"@openzeppelin/contracts/utils/Address.sol\":4769:4781  bytes memory */\n      0x60\n        /* \"@openzeppelin/contracts/utils/Address.sol\":4798:4805  success */\n      dup3\n        /* \"@openzeppelin/contracts/utils/Address.sol\":4793:5201  if (!success) {... */\n      tag_139\n      jumpi\n        /* \"@openzeppelin/contracts/utils/Address.sol\":4821:4840  _revert(returndata) */\n      tag_140\n        /* \"@openzeppelin/contracts/utils/Address.sol\":4829:4839  returndata */\n      dup3\n        /* \"@openzeppelin/contracts/utils/Address.sol\":4821:4828  _revert */\n      tag_141\n        /* \"@openzeppelin/contracts/utils/Address.sol\":4821:4840  _revert(returndata) */\n      jump\t// in\n    tag_140:\n        /* \"@openzeppelin/contracts/utils/Address.sol\":4793:5201  if (!success) {... */\n      jump(tag_142)\n    tag_139:\n        /* \"@openzeppelin/contracts/utils/Address.sol\":5066:5067  0 */\n      0x00\n        /* \"@openzeppelin/contracts/utils/Address.sol\":5045:5055  returndata */\n      dup3\n        /* \"@openzeppelin/contracts/utils/Address.sol\":5045:5062  returndata.length */\n      mload\n        /* \"@openzeppelin/contracts/utils/Address.sol\":5045:5067  returndata.length == 0 */\n      eq\n        /* \"@openzeppelin/contracts/utils/Address.sol\":5045:5094  returndata.length == 0 && target.code.length == 0 */\n      dup1\n      iszero\n      tag_143\n      jumpi\n      pop\n        /* \"@openzeppelin/contracts/utils/Address.sol\":5093:5094  0 */\n      0x00\n        /* \"@openzeppelin/contracts/utils/Address.sol\":5071:5077  target */\n      dup5\n        /* \"@openzeppelin/contracts/utils/Address.sol\":5071:5089  target.code.length */\n      0xffffffffffffffffffffffffffffffffffffffff\n      and\n      extcodesize\n        /* \"@openzeppelin/contracts/utils/Address.sol\":5071:5094  target.code.length == 0 */\n      eq\n        /* \"@openzeppelin/contracts/utils/Address.sol\":5045:5094  returndata.length == 0 && target.code.length == 0 */\n    tag_143:\n        /* \"@openzeppelin/contracts/utils/Address.sol\":5041:5160  if (returndata.length == 0 && target.code.length == 0) {... */\n      iszero\n      tag_144\n      jumpi\n        /* \"@openzeppelin/contracts/utils/Address.sol\":5138:5144  target */\n      dup4\n        /* \"@openzeppelin/contracts/utils/Address.sol\":5121:5145  AddressEmptyCode(target) */\n      mload(0x40)\n      0x9996b31500000000000000000000000000000000000000000000000000000000\n      dup2\n      mstore\n      0x04\n      add\n      tag_145\n      swap2\n      swap1\n      tag_24\n      jump\t// in\n    tag_145:\n      mload(0x40)\n      dup1\n      swap2\n      sub\n      swap1\n      revert\n        /* \"@openzeppelin/contracts/utils/Address.sol\":5041:5160  if (returndata.length == 0 && target.code.length == 0) {... */\n    tag_144:\n        /* \"@openzeppelin/contracts/utils/Address.sol\":5180:5190  returndata */\n      dup2\n        /* \"@openzeppelin/contracts/utils/Address.sol\":5173:5190  return returndata */\n      swap1\n      pop\n      jump(tag_138)\n        /* \"@openzeppelin/contracts/utils/Address.sol\":4793:5201  if (!success) {... */\n    tag_142:\n        /* \"@openzeppelin/contracts/utils/Address.sol\":4625:5207  function verifyCallResultFromTarget(... */\n    tag_138:\n      swap4\n      swap3\n      pop\n      pop\n      pop\n      jump\t// out\n        /* \"@openzeppelin/contracts/utils/Address.sol\":5743:6259  function _revert(bytes memory returndata) private pure {... */\n    tag_141:\n        /* \"@openzeppelin/contracts/utils/Address.sol\":5894:5895  0 */\n      0x00\n        /* \"@openzeppelin/contracts/utils/Address.sol\":5874:5884  returndata */\n      dup2\n        /* \"@openzeppelin/contracts/utils/Address.sol\":5874:5891  returndata.length */\n      mload\n        /* \"@openzeppelin/contracts/utils/Address.sol\":5874:5895  returndata.length > 0 */\n      gt\n        /* \"@openzeppelin/contracts/utils/Address.sol\":5870:6253  if (returndata.length > 0) {... */\n      iszero\n      tag_147\n      jumpi\n        /* \"@openzeppelin/contracts/utils/Address.sol\":6102:6112  returndata */\n      dup1\n        /* \"@openzeppelin/contracts/utils/Address.sol\":6096:6113  mload(returndata) */\n      mload\n        /* \"@openzeppelin/contracts/utils/Address.sol\":6158:6173  returndata_size */\n      dup1\n        /* \"@openzeppelin/contracts/utils/Address.sol\":6145:6155  returndata */\n      dup3\n        /* \"@openzeppelin/contracts/utils/Address.sol\":6141:6143  32 */\n      0x20\n        /* \"@openzeppelin/contracts/utils/Address.sol\":6137:6156  add(32, returndata) */\n      add\n        /* \"@openzeppelin/contracts/utils/Address.sol\":6130:6174  revert(add(32, returndata), returndata_size) */\n      revert\n        /* \"@openzeppelin/contracts/utils/Address.sol\":5870:6253  if (returndata.length > 0) {... */\n    tag_147:\n        /* \"@openzeppelin/contracts/utils/Address.sol\":6225:6242  FailedInnerCall() */\n      mload(0x40)\n      0x1425ea4200000000000000000000000000000000000000000000000000000000\n      dup2\n      mstore\n      0x04\n      add\n      mload(0x40)\n      dup1\n      swap2\n      sub\n      swap1\n      revert\n        /* \"#utility.yul\":7:84   */\n    tag_149:\n        /* \"#utility.yul\":44:51   */\n      0x00\n        /* \"#utility.yul\":73:78   */\n      dup2\n        /* \"#utility.yul\":62:78   */\n      swap1\n      pop\n        /* \"#utility.yul\":7:84   */\n      swap2\n      swap1\n      pop\n      jump\t// out\n        /* \"#utility.yul\":90:208   */\n    tag_150:\n        /* \"#utility.yul\":177:201   */\n      tag_185\n        /* \"#utility.yul\":195:200   */\n      dup2\n        /* \"#utility.yul\":177:201   */\n      tag_149\n      jump\t// in\n    tag_185:\n        /* \"#utility.yul\":172:175   */\n      dup3\n        /* \"#utility.yul\":165:202   */\n      mstore\n        /* \"#utility.yul\":90:208   */\n      pop\n      pop\n      jump\t// out\n        /* \"#utility.yul\":214:436   */\n    tag_16:\n        /* \"#utility.yul\":307:311   */\n      0x00\n        /* \"#utility.yul\":345:347   */\n      0x20\n        /* \"#utility.yul\":334:343   */\n      dup3\n        /* \"#utility.yul\":330:348   */\n      add\n        /* \"#utility.yul\":322:348   */\n      swap1\n      pop\n        /* \"#utility.yul\":358:429   */\n      tag_187\n        /* \"#utility.yul\":426:427   */\n      0x00\n        /* \"#utility.yul\":415:424   */\n      dup4\n        /* \"#utility.yul\":411:428   */\n      add\n        /* \"#utility.yul\":402:408   */\n      dup5\n        /* \"#utility.yul\":358:429   */\n      tag_150\n      jump\t// in\n    tag_187:\n        /* \"#utility.yul\":214:436   */\n      swap3\n      swap2\n      pop\n      pop\n      jump\t// out\n        /* \"#utility.yul\":523:640   */\n    tag_152:\n        /* \"#utility.yul\":632:633   */\n      0x00\n        /* \"#utility.yul\":629:630   */\n      dup1\n        /* \"#utility.yul\":622:634   */\n      revert\n        /* \"#utility.yul\":769:895   */\n    tag_154:\n        /* \"#utility.yul\":806:813   */\n      0x00\n        /* \"#utility.yul\":846:888   */\n      0xffffffffffffffffffffffffffffffffffffffff\n        /* \"#utility.yul\":839:844   */\n      dup3\n        /* \"#utility.yul\":835:889   */\n      and\n        /* \"#utility.yul\":824:889   */\n      swap1\n      pop\n        /* \"#utility.yul\":769:895   */\n      swap2\n      swap1\n      pop\n      jump\t// out\n        /* \"#utility.yul\":901:997   */\n    tag_155:\n        /* \"#utility.yul\":938:945   */\n      0x00\n        /* \"#utility.yul\":967:991   */\n      tag_193\n        /* \"#utility.yul\":985:990   */\n      dup3\n        /* \"#utility.yul\":967:991   */\n      tag_154\n      jump\t// in\n    tag_193:\n        /* \"#utility.yul\":956:991   */\n      swap1\n      pop\n        /* \"#utility.yul\":901:997   */\n      swap2\n      swap1\n      pop\n      jump\t// out\n        /* \"#utility.yul\":1003:1125   */\n    tag_156:\n        /* \"#utility.yul\":1076:1100   */\n      tag_195\n        /* \"#utility.yul\":1094:1099   */\n      dup2\n        /* \"#utility.yul\":1076:1100   */\n      tag_155\n      jump\t// in\n    tag_195:\n        /* \"#utility.yul\":1069:1074   */\n      dup2\n        /* \"#utility.yul\":1066:1101   */\n      eq\n        /* \"#utility.yul\":1056:1119   */\n      tag_196\n      jumpi\n        /* \"#utility.yul\":1115:1116   */\n      0x00\n        /* \"#utility.yul\":1112:1113   */\n      dup1\n        /* \"#utility.yul\":1105:1117   */\n      revert\n        /* \"#utility.yul\":1056:1119   */\n    tag_196:\n        /* \"#utility.yul\":1003:1125   */\n      pop\n      jump\t// out\n        /* \"#utility.yul\":1131:1270   */\n    tag_157:\n        /* \"#utility.yul\":1177:1182   */\n      0x00\n        /* \"#utility.yul\":1215:1221   */\n      dup2\n        /* \"#utility.yul\":1202:1222   */\n      calldataload\n        /* \"#utility.yul\":1193:1222   */\n      swap1\n      pop\n        /* \"#utility.yul\":1231:1264   */\n      tag_198\n        /* \"#utility.yul\":1258:1263   */\n      dup2\n        /* \"#utility.yul\":1231:1264   */\n      tag_156\n      jump\t// in\n    tag_198:\n        /* \"#utility.yul\":1131:1270   */\n      swap3\n      swap2\n      pop\n      pop\n      jump\t// out\n        /* \"#utility.yul\":1276:1605   */\n    tag_19:\n        /* \"#utility.yul\":1335:1341   */\n      0x00\n        /* \"#utility.yul\":1384:1386   */\n      0x20\n        /* \"#utility.yul\":1372:1381   */\n      dup3\n        /* \"#utility.yul\":1363:1370   */\n      dup5\n        /* \"#utility.yul\":1359:1382   */\n      sub\n        /* \"#utility.yul\":1355:1387   */\n      slt\n        /* \"#utility.yul\":1352:1471   */\n      iszero\n      tag_200\n      jumpi\n        /* \"#utility.yul\":1390:1469   */\n      tag_201\n      tag_152\n      jump\t// in\n    tag_201:\n        /* \"#utility.yul\":1352:1471   */\n    tag_200:\n        /* \"#utility.yul\":1510:1511   */\n      0x00\n        /* \"#utility.yul\":1535:1588   */\n      tag_202\n        /* \"#utility.yul\":1580:1587   */\n      dup5\n        /* \"#utility.yul\":1571:1577   */\n      dup3\n        /* \"#utility.yul\":1560:1569   */\n      dup6\n        /* \"#utility.yul\":1556:1578   */\n      add\n        /* \"#utility.yul\":1535:1588   */\n      tag_157\n      jump\t// in\n    tag_202:\n        /* \"#utility.yul\":1525:1588   */\n      swap2\n      pop\n        /* \"#utility.yul\":1481:1598   */\n      pop\n        /* \"#utility.yul\":1276:1605   */\n      swap3\n      swap2\n      pop\n      pop\n      jump\t// out\n        /* \"#utility.yul\":1611:1729   */\n    tag_158:\n        /* \"#utility.yul\":1698:1722   */\n      tag_204\n        /* \"#utility.yul\":1716:1721   */\n      dup2\n        /* \"#utility.yul\":1698:1722   */\n      tag_155\n      jump\t// in\n    tag_204:\n        /* \"#utility.yul\":1693:1696   */\n      dup3\n        /* \"#utility.yul\":1686:1723   */\n      mstore\n        /* \"#utility.yul\":1611:1729   */\n      pop\n      pop\n      jump\t// out\n        /* \"#utility.yul\":1735:1957   */\n    tag_24:\n        /* \"#utility.yul\":1828:1832   */\n      0x00\n        /* \"#utility.yul\":1866:1868   */\n      0x20\n        /* \"#utility.yul\":1855:1864   */\n      dup3\n        /* \"#utility.yul\":1851:1869   */\n      add\n        /* \"#utility.yul\":1843:1869   */\n      swap1\n      pop\n        /* \"#utility.yul\":1879:1950   */\n      tag_206\n        /* \"#utility.yul\":1947:1948   */\n      0x00\n        /* \"#utility.yul\":1936:1945   */\n      dup4\n        /* \"#utility.yul\":1932:1949   */\n      add\n        /* \"#utility.yul\":1923:1929   */\n      dup5\n        /* \"#utility.yul\":1879:1950   */\n      tag_158\n      jump\t// in\n    tag_206:\n        /* \"#utility.yul\":1735:1957   */\n      swap3\n      swap2\n      pop\n      pop\n      jump\t// out\n        /* \"#utility.yul\":1963:2437   */\n    tag_27:\n        /* \"#utility.yul\":2031:2037   */\n      0x00\n        /* \"#utility.yul\":2039:2045   */\n      dup1\n        /* \"#utility.yul\":2088:2090   */\n      0x40\n        /* \"#utility.yul\":2076:2085   */\n      dup4\n        /* \"#utility.yul\":2067:2074   */\n      dup6\n        /* \"#utility.yul\":2063:2086   */\n      sub\n        /* \"#utility.yul\":2059:2091   */\n      slt\n        /* \"#utility.yul\":2056:2175   */\n      iszero\n      tag_208\n      jumpi\n        /* \"#utility.yul\":2094:2173   */\n      tag_209\n      tag_152\n      jump\t// in\n    tag_209:\n        /* \"#utility.yul\":2056:2175   */\n    tag_208:\n        /* \"#utility.yul\":2214:2215   */\n      0x00\n        /* \"#utility.yul\":2239:2292   */\n      tag_210\n        /* \"#utility.yul\":2284:2291   */\n      dup6\n        /* \"#utility.yul\":2275:2281   */\n      dup3\n        /* \"#utility.yul\":2264:2273   */\n      dup7\n        /* \"#utility.yul\":2260:2282   */\n      add\n        /* \"#utility.yul\":2239:2292   */\n      tag_157\n      jump\t// in\n    tag_210:\n        /* \"#utility.yul\":2229:2292   */\n      swap3\n      pop\n        /* \"#utility.yul\":2185:2302   */\n      pop\n        /* \"#utility.yul\":2341:2343   */\n      0x20\n        /* \"#utility.yul\":2367:2420   */\n      tag_211\n        /* \"#utility.yul\":2412:2419   */\n      dup6\n        /* \"#utility.yul\":2403:2409   */\n      dup3\n        /* \"#utility.yul\":2392:2401   */\n      dup7\n        /* \"#utility.yul\":2388:2410   */\n      add\n        /* \"#utility.yul\":2367:2420   */\n      tag_157\n      jump\t// in\n    tag_211:\n        /* \"#utility.yul\":2357:2420   */\n      swap2\n      pop\n        /* \"#utility.yul\":2312:2430   */\n      pop\n        /* \"#utility.yul\":1963:2437   */\n      swap3\n      pop\n      swap3\n      swap1\n      pop\n      jump\t// out\n        /* \"#utility.yul\":2443:2533   */\n    tag_159:\n        /* \"#utility.yul\":2477:2484   */\n      0x00\n        /* \"#utility.yul\":2520:2525   */\n      dup2\n        /* \"#utility.yul\":2513:2526   */\n      iszero\n        /* \"#utility.yul\":2506:2527   */\n      iszero\n        /* \"#utility.yul\":2495:2527   */\n      swap1\n      pop\n        /* \"#utility.yul\":2443:2533   */\n      swap2\n      swap1\n      pop\n      jump\t// out\n        /* \"#utility.yul\":2539:2648   */\n    tag_160:\n        /* \"#utility.yul\":2620:2641   */\n      tag_214\n        /* \"#utility.yul\":2635:2640   */\n      dup2\n        /* \"#utility.yul\":2620:2641   */\n      tag_159\n      jump\t// in\n    tag_214:\n        /* \"#utility.yul\":2615:2618   */\n      dup3\n        /* \"#utility.yul\":2608:2642   */\n      mstore\n        /* \"#utility.yul\":2539:2648   */\n      pop\n      pop\n      jump\t// out\n        /* \"#utility.yul\":2654:2864   */\n    tag_30:\n        /* \"#utility.yul\":2741:2745   */\n      0x00\n        /* \"#utility.yul\":2779:2781   */\n      0x20\n        /* \"#utility.yul\":2768:2777   */\n      dup3\n        /* \"#utility.yul\":2764:2782   */\n      add\n        /* \"#utility.yul\":2756:2782   */\n      swap1\n      pop\n        /* \"#utility.yul\":2792:2857   */\n      tag_216\n        /* \"#utility.yul\":2854:2855   */\n      0x00\n        /* \"#utility.yul\":2843:2852   */\n      dup4\n        /* \"#utility.yul\":2839:2856   */\n      add\n        /* \"#utility.yul\":2830:2836   */\n      dup5\n        /* \"#utility.yul\":2792:2857   */\n      tag_160\n      jump\t// in\n    tag_216:\n        /* \"#utility.yul\":2654:2864   */\n      swap3\n      swap2\n      pop\n      pop\n      jump\t// out\n        /* \"#utility.yul\":2870:2971   */\n    tag_161:\n        /* \"#utility.yul\":2906:2913   */\n      0x00\n        /* \"#utility.yul\":2946:2964   */\n      0xffffffffffffffff\n        /* \"#utility.yul\":2939:2944   */\n      dup3\n        /* \"#utility.yul\":2935:2965   */\n      and\n        /* \"#utility.yul\":2924:2965   */\n      swap1\n      pop\n        /* \"#utility.yul\":2870:2971   */\n      swap2\n      swap1\n      pop\n      jump\t// out\n        /* \"#utility.yul\":2977:3097   */\n    tag_162:\n        /* \"#utility.yul\":3049:3072   */\n      tag_219\n        /* \"#utility.yul\":3066:3071   */\n      dup2\n        /* \"#utility.yul\":3049:3072   */\n      tag_161\n      jump\t// in\n    tag_219:\n        /* \"#utility.yul\":3042:3047   */\n      dup2\n        /* \"#utility.yul\":3039:3073   */\n      eq\n        /* \"#utility.yul\":3029:3091   */\n      tag_220\n      jumpi\n        /* \"#utility.yul\":3087:3088   */\n      0x00\n        /* \"#utility.yul\":3084:3085   */\n      dup1\n        /* \"#utility.yul\":3077:3089   */\n      revert\n        /* \"#utility.yul\":3029:3091   */\n    tag_220:\n        /* \"#utility.yul\":2977:3097   */\n      pop\n      jump\t// out\n        /* \"#utility.yul\":3103:3240   */\n    tag_163:\n        /* \"#utility.yul\":3148:3153   */\n      0x00\n        /* \"#utility.yul\":3186:3192   */\n      dup2\n        /* \"#utility.yul\":3173:3193   */\n      calldataload\n        /* \"#utility.yul\":3164:3193   */\n      swap1\n      pop\n        /* \"#utility.yul\":3202:3234   */\n      tag_222\n        /* \"#utility.yul\":3228:3233   */\n      dup2\n        /* \"#utility.yul\":3202:3234   */\n      tag_162\n      jump\t// in\n    tag_222:\n        /* \"#utility.yul\":3103:3240   */\n      swap3\n      swap2\n      pop\n      pop\n      jump\t// out\n        /* \"#utility.yul\":3246:3718   */\n    tag_33:\n        /* \"#utility.yul\":3313:3319   */\n      0x00\n        /* \"#utility.yul\":3321:3327   */\n      dup1\n        /* \"#utility.yul\":3370:3372   */\n      0x40\n        /* \"#utility.yul\":3358:3367   */\n      dup4\n        /* \"#utility.yul\":3349:3356   */\n      dup6\n        /* \"#utility.yul\":3345:3368   */\n      sub\n        /* \"#utility.yul\":3341:3373   */\n      slt\n        /* \"#utility.yul\":3338:3457   */\n      iszero\n      tag_224\n      jumpi\n        /* \"#utility.yul\":3376:3455   */\n      tag_225\n      tag_152\n      jump\t// in\n    tag_225:\n        /* \"#utility.yul\":3338:3457   */\n    tag_224:\n        /* \"#utility.yul\":3496:3497   */\n      0x00\n        /* \"#utility.yul\":3521:3574   */\n      tag_226\n        /* \"#utility.yul\":3566:3573   */\n      dup6\n        /* \"#utility.yul\":3557:3563   */\n      dup3\n        /* \"#utility.yul\":3546:3555   */\n      dup7\n        /* \"#utility.yul\":3542:3564   */\n      add\n        /* \"#utility.yul\":3521:3574   */\n      tag_157\n      jump\t// in\n    tag_226:\n        /* \"#utility.yul\":3511:3574   */\n      swap3\n      pop\n        /* \"#utility.yul\":3467:3584   */\n      pop\n        /* \"#utility.yul\":3623:3625   */\n      0x20\n        /* \"#utility.yul\":3649:3701   */\n      tag_227\n        /* \"#utility.yul\":3693:3700   */\n      dup6\n        /* \"#utility.yul\":3684:3690   */\n      dup3\n        /* \"#utility.yul\":3673:3682   */\n      dup7\n        /* \"#utility.yul\":3669:3691   */\n      add\n        /* \"#utility.yul\":3649:3701   */\n      tag_163\n      jump\t// in\n    tag_227:\n        /* \"#utility.yul\":3639:3701   */\n      swap2\n      pop\n        /* \"#utility.yul\":3594:3711   */\n      pop\n        /* \"#utility.yul\":3246:3718   */\n      swap3\n      pop\n      swap3\n      swap1\n      pop\n      jump\t// out\n        /* \"#utility.yul\":3724:3865   */\n    tag_164:\n        /* \"#utility.yul\":3780:3785   */\n      0x00\n        /* \"#utility.yul\":3811:3817   */\n      dup2\n        /* \"#utility.yul\":3805:3818   */\n      mload\n        /* \"#utility.yul\":3796:3818   */\n      swap1\n      pop\n        /* \"#utility.yul\":3827:3859   */\n      tag_229\n        /* \"#utility.yul\":3853:3858   */\n      dup2\n        /* \"#utility.yul\":3827:3859   */\n      tag_162\n      jump\t// in\n    tag_229:\n        /* \"#utility.yul\":3724:3865   */\n      swap3\n      swap2\n      pop\n      pop\n      jump\t// out\n        /* \"#utility.yul\":3871:4220   */\n    tag_54:\n        /* \"#utility.yul\":3940:3946   */\n      0x00\n        /* \"#utility.yul\":3989:3991   */\n      0x20\n        /* \"#utility.yul\":3977:3986   */\n      dup3\n        /* \"#utility.yul\":3968:3975   */\n      dup5\n        /* \"#utility.yul\":3964:3987   */\n      sub\n        /* \"#utility.yul\":3960:3992   */\n      slt\n        /* \"#utility.yul\":3957:4076   */\n      iszero\n      tag_231\n      jumpi\n        /* \"#utility.yul\":3995:4074   */\n      tag_232\n      tag_152\n      jump\t// in\n    tag_232:\n        /* \"#utility.yul\":3957:4076   */\n    tag_231:\n        /* \"#utility.yul\":4115:4116   */\n      0x00\n        /* \"#utility.yul\":4140:4203   */\n      tag_233\n        /* \"#utility.yul\":4195:4202   */\n      dup5\n        /* \"#utility.yul\":4186:4192   */\n      dup3\n        /* \"#utility.yul\":4175:4184   */\n      dup6\n        /* \"#utility.yul\":4171:4193   */\n      add\n        /* \"#utility.yul\":4140:4203   */\n      tag_164\n      jump\t// in\n    tag_233:\n        /* \"#utility.yul\":4130:4203   */\n      swap2\n      pop\n        /* \"#utility.yul\":4086:4213   */\n      pop\n        /* \"#utility.yul\":3871:4220   */\n      swap3\n      swap2\n      pop\n      pop\n      jump\t// out\n        /* \"#utility.yul\":4226:4406   */\n    tag_165:\n        /* \"#utility.yul\":4274:4351   */\n      0x4e487b7100000000000000000000000000000000000000000000000000000000\n        /* \"#utility.yul\":4271:4272   */\n      0x00\n        /* \"#utility.yul\":4264:4352   */\n      mstore\n        /* \"#utility.yul\":4371:4375   */\n      0x11\n        /* \"#utility.yul\":4368:4369   */\n      0x04\n        /* \"#utility.yul\":4361:4376   */\n      mstore\n        /* \"#utility.yul\":4395:4399   */\n      0x24\n        /* \"#utility.yul\":4392:4393   */\n      0x00\n        /* \"#utility.yul\":4385:4400   */\n      revert\n        /* \"#utility.yul\":4412:4603   */\n    tag_58:\n        /* \"#utility.yul\":4452:4455   */\n      0x00\n        /* \"#utility.yul\":4471:4491   */\n      tag_236\n        /* \"#utility.yul\":4489:4490   */\n      dup3\n        /* \"#utility.yul\":4471:4491   */\n      tag_149\n      jump\t// in\n    tag_236:\n        /* \"#utility.yul\":4466:4491   */\n      swap2\n      pop\n        /* \"#utility.yul\":4505:4525   */\n      tag_237\n        /* \"#utility.yul\":4523:4524   */\n      dup4\n        /* \"#utility.yul\":4505:4525   */\n      tag_149\n      jump\t// in\n    tag_237:\n        /* \"#utility.yul\":4500:4525   */\n      swap3\n      pop\n        /* \"#utility.yul\":4548:4549   */\n      dup3\n        /* \"#utility.yul\":4545:4546   */\n      dup3\n        /* \"#utility.yul\":4541:4550   */\n      add\n        /* \"#utility.yul\":4534:4550   */\n      swap1\n      pop\n        /* \"#utility.yul\":4569:4572   */\n      dup1\n        /* \"#utility.yul\":4566:4567   */\n      dup3\n        /* \"#utility.yul\":4563:4573   */\n      gt\n        /* \"#utility.yul\":4560:4596   */\n      iszero\n      tag_238\n      jumpi\n        /* \"#utility.yul\":4576:4594   */\n      tag_239\n      tag_165\n      jump\t// in\n    tag_239:\n        /* \"#utility.yul\":4560:4596   */\n    tag_238:\n        /* \"#utility.yul\":4412:4603   */\n      swap3\n      swap2\n      pop\n      pop\n      jump\t// out\n        /* \"#utility.yul\":4609:4778   */\n    tag_166:\n        /* \"#utility.yul\":4693:4704   */\n      0x00\n        /* \"#utility.yul\":4727:4733   */\n      dup3\n        /* \"#utility.yul\":4722:4725   */\n      dup3\n        /* \"#utility.yul\":4715:4734   */\n      mstore\n        /* \"#utility.yul\":4767:4771   */\n      0x20\n        /* \"#utility.yul\":4762:4765   */\n      dup3\n        /* \"#utility.yul\":4758:4772   */\n      add\n        /* \"#utility.yul\":4743:4772   */\n      swap1\n      pop\n        /* \"#utility.yul\":4609:4778   */\n      swap3\n      swap2\n      pop\n      pop\n      jump\t// out\n        /* \"#utility.yul\":4784:5005   */\n    tag_167:\n        /* \"#utility.yul\":4924:4958   */\n      0x4d616e6167656456657374696e6757616c6c65743a206f6e6c7920666163746f\n        /* \"#utility.yul\":4920:4921   */\n      0x00\n        /* \"#utility.yul\":4912:4918   */\n      dup3\n        /* \"#utility.yul\":4908:4922   */\n      add\n        /* \"#utility.yul\":4901:4959   */\n      mstore\n        /* \"#utility.yul\":4993:4997   */\n      0x7279000000000000000000000000000000000000000000000000000000000000\n        /* \"#utility.yul\":4988:4990   */\n      0x20\n        /* \"#utility.yul\":4980:4986   */\n      dup3\n        /* \"#utility.yul\":4976:4991   */\n      add\n        /* \"#utility.yul\":4969:4998   */\n      mstore\n        /* \"#utility.yul\":4784:5005   */\n      pop\n      jump\t// out\n        /* \"#utility.yul\":5011:5377   */\n    tag_168:\n        /* \"#utility.yul\":5153:5156   */\n      0x00\n        /* \"#utility.yul\":5174:5241   */\n      tag_243\n        /* \"#utility.yul\":5238:5240   */\n      0x22\n        /* \"#utility.yul\":5233:5236   */\n      dup4\n        /* \"#utility.yul\":5174:5241   */\n      tag_166\n      jump\t// in\n    tag_243:\n        /* \"#utility.yul\":5167:5241   */\n      swap2\n      pop\n        /* \"#utility.yul\":5250:5343   */\n      tag_244\n        /* \"#utility.yul\":5339:5342   */\n      dup3\n        /* \"#utility.yul\":5250:5343   */\n      tag_167\n      jump\t// in\n    tag_244:\n        /* \"#utility.yul\":5368:5370   */\n      0x40\n        /* \"#utility.yul\":5363:5366   */\n      dup3\n        /* \"#utility.yul\":5359:5371   */\n      add\n        /* \"#utility.yul\":5352:5371   */\n      swap1\n      pop\n        /* \"#utility.yul\":5011:5377   */\n      swap2\n      swap1\n      pop\n      jump\t// out\n        /* \"#utility.yul\":5383:5802   */\n    tag_67:\n        /* \"#utility.yul\":5549:5553   */\n      0x00\n        /* \"#utility.yul\":5587:5589   */\n      0x20\n        /* \"#utility.yul\":5576:5585   */\n      dup3\n        /* \"#utility.yul\":5572:5590   */\n      add\n        /* \"#utility.yul\":5564:5590   */\n      swap1\n      pop\n        /* \"#utility.yul\":5636:5645   */\n      dup2\n        /* \"#utility.yul\":5630:5634   */\n      dup2\n        /* \"#utility.yul\":5626:5646   */\n      sub\n        /* \"#utility.yul\":5622:5623   */\n      0x00\n        /* \"#utility.yul\":5611:5620   */\n      dup4\n        /* \"#utility.yul\":5607:5624   */\n      add\n        /* \"#utility.yul\":5600:5647   */\n      mstore\n        /* \"#utility.yul\":5664:5795   */\n      tag_246\n        /* \"#utility.yul\":5790:5794   */\n      dup2\n        /* \"#utility.yul\":5664:5795   */\n      tag_168\n      jump\t// in\n    tag_246:\n        /* \"#utility.yul\":5656:5795   */\n      swap1\n      pop\n        /* \"#utility.yul\":5383:5802   */\n      swap2\n      swap1\n      pop\n      jump\t// out\n        /* \"#utility.yul\":5808:6048   */\n    tag_169:\n        /* \"#utility.yul\":5948:5982   */\n      0x4d616e6167656456657374696e6757616c6c65743a2076657374696e67206d61\n        /* \"#utility.yul\":5944:5945   */\n      0x00\n        /* \"#utility.yul\":5936:5942   */\n      dup3\n        /* \"#utility.yul\":5932:5946   */\n      add\n        /* \"#utility.yul\":5925:5983   */\n      mstore\n        /* \"#utility.yul\":6017:6040   */\n      0x6e61676572206973207a65726f20616464726573730000000000000000000000\n        /* \"#utility.yul\":6012:6014   */\n      0x20\n        /* \"#utility.yul\":6004:6010   */\n      dup3\n        /* \"#utility.yul\":6000:6015   */\n      add\n        /* \"#utility.yul\":5993:6041   */\n      mstore\n        /* \"#utility.yul\":5808:6048   */\n      pop\n      jump\t// out\n        /* \"#utility.yul\":6054:6420   */\n    tag_170:\n        /* \"#utility.yul\":6196:6199   */\n      0x00\n        /* \"#utility.yul\":6217:6284   */\n      tag_249\n        /* \"#utility.yul\":6281:6283   */\n      0x35\n        /* \"#utility.yul\":6276:6279   */\n      dup4\n        /* \"#utility.yul\":6217:6284   */\n      tag_166\n      jump\t// in\n    tag_249:\n        /* \"#utility.yul\":6210:6284   */\n      swap2\n      pop\n        /* \"#utility.yul\":6293:6386   */\n      tag_250\n        /* \"#utility.yul\":6382:6385   */\n      dup3\n        /* \"#utility.yul\":6293:6386   */\n      tag_169\n      jump\t// in\n    tag_250:\n        /* \"#utility.yul\":6411:6413   */\n      0x40\n        /* \"#utility.yul\":6406:6409   */\n      dup3\n        /* \"#utility.yul\":6402:6414   */\n      add\n        /* \"#utility.yul\":6395:6414   */\n      swap1\n      pop\n        /* \"#utility.yul\":6054:6420   */\n      swap2\n      swap1\n      pop\n      jump\t// out\n        /* \"#utility.yul\":6426:6845   */\n    tag_71:\n        /* \"#utility.yul\":6592:6596   */\n      0x00\n        /* \"#utility.yul\":6630:6632   */\n      0x20\n        /* \"#utility.yul\":6619:6628   */\n      dup3\n        /* \"#utility.yul\":6615:6633   */\n      add\n        /* \"#utility.yul\":6607:6633   */\n      swap1\n      pop\n        /* \"#utility.yul\":6679:6688   */\n      dup2\n        /* \"#utility.yul\":6673:6677   */\n      dup2\n        /* \"#utility.yul\":6669:6689   */\n      sub\n        /* \"#utility.yul\":6665:6666   */\n      0x00\n        /* \"#utility.yul\":6654:6663   */\n      dup4\n        /* \"#utility.yul\":6650:6667   */\n      add\n        /* \"#utility.yul\":6643:6690   */\n      mstore\n        /* \"#utility.yul\":6707:6838   */\n      tag_252\n        /* \"#utility.yul\":6833:6837   */\n      dup2\n        /* \"#utility.yul\":6707:6838   */\n      tag_170\n      jump\t// in\n    tag_252:\n        /* \"#utility.yul\":6699:6838   */\n      swap1\n      pop\n        /* \"#utility.yul\":6426:6845   */\n      swap2\n      swap1\n      pop\n      jump\t// out\n        /* \"#utility.yul\":6851:7087   */\n    tag_171:\n        /* \"#utility.yul\":6991:7025   */\n      0x4d616e6167656456657374696e6757616c6c65743a2062656e65666963696172\n        /* \"#utility.yul\":6987:6988   */\n      0x00\n        /* \"#utility.yul\":6979:6985   */\n      dup3\n        /* \"#utility.yul\":6975:6989   */\n      add\n        /* \"#utility.yul\":6968:7026   */\n      mstore\n        /* \"#utility.yul\":7060:7079   */\n      0x79206973207a65726f2061646472657373000000000000000000000000000000\n        /* \"#utility.yul\":7055:7057   */\n      0x20\n        /* \"#utility.yul\":7047:7053   */\n      dup3\n        /* \"#utility.yul\":7043:7058   */\n      add\n        /* \"#utility.yul\":7036:7080   */\n      mstore\n        /* \"#utility.yul\":6851:7087   */\n      pop\n      jump\t// out\n        /* \"#utility.yul\":7093:7459   */\n    tag_172:\n        /* \"#utility.yul\":7235:7238   */\n      0x00\n        /* \"#utility.yul\":7256:7323   */\n      tag_255\n        /* \"#utility.yul\":7320:7322   */\n      0x31\n        /* \"#utility.yul\":7315:7318   */\n      dup4\n        /* \"#utility.yul\":7256:7323   */\n      tag_166\n      jump\t// in\n    tag_255:\n        /* \"#utility.yul\":7249:7323   */\n      swap2\n      pop\n        /* \"#utility.yul\":7332:7425   */\n      tag_256\n        /* \"#utility.yul\":7421:7424   */\n      dup3\n        /* \"#utility.yul\":7332:7425   */\n      tag_171\n      jump\t// in\n    tag_256:\n        /* \"#utility.yul\":7450:7452   */\n      0x40\n        /* \"#utility.yul\":7445:7448   */\n      dup3\n        /* \"#utility.yul\":7441:7453   */\n      add\n        /* \"#utility.yul\":7434:7453   */\n      swap1\n      pop\n        /* \"#utility.yul\":7093:7459   */\n      swap2\n      swap1\n      pop\n      jump\t// out\n        /* \"#utility.yul\":7465:7884   */\n    tag_74:\n        /* \"#utility.yul\":7631:7635   */\n      0x00\n        /* \"#utility.yul\":7669:7671   */\n      0x20\n        /* \"#utility.yul\":7658:7667   */\n      dup3\n        /* \"#utility.yul\":7654:7672   */\n      add\n        /* \"#utility.yul\":7646:7672   */\n      swap1\n      pop\n        /* \"#utility.yul\":7718:7727   */\n      dup2\n        /* \"#utility.yul\":7712:7716   */\n      dup2\n        /* \"#utility.yul\":7708:7728   */\n      sub\n        /* \"#utility.yul\":7704:7705   */\n      0x00\n        /* \"#utility.yul\":7693:7702   */\n      dup4\n        /* \"#utility.yul\":7689:7706   */\n      add\n        /* \"#utility.yul\":7682:7729   */\n      mstore\n        /* \"#utility.yul\":7746:7877   */\n      tag_258\n        /* \"#utility.yul\":7872:7876   */\n      dup2\n        /* \"#utility.yul\":7746:7877   */\n      tag_172\n      jump\t// in\n    tag_258:\n        /* \"#utility.yul\":7738:7877   */\n      swap1\n      pop\n        /* \"#utility.yul\":7465:7884   */\n      swap2\n      swap1\n      pop\n      jump\t// out\n        /* \"#utility.yul\":7890:8012   */\n    tag_173:\n        /* \"#utility.yul\":7963:7987   */\n      tag_260\n        /* \"#utility.yul\":7981:7986   */\n      dup2\n        /* \"#utility.yul\":7963:7987   */\n      tag_149\n      jump\t// in\n    tag_260:\n        /* \"#utility.yul\":7956:7961   */\n      dup2\n        /* \"#utility.yul\":7953:7988   */\n      eq\n        /* \"#utility.yul\":7943:8006   */\n      tag_261\n      jumpi\n        /* \"#utility.yul\":8002:8003   */\n      0x00\n        /* \"#utility.yul\":7999:8000   */\n      dup1\n        /* \"#utility.yul\":7992:8004   */\n      revert\n        /* \"#utility.yul\":7943:8006   */\n    tag_261:\n        /* \"#utility.yul\":7890:8012   */\n      pop\n      jump\t// out\n        /* \"#utility.yul\":8018:8161   */\n    tag_174:\n        /* \"#utility.yul\":8075:8080   */\n      0x00\n        /* \"#utility.yul\":8106:8112   */\n      dup2\n        /* \"#utility.yul\":8100:8113   */\n      mload\n        /* \"#utility.yul\":8091:8113   */\n      swap1\n      pop\n        /* \"#utility.yul\":8122:8155   */\n      tag_263\n        /* \"#utility.yul\":8149:8154   */\n      dup2\n        /* \"#utility.yul\":8122:8155   */\n      tag_173\n      jump\t// in\n    tag_263:\n        /* \"#utility.yul\":8018:8161   */\n      swap3\n      swap2\n      pop\n      pop\n      jump\t// out\n        /* \"#utility.yul\":8167:8518   */\n    tag_82:\n        /* \"#utility.yul\":8237:8243   */\n      0x00\n        /* \"#utility.yul\":8286:8288   */\n      0x20\n        /* \"#utility.yul\":8274:8283   */\n      dup3\n        /* \"#utility.yul\":8265:8272   */\n      dup5\n        /* \"#utility.yul\":8261:8284   */\n      sub\n        /* \"#utility.yul\":8257:8289   */\n      slt\n        /* \"#utility.yul\":8254:8373   */\n      iszero\n      tag_265\n      jumpi\n        /* \"#utility.yul\":8292:8371   */\n      tag_266\n      tag_152\n      jump\t// in\n    tag_266:\n        /* \"#utility.yul\":8254:8373   */\n    tag_265:\n        /* \"#utility.yul\":8412:8413   */\n      0x00\n        /* \"#utility.yul\":8437:8501   */\n      tag_267\n        /* \"#utility.yul\":8493:8500   */\n      dup5\n        /* \"#utility.yul\":8484:8490   */\n      dup3\n        /* \"#utility.yul\":8473:8482   */\n      dup6\n        /* \"#utility.yul\":8469:8491   */\n      add\n        /* \"#utility.yul\":8437:8501   */\n      tag_174\n      jump\t// in\n    tag_267:\n        /* \"#utility.yul\":8427:8501   */\n      swap2\n      pop\n        /* \"#utility.yul\":8383:8511   */\n      pop\n        /* \"#utility.yul\":8167:8518   */\n      swap3\n      swap2\n      pop\n      pop\n      jump\t// out\n        /* \"#utility.yul\":8524:8718   */\n    tag_90:\n        /* \"#utility.yul\":8564:8568   */\n      0x00\n        /* \"#utility.yul\":8584:8604   */\n      tag_269\n        /* \"#utility.yul\":8602:8603   */\n      dup3\n        /* \"#utility.yul\":8584:8604   */\n      tag_149\n      jump\t// in\n    tag_269:\n        /* \"#utility.yul\":8579:8604   */\n      swap2\n      pop\n        /* \"#utility.yul\":8618:8638   */\n      tag_270\n        /* \"#utility.yul\":8636:8637   */\n      dup4\n        /* \"#utility.yul\":8618:8638   */\n      tag_149\n      jump\t// in\n    tag_270:\n        /* \"#utility.yul\":8613:8638   */\n      swap3\n      pop\n        /* \"#utility.yul\":8662:8663   */\n      dup3\n        /* \"#utility.yul\":8659:8660   */\n      dup3\n        /* \"#utility.yul\":8655:8664   */\n      sub\n        /* \"#utility.yul\":8647:8664   */\n      swap1\n      pop\n        /* \"#utility.yul\":8686:8687   */\n      dup2\n        /* \"#utility.yul\":8680:8684   */\n      dup2\n        /* \"#utility.yul\":8677:8688   */\n      gt\n        /* \"#utility.yul\":8674:8711   */\n      iszero\n      tag_271\n      jumpi\n        /* \"#utility.yul\":8691:8709   */\n      tag_272\n      tag_165\n      jump\t// in\n    tag_272:\n        /* \"#utility.yul\":8674:8711   */\n    tag_271:\n        /* \"#utility.yul\":8524:8718   */\n      swap3\n      swap2\n      pop\n      pop\n      jump\t// out\n        /* \"#utility.yul\":8724:9056   */\n    tag_99:\n        /* \"#utility.yul\":8845:8849   */\n      0x00\n        /* \"#utility.yul\":8883:8885   */\n      0x40\n        /* \"#utility.yul\":8872:8881   */\n      dup3\n        /* \"#utility.yul\":8868:8886   */\n      add\n        /* \"#utility.yul\":8860:8886   */\n      swap1\n      pop\n        /* \"#utility.yul\":8896:8967   */\n      tag_274\n        /* \"#utility.yul\":8964:8965   */\n      0x00\n        /* \"#utility.yul\":8953:8962   */\n      dup4\n        /* \"#utility.yul\":8949:8966   */\n      add\n        /* \"#utility.yul\":8940:8946   */\n      dup6\n        /* \"#utility.yul\":8896:8967   */\n      tag_158\n      jump\t// in\n    tag_274:\n        /* \"#utility.yul\":8977:9049   */\n      tag_275\n        /* \"#utility.yul\":9045:9047   */\n      0x20\n        /* \"#utility.yul\":9034:9043   */\n      dup4\n        /* \"#utility.yul\":9030:9048   */\n      add\n        /* \"#utility.yul\":9021:9027   */\n      dup5\n        /* \"#utility.yul\":8977:9049   */\n      tag_150\n      jump\t// in\n    tag_275:\n        /* \"#utility.yul\":8724:9056   */\n      swap4\n      swap3\n      pop\n      pop\n      pop\n      jump\t// out\n        /* \"#utility.yul\":9062:9472   */\n    tag_114:\n        /* \"#utility.yul\":9102:9109   */\n      0x00\n        /* \"#utility.yul\":9125:9145   */\n      tag_277\n        /* \"#utility.yul\":9143:9144   */\n      dup3\n        /* \"#utility.yul\":9125:9145   */\n      tag_149\n      jump\t// in\n    tag_277:\n        /* \"#utility.yul\":9120:9145   */\n      swap2\n      pop\n        /* \"#utility.yul\":9159:9179   */\n      tag_278\n        /* \"#utility.yul\":9177:9178   */\n      dup4\n        /* \"#utility.yul\":9159:9179   */\n      tag_149\n      jump\t// in\n    tag_278:\n        /* \"#utility.yul\":9154:9179   */\n      swap3\n      pop\n        /* \"#utility.yul\":9214:9215   */\n      dup3\n        /* \"#utility.yul\":9211:9212   */\n      dup3\n        /* \"#utility.yul\":9207:9216   */\n      mul\n        /* \"#utility.yul\":9236:9266   */\n      tag_279\n        /* \"#utility.yul\":9254:9265   */\n      dup2\n        /* \"#utility.yul\":9236:9266   */\n      tag_149\n      jump\t// in\n    tag_279:\n        /* \"#utility.yul\":9225:9266   */\n      swap2\n      pop\n        /* \"#utility.yul\":9415:9416   */\n      dup3\n        /* \"#utility.yul\":9406:9413   */\n      dup3\n        /* \"#utility.yul\":9402:9417   */\n      div\n        /* \"#utility.yul\":9399:9400   */\n      dup5\n        /* \"#utility.yul\":9396:9418   */\n      eq\n        /* \"#utility.yul\":9376:9377   */\n      dup4\n        /* \"#utility.yul\":9369:9378   */\n      iszero\n        /* \"#utility.yul\":9349:9432   */\n      or\n        /* \"#utility.yul\":9326:9465   */\n      tag_280\n      jumpi\n        /* \"#utility.yul\":9445:9463   */\n      tag_281\n      tag_165\n      jump\t// in\n    tag_281:\n        /* \"#utility.yul\":9326:9465   */\n    tag_280:\n        /* \"#utility.yul\":9110:9472   */\n      pop\n        /* \"#utility.yul\":9062:9472   */\n      swap3\n      swap2\n      pop\n      pop\n      jump\t// out\n        /* \"#utility.yul\":9478:9658   */\n    tag_175:\n        /* \"#utility.yul\":9526:9603   */\n      0x4e487b7100000000000000000000000000000000000000000000000000000000\n        /* \"#utility.yul\":9523:9524   */\n      0x00\n        /* \"#utility.yul\":9516:9604   */\n      mstore\n        /* \"#utility.yul\":9623:9627   */\n      0x12\n        /* \"#utility.yul\":9620:9621   */\n      0x04\n        /* \"#utility.yul\":9613:9628   */\n      mstore\n        /* \"#utility.yul\":9647:9651   */\n      0x24\n        /* \"#utility.yul\":9644:9645   */\n      0x00\n        /* \"#utility.yul\":9637:9652   */\n      revert\n        /* \"#utility.yul\":9664:9849   */\n    tag_116:\n        /* \"#utility.yul\":9704:9705   */\n      0x00\n        /* \"#utility.yul\":9721:9741   */\n      tag_284\n        /* \"#utility.yul\":9739:9740   */\n      dup3\n        /* \"#utility.yul\":9721:9741   */\n      tag_149\n      jump\t// in\n    tag_284:\n        /* \"#utility.yul\":9716:9741   */\n      swap2\n      pop\n        /* \"#utility.yul\":9755:9775   */\n      tag_285\n        /* \"#utility.yul\":9773:9774   */\n      dup4\n        /* \"#utility.yul\":9755:9775   */\n      tag_149\n      jump\t// in\n    tag_285:\n        /* \"#utility.yul\":9750:9775   */\n      swap3\n      pop\n        /* \"#utility.yul\":9794:9795   */\n      dup3\n        /* \"#utility.yul\":9784:9819   */\n      tag_286\n      jumpi\n        /* \"#utility.yul\":9799:9817   */\n      tag_287\n      tag_175\n      jump\t// in\n    tag_287:\n        /* \"#utility.yul\":9784:9819   */\n    tag_286:\n        /* \"#utility.yul\":9841:9842   */\n      dup3\n        /* \"#utility.yul\":9838:9839   */\n      dup3\n        /* \"#utility.yul\":9834:9843   */\n      div\n        /* \"#utility.yul\":9829:9843   */\n      swap1\n      pop\n        /* \"#utility.yul\":9664:9849   */\n      swap3\n      swap2\n      pop\n      pop\n      jump\t// out\n        /* \"#utility.yul\":9855:9971   */\n    tag_176:\n        /* \"#utility.yul\":9925:9946   */\n      tag_289\n        /* \"#utility.yul\":9940:9945   */\n      dup2\n        /* \"#utility.yul\":9925:9946   */\n      tag_159\n      jump\t// in\n    tag_289:\n        /* \"#utility.yul\":9918:9923   */\n      dup2\n        /* \"#utility.yul\":9915:9947   */\n      eq\n        /* \"#utility.yul\":9905:9965   */\n      tag_290\n      jumpi\n        /* \"#utility.yul\":9961:9962   */\n      0x00\n        /* \"#utility.yul\":9958:9959   */\n      dup1\n        /* \"#utility.yul\":9951:9963   */\n      revert\n        /* \"#utility.yul\":9905:9965   */\n    tag_290:\n        /* \"#utility.yul\":9855:9971   */\n      pop\n      jump\t// out\n        /* \"#utility.yul\":9977:10114   */\n    tag_177:\n        /* \"#utility.yul\":10031:10036   */\n      0x00\n        /* \"#utility.yul\":10062:10068   */\n      dup2\n        /* \"#utility.yul\":10056:10069   */\n      mload\n        /* \"#utility.yul\":10047:10069   */\n      swap1\n      pop\n        /* \"#utility.yul\":10078:10108   */\n      tag_292\n        /* \"#utility.yul\":10102:10107   */\n      dup2\n        /* \"#utility.yul\":10078:10108   */\n      tag_176\n      jump\t// in\n    tag_292:\n        /* \"#utility.yul\":9977:10114   */\n      swap3\n      swap2\n      pop\n      pop\n      jump\t// out\n        /* \"#utility.yul\":10120:10465   */\n    tag_122:\n        /* \"#utility.yul\":10187:10193   */\n      0x00\n        /* \"#utility.yul\":10236:10238   */\n      0x20\n        /* \"#utility.yul\":10224:10233   */\n      dup3\n        /* \"#utility.yul\":10215:10222   */\n      dup5\n        /* \"#utility.yul\":10211:10234   */\n      sub\n        /* \"#utility.yul\":10207:10239   */\n      slt\n        /* \"#utility.yul\":10204:10323   */\n      iszero\n      tag_294\n      jumpi\n        /* \"#utility.yul\":10242:10321   */\n      tag_295\n      tag_152\n      jump\t// in\n    tag_295:\n        /* \"#utility.yul\":10204:10323   */\n    tag_294:\n        /* \"#utility.yul\":10362:10363   */\n      0x00\n        /* \"#utility.yul\":10387:10448   */\n      tag_296\n        /* \"#utility.yul\":10440:10447   */\n      dup5\n        /* \"#utility.yul\":10431:10437   */\n      dup3\n        /* \"#utility.yul\":10420:10429   */\n      dup6\n        /* \"#utility.yul\":10416:10438   */\n      add\n        /* \"#utility.yul\":10387:10448   */\n      tag_177\n      jump\t// in\n    tag_296:\n        /* \"#utility.yul\":10377:10448   */\n      swap2\n      pop\n        /* \"#utility.yul\":10333:10458   */\n      pop\n        /* \"#utility.yul\":10120:10465   */\n      swap3\n      swap2\n      pop\n      pop\n      jump\t// out\n        /* \"#utility.yul\":10471:10569   */\n    tag_178:\n        /* \"#utility.yul\":10522:10528   */\n      0x00\n        /* \"#utility.yul\":10556:10561   */\n      dup2\n        /* \"#utility.yul\":10550:10562   */\n      mload\n        /* \"#utility.yul\":10540:10562   */\n      swap1\n      pop\n        /* \"#utility.yul\":10471:10569   */\n      swap2\n      swap1\n      pop\n      jump\t// out\n        /* \"#utility.yul\":10575:10722   */\n    tag_179:\n        /* \"#utility.yul\":10676:10687   */\n      0x00\n        /* \"#utility.yul\":10713:10716   */\n      dup2\n        /* \"#utility.yul\":10698:10716   */\n      swap1\n      pop\n        /* \"#utility.yul\":10575:10722   */\n      swap3\n      swap2\n      pop\n      pop\n      jump\t// out\n        /* \"#utility.yul\":10728:10867   */\n    tag_180:\n        /* \"#utility.yul\":10817:10823   */\n      dup3\n        /* \"#utility.yul\":10812:10815   */\n      dup2\n        /* \"#utility.yul\":10807:10810   */\n      dup4\n        /* \"#utility.yul\":10801:10824   */\n      mcopy\n        /* \"#utility.yul\":10858:10859   */\n      0x00\n        /* \"#utility.yul\":10849:10855   */\n      dup4\n        /* \"#utility.yul\":10844:10847   */\n      dup4\n        /* \"#utility.yul\":10840:10856   */\n      add\n        /* \"#utility.yul\":10833:10860   */\n      mstore\n        /* \"#utility.yul\":10728:10867   */\n      pop\n      pop\n      pop\n      jump\t// out\n        /* \"#utility.yul\":10873:11259   */\n    tag_181:\n        /* \"#utility.yul\":10977:10980   */\n      0x00\n        /* \"#utility.yul\":11005:11043   */\n      tag_301\n        /* \"#utility.yul\":11037:11042   */\n      dup3\n        /* \"#utility.yul\":11005:11043   */\n      tag_178\n      jump\t// in\n    tag_301:\n        /* \"#utility.yul\":11059:11147   */\n      tag_302\n        /* \"#utility.yul\":11140:11146   */\n      dup2\n        /* \"#utility.yul\":11135:11138   */\n      dup6\n        /* \"#utility.yul\":11059:11147   */\n      tag_179\n      jump\t// in\n    tag_302:\n        /* \"#utility.yul\":11052:11147   */\n      swap4\n      pop\n        /* \"#utility.yul\":11156:11221   */\n      tag_303\n        /* \"#utility.yul\":11214:11220   */\n      dup2\n        /* \"#utility.yul\":11209:11212   */\n      dup6\n        /* \"#utility.yul\":11202:11206   */\n      0x20\n        /* \"#utility.yul\":11195:11200   */\n      dup7\n        /* \"#utility.yul\":11191:11207   */\n      add\n        /* \"#utility.yul\":11156:11221   */\n      tag_180\n      jump\t// in\n    tag_303:\n        /* \"#utility.yul\":11246:11252   */\n      dup1\n        /* \"#utility.yul\":11241:11244   */\n      dup5\n        /* \"#utility.yul\":11237:11253   */\n      add\n        /* \"#utility.yul\":11230:11253   */\n      swap2\n      pop\n        /* \"#utility.yul\":10981:11259   */\n      pop\n        /* \"#utility.yul\":10873:11259   */\n      swap3\n      swap2\n      pop\n      pop\n      jump\t// out\n        /* \"#utility.yul\":11265:11536   */\n    tag_132:\n        /* \"#utility.yul\":11395:11398   */\n      0x00\n        /* \"#utility.yul\":11417:11510   */\n      tag_305\n        /* \"#utility.yul\":11506:11509   */\n      dup3\n        /* \"#utility.yul\":11497:11503   */\n      dup5\n        /* \"#utility.yul\":11417:11510   */\n      tag_181\n      jump\t// in\n    tag_305:\n        /* \"#utility.yul\":11410:11510   */\n      swap2\n      pop\n        /* \"#utility.yul\":11527:11530   */\n      dup2\n        /* \"#utility.yul\":11520:11530   */\n      swap1\n      pop\n        /* \"#utility.yul\":11265:11536   */\n      swap3\n      swap2\n      pop\n      pop\n      jump\t// out\n\n    auxdata: 0xa26469706673582212202da45c5f8250af49d93add9efdbd5e31eb683c32f7802260db1f9cceb9d8e61164736f6c63430008190033\n}\n",
				"bytecode": {
					"linkReferences": {},
					"object": "60a0604052348015600e575f80fd5b503373ffffffffffffffffffffffffffffffffffffffff1660808173ffffffffffffffffffffffffffffffffffffffff16815250506080516110f561005b5f395f61038b01526110f55ff3fe608060405234801561000f575f80fd5b5060043610610091575f3560e01c8063810ec23b11610064578063810ec23b1461011d5780639852595c1461014d578063a3f8eace1461017d578063be9a6555146101ad578063db27b8dd146101cb57610091565b80630fb5a6b41461009557806319165587146100b357806338af3eed146100cf578063485cc955146100ed575b5f80fd5b61009d6101e9565b6040516100aa9190610aa6565b60405180910390f35b6100cd60048036038101906100c89190610b1d565b610287565b005b6100d7610349565b6040516100e49190610b57565b60405180910390f35b61010760048036038101906101029190610b70565b610371565b6040516101149190610bc8565b60405180910390f35b61013760048036038101906101329190610c1e565b610566565b6040516101449190610aa6565b60405180910390f35b61016760048036038101906101629190610b1d565b610603565b6040516101749190610aa6565b60405180910390f35b61019760048036038101906101929190610b1d565b610648565b6040516101a49190610aa6565b60405180910390f35b6101b561066d565b6040516101c29190610aa6565b60405180910390f35b6101d361070b565b6040516101e09190610b57565b60405180910390f35b5f60015f9054906101000a900473ffffffffffffffffffffffffffffffffffffffff1673ffffffffffffffffffffffffffffffffffffffff16630fb5a6b46040518163ffffffff1660e01b8152600401602060405180830381865afa158015610254573d5f803e3d5ffd5b505050506040513d601f19601f820116820180604052508101906102789190610c70565b67ffffffffffffffff16905090565b5f61029182610648565b9050805f808473ffffffffffffffffffffffffffffffffffffffff1673ffffffffffffffffffffffffffffffffffffffff1681526020019081526020015f205f8282546102de9190610cc8565b925050819055508173ffffffffffffffffffffffffffffffffffffffff167fc0e523490dd523c33b1878c9eb14ff46991e3f5b2cd33710918618f2a39cba1b8260405161032b9190610aa6565b60405180910390a26103458261033f610349565b83610733565b5050565b5f60025f9054906101000a900473ffffffffffffffffffffffffffffffffffffffff16905090565b5f3373ffffffffffffffffffffffffffffffffffffffff167f000000000000000000000000000000000000000000000000000000000000000073ffffffffffffffffffffffffffffffffffffffff1614610400576040517f08c379a00000000000000000000000000000000000000000000000000000000081526004016103f790610d7b565b60405180910390fd5b5f73ffffffffffffffffffffffffffffffffffffffff168273ffffffffffffffffffffffffffffffffffffffff160361046e576040517f08c379a000000000000000000000000000000000000000000000000000000000815260040161046590610e09565b60405180910390fd5b5f73ffffffffffffffffffffffffffffffffffffffff168373ffffffffffffffffffffffffffffffffffffffff16036104dc576040517f08c379a00000000000000000000000000000000000000000000000000000000081526004016104d390610e97565b60405180910390fd5b8160015f6101000a81548173ffffffffffffffffffffffffffffffffffffffff021916908373ffffffffffffffffffffffffffffffffffffffff1602179055508260025f6101000a81548173ffffffffffffffffffffffffffffffffffffffff021916908373ffffffffffffffffffffffffffffffffffffffff1602179055506001905092915050565b5f6105fb61057384610603565b8473ffffffffffffffffffffffffffffffffffffffff166370a08231306040518263ffffffff1660e01b81526004016105ac9190610b57565b602060405180830381865afa1580156105c7573d5f803e3d5ffd5b505050506040513d601f19601f820116820180604052508101906105eb9190610edf565b6105f59190610cc8565b836107b2565b905092915050565b5f805f8373ffffffffffffffffffffffffffffffffffffffff1673ffffffffffffffffffffffffffffffffffffffff1681526020019081526020015f20549050919050565b5f61065282610603565b61065c8342610566565b6106669190610f0a565b9050919050565b5f60015f9054906101000a900473ffffffffffffffffffffffffffffffffffffffff1673ffffffffffffffffffffffffffffffffffffffff1663be9a65556040518163ffffffff1660e01b8152600401602060405180830381865afa1580156106d8573d5f803e3d5ffd5b505050506040513d601f19601f820116820180604052508101906106fc9190610c70565b67ffffffffffffffff16905090565b5f60015f9054906101000a900473ffffffffffffffffffffffffffffffffffffffff16905090565b6107ad838473ffffffffffffffffffffffffffffffffffffffff1663a9059cbb8585604051602401610766929190610f3d565b604051602081830303815290604052915060e01b6020820180517bffffffffffffffffffffffffffffffffffffffffffffffffffffffff838183161783525050505061084a565b505050565b5f6107bb61066d565b8267ffffffffffffffff1610156107d4575f9050610844565b6107dc6101e9565b6107e461066d565b6107ee9190610cc8565b8267ffffffffffffffff16111561080757829050610844565b61080f6101e9565b61081761066d565b8367ffffffffffffffff1661082c9190610f0a565b846108379190610f64565b6108419190610fd2565b90505b92915050565b5f610874828473ffffffffffffffffffffffffffffffffffffffff166108df90919063ffffffff16565b90505f815114158015610898575080806020019051810190610896919061102c565b155b156108da57826040517f5274afe70000000000000000000000000000000000000000000000000000000081526004016108d19190610b57565b60405180910390fd5b505050565b60606108ec83835f6108f4565b905092915050565b60608147101561093b57306040517fcd7860590000000000000000000000000000000000000000000000000000000081526004016109329190610b57565b60405180910390fd5b5f808573ffffffffffffffffffffffffffffffffffffffff16848660405161096391906110a9565b5f6040518083038185875af1925050503d805f811461099d576040519150601f19603f3d011682016040523d82523d5f602084013e6109a2565b606091505b50915091506109b28683836109bd565b925050509392505050565b6060826109d2576109cd82610a4a565b610a42565b5f82511480156109f857505f8473ffffffffffffffffffffffffffffffffffffffff163b145b15610a3a57836040517f9996b315000000000000000000000000000000000000000000000000000000008152600401610a319190610b57565b60405180910390fd5b819050610a43565b5b9392505050565b5f81511115610a5c5780518082602001fd5b6040517f1425ea4200000000000000000000000000000000000000000000000000000000815260040160405180910390fd5b5f819050919050565b610aa081610a8e565b82525050565b5f602082019050610ab95f830184610a97565b92915050565b5f80fd5b5f73ffffffffffffffffffffffffffffffffffffffff82169050919050565b5f610aec82610ac3565b9050919050565b610afc81610ae2565b8114610b06575f80fd5b50565b5f81359050610b1781610af3565b92915050565b5f60208284031215610b3257610b31610abf565b5b5f610b3f84828501610b09565b91505092915050565b610b5181610ae2565b82525050565b5f602082019050610b6a5f830184610b48565b92915050565b5f8060408385031215610b8657610b85610abf565b5b5f610b9385828601610b09565b9250506020610ba485828601610b09565b9150509250929050565b5f8115159050919050565b610bc281610bae565b82525050565b5f602082019050610bdb5f830184610bb9565b92915050565b5f67ffffffffffffffff82169050919050565b610bfd81610be1565b8114610c07575f80fd5b50565b5f81359050610c1881610bf4565b92915050565b5f8060408385031215610c3457610c33610abf565b5b5f610c4185828601610b09565b9250506020610c5285828601610c0a565b9150509250929050565b5f81519050610c6a81610bf4565b92915050565b5f60208284031215610c8557610c84610abf565b5b5f610c9284828501610c5c565b91505092915050565b7f4e487b71000000000000000000000000000000000000000000000000000000005f52601160045260245ffd5b5f610cd282610a8e565b9150610cdd83610a8e565b9250828201905080821115610cf557610cf4610c9b565b5b92915050565b5f82825260208201905092915050565b7f4d616e6167656456657374696e6757616c6c65743a206f6e6c7920666163746f5f8201527f7279000000000000000000000000000000000000000000000000000000000000602082015250565b5f610d65602283610cfb565b9150610d7082610d0b565b604082019050919050565b5f6020820190508181035f830152610d9281610d59565b9050919050565b7f4d616e6167656456657374696e6757616c6c65743a2076657374696e67206d615f8201527f6e61676572206973207a65726f20616464726573730000000000000000000000602082015250565b5f610df3603583610cfb565b9150610dfe82610d99565b604082019050919050565b5f6020820190508181035f830152610e2081610de7565b9050919050565b7f4d616e6167656456657374696e6757616c6c65743a2062656e656669636961725f8201527f79206973207a65726f2061646472657373000000000000000000000000000000602082015250565b5f610e81603183610cfb565b9150610e8c82610e27565b604082019050919050565b5f6020820190508181035f830152610eae81610e75565b9050919050565b610ebe81610a8e565b8114610ec8575f80fd5b50565b5f81519050610ed981610eb5565b92915050565b5f60208284031215610ef457610ef3610abf565b5b5f610f0184828501610ecb565b91505092915050565b5f610f1482610a8e565b9150610f1f83610a8e565b9250828203905081811115610f3757610f36610c9b565b5b92915050565b5f604082019050610f505f830185610b48565b610f5d6020830184610a97565b9392505050565b5f610f6e82610a8e565b9150610f7983610a8e565b9250828202610f8781610a8e565b91508282048414831517610f9e57610f9d610c9b565b5b5092915050565b7f4e487b71000000000000000000000000000000000000000000000000000000005f52601260045260245ffd5b5f610fdc82610a8e565b9150610fe783610a8e565b925082610ff757610ff6610fa5565b5b828204905092915050565b61100b81610bae565b8114611015575f80fd5b50565b5f8151905061102681611002565b92915050565b5f6020828403121561104157611040610abf565b5b5f61104e84828501611018565b91505092915050565b5f81519050919050565b5f81905092915050565b8281835e5f83830152505050565b5f61108382611057565b61108d8185611061565b935061109d81856020860161106b565b80840191505092915050565b5f6110b48284611079565b91508190509291505056fea26469706673582212202da45c5f8250af49d93add9efdbd5e31eb683c32f7802260db1f9cceb9d8e61164736f6c63430008190033",
					"opcodes": "PUSH1 0xA0 PUSH1 0x40 MSTORE CALLVALUE DUP1 ISZERO PUSH1 0xE JUMPI PUSH0 DUP1 REVERT JUMPDEST POP CALLER PUSH20 0xFFFFFFFFFFFFFFFFFFFFFFFFFFFFFFFFFFFFFFFF AND PUSH1 0x80 DUP2 PUSH20 0xFFFFFFFFFFFFFFFFFFFFFFFFFFFFFFFFFFFFFFFF AND DUP2 MSTORE POP POP PUSH1 0x80 MLOAD PUSH2 0x10F5 PUSH2 0x5B PUSH0 CODECOPY PUSH0 PUSH2 0x38B ADD MSTORE PUSH2 0x10F5 PUSH0 RETURN INVALID PUSH1 0x80 PUSH1 0x40 MSTORE CALLVALUE DUP1 ISZERO PUSH2 0xF JUMPI PUSH0 DUP1 REVERT JUMPDEST POP PUSH1 0x4 CALLDATASIZE LT PUSH2 0x91 JUMPI PUSH0 CALLDATALOAD PUSH1 0xE0 SHR DUP1 PUSH4 0x810EC23B GT PUSH2 0x64 JUMPI DUP1 PUSH4 0x810EC23B EQ PUSH2 0x11D JUMPI DUP1 PUSH4 0x9852595C EQ PUSH2 0x14D JUMPI DUP1 PUSH4 0xA3F8EACE EQ PUSH2 0x17D JUMPI DUP1 PUSH4 0xBE9A6555 EQ PUSH2 0x1AD JUMPI DUP1 PUSH4 0xDB27B8DD EQ PUSH2 0x1CB JUMPI PUSH2 0x91 JUMP JUMPDEST DUP1 PUSH4 0xFB5A6B4 EQ PUSH2 0x95 JUMPI DUP1 PUSH4 0x19165587 EQ PUSH2 0xB3 JUMPI DUP1 PUSH4 0x38AF3EED EQ PUSH2 0xCF JUMPI DUP1 PUSH4 0x485CC955 EQ PUSH2 0xED JUMPI JUMPDEST PUSH0 DUP1 REVERT JUMPDEST PUSH2 0x9D PUSH2 0x1E9 JUMP JUMPDEST PUSH1 0x40 MLOAD PUSH2 0xAA SWAP2 SWAP1 PUSH2 0xAA6 JUMP JUMPDEST PUSH1 0x40 MLOAD DUP1 SWAP2 SUB SWAP1 RETURN JUMPDEST PUSH2 0xCD PUSH1 0x4 DUP1 CALLDATASIZE SUB DUP2 ADD SWAP1 PUSH2 0xC8 SWAP2 SWAP1 PUSH2 0xB1D JUMP JUMPDEST PUSH2 0x287 JUMP JUMPDEST STOP JUMPDEST PUSH2 0xD7 PUSH2 0x349 JUMP JUMPDEST PUSH1 0x40 MLOAD PUSH2 0xE4 SWAP2 SWAP1 PUSH2 0xB57 JUMP JUMPDEST PUSH1 0x40 MLOAD DUP1 SWAP2 SUB SWAP1 RETURN JUMPDEST PUSH2 0x107 PUSH1 0x4 DUP1 CALLDATASIZE SUB DUP2 ADD SWAP1 PUSH2 0x102 SWAP2 SWAP1 PUSH2 0xB70 JUMP JUMPDEST PUSH2 0x371 JUMP JUMPDEST PUSH1 0x40 MLOAD PUSH2 0x114 SWAP2 SWAP1 PUSH2 0xBC8 JUMP JUMPDEST PUSH1 0x40 MLOAD DUP1 SWAP2 SUB SWAP1 RETURN JUMPDEST PUSH2 0x137 PUSH1 0x4 DUP1 CALLDATASIZE SUB DUP2 ADD SWAP1 PUSH2 0x132 SWAP2 SWAP1 PUSH2 0xC1E JUMP JUMPDEST PUSH2 0x566 JUMP JUMPDEST PUSH1 0x40 MLOAD PUSH2 0x144 SWAP2 SWAP1 PUSH2 0xAA6 JUMP JUMPDEST PUSH1 0x40 MLOAD DUP1 SWAP2 SUB SWAP1 RETURN JUMPDEST PUSH2 0x167 PUSH1 0x4 DUP1 CALLDATASIZE SUB DUP2 ADD SWAP1 PUSH2 0x162 SWAP2 SWAP1 PUSH2 0xB1D JUMP JUMPDEST PUSH2 0x603 JUMP JUMPDEST PUSH1 0x40 MLOAD PUSH2 0x174 SWAP2 SWAP1 PUSH2 0xAA6 JUMP JUMPDEST PUSH1 0x40 MLOAD DUP1 SWAP2 SUB SWAP1 RETURN JUMPDEST PUSH2 0x197 PUSH1 0x4 DUP1 CALLDATASIZE SUB DUP2 ADD SWAP1 PUSH2 0x192 SWAP2 SWAP1 PUSH2 0xB1D JUMP JUMPDEST PUSH2 0x648 JUMP JUMPDEST PUSH1 0x40 MLOAD PUSH2 0x1A4 SWAP2 SWAP1 PUSH2 0xAA6 JUMP JUMPDEST PUSH1 0x40 MLOAD DUP1 SWAP2 SUB SWAP1 RETURN JUMPDEST PUSH2 0x1B5 PUSH2 0x66D JUMP JUMPDEST PUSH1 0x40 MLOAD PUSH2 0x1C2 SWAP2 SWAP1 PUSH2 0xAA6 JUMP JUMPDEST PUSH1 0x40 MLOAD DUP1 SWAP2 SUB SWAP1 RETURN JUMPDEST PUSH2 0x1D3 PUSH2 0x70B JUMP JUMPDEST PUSH1 0x40 MLOAD PUSH2 0x1E0 SWAP2 SWAP1 PUSH2 0xB57 JUMP JUMPDEST PUSH1 0x40 MLOAD DUP1 SWAP2 SUB SWAP1 RETURN JUMPDEST PUSH0 PUSH1 0x1 PUSH0 SWAP1 SLOAD SWAP1 PUSH2 0x100 EXP SWAP1 DIV PUSH20 0xFFFFFFFFFFFFFFFFFFFFFFFFFFFFFFFFFFFFFFFF AND PUSH20 0xFFFFFFFFFFFFFFFFFFFFFFFFFFFFFFFFFFFFFFFF AND PUSH4 0xFB5A6B4 PUSH1 0x40 MLOAD DUP2 PUSH4 0xFFFFFFFF AND PUSH1 0xE0 SHL DUP2 MSTORE PUSH1 0x4 ADD PUSH1 0x20 PUSH1 0x40 MLOAD DUP1 DUP4 SUB DUP2 DUP7 GAS STATICCALL ISZERO DUP1 ISZERO PUSH2 0x254 JUMPI RETURNDATASIZE PUSH0 DUP1 RETURNDATACOPY RETURNDATASIZE PUSH0 REVERT JUMPDEST POP POP POP POP PUSH1 0x40 MLOAD RETURNDATASIZE PUSH1 0x1F NOT PUSH1 0x1F DUP3 ADD AND DUP3 ADD DUP1 PUSH1 0x40 MSTORE POP DUP2 ADD SWAP1 PUSH2 0x278 SWAP2 SWAP1 PUSH2 0xC70 JUMP JUMPDEST PUSH8 0xFFFFFFFFFFFFFFFF AND SWAP1 POP SWAP1 JUMP JUMPDEST PUSH0 PUSH2 0x291 DUP3 PUSH2 0x648 JUMP JUMPDEST SWAP1 POP DUP1 PUSH0 DUP1 DUP5 PUSH20 0xFFFFFFFFFFFFFFFFFFFFFFFFFFFFFFFFFFFFFFFF AND PUSH20 0xFFFFFFFFFFFFFFFFFFFFFFFFFFFFFFFFFFFFFFFF AND DUP2 MSTORE PUSH1 0x20 ADD SWAP1 DUP2 MSTORE PUSH1 0x20 ADD PUSH0 KECCAK256 PUSH0 DUP3 DUP3 SLOAD PUSH2 0x2DE SWAP2 SWAP1 PUSH2 0xCC8 JUMP JUMPDEST SWAP3 POP POP DUP2 SWAP1 SSTORE POP DUP2 PUSH20 0xFFFFFFFFFFFFFFFFFFFFFFFFFFFFFFFFFFFFFFFF AND PUSH32 0xC0E523490DD523C33B1878C9EB14FF46991E3F5B2CD33710918618F2A39CBA1B DUP3 PUSH1 0x40 MLOAD PUSH2 0x32B SWAP2 SWAP1 PUSH2 0xAA6 JUMP JUMPDEST PUSH1 0x40 MLOAD DUP1 SWAP2 SUB SWAP1 LOG2 PUSH2 0x345 DUP3 PUSH2 0x33F PUSH2 0x349 JUMP JUMPDEST DUP4 PUSH2 0x733 JUMP JUMPDEST POP POP JUMP JUMPDEST PUSH0 PUSH1 0x2 PUSH0 SWAP1 SLOAD SWAP1 PUSH2 0x100 EXP SWAP1 DIV PUSH20 0xFFFFFFFFFFFFFFFFFFFFFFFFFFFFFFFFFFFFFFFF AND SWAP1 POP SWAP1 JUMP JUMPDEST PUSH0 CALLER PUSH20 0xFFFFFFFFFFFFFFFFFFFFFFFFFFFFFFFFFFFFFFFF AND PUSH32 0x0 PUSH20 0xFFFFFFFFFFFFFFFFFFFFFFFFFFFFFFFFFFFFFFFF AND EQ PUSH2 0x400 JUMPI PUSH1 0x40 MLOAD PUSH32 0x8C379A000000000000000000000000000000000000000000000000000000000 DUP2 MSTORE PUSH1 0x4 ADD PUSH2 0x3F7 SWAP1 PUSH2 0xD7B JUMP JUMPDEST PUSH1 0x40 MLOAD DUP1 SWAP2 SUB SWAP1 REVERT JUMPDEST PUSH0 PUSH20 0xFFFFFFFFFFFFFFFFFFFFFFFFFFFFFFFFFFFFFFFF AND DUP3 PUSH20 0xFFFFFFFFFFFFFFFFFFFFFFFFFFFFFFFFFFFFFFFF AND SUB PUSH2 0x46E JUMPI PUSH1 0x40 MLOAD PUSH32 0x8C379A000000000000000000000000000000000000000000000000000000000 DUP2 MSTORE PUSH1 0x4 ADD PUSH2 0x465 SWAP1 PUSH2 0xE09 JUMP JUMPDEST PUSH1 0x40 MLOAD DUP1 SWAP2 SUB SWAP1 REVERT JUMPDEST PUSH0 PUSH20 0xFFFFFFFFFFFFFFFFFFFFFFFFFFFFFFFFFFFFFFFF AND DUP4 PUSH20 0xFFFFFFFFFFFFFFFFFFFFFFFFFFFFFFFFFFFFFFFF AND SUB PUSH2 0x4DC JUMPI PUSH1 0x40 MLOAD PUSH32 0x8C379A000000000000000000000000000000000000000000000000000000000 DUP2 MSTORE PUSH1 0x4 ADD PUSH2 0x4D3 SWAP1 PUSH2 0xE97 JUMP JUMPDEST PUSH1 0x40 MLOAD DUP1 SWAP2 SUB SWAP1 REVERT JUMPDEST DUP2 PUSH1 0x1 PUSH0 PUSH2 0x100 EXP DUP2 SLOAD DUP2 PUSH20 0xFFFFFFFFFFFFFFFFFFFFFFFFFFFFFFFFFFFFFFFF MUL NOT AND SWAP1 DUP4 PUSH20 0xFFFFFFFFFFFFFFFFFFFFFFFFFFFFFFFFFFFFFFFF AND MUL OR SWAP1 SSTORE POP DUP3 PUSH1 0x2 PUSH0 PUSH2 0x100 EXP DUP2 SLOAD DUP2 PUSH20 0xFFFFFFFFFFFFFFFFFFFFFFFFFFFFFFFFFFFFFFFF MUL NOT AND SWAP1 DUP4 PUSH20 0xFFFFFFFFFFFFFFFFFFFFFFFFFFFFFFFFFFFFFFFF AND MUL OR SWAP1 SSTORE POP PUSH1 0x1 SWAP1 POP SWAP3 SWAP2 POP POP JUMP JUMPDEST PUSH0 PUSH2 0x5FB PUSH2 0x573 DUP5 PUSH2 0x603 JUMP JUMPDEST DUP5 PUSH20 0xFFFFFFFFFFFFFFFFFFFFFFFFFFFFFFFFFFFFFFFF AND PUSH4 0x70A08231 ADDRESS PUSH1 0x40 MLOAD DUP3 PUSH4 0xFFFFFFFF AND PUSH1 0xE0 SHL DUP2 MSTORE PUSH1 0x4 ADD PUSH2 0x5AC SWAP2 SWAP1 PUSH2 0xB57 JUMP JUMPDEST PUSH1 0x20 PUSH1 0x40 MLOAD DUP1 DUP4 SUB DUP2 DUP7 GAS STATICCALL ISZERO DUP1 ISZERO PUSH2 0x5C7 JUMPI RETURNDATASIZE PUSH0 DUP1 RETURNDATACOPY RETURNDATASIZE PUSH0 REVERT JUMPDEST POP POP POP POP PUSH1 0x40 MLOAD RETURNDATASIZE PUSH1 0x1F NOT PUSH1 0x1F DUP3 ADD AND DUP3 ADD DUP1 PUSH1 0x40 MSTORE POP DUP2 ADD SWAP1 PUSH2 0x5EB SWAP2 SWAP1 PUSH2 0xEDF JUMP JUMPDEST PUSH2 0x5F5 SWAP2 SWAP1 PUSH2 0xCC8 JUMP JUMPDEST DUP4 PUSH2 0x7B2 JUMP JUMPDEST SWAP1 POP SWAP3 SWAP2 POP POP JUMP JUMPDEST PUSH0 DUP1 PUSH0 DUP4 PUSH20 0xFFFFFFFFFFFFFFFFFFFFFFFFFFFFFFFFFFFFFFFF AND PUSH20 0xFFFFFFFFFFFFFFFFFFFFFFFFFFFFFFFFFFFFFFFF AND DUP2 MSTORE PUSH1 0x20 ADD SWAP1 DUP2 MSTORE PUSH1 0x20 ADD PUSH0 KECCAK256 SLOAD SWAP1 POP SWAP2 SWAP1 POP JUMP JUMPDEST PUSH0 PUSH2 0x652 DUP3 PUSH2 0x603 JUMP JUMPDEST PUSH2 0x65C DUP4 TIMESTAMP PUSH2 0x566 JUMP JUMPDEST PUSH2 0x666 SWAP2 SWAP1 PUSH2 0xF0A JUMP JUMPDEST SWAP1 POP SWAP2 SWAP1 POP JUMP JUMPDEST PUSH0 PUSH1 0x1 PUSH0 SWAP1 SLOAD SWAP1 PUSH2 0x100 EXP SWAP1 DIV PUSH20 0xFFFFFFFFFFFFFFFFFFFFFFFFFFFFFFFFFFFFFFFF AND PUSH20 0xFFFFFFFFFFFFFFFFFFFFFFFFFFFFFFFFFFFFFFFF AND PUSH4 0xBE9A6555 PUSH1 0x40 MLOAD DUP2 PUSH4 0xFFFFFFFF AND PUSH1 0xE0 SHL DUP2 MSTORE PUSH1 0x4 ADD PUSH1 0x20 PUSH1 0x40 MLOAD DUP1 DUP4 SUB DUP2 DUP7 GAS STATICCALL ISZERO DUP1 ISZERO PUSH2 0x6D8 JUMPI RETURNDATASIZE PUSH0 DUP1 RETURNDATACOPY RETURNDATASIZE PUSH0 REVERT JUMPDEST POP POP POP POP PUSH1 0x40 MLOAD RETURNDATASIZE PUSH1 0x1F NOT PUSH1 0x1F DUP3 ADD AND DUP3 ADD DUP1 PUSH1 0x40 MSTORE POP DUP2 ADD SWAP1 PUSH2 0x6FC SWAP2 SWAP1 PUSH2 0xC70 JUMP JUMPDEST PUSH8 0xFFFFFFFFFFFFFFFF AND SWAP1 POP SWAP1 JUMP JUMPDEST PUSH0 PUSH1 0x1 PUSH0 SWAP1 SLOAD SWAP1 PUSH2 0x100 EXP SWAP1 DIV PUSH20 0xFFFFFFFFFFFFFFFFFFFFFFFFFFFFFFFFFFFFFFFF AND SWAP1 POP SWAP1 JUMP JUMPDEST PUSH2 0x7AD DUP4 DUP5 PUSH20 0xFFFFFFFFFFFFFFFFFFFFFFFFFFFFFFFFFFFFFFFF AND PUSH4 0xA9059CBB DUP6 DUP6 PUSH1 0x40 MLOAD PUSH1 0x24 ADD PUSH2 0x766 SWAP3 SWAP2 SWAP1 PUSH2 0xF3D JUMP JUMPDEST PUSH1 0x40 MLOAD PUSH1 0x20 DUP2 DUP4 SUB SUB DUP2 MSTORE SWAP1 PUSH1 0x40 MSTORE SWAP2 POP PUSH1 0xE0 SHL PUSH1 0x20 DUP3 ADD DUP1 MLOAD PUSH28 0xFFFFFFFFFFFFFFFFFFFFFFFFFFFFFFFFFFFFFFFFFFFFFFFFFFFFFFFF DUP4 DUP2 DUP4 AND OR DUP4 MSTORE POP POP POP POP PUSH2 0x84A JUMP JUMPDEST POP POP POP JUMP JUMPDEST PUSH0 PUSH2 0x7BB PUSH2 0x66D JUMP JUMPDEST DUP3 PUSH8 0xFFFFFFFFFFFFFFFF AND LT ISZERO PUSH2 0x7D4 JUMPI PUSH0 SWAP1 POP PUSH2 0x844 JUMP JUMPDEST PUSH2 0x7DC PUSH2 0x1E9 JUMP JUMPDEST PUSH2 0x7E4 PUSH2 0x66D JUMP JUMPDEST PUSH2 0x7EE SWAP2 SWAP1 PUSH2 0xCC8 JUMP JUMPDEST DUP3 PUSH8 0xFFFFFFFFFFFFFFFF AND GT ISZERO PUSH2 0x807 JUMPI DUP3 SWAP1 POP PUSH2 0x844 JUMP JUMPDEST PUSH2 0x80F PUSH2 0x1E9 JUMP JUMPDEST PUSH2 0x817 PUSH2 0x66D JUMP JUMPDEST DUP4 PUSH8 0xFFFFFFFFFFFFFFFF AND PUSH2 0x82C SWAP2 SWAP1 PUSH2 0xF0A JUMP JUMPDEST DUP5 PUSH2 0x837 SWAP2 SWAP1 PUSH2 0xF64 JUMP JUMPDEST PUSH2 0x841 SWAP2 SWAP1 PUSH2 0xFD2 JUMP JUMPDEST SWAP1 POP JUMPDEST SWAP3 SWAP2 POP POP JUMP JUMPDEST PUSH0 PUSH2 0x874 DUP3 DUP5 PUSH20 0xFFFFFFFFFFFFFFFFFFFFFFFFFFFFFFFFFFFFFFFF AND PUSH2 0x8DF SWAP1 SWAP2 SWAP1 PUSH4 0xFFFFFFFF AND JUMP JUMPDEST SWAP1 POP PUSH0 DUP2 MLOAD EQ ISZERO DUP1 ISZERO PUSH2 0x898 JUMPI POP DUP1 DUP1 PUSH1 0x20 ADD SWAP1 MLOAD DUP2 ADD SWAP1 PUSH2 0x896 SWAP2 SWAP1 PUSH2 0x102C JUMP JUMPDEST ISZERO JUMPDEST ISZERO PUSH2 0x8DA JUMPI DUP3 PUSH1 0x40 MLOAD PUSH32 0x5274AFE700000000000000000000000000000000000000000000000000000000 DUP2 MSTORE PUSH1 0x4 ADD PUSH2 0x8D1 SWAP2 SWAP1 PUSH2 0xB57 JUMP JUMPDEST PUSH1 0x40 MLOAD DUP1 SWAP2 SUB SWAP1 REVERT JUMPDEST POP POP POP JUMP JUMPDEST PUSH1 0x60 PUSH2 0x8EC DUP4 DUP4 PUSH0 PUSH2 0x8F4 JUMP JUMPDEST SWAP1 POP SWAP3 SWAP2 POP POP JUMP JUMPDEST PUSH1 0x60 DUP2 SELFBALANCE LT ISZERO PUSH2 0x93B JUMPI ADDRESS PUSH1 0x40 MLOAD PUSH32 0xCD78605900000000000000000000000000000000000000000000000000000000 DUP2 MSTORE PUSH1 0x4 ADD PUSH2 0x932 SWAP2 SWAP1 PUSH2 0xB57 JUMP JUMPDEST PUSH1 0x40 MLOAD DUP1 SWAP2 SUB SWAP1 REVERT JUMPDEST PUSH0 DUP1 DUP6 PUSH20 0xFFFFFFFFFFFFFFFFFFFFFFFFFFFFFFFFFFFFFFFF AND DUP5 DUP7 PUSH1 0x40 MLOAD PUSH2 0x963 SWAP2 SWAP1 PUSH2 0x10A9 JUMP JUMPDEST PUSH0 PUSH1 0x40 MLOAD DUP1 DUP4 SUB DUP2 DUP6 DUP8 GAS CALL SWAP3 POP POP POP RETURNDATASIZE DUP1 PUSH0 DUP2 EQ PUSH2 0x99D JUMPI PUSH1 0x40 MLOAD SWAP2 POP PUSH1 0x1F NOT PUSH1 0x3F RETURNDATASIZE ADD AND DUP3 ADD PUSH1 0x40 MSTORE RETURNDATASIZE DUP3 MSTORE RETURNDATASIZE PUSH0 PUSH1 0x20 DUP5 ADD RETURNDATACOPY PUSH2 0x9A2 JUMP JUMPDEST PUSH1 0x60 SWAP2 POP JUMPDEST POP SWAP2 POP SWAP2 POP PUSH2 0x9B2 DUP7 DUP4 DUP4 PUSH2 0x9BD JUMP JUMPDEST SWAP3 POP POP POP SWAP4 SWAP3 POP POP POP JUMP JUMPDEST PUSH1 0x60 DUP3 PUSH2 0x9D2 JUMPI PUSH2 0x9CD DUP3 PUSH2 0xA4A JUMP JUMPDEST PUSH2 0xA42 JUMP JUMPDEST PUSH0 DUP3 MLOAD EQ DUP1 ISZERO PUSH2 0x9F8 JUMPI POP PUSH0 DUP5 PUSH20 0xFFFFFFFFFFFFFFFFFFFFFFFFFFFFFFFFFFFFFFFF AND EXTCODESIZE EQ JUMPDEST ISZERO PUSH2 0xA3A JUMPI DUP4 PUSH1 0x40 MLOAD PUSH32 0x9996B31500000000000000000000000000000000000000000000000000000000 DUP2 MSTORE PUSH1 0x4 ADD PUSH2 0xA31 SWAP2 SWAP1 PUSH2 0xB57 JUMP JUMPDEST PUSH1 0x40 MLOAD DUP1 SWAP2 SUB SWAP1 REVERT JUMPDEST DUP2 SWAP1 POP PUSH2 0xA43 JUMP JUMPDEST JUMPDEST SWAP4 SWAP3 POP POP POP JUMP JUMPDEST PUSH0 DUP2 MLOAD GT ISZERO PUSH2 0xA5C JUMPI DUP1 MLOAD DUP1 DUP3 PUSH1 0x20 ADD REVERT JUMPDEST PUSH1 0x40 MLOAD PUSH32 0x1425EA4200000000000000000000000000000000000000000000000000000000 DUP2 MSTORE PUSH1 0x4 ADD PUSH1 0x40 MLOAD DUP1 SWAP2 SUB SWAP1 REVERT JUMPDEST PUSH0 DUP2 SWAP1 POP SWAP2 SWAP1 POP JUMP JUMPDEST PUSH2 0xAA0 DUP2 PUSH2 0xA8E JUMP JUMPDEST DUP3 MSTORE POP POP JUMP JUMPDEST PUSH0 PUSH1 0x20 DUP3 ADD SWAP1 POP PUSH2 0xAB9 PUSH0 DUP4 ADD DUP5 PUSH2 0xA97 JUMP JUMPDEST SWAP3 SWAP2 POP POP JUMP JUMPDEST PUSH0 DUP1 REVERT JUMPDEST PUSH0 PUSH20 0xFFFFFFFFFFFFFFFFFFFFFFFFFFFFFFFFFFFFFFFF DUP3 AND SWAP1 POP SWAP2 SWAP1 POP JUMP JUMPDEST PUSH0 PUSH2 0xAEC DUP3 PUSH2 0xAC3 JUMP JUMPDEST SWAP1 POP SWAP2 SWAP1 POP JUMP JUMPDEST PUSH2 0xAFC DUP2 PUSH2 0xAE2 JUMP JUMPDEST DUP2 EQ PUSH2 0xB06 JUMPI PUSH0 DUP1 REVERT JUMPDEST POP JUMP JUMPDEST PUSH0 DUP2 CALLDATALOAD SWAP1 POP PUSH2 0xB17 DUP2 PUSH2 0xAF3 JUMP JUMPDEST SWAP3 SWAP2 POP POP JUMP JUMPDEST PUSH0 PUSH1 0x20 DUP3 DUP5 SUB SLT ISZERO PUSH2 0xB32 JUMPI PUSH2 0xB31 PUSH2 0xABF JUMP JUMPDEST JUMPDEST PUSH0 PUSH2 0xB3F DUP5 DUP3 DUP6 ADD PUSH2 0xB09 JUMP JUMPDEST SWAP2 POP POP SWAP3 SWAP2 POP POP JUMP JUMPDEST PUSH2 0xB51 DUP2 PUSH2 0xAE2 JUMP JUMPDEST DUP3 MSTORE POP POP JUMP JUMPDEST PUSH0 PUSH1 0x20 DUP3 ADD SWAP1 POP PUSH2 0xB6A PUSH0 DUP4 ADD DUP5 PUSH2 0xB48 JUMP JUMPDEST SWAP3 SWAP2 POP POP JUMP JUMPDEST PUSH0 DUP1 PUSH1 0x40 DUP4 DUP6 SUB SLT ISZERO PUSH2 0xB86 JUMPI PUSH2 0xB85 PUSH2 0xABF JUMP JUMPDEST JUMPDEST PUSH0 PUSH2 0xB93 DUP6 DUP3 DUP7 ADD PUSH2 0xB09 JUMP JUMPDEST SWAP3 POP POP PUSH1 0x20 PUSH2 0xBA4 DUP6 DUP3 DUP7 ADD PUSH2 0xB09 JUMP JUMPDEST SWAP2 POP POP SWAP3 POP SWAP3 SWAP1 POP JUMP JUMPDEST PUSH0 DUP2 ISZERO ISZERO SWAP1 POP SWAP2 SWAP1 POP JUMP JUMPDEST PUSH2 0xBC2 DUP2 PUSH2 0xBAE JUMP JUMPDEST DUP3 MSTORE POP POP JUMP JUMPDEST PUSH0 PUSH1 0x20 DUP3 ADD SWAP1 POP PUSH2 0xBDB PUSH0 DUP4 ADD DUP5 PUSH2 0xBB9 JUMP JUMPDEST SWAP3 SWAP2 POP POP JUMP JUMPDEST PUSH0 PUSH8 0xFFFFFFFFFFFFFFFF DUP3 AND SWAP1 POP SWAP2 SWAP1 POP JUMP JUMPDEST PUSH2 0xBFD DUP2 PUSH2 0xBE1 JUMP JUMPDEST DUP2 EQ PUSH2 0xC07 JUMPI PUSH0 DUP1 REVERT JUMPDEST POP JUMP JUMPDEST PUSH0 DUP2 CALLDATALOAD SWAP1 POP PUSH2 0xC18 DUP2 PUSH2 0xBF4 JUMP JUMPDEST SWAP3 SWAP2 POP POP JUMP JUMPDEST PUSH0 DUP1 PUSH1 0x40 DUP4 DUP6 SUB SLT ISZERO PUSH2 0xC34 JUMPI PUSH2 0xC33 PUSH2 0xABF JUMP JUMPDEST JUMPDEST PUSH0 PUSH2 0xC41 DUP6 DUP3 DUP7 ADD PUSH2 0xB09 JUMP JUMPDEST SWAP3 POP POP PUSH1 0x20 PUSH2 0xC52 DUP6 DUP3 DUP7 ADD PUSH2 0xC0A JUMP JUMPDEST SWAP2 POP POP SWAP3 POP SWAP3 SWAP1 POP JUMP JUMPDEST PUSH0 DUP2 MLOAD SWAP1 POP PUSH2 0xC6A DUP2 PUSH2 0xBF4 JUMP JUMPDEST SWAP3 SWAP2 POP POP JUMP JUMPDEST PUSH0 PUSH1 0x20 DUP3 DUP5 SUB SLT ISZERO PUSH2 0xC85 JUMPI PUSH2 0xC84 PUSH2 0xABF JUMP JUMPDEST JUMPDEST PUSH0 PUSH2 0xC92 DUP5 DUP3 DUP6 ADD PUSH2 0xC5C JUMP JUMPDEST SWAP2 POP POP SWAP3 SWAP2 POP POP JUMP JUMPDEST PUSH32 0x4E487B7100000000000000000000000000000000000000000000000000000000 PUSH0 MSTORE PUSH1 0x11 PUSH1 0x4 MSTORE PUSH1 0x24 PUSH0 REVERT JUMPDEST PUSH0 PUSH2 0xCD2 DUP3 PUSH2 0xA8E JUMP JUMPDEST SWAP2 POP PUSH2 0xCDD DUP4 PUSH2 0xA8E JUMP JUMPDEST SWAP3 POP DUP3 DUP3 ADD SWAP1 POP DUP1 DUP3 GT ISZERO PUSH2 0xCF5 JUMPI PUSH2 0xCF4 PUSH2 0xC9B JUMP JUMPDEST JUMPDEST SWAP3 SWAP2 POP POP JUMP JUMPDEST PUSH0 DUP3 DUP3 MSTORE PUSH1 0x20 DUP3 ADD SWAP1 POP SWAP3 SWAP2 POP POP JUMP JUMPDEST PUSH32 0x4D616E6167656456657374696E6757616C6C65743A206F6E6C7920666163746F PUSH0 DUP3 ADD MSTORE PUSH32 0x7279000000000000000000000000000000000000000000000000000000000000 PUSH1 0x20 DUP3 ADD MSTORE POP JUMP JUMPDEST PUSH0 PUSH2 0xD65 PUSH1 0x22 DUP4 PUSH2 0xCFB JUMP JUMPDEST SWAP2 POP PUSH2 0xD70 DUP3 PUSH2 0xD0B JUMP JUMPDEST PUSH1 0x40 DUP3 ADD SWAP1 POP SWAP2 SWAP1 POP JUMP JUMPDEST PUSH0 PUSH1 0x20 DUP3 ADD SWAP1 POP DUP2 DUP2 SUB PUSH0 DUP4 ADD MSTORE PUSH2 0xD92 DUP2 PUSH2 0xD59 JUMP JUMPDEST SWAP1 POP SWAP2 SWAP1 POP JUMP JUMPDEST PUSH32 0x4D616E6167656456657374696E6757616C6C65743A2076657374696E67206D61 PUSH0 DUP3 ADD MSTORE PUSH32 0x6E61676572206973207A65726F20616464726573730000000000000000000000 PUSH1 0x20 DUP3 ADD MSTORE POP JUMP JUMPDEST PUSH0 PUSH2 0xDF3 PUSH1 0x35 DUP4 PUSH2 0xCFB JUMP JUMPDEST SWAP2 POP PUSH2 0xDFE DUP3 PUSH2 0xD99 JUMP JUMPDEST PUSH1 0x40 DUP3 ADD SWAP1 POP SWAP2 SWAP1 POP JUMP JUMPDEST PUSH0 PUSH1 0x20 DUP3 ADD SWAP1 POP DUP2 DUP2 SUB PUSH0 DUP4 ADD MSTORE PUSH2 0xE20 DUP2 PUSH2 0xDE7 JUMP JUMPDEST SWAP1 POP SWAP2 SWAP1 POP JUMP JUMPDEST PUSH32 0x4D616E6167656456657374696E6757616C6C65743A2062656E65666963696172 PUSH0 DUP3 ADD MSTORE PUSH32 0x79206973207A65726F2061646472657373000000000000000000000000000000 PUSH1 0x20 DUP3 ADD MSTORE POP JUMP JUMPDEST PUSH0 PUSH2 0xE81 PUSH1 0x31 DUP4 PUSH2 0xCFB JUMP JUMPDEST SWAP2 POP PUSH2 0xE8C DUP3 PUSH2 0xE27 JUMP JUMPDEST PUSH1 0x40 DUP3 ADD SWAP1 POP SWAP2 SWAP1 POP JUMP JUMPDEST PUSH0 PUSH1 0x20 DUP3 ADD SWAP1 POP DUP2 DUP2 SUB PUSH0 DUP4 ADD MSTORE PUSH2 0xEAE DUP2 PUSH2 0xE75 JUMP JUMPDEST SWAP1 POP SWAP2 SWAP1 POP JUMP JUMPDEST PUSH2 0xEBE DUP2 PUSH2 0xA8E JUMP JUMPDEST DUP2 EQ PUSH2 0xEC8 JUMPI PUSH0 DUP1 REVERT JUMPDEST POP JUMP JUMPDEST PUSH0 DUP2 MLOAD SWAP1 POP PUSH2 0xED9 DUP2 PUSH2 0xEB5 JUMP JUMPDEST SWAP3 SWAP2 POP POP JUMP JUMPDEST PUSH0 PUSH1 0x20 DUP3 DUP5 SUB SLT ISZERO PUSH2 0xEF4 JUMPI PUSH2 0xEF3 PUSH2 0xABF JUMP JUMPDEST JUMPDEST PUSH0 PUSH2 0xF01 DUP5 DUP3 DUP6 ADD PUSH2 0xECB JUMP JUMPDEST SWAP2 POP POP SWAP3 SWAP2 POP POP JUMP JUMPDEST PUSH0 PUSH2 0xF14 DUP3 PUSH2 0xA8E JUMP JUMPDEST SWAP2 POP PUSH2 0xF1F DUP4 PUSH2 0xA8E JUMP JUMPDEST SWAP3 POP DUP3 DUP3 SUB SWAP1 POP DUP2 DUP2 GT ISZERO PUSH2 0xF37 JUMPI PUSH2 0xF36 PUSH2 0xC9B JUMP JUMPDEST JUMPDEST SWAP3 SWAP2 POP POP JUMP JUMPDEST PUSH0 PUSH1 0x40 DUP3 ADD SWAP1 POP PUSH2 0xF50 PUSH0 DUP4 ADD DUP6 PUSH2 0xB48 JUMP JUMPDEST PUSH2 0xF5D PUSH1 0x20 DUP4 ADD DUP5 PUSH2 0xA97 JUMP JUMPDEST SWAP4 SWAP3 POP POP POP JUMP JUMPDEST PUSH0 PUSH2 0xF6E DUP3 PUSH2 0xA8E JUMP JUMPDEST SWAP2 POP PUSH2 0xF79 DUP4 PUSH2 0xA8E JUMP JUMPDEST SWAP3 POP DUP3 DUP3 MUL PUSH2 0xF87 DUP2 PUSH2 0xA8E JUMP JUMPDEST SWAP2 POP DUP3 DUP3 DIV DUP5 EQ DUP4 ISZERO OR PUSH2 0xF9E JUMPI PUSH2 0xF9D PUSH2 0xC9B JUMP JUMPDEST JUMPDEST POP SWAP3 SWAP2 POP POP JUMP JUMPDEST PUSH32 0x4E487B7100000000000000000000000000000000000000000000000000000000 PUSH0 MSTORE PUSH1 0x12 PUSH1 0x4 MSTORE PUSH1 0x24 PUSH0 REVERT JUMPDEST PUSH0 PUSH2 0xFDC DUP3 PUSH2 0xA8E JUMP JUMPDEST SWAP2 POP PUSH2 0xFE7 DUP4 PUSH2 0xA8E JUMP JUMPDEST SWAP3 POP DUP3 PUSH2 0xFF7 JUMPI PUSH2 0xFF6 PUSH2 0xFA5 JUMP JUMPDEST JUMPDEST DUP3 DUP3 DIV SWAP1 POP SWAP3 SWAP2 POP POP JUMP JUMPDEST PUSH2 0x100B DUP2 PUSH2 0xBAE JUMP JUMPDEST DUP2 EQ PUSH2 0x1015 JUMPI PUSH0 DUP1 REVERT JUMPDEST POP JUMP JUMPDEST PUSH0 DUP2 MLOAD SWAP1 POP PUSH2 0x1026 DUP2 PUSH2 0x1002 JUMP JUMPDEST SWAP3 SWAP2 POP POP JUMP JUMPDEST PUSH0 PUSH1 0x20 DUP3 DUP5 SUB SLT ISZERO PUSH2 0x1041 JUMPI PUSH2 0x1040 PUSH2 0xABF JUMP JUMPDEST JUMPDEST PUSH0 PUSH2 0x104E DUP5 DUP3 DUP6 ADD PUSH2 0x1018 JUMP JUMPDEST SWAP2 POP POP SWAP3 SWAP2 POP POP JUMP JUMPDEST PUSH0 DUP2 MLOAD SWAP1 POP SWAP2 SWAP1 POP JUMP JUMPDEST PUSH0 DUP2 SWAP1 POP SWAP3 SWAP2 POP POP JUMP JUMPDEST DUP3 DUP2 DUP4 MCOPY PUSH0 DUP4 DUP4 ADD MSTORE POP POP POP JUMP JUMPDEST PUSH0 PUSH2 0x1083 DUP3 PUSH2 0x1057 JUMP JUMPDEST PUSH2 0x108D DUP2 DUP6 PUSH2 0x1061 JUMP JUMPDEST SWAP4 POP PUSH2 0x109D DUP2 DUP6 PUSH1 0x20 DUP7 ADD PUSH2 0x106B JUMP JUMPDEST DUP1 DUP5 ADD SWAP2 POP POP SWAP3 SWAP2 POP POP JUMP JUMPDEST PUSH0 PUSH2 0x10B4 DUP3 DUP5 PUSH2 0x1079 JUMP JUMPDEST SWAP2 POP DUP2 SWAP1 POP SWAP3 SWAP2 POP POP JUMP INVALID LOG2 PUSH5 0x6970667358 0x22 SLT KECCAK256 0x2D LOG4 TLOAD PUSH0 DUP3 POP 0xAF BLOBHASH 0xD9 GASPRICE 0xDD SWAP15 REVERT 0xBD MCOPY BALANCE 0xEB PUSH9 0x3C32F7802260DB1F9C 0xCE 0xB9 0xD8 0xE6 GT PUSH5 0x736F6C6343 STOP ADDMOD NOT STOP CALLER "
				},
				"gasEstimates": {
					"creation": {
						"codeDepositCost": "868200",
						"executionCost": "infinite",
						"totalCost": "infinite"
					},
					"external": {
						"beneficiary()": "2560",
						"duration()": "infinite",
						"initialize(address,address)": "infinite",
						"releasable(address)": "infinite",
						"release(address)": "infinite",
						"released(address)": "2851",
						"start()": "infinite",
						"vestedAmount(address,uint64)": "infinite",
						"vestingManager()": "2603"
					}
				},
				"methodIdentifiers": {
					"beneficiary()": "38af3eed",
					"duration()": "0fb5a6b4",
					"initialize(address,address)": "485cc955",
					"releasable(address)": "a3f8eace",
					"release(address)": "19165587",
					"released(address)": "9852595c",
					"start()": "be9a6555",
					"vestedAmount(address,uint64)": "810ec23b",
					"vestingManager()": "db27b8dd"
				}
			},
			"storageLayout": {
				"storage": [
					{
						"astId": 824,
						"contract": "ManagedVestingWallet/ManagedVestingWallet.sol.sol:ManagedVestingWallet",
						"label": "_erc20Released",
						"offset": 0,
						"slot": "0",
						"type": "t_mapping(t_address,t_uint256)"
					},
					{
						"astId": 695,
						"contract": "ManagedVestingWallet/ManagedVestingWallet.sol.sol:ManagedVestingWallet",
						"label": "_vestingManager",
						"offset": 0,
						"slot": "1",
						"type": "t_address"
					},
					{
						"astId": 697,
						"contract": "ManagedVestingWallet/ManagedVestingWallet.sol.sol:ManagedVestingWallet",
						"label": "_beneficiary",
						"offset": 0,
						"slot": "2",
						"type": "t_address"
					}
				],
				"types": {
					"t_address": {
						"encoding": "inplace",
						"label": "address",
						"numberOfBytes": "20"
					},
					"t_mapping(t_address,t_uint256)": {
						"encoding": "mapping",
						"key": "t_address",
						"label": "mapping(address => uint256)",
						"numberOfBytes": "32",
						"value": "t_uint256"
					},
					"t_uint256": {
						"encoding": "inplace",
						"label": "uint256",
						"numberOfBytes": "32"
					}
				}
			},
			"userdoc": {
				"kind": "user",
				"methods": {},
				"version": 1
			}
		}
	}
}