{
	"data": {
		"bytecode": {
			"linkReferences": {},
			"object": "608060405234801561000f575f80fd5b5061002f5f801b61002461003560201b60201c565b61003c60201b60201c565b50610194565b5f33905090565b5f61004d838361013160201b60201c565b6101275760015f808581526020019081526020015f205f015f8473ffffffffffffffffffffffffffffffffffffffff1673ffffffffffffffffffffffffffffffffffffffff1681526020019081526020015f205f6101000a81548160ff0219169083151502179055506100c461003560201b60201c565b73ffffffffffffffffffffffffffffffffffffffff168273ffffffffffffffffffffffffffffffffffffffff16847f2f8788117e7eff1d82e926ec794901d17c78024a50270940304540a733656f0d60405160405180910390a46001905061012b565b5f90505b92915050565b5f805f8481526020019081526020015f205f015f8373ffffffffffffffffffffffffffffffffffffffff1673ffffffffffffffffffffffffffffffffffffffff1681526020019081526020015f205f9054906101000a900460ff16905092915050565b6123ec806101a15f395ff3fe608060405234801561000f575f80fd5b50600436106100cd575f3560e01c80634a6d02921161008a578063a217fddf11610064578063a217fddf1461021f578063af8060401461023d578063b82d15e31461025b578063d547741f1461028b576100cd565b80634a6d0292146101b557806364d2516c146101d157806391d14854146101ef576100cd565b806301ffc9a7146100d1578063186d268f14610101578063248a9ca3146101315780632f2ff15d1461016157806330d618071461017d57806336568abe14610199575b5f80fd5b6100eb60048036038101906100e69190610c2b565b6102a7565b6040516100f89190610c70565b60405180910390f35b61011b60048036038101906101169190610ce3565b610320565b6040516101289190610d30565b60405180910390f35b61014b60048036038101906101469190610d7c565b610546565b6040516101589190610db6565b60405180910390f35b61017b60048036038101906101769190610dcf565b610562565b005b61019760048036038101906101929190610e0d565b610584565b005b6101b360048036038101906101ae9190610dcf565b61062d565b005b6101cf60048036038101906101ca9190610e0d565b6106a8565b005b6101d9610751565b6040516101e69190610db6565b60405180910390f35b61020960048036038101906102049190610dcf565b610775565b6040516102169190610c70565b60405180910390f35b6102276107d8565b6040516102349190610db6565b60405180910390f35b6102456107de565b6040516102529190610db6565b60405180910390f35b61027560048036038101906102709190610e62565b61082b565b6040516102829190610d30565b60405180910390f35b6102a560048036038101906102a09190610dcf565b6108fc565b005b5f7f7965db0b000000000000000000000000000000000000000000000000000000007bffffffffffffffffffffffffffffffffffffffffffffffffffffffff1916827bffffffffffffffffffffffffffffffffffffffffffffffffffffffff1916148061031957506103188261091e565b5b9050919050565b5f6103527fcb3f97266ce485869e6010a94e677c9b591964def7f8eba7a041ceb3fadbc07761034d610987565b610775565b8061036c575061036b5f801b610366610987565b610775565b5b6103ab576040517f08c379a00000000000000000000000000000000000000000000000000000000081526004016103a290610f32565b60405180910390fd5b5f80604051806020016103bd90610bc5565b6020820181038252601f19601f8201166040525090505f8086866040516020016103e8929190610f95565b604051602081830303815290604052805190602001209050808351602085015ff59350833b9150833b610419575f80fd5b5f808573ffffffffffffffffffffffffffffffffffffffff1663485cc9558a8a60405160240161044a929190610fc0565b6040516020818303038152906040529060e01b6020820180517bffffffffffffffffffffffffffffffffffffffffffffffffffffffff83818316178352505050506040516104989190611039565b5f604051808303815f865af19150503d805f81146104d1576040519150601f19603f3d011682016040523d82523d5f602084013e6104d6565b606091505b50915091508180156104f85750808060200190518101906104f79190611063565b5b610537576040517f08c379a000000000000000000000000000000000000000000000000000000000815260040161052e906110d8565b60405180910390fd5b85965050505050505092915050565b5f805f8381526020019081526020015f20600101549050919050565b61056b82610546565b6105748161098e565b61057e83836109a2565b50505050565b5f801b6105908161098e565b5f73ffffffffffffffffffffffffffffffffffffffff168273ffffffffffffffffffffffffffffffffffffffff16036105fe576040517f08c379a00000000000000000000000000000000000000000000000000000000081526004016105f590611166565b60405180910390fd5b6106287fcb3f97266ce485869e6010a94e677c9b591964def7f8eba7a041ceb3fadbc07783610a8b565b505050565b610635610987565b73ffffffffffffffffffffffffffffffffffffffff168173ffffffffffffffffffffffffffffffffffffffff1614610699576040517f6697b23200000000000000000000000000000000000000000000000000000000815260040160405180910390fd5b6106a38282610a8b565b505050565b5f801b6106b48161098e565b5f73ffffffffffffffffffffffffffffffffffffffff168273ffffffffffffffffffffffffffffffffffffffff1603610722576040517f08c379a000000000000000000000000000000000000000000000000000000000815260040161071990611166565b60405180910390fd5b61074c7fcb3f97266ce485869e6010a94e677c9b591964def7f8eba7a041ceb3fadbc077836109a2565b505050565b7fcb3f97266ce485869e6010a94e677c9b591964def7f8eba7a041ceb3fadbc07781565b5f805f8481526020019081526020015f205f015f8373ffffffffffffffffffffffffffffffffffffffff1673ffffffffffffffffffffffffffffffffffffffff1681526020019081526020015f205f9054906101000a900460ff16905092915050565b5f801b81565b604051806020016107ee90610bc5565b6020820181038252601f19601f820116604052506040516020016108129190611039565b6040516020818303038152906040528051906020012081565b5f80308585604051602001610841929190610f95565b604051602081830303815290604052805190602001206040518060200161086790610bc5565b6020820181038252601f19601f8201166040525060405160200161088b9190611039565b604051602081830303815290604052805190602001206040516020016108b3939291906111f8565b604051602081830303815290604052805190602001205f1c905082156108f0575f813b90505f81116108e5575f6108e7565b815b925050506108f5565b809150505b9392505050565b61090582610546565b61090e8161098e565b6109188383610a8b565b50505050565b5f7f01ffc9a7000000000000000000000000000000000000000000000000000000007bffffffffffffffffffffffffffffffffffffffffffffffffffffffff1916827bffffffffffffffffffffffffffffffffffffffffffffffffffffffff1916149050919050565b5f33905090565b61099f8161099a610987565b610b74565b50565b5f6109ad8383610775565b610a815760015f808581526020019081526020015f205f015f8473ffffffffffffffffffffffffffffffffffffffff1673ffffffffffffffffffffffffffffffffffffffff1681526020019081526020015f205f6101000a81548160ff021916908315150217905550610a1e610987565b73ffffffffffffffffffffffffffffffffffffffff168273ffffffffffffffffffffffffffffffffffffffff16847f2f8788117e7eff1d82e926ec794901d17c78024a50270940304540a733656f0d60405160405180910390a460019050610a85565b5f90505b92915050565b5f610a968383610775565b15610b6a575f805f8581526020019081526020015f205f015f8473ffffffffffffffffffffffffffffffffffffffff1673ffffffffffffffffffffffffffffffffffffffff1681526020019081526020015f205f6101000a81548160ff021916908315150217905550610b07610987565b73ffffffffffffffffffffffffffffffffffffffff168273ffffffffffffffffffffffffffffffffffffffff16847ff6391f5c32d9c69d2a47ea670b442974b53935d1edc7fd64eb21e047a839171b60405160405180910390a460019050610b6e565b5f90505b92915050565b610b7e8282610775565b610bc15780826040517fe2517d3f000000000000000000000000000000000000000000000000000000008152600401610bb892919061123f565b60405180910390fd5b5050565b6111508061126783390190565b5f80fd5b5f7fffffffff0000000000000000000000000000000000000000000000000000000082169050919050565b610c0a81610bd6565b8114610c14575f80fd5b50565b5f81359050610c2581610c01565b92915050565b5f60208284031215610c4057610c3f610bd2565b5b5f610c4d84828501610c17565b91505092915050565b5f8115159050919050565b610c6a81610c56565b82525050565b5f602082019050610c835f830184610c61565b92915050565b5f73ffffffffffffffffffffffffffffffffffffffff82169050919050565b5f610cb282610c89565b9050919050565b610cc281610ca8565b8114610ccc575f80fd5b50565b5f81359050610cdd81610cb9565b92915050565b5f8060408385031215610cf957610cf8610bd2565b5b5f610d0685828601610ccf565b9250506020610d1785828601610ccf565b9150509250929050565b610d2a81610ca8565b82525050565b5f602082019050610d435f830184610d21565b92915050565b5f819050919050565b610d5b81610d49565b8114610d65575f80fd5b50565b5f81359050610d7681610d52565b92915050565b5f60208284031215610d9157610d90610bd2565b5b5f610d9e84828501610d68565b91505092915050565b610db081610d49565b82525050565b5f602082019050610dc95f830184610da7565b92915050565b5f8060408385031215610de557610de4610bd2565b5b5f610df285828601610d68565b9250506020610e0385828601610ccf565b9150509250929050565b5f60208284031215610e2257610e21610bd2565b5b5f610e2f84828501610ccf565b91505092915050565b610e4181610c56565b8114610e4b575f80fd5b50565b5f81359050610e5c81610e38565b92915050565b5f805f60608486031215610e7957610e78610bd2565b5b5f610e8686828701610ccf565b9350506020610e9786828701610ccf565b9250506040610ea886828701610e4e565b9150509250925092565b5f82825260208201905092915050565b7f57616c6c6574466163746f72793a206f6e6c792061646d696e206f72207265675f8201527f697374657265642073616c650000000000000000000000000000000000000000602082015250565b5f610f1c602c83610eb2565b9150610f2782610ec2565b604082019050919050565b5f6020820190508181035f830152610f4981610f10565b9050919050565b5f8160601b9050919050565b5f610f6682610f50565b9050919050565b5f610f7782610f5c565b9050919050565b610f8f610f8a82610ca8565b610f6d565b82525050565b5f610fa08285610f7e565b601482019150610fb08284610f7e565b6014820191508190509392505050565b5f604082019050610fd35f830185610d21565b610fe06020830184610d21565b9392505050565b5f81519050919050565b5f81905092915050565b8281835e5f83830152505050565b5f61101382610fe7565b61101d8185610ff1565b935061102d818560208601610ffb565b80840191505092915050565b5f6110448284611009565b915081905092915050565b5f8151905061105d81610e38565b92915050565b5f6020828403121561107857611077610bd2565b5b5f6110858482850161104f565b91505092915050565b7f57616c6c6574466163746f72793a20696e697469616c697a65206661696c65645f82015250565b5f6110c2602083610eb2565b91506110cd8261108e565b602082019050919050565b5f6020820190508181035f8301526110ef816110b6565b9050919050565b7f57616c6c6574466163746f72793a207a65726f206164647265737320676976655f8201527f6e00000000000000000000000000000000000000000000000000000000000000602082015250565b5f611150602183610eb2565b915061115b826110f6565b604082019050919050565b5f6020820190508181035f83015261117d81611144565b9050919050565b5f81905092915050565b7fff000000000000000000000000000000000000000000000000000000000000005f82015250565b5f6111c2600183611184565b91506111cd8261118e565b600182019050919050565b5f819050919050565b6111f26111ed82610d49565b6111d8565b82525050565b5f611202826111b6565b915061120e8286610f7e565b60148201915061121e82856111e1565b60208201915061122e82846111e1565b602082019150819050949350505050565b5f6040820190506112525f830185610d21565b61125f6020830184610da7565b939250505056fe60a0604052348015600e575f80fd5b503373ffffffffffffffffffffffffffffffffffffffff1660808173ffffffffffffffffffffffffffffffffffffffff16815250506080516110f561005b5f395f61038b01526110f55ff3fe608060405234801561000f575f80fd5b5060043610610091575f3560e01c8063810ec23b11610064578063810ec23b1461011d5780639852595c1461014d578063a3f8eace1461017d578063be9a6555146101ad578063db27b8dd146101cb57610091565b80630fb5a6b41461009557806319165587146100b357806338af3eed146100cf578063485cc955146100ed575b5f80fd5b61009d6101e9565b6040516100aa9190610aa6565b60405180910390f35b6100cd60048036038101906100c89190610b1d565b610287565b005b6100d7610349565b6040516100e49190610b57565b60405180910390f35b61010760048036038101906101029190610b70565b610371565b6040516101149190610bc8565b60405180910390f35b61013760048036038101906101329190610c1e565b610566565b6040516101449190610aa6565b60405180910390f35b61016760048036038101906101629190610b1d565b610603565b6040516101749190610aa6565b60405180910390f35b61019760048036038101906101929190610b1d565b610648565b6040516101a49190610aa6565b60405180910390f35b6101b561066d565b6040516101c29190610aa6565b60405180910390f35b6101d361070b565b6040516101e09190610b57565b60405180910390f35b5f60015f9054906101000a900473ffffffffffffffffffffffffffffffffffffffff1673ffffffffffffffffffffffffffffffffffffffff16630fb5a6b46040518163ffffffff1660e01b8152600401602060405180830381865afa158015610254573d5f803e3d5ffd5b505050506040513d601f19601f820116820180604052508101906102789190610c70565b67ffffffffffffffff16905090565b5f61029182610648565b9050805f808473ffffffffffffffffffffffffffffffffffffffff1673ffffffffffffffffffffffffffffffffffffffff1681526020019081526020015f205f8282546102de9190610cc8565b925050819055508173ffffffffffffffffffffffffffffffffffffffff167fc0e523490dd523c33b1878c9eb14ff46991e3f5b2cd33710918618f2a39cba1b8260405161032b9190610aa6565b60405180910390a26103458261033f610349565b83610733565b5050565b5f60025f9054906101000a900473ffffffffffffffffffffffffffffffffffffffff16905090565b5f3373ffffffffffffffffffffffffffffffffffffffff167f000000000000000000000000000000000000000000000000000000000000000073ffffffffffffffffffffffffffffffffffffffff1614610400576040517f08c379a00000000000000000000000000000000000000000000000000000000081526004016103f790610d7b565b60405180910390fd5b5f73ffffffffffffffffffffffffffffffffffffffff168273ffffffffffffffffffffffffffffffffffffffff160361046e576040517f08c379a000000000000000000000000000000000000000000000000000000000815260040161046590610e09565b60405180910390fd5b5f73ffffffffffffffffffffffffffffffffffffffff168373ffffffffffffffffffffffffffffffffffffffff16036104dc576040517f08c379a00000000000000000000000000000000000000000000000000000000081526004016104d390610e97565b60405180910390fd5b8160015f6101000a81548173ffffffffffffffffffffffffffffffffffffffff021916908373ffffffffffffffffffffffffffffffffffffffff1602179055508260025f6101000a81548173ffffffffffffffffffffffffffffffffffffffff021916908373ffffffffffffffffffffffffffffffffffffffff1602179055506001905092915050565b5f6105fb61057384610603565b8473ffffffffffffffffffffffffffffffffffffffff166370a08231306040518263ffffffff1660e01b81526004016105ac9190610b57565b602060405180830381865afa1580156105c7573d5f803e3d5ffd5b505050506040513d601f19601f820116820180604052508101906105eb9190610edf565b6105f59190610cc8565b836107b2565b905092915050565b5f805f8373ffffffffffffffffffffffffffffffffffffffff1673ffffffffffffffffffffffffffffffffffffffff1681526020019081526020015f20549050919050565b5f61065282610603565b61065c8342610566565b6106669190610f0a565b9050919050565b5f60015f9054906101000a900473ffffffffffffffffffffffffffffffffffffffff1673ffffffffffffffffffffffffffffffffffffffff1663be9a65556040518163ffffffff1660e01b8152600401602060405180830381865afa1580156106d8573d5f803e3d5ffd5b505050506040513d601f19601f820116820180604052508101906106fc9190610c70565b67ffffffffffffffff16905090565b5f60015f9054906101000a900473ffffffffffffffffffffffffffffffffffffffff16905090565b6107ad838473ffffffffffffffffffffffffffffffffffffffff1663a9059cbb8585604051602401610766929190610f3d565b604051602081830303815290604052915060e01b6020820180517bffffffffffffffffffffffffffffffffffffffffffffffffffffffff838183161783525050505061084a565b505050565b5f6107bb61066d565b8267ffffffffffffffff1610156107d4575f9050610844565b6107dc6101e9565b6107e461066d565b6107ee9190610cc8565b8267ffffffffffffffff16111561080757829050610844565b61080f6101e9565b61081761066d565b8367ffffffffffffffff1661082c9190610f0a565b846108379190610f64565b6108419190610fd2565b90505b92915050565b5f610874828473ffffffffffffffffffffffffffffffffffffffff166108df90919063ffffffff16565b90505f815114158015610898575080806020019051810190610896919061102c565b155b156108da57826040517f5274afe70000000000000000000000000000000000000000000000000000000081526004016108d19190610b57565b60405180910390fd5b505050565b60606108ec83835f6108f4565b905092915050565b60608147101561093b57306040517fcd7860590000000000000000000000000000000000000000000000000000000081526004016109329190610b57565b60405180910390fd5b5f808573ffffffffffffffffffffffffffffffffffffffff16848660405161096391906110a9565b5f6040518083038185875af1925050503d805f811461099d576040519150601f19603f3d011682016040523d82523d5f602084013e6109a2565b606091505b50915091506109b28683836109bd565b925050509392505050565b6060826109d2576109cd82610a4a565b610a42565b5f82511480156109f857505f8473ffffffffffffffffffffffffffffffffffffffff163b145b15610a3a57836040517f9996b315000000000000000000000000000000000000000000000000000000008152600401610a319190610b57565b60405180910390fd5b819050610a43565b5b9392505050565b5f81511115610a5c5780518082602001fd5b6040517f1425ea4200000000000000000000000000000000000000000000000000000000815260040160405180910390fd5b5f819050919050565b610aa081610a8e565b82525050565b5f602082019050610ab95f830184610a97565b92915050565b5f80fd5b5f73ffffffffffffffffffffffffffffffffffffffff82169050919050565b5f610aec82610ac3565b9050919050565b610afc81610ae2565b8114610b06575f80fd5b50565b5f81359050610b1781610af3565b92915050565b5f60208284031215610b3257610b31610abf565b5b5f610b3f84828501610b09565b91505092915050565b610b5181610ae2565b82525050565b5f602082019050610b6a5f830184610b48565b92915050565b5f8060408385031215610b8657610b85610abf565b5b5f610b9385828601610b09565b9250506020610ba485828601610b09565b9150509250929050565b5f8115159050919050565b610bc281610bae565b82525050565b5f602082019050610bdb5f830184610bb9565b92915050565b5f67ffffffffffffffff82169050919050565b610bfd81610be1565b8114610c07575f80fd5b50565b5f81359050610c1881610bf4565b92915050565b5f8060408385031215610c3457610c33610abf565b5b5f610c4185828601610b09565b9250506020610c5285828601610c0a565b9150509250929050565b5f81519050610c6a81610bf4565b92915050565b5f60208284031215610c8557610c84610abf565b5b5f610c9284828501610c5c565b91505092915050565b7f4e487b71000000000000000000000000000000000000000000000000000000005f52601160045260245ffd5b5f610cd282610a8e565b9150610cdd83610a8e565b9250828201905080821115610cf557610cf4610c9b565b5b92915050565b5f82825260208201905092915050565b7f4d616e6167656456657374696e6757616c6c65743a206f6e6c7920666163746f5f8201527f7279000000000000000000000000000000000000000000000000000000000000602082015250565b5f610d65602283610cfb565b9150610d7082610d0b565b604082019050919050565b5f6020820190508181035f830152610d9281610d59565b9050919050565b7f4d616e6167656456657374696e6757616c6c65743a2076657374696e67206d615f8201527f6e61676572206973207a65726f20616464726573730000000000000000000000602082015250565b5f610df3603583610cfb565b9150610dfe82610d99565b604082019050919050565b5f6020820190508181035f830152610e2081610de7565b9050919050565b7f4d616e6167656456657374696e6757616c6c65743a2062656e656669636961725f8201527f79206973207a65726f2061646472657373000000000000000000000000000000602082015250565b5f610e81603183610cfb565b9150610e8c82610e27565b604082019050919050565b5f6020820190508181035f830152610eae81610e75565b9050919050565b610ebe81610a8e565b8114610ec8575f80fd5b50565b5f81519050610ed981610eb5565b92915050565b5f60208284031215610ef457610ef3610abf565b5b5f610f0184828501610ecb565b91505092915050565b5f610f1482610a8e565b9150610f1f83610a8e565b9250828203905081811115610f3757610f36610c9b565b5b92915050565b5f604082019050610f505f830185610b48565b610f5d6020830184610a97565b9392505050565b5f610f6e82610a8e565b9150610f7983610a8e565b9250828202610f8781610a8e565b91508282048414831517610f9e57610f9d610c9b565b5b5092915050565b7f4e487b71000000000000000000000000000000000000000000000000000000005f52601260045260245ffd5b5f610fdc82610a8e565b9150610fe783610a8e565b925082610ff757610ff6610fa5565b5b828204905092915050565b61100b81610bae565b8114611015575f80fd5b50565b5f8151905061102681611002565b92915050565b5f6020828403121561104157611040610abf565b5b5f61104e84828501611018565b91505092915050565b5f81519050919050565b5f81905092915050565b8281835e5f83830152505050565b5f61108382611057565b61108d8185611061565b935061109d81856020860161106b565b80840191505092915050565b5f6110b48284611079565b91508190509291505056fea264697066735822122074475c8662dfa533701ee31bedffcf2d0d7206985bc8e5e5c2f21a3134dcb3de64736f6c63430008190033a2646970667358221220b937ebcd728d96ad682c76ef3625cfc1149feef18e27f2844f596bc162e9d55264736f6c63430008190033",
			"opcodes": "PUSH1 0x80 PUSH1 0x40 MSTORE CALLVALUE DUP1 ISZERO PUSH2 0xF JUMPI PUSH0 DUP1 REVERT JUMPDEST POP PUSH2 0x2F PUSH0 DUP1 SHL PUSH2 0x24 PUSH2 0x35 PUSH1 0x20 SHL PUSH1 0x20 SHR JUMP JUMPDEST PUSH2 0x3C PUSH1 0x20 SHL PUSH1 0x20 SHR JUMP JUMPDEST POP PUSH2 0x194 JUMP JUMPDEST PUSH0 CALLER SWAP1 POP SWAP1 JUMP JUMPDEST PUSH0 PUSH2 0x4D DUP4 DUP4 PUSH2 0x131 PUSH1 0x20 SHL PUSH1 0x20 SHR JUMP JUMPDEST PUSH2 0x127 JUMPI PUSH1 0x1 PUSH0 DUP1 DUP6 DUP2 MSTORE PUSH1 0x20 ADD SWAP1 DUP2 MSTORE PUSH1 0x20 ADD PUSH0 KECCAK256 PUSH0 ADD PUSH0 DUP5 PUSH20 0xFFFFFFFFFFFFFFFFFFFFFFFFFFFFFFFFFFFFFFFF AND PUSH20 0xFFFFFFFFFFFFFFFFFFFFFFFFFFFFFFFFFFFFFFFF AND DUP2 MSTORE PUSH1 0x20 ADD SWAP1 DUP2 MSTORE PUSH1 0x20 ADD PUSH0 KECCAK256 PUSH0 PUSH2 0x100 EXP DUP2 SLOAD DUP2 PUSH1 0xFF MUL NOT AND SWAP1 DUP4 ISZERO ISZERO MUL OR SWAP1 SSTORE POP PUSH2 0xC4 PUSH2 0x35 PUSH1 0x20 SHL PUSH1 0x20 SHR JUMP JUMPDEST PUSH20 0xFFFFFFFFFFFFFFFFFFFFFFFFFFFFFFFFFFFFFFFF AND DUP3 PUSH20 0xFFFFFFFFFFFFFFFFFFFFFFFFFFFFFFFFFFFFFFFF AND DUP5 PUSH32 0x2F8788117E7EFF1D82E926EC794901D17C78024A50270940304540A733656F0D PUSH1 0x40 MLOAD PUSH1 0x40 MLOAD DUP1 SWAP2 SUB SWAP1 LOG4 PUSH1 0x1 SWAP1 POP PUSH2 0x12B JUMP JUMPDEST PUSH0 SWAP1 POP JUMPDEST SWAP3 SWAP2 POP POP JUMP JUMPDEST PUSH0 DUP1 PUSH0 DUP5 DUP2 MSTORE PUSH1 0x20 ADD SWAP1 DUP2 MSTORE PUSH1 0x20 ADD PUSH0 KECCAK256 PUSH0 ADD PUSH0 DUP4 PUSH20 0xFFFFFFFFFFFFFFFFFFFFFFFFFFFFFFFFFFFFFFFF AND PUSH20 0xFFFFFFFFFFFFFFFFFFFFFFFFFFFFFFFFFFFFFFFF AND DUP2 MSTORE PUSH1 0x20 ADD SWAP1 DUP2 MSTORE PUSH1 0x20 ADD PUSH0 KECCAK256 PUSH0 SWAP1 SLOAD SWAP1 PUSH2 0x100 EXP SWAP1 DIV PUSH1 0xFF AND SWAP1 POP SWAP3 SWAP2 POP POP JUMP JUMPDEST PUSH2 0x23EC DUP1 PUSH2 0x1A1 PUSH0 CODECOPY PUSH0 RETURN INVALID PUSH1 0x80 PUSH1 0x40 MSTORE CALLVALUE DUP1 ISZERO PUSH2 0xF JUMPI PUSH0 DUP1 REVERT JUMPDEST POP PUSH1 0x4 CALLDATASIZE LT PUSH2 0xCD JUMPI PUSH0 CALLDATALOAD PUSH1 0xE0 SHR DUP1 PUSH4 0x4A6D0292 GT PUSH2 0x8A JUMPI DUP1 PUSH4 0xA217FDDF GT PUSH2 0x64 JUMPI DUP1 PUSH4 0xA217FDDF EQ PUSH2 0x21F JUMPI DUP1 PUSH4 0xAF806040 EQ PUSH2 0x23D JUMPI DUP1 PUSH4 0xB82D15E3 EQ PUSH2 0x25B JUMPI DUP1 PUSH4 0xD547741F EQ PUSH2 0x28B JUMPI PUSH2 0xCD JUMP JUMPDEST DUP1 PUSH4 0x4A6D0292 EQ PUSH2 0x1B5 JUMPI DUP1 PUSH4 0x64D2516C EQ PUSH2 0x1D1 JUMPI DUP1 PUSH4 0x91D14854 EQ PUSH2 0x1EF JUMPI PUSH2 0xCD JUMP JUMPDEST DUP1 PUSH4 0x1FFC9A7 EQ PUSH2 0xD1 JUMPI DUP1 PUSH4 0x186D268F EQ PUSH2 0x101 JUMPI DUP1 PUSH4 0x248A9CA3 EQ PUSH2 0x131 JUMPI DUP1 PUSH4 0x2F2FF15D EQ PUSH2 0x161 JUMPI DUP1 PUSH4 0x30D61807 EQ PUSH2 0x17D JUMPI DUP1 PUSH4 0x36568ABE EQ PUSH2 0x199 JUMPI JUMPDEST PUSH0 DUP1 REVERT JUMPDEST PUSH2 0xEB PUSH1 0x4 DUP1 CALLDATASIZE SUB DUP2 ADD SWAP1 PUSH2 0xE6 SWAP2 SWAP1 PUSH2 0xC2B JUMP JUMPDEST PUSH2 0x2A7 JUMP JUMPDEST PUSH1 0x40 MLOAD PUSH2 0xF8 SWAP2 SWAP1 PUSH2 0xC70 JUMP JUMPDEST PUSH1 0x40 MLOAD DUP1 SWAP2 SUB SWAP1 RETURN JUMPDEST PUSH2 0x11B PUSH1 0x4 DUP1 CALLDATASIZE SUB DUP2 ADD SWAP1 PUSH2 0x116 SWAP2 SWAP1 PUSH2 0xCE3 JUMP JUMPDEST PUSH2 0x320 JUMP JUMPDEST PUSH1 0x40 MLOAD PUSH2 0x128 SWAP2 SWAP1 PUSH2 0xD30 JUMP JUMPDEST PUSH1 0x40 MLOAD DUP1 SWAP2 SUB SWAP1 RETURN JUMPDEST PUSH2 0x14B PUSH1 0x4 DUP1 CALLDATASIZE SUB DUP2 ADD SWAP1 PUSH2 0x146 SWAP2 SWAP1 PUSH2 0xD7C JUMP JUMPDEST PUSH2 0x546 JUMP JUMPDEST PUSH1 0x40 MLOAD PUSH2 0x158 SWAP2 SWAP1 PUSH2 0xDB6 JUMP JUMPDEST PUSH1 0x40 MLOAD DUP1 SWAP2 SUB SWAP1 RETURN JUMPDEST PUSH2 0x17B PUSH1 0x4 DUP1 CALLDATASIZE SUB DUP2 ADD SWAP1 PUSH2 0x176 SWAP2 SWAP1 PUSH2 0xDCF JUMP JUMPDEST PUSH2 0x562 JUMP JUMPDEST STOP JUMPDEST PUSH2 0x197 PUSH1 0x4 DUP1 CALLDATASIZE SUB DUP2 ADD SWAP1 PUSH2 0x192 SWAP2 SWAP1 PUSH2 0xE0D JUMP JUMPDEST PUSH2 0x584 JUMP JUMPDEST STOP JUMPDEST PUSH2 0x1B3 PUSH1 0x4 DUP1 CALLDATASIZE SUB DUP2 ADD SWAP1 PUSH2 0x1AE SWAP2 SWAP1 PUSH2 0xDCF JUMP JUMPDEST PUSH2 0x62D JUMP JUMPDEST STOP JUMPDEST PUSH2 0x1CF PUSH1 0x4 DUP1 CALLDATASIZE SUB DUP2 ADD SWAP1 PUSH2 0x1CA SWAP2 SWAP1 PUSH2 0xE0D JUMP JUMPDEST PUSH2 0x6A8 JUMP JUMPDEST STOP JUMPDEST PUSH2 0x1D9 PUSH2 0x751 JUMP JUMPDEST PUSH1 0x40 MLOAD PUSH2 0x1E6 SWAP2 SWAP1 PUSH2 0xDB6 JUMP JUMPDEST PUSH1 0x40 MLOAD DUP1 SWAP2 SUB SWAP1 RETURN JUMPDEST PUSH2 0x209 PUSH1 0x4 DUP1 CALLDATASIZE SUB DUP2 ADD SWAP1 PUSH2 0x204 SWAP2 SWAP1 PUSH2 0xDCF JUMP JUMPDEST PUSH2 0x775 JUMP JUMPDEST PUSH1 0x40 MLOAD PUSH2 0x216 SWAP2 SWAP1 PUSH2 0xC70 JUMP JUMPDEST PUSH1 0x40 MLOAD DUP1 SWAP2 SUB SWAP1 RETURN JUMPDEST PUSH2 0x227 PUSH2 0x7D8 JUMP JUMPDEST PUSH1 0x40 MLOAD PUSH2 0x234 SWAP2 SWAP1 PUSH2 0xDB6 JUMP JUMPDEST PUSH1 0x40 MLOAD DUP1 SWAP2 SUB SWAP1 RETURN JUMPDEST PUSH2 0x245 PUSH2 0x7DE JUMP JUMPDEST PUSH1 0x40 MLOAD PUSH2 0x252 SWAP2 SWAP1 PUSH2 0xDB6 JUMP JUMPDEST PUSH1 0x40 MLOAD DUP1 SWAP2 SUB SWAP1 RETURN JUMPDEST PUSH2 0x275 PUSH1 0x4 DUP1 CALLDATASIZE SUB DUP2 ADD SWAP1 PUSH2 0x270 SWAP2 SWAP1 PUSH2 0xE62 JUMP JUMPDEST PUSH2 0x82B JUMP JUMPDEST PUSH1 0x40 MLOAD PUSH2 0x282 SWAP2 SWAP1 PUSH2 0xD30 JUMP JUMPDEST PUSH1 0x40 MLOAD DUP1 SWAP2 SUB SWAP1 RETURN JUMPDEST PUSH2 0x2A5 PUSH1 0x4 DUP1 CALLDATASIZE SUB DUP2 ADD SWAP1 PUSH2 0x2A0 SWAP2 SWAP1 PUSH2 0xDCF JUMP JUMPDEST PUSH2 0x8FC JUMP JUMPDEST STOP JUMPDEST PUSH0 PUSH32 0x7965DB0B00000000000000000000000000000000000000000000000000000000 PUSH28 0xFFFFFFFFFFFFFFFFFFFFFFFFFFFFFFFFFFFFFFFFFFFFFFFFFFFFFFFF NOT AND DUP3 PUSH28 0xFFFFFFFFFFFFFFFFFFFFFFFFFFFFFFFFFFFFFFFFFFFFFFFFFFFFFFFF NOT AND EQ DUP1 PUSH2 0x319 JUMPI POP PUSH2 0x318 DUP3 PUSH2 0x91E JUMP JUMPDEST JUMPDEST SWAP1 POP SWAP2 SWAP1 POP JUMP JUMPDEST PUSH0 PUSH2 0x352 PUSH32 0xCB3F97266CE485869E6010A94E677C9B591964DEF7F8EBA7A041CEB3FADBC077 PUSH2 0x34D PUSH2 0x987 JUMP JUMPDEST PUSH2 0x775 JUMP JUMPDEST DUP1 PUSH2 0x36C JUMPI POP PUSH2 0x36B PUSH0 DUP1 SHL PUSH2 0x366 PUSH2 0x987 JUMP JUMPDEST PUSH2 0x775 JUMP JUMPDEST JUMPDEST PUSH2 0x3AB JUMPI PUSH1 0x40 MLOAD PUSH32 0x8C379A000000000000000000000000000000000000000000000000000000000 DUP2 MSTORE PUSH1 0x4 ADD PUSH2 0x3A2 SWAP1 PUSH2 0xF32 JUMP JUMPDEST PUSH1 0x40 MLOAD DUP1 SWAP2 SUB SWAP1 REVERT JUMPDEST PUSH0 DUP1 PUSH1 0x40 MLOAD DUP1 PUSH1 0x20 ADD PUSH2 0x3BD SWAP1 PUSH2 0xBC5 JUMP JUMPDEST PUSH1 0x20 DUP3 ADD DUP2 SUB DUP3 MSTORE PUSH1 0x1F NOT PUSH1 0x1F DUP3 ADD AND PUSH1 0x40 MSTORE POP SWAP1 POP PUSH0 DUP1 DUP7 DUP7 PUSH1 0x40 MLOAD PUSH1 0x20 ADD PUSH2 0x3E8 SWAP3 SWAP2 SWAP1 PUSH2 0xF95 JUMP JUMPDEST PUSH1 0x40 MLOAD PUSH1 0x20 DUP2 DUP4 SUB SUB DUP2 MSTORE SWAP1 PUSH1 0x40 MSTORE DUP1 MLOAD SWAP1 PUSH1 0x20 ADD KECCAK256 SWAP1 POP DUP1 DUP4 MLOAD PUSH1 0x20 DUP6 ADD PUSH0 CREATE2 SWAP4 POP DUP4 EXTCODESIZE SWAP2 POP DUP4 EXTCODESIZE PUSH2 0x419 JUMPI PUSH0 DUP1 REVERT JUMPDEST PUSH0 DUP1 DUP6 PUSH20 0xFFFFFFFFFFFFFFFFFFFFFFFFFFFFFFFFFFFFFFFF AND PUSH4 0x485CC955 DUP11 DUP11 PUSH1 0x40 MLOAD PUSH1 0x24 ADD PUSH2 0x44A SWAP3 SWAP2 SWAP1 PUSH2 0xFC0 JUMP JUMPDEST PUSH1 0x40 MLOAD PUSH1 0x20 DUP2 DUP4 SUB SUB DUP2 MSTORE SWAP1 PUSH1 0x40 MSTORE SWAP1 PUSH1 0xE0 SHL PUSH1 0x20 DUP3 ADD DUP1 MLOAD PUSH28 0xFFFFFFFFFFFFFFFFFFFFFFFFFFFFFFFFFFFFFFFFFFFFFFFFFFFFFFFF DUP4 DUP2 DUP4 AND OR DUP4 MSTORE POP POP POP POP PUSH1 0x40 MLOAD PUSH2 0x498 SWAP2 SWAP1 PUSH2 0x1039 JUMP JUMPDEST PUSH0 PUSH1 0x40 MLOAD DUP1 DUP4 SUB DUP2 PUSH0 DUP7 GAS CALL SWAP2 POP POP RETURNDATASIZE DUP1 PUSH0 DUP2 EQ PUSH2 0x4D1 JUMPI PUSH1 0x40 MLOAD SWAP2 POP PUSH1 0x1F NOT PUSH1 0x3F RETURNDATASIZE ADD AND DUP3 ADD PUSH1 0x40 MSTORE RETURNDATASIZE DUP3 MSTORE RETURNDATASIZE PUSH0 PUSH1 0x20 DUP5 ADD RETURNDATACOPY PUSH2 0x4D6 JUMP JUMPDEST PUSH1 0x60 SWAP2 POP JUMPDEST POP SWAP2 POP SWAP2 POP DUP2 DUP1 ISZERO PUSH2 0x4F8 JUMPI POP DUP1 DUP1 PUSH1 0x20 ADD SWAP1 MLOAD DUP2 ADD SWAP1 PUSH2 0x4F7 SWAP2 SWAP1 PUSH2 0x1063 JUMP JUMPDEST JUMPDEST PUSH2 0x537 JUMPI PUSH1 0x40 MLOAD PUSH32 0x8C379A000000000000000000000000000000000000000000000000000000000 DUP2 MSTORE PUSH1 0x4 ADD PUSH2 0x52E SWAP1 PUSH2 0x10D8 JUMP JUMPDEST PUSH1 0x40 MLOAD DUP1 SWAP2 SUB SWAP1 REVERT JUMPDEST DUP6 SWAP7 POP POP POP POP POP POP POP SWAP3 SWAP2 POP POP JUMP JUMPDEST PUSH0 DUP1 PUSH0 DUP4 DUP2 MSTORE PUSH1 0x20 ADD SWAP1 DUP2 MSTORE PUSH1 0x20 ADD PUSH0 KECCAK256 PUSH1 0x1 ADD SLOAD SWAP1 POP SWAP2 SWAP1 POP JUMP JUMPDEST PUSH2 0x56B DUP3 PUSH2 0x546 JUMP JUMPDEST PUSH2 0x574 DUP2 PUSH2 0x98E JUMP JUMPDEST PUSH2 0x57E DUP4 DUP4 PUSH2 0x9A2 JUMP JUMPDEST POP POP POP POP JUMP JUMPDEST PUSH0 DUP1 SHL PUSH2 0x590 DUP2 PUSH2 0x98E JUMP JUMPDEST PUSH0 PUSH20 0xFFFFFFFFFFFFFFFFFFFFFFFFFFFFFFFFFFFFFFFF AND DUP3 PUSH20 0xFFFFFFFFFFFFFFFFFFFFFFFFFFFFFFFFFFFFFFFF AND SUB PUSH2 0x5FE JUMPI PUSH1 0x40 MLOAD PUSH32 0x8C379A000000000000000000000000000000000000000000000000000000000 DUP2 MSTORE PUSH1 0x4 ADD PUSH2 0x5F5 SWAP1 PUSH2 0x1166 JUMP JUMPDEST PUSH1 0x40 MLOAD DUP1 SWAP2 SUB SWAP1 REVERT JUMPDEST PUSH2 0x628 PUSH32 0xCB3F97266CE485869E6010A94E677C9B591964DEF7F8EBA7A041CEB3FADBC077 DUP4 PUSH2 0xA8B JUMP JUMPDEST POP POP POP JUMP JUMPDEST PUSH2 0x635 PUSH2 0x987 JUMP JUMPDEST PUSH20 0xFFFFFFFFFFFFFFFFFFFFFFFFFFFFFFFFFFFFFFFF AND DUP2 PUSH20 0xFFFFFFFFFFFFFFFFFFFFFFFFFFFFFFFFFFFFFFFF AND EQ PUSH2 0x699 JUMPI PUSH1 0x40 MLOAD PUSH32 0x6697B23200000000000000000000000000000000000000000000000000000000 DUP2 MSTORE PUSH1 0x4 ADD PUSH1 0x40 MLOAD DUP1 SWAP2 SUB SWAP1 REVERT JUMPDEST PUSH2 0x6A3 DUP3 DUP3 PUSH2 0xA8B JUMP JUMPDEST POP POP POP JUMP JUMPDEST PUSH0 DUP1 SHL PUSH2 0x6B4 DUP2 PUSH2 0x98E JUMP JUMPDEST PUSH0 PUSH20 0xFFFFFFFFFFFFFFFFFFFFFFFFFFFFFFFFFFFFFFFF AND DUP3 PUSH20 0xFFFFFFFFFFFFFFFFFFFFFFFFFFFFFFFFFFFFFFFF AND SUB PUSH2 0x722 JUMPI PUSH1 0x40 MLOAD PUSH32 0x8C379A000000000000000000000000000000000000000000000000000000000 DUP2 MSTORE PUSH1 0x4 ADD PUSH2 0x719 SWAP1 PUSH2 0x1166 JUMP JUMPDEST PUSH1 0x40 MLOAD DUP1 SWAP2 SUB SWAP1 REVERT JUMPDEST PUSH2 0x74C PUSH32 0xCB3F97266CE485869E6010A94E677C9B591964DEF7F8EBA7A041CEB3FADBC077 DUP4 PUSH2 0x9A2 JUMP JUMPDEST POP POP POP JUMP JUMPDEST PUSH32 0xCB3F97266CE485869E6010A94E677C9B591964DEF7F8EBA7A041CEB3FADBC077 DUP2 JUMP JUMPDEST PUSH0 DUP1 PUSH0 DUP5 DUP2 MSTORE PUSH1 0x20 ADD SWAP1 DUP2 MSTORE PUSH1 0x20 ADD PUSH0 KECCAK256 PUSH0 ADD PUSH0 DUP4 PUSH20 0xFFFFFFFFFFFFFFFFFFFFFFFFFFFFFFFFFFFFFFFF AND PUSH20 0xFFFFFFFFFFFFFFFFFFFFFFFFFFFFFFFFFFFFFFFF AND DUP2 MSTORE PUSH1 0x20 ADD SWAP1 DUP2 MSTORE PUSH1 0x20 ADD PUSH0 KECCAK256 PUSH0 SWAP1 SLOAD SWAP1 PUSH2 0x100 EXP SWAP1 DIV PUSH1 0xFF AND SWAP1 POP SWAP3 SWAP2 POP POP JUMP JUMPDEST PUSH0 DUP1 SHL DUP2 JUMP JUMPDEST PUSH1 0x40 MLOAD DUP1 PUSH1 0x20 ADD PUSH2 0x7EE SWAP1 PUSH2 0xBC5 JUMP JUMPDEST PUSH1 0x20 DUP3 ADD DUP2 SUB DUP3 MSTORE PUSH1 0x1F NOT PUSH1 0x1F DUP3 ADD AND PUSH1 0x40 MSTORE POP PUSH1 0x40 MLOAD PUSH1 0x20 ADD PUSH2 0x812 SWAP2 SWAP1 PUSH2 0x1039 JUMP JUMPDEST PUSH1 0x40 MLOAD PUSH1 0x20 DUP2 DUP4 SUB SUB DUP2 MSTORE SWAP1 PUSH1 0x40 MSTORE DUP1 MLOAD SWAP1 PUSH1 0x20 ADD KECCAK256 DUP2 JUMP JUMPDEST PUSH0 DUP1 ADDRESS DUP6 DUP6 PUSH1 0x40 MLOAD PUSH1 0x20 ADD PUSH2 0x841 SWAP3 SWAP2 SWAP1 PUSH2 0xF95 JUMP JUMPDEST PUSH1 0x40 MLOAD PUSH1 0x20 DUP2 DUP4 SUB SUB DUP2 MSTORE SWAP1 PUSH1 0x40 MSTORE DUP1 MLOAD SWAP1 PUSH1 0x20 ADD KECCAK256 PUSH1 0x40 MLOAD DUP1 PUSH1 0x20 ADD PUSH2 0x867 SWAP1 PUSH2 0xBC5 JUMP JUMPDEST PUSH1 0x20 DUP3 ADD DUP2 SUB DUP3 MSTORE PUSH1 0x1F NOT PUSH1 0x1F DUP3 ADD AND PUSH1 0x40 MSTORE POP PUSH1 0x40 MLOAD PUSH1 0x20 ADD PUSH2 0x88B SWAP2 SWAP1 PUSH2 0x1039 JUMP JUMPDEST PUSH1 0x40 MLOAD PUSH1 0x20 DUP2 DUP4 SUB SUB DUP2 MSTORE SWAP1 PUSH1 0x40 MSTORE DUP1 MLOAD SWAP1 PUSH1 0x20 ADD KECCAK256 PUSH1 0x40 MLOAD PUSH1 0x20 ADD PUSH2 0x8B3 SWAP4 SWAP3 SWAP2 SWAP1 PUSH2 0x11F8 JUMP JUMPDEST PUSH1 0x40 MLOAD PUSH1 0x20 DUP2 DUP4 SUB SUB DUP2 MSTORE SWAP1 PUSH1 0x40 MSTORE DUP1 MLOAD SWAP1 PUSH1 0x20 ADD KECCAK256 PUSH0 SHR SWAP1 POP DUP3 ISZERO PUSH2 0x8F0 JUMPI PUSH0 DUP2 EXTCODESIZE SWAP1 POP PUSH0 DUP2 GT PUSH2 0x8E5 JUMPI PUSH0 PUSH2 0x8E7 JUMP JUMPDEST DUP2 JUMPDEST SWAP3 POP POP POP PUSH2 0x8F5 JUMP JUMPDEST DUP1 SWAP2 POP POP JUMPDEST SWAP4 SWAP3 POP POP POP JUMP JUMPDEST PUSH2 0x905 DUP3 PUSH2 0x546 JUMP JUMPDEST PUSH2 0x90E DUP2 PUSH2 0x98E JUMP JUMPDEST PUSH2 0x918 DUP4 DUP4 PUSH2 0xA8B JUMP JUMPDEST POP POP POP POP JUMP JUMPDEST PUSH0 PUSH32 0x1FFC9A700000000000000000000000000000000000000000000000000000000 PUSH28 0xFFFFFFFFFFFFFFFFFFFFFFFFFFFFFFFFFFFFFFFFFFFFFFFFFFFFFFFF NOT AND DUP3 PUSH28 0xFFFFFFFFFFFFFFFFFFFFFFFFFFFFFFFFFFFFFFFFFFFFFFFFFFFFFFFF NOT AND EQ SWAP1 POP SWAP2 SWAP1 POP JUMP JUMPDEST PUSH0 CALLER SWAP1 POP SWAP1 JUMP JUMPDEST PUSH2 0x99F DUP2 PUSH2 0x99A PUSH2 0x987 JUMP JUMPDEST PUSH2 0xB74 JUMP JUMPDEST POP JUMP JUMPDEST PUSH0 PUSH2 0x9AD DUP4 DUP4 PUSH2 0x775 JUMP JUMPDEST PUSH2 0xA81 JUMPI PUSH1 0x1 PUSH0 DUP1 DUP6 DUP2 MSTORE PUSH1 0x20 ADD SWAP1 DUP2 MSTORE PUSH1 0x20 ADD PUSH0 KECCAK256 PUSH0 ADD PUSH0 DUP5 PUSH20 0xFFFFFFFFFFFFFFFFFFFFFFFFFFFFFFFFFFFFFFFF AND PUSH20 0xFFFFFFFFFFFFFFFFFFFFFFFFFFFFFFFFFFFFFFFF AND DUP2 MSTORE PUSH1 0x20 ADD SWAP1 DUP2 MSTORE PUSH1 0x20 ADD PUSH0 KECCAK256 PUSH0 PUSH2 0x100 EXP DUP2 SLOAD DUP2 PUSH1 0xFF MUL NOT AND SWAP1 DUP4 ISZERO ISZERO MUL OR SWAP1 SSTORE POP PUSH2 0xA1E PUSH2 0x987 JUMP JUMPDEST PUSH20 0xFFFFFFFFFFFFFFFFFFFFFFFFFFFFFFFFFFFFFFFF AND DUP3 PUSH20 0xFFFFFFFFFFFFFFFFFFFFFFFFFFFFFFFFFFFFFFFF AND DUP5 PUSH32 0x2F8788117E7EFF1D82E926EC794901D17C78024A50270940304540A733656F0D PUSH1 0x40 MLOAD PUSH1 0x40 MLOAD DUP1 SWAP2 SUB SWAP1 LOG4 PUSH1 0x1 SWAP1 POP PUSH2 0xA85 JUMP JUMPDEST PUSH0 SWAP1 POP JUMPDEST SWAP3 SWAP2 POP POP JUMP JUMPDEST PUSH0 PUSH2 0xA96 DUP4 DUP4 PUSH2 0x775 JUMP JUMPDEST ISZERO PUSH2 0xB6A JUMPI PUSH0 DUP1 PUSH0 DUP6 DUP2 MSTORE PUSH1 0x20 ADD SWAP1 DUP2 MSTORE PUSH1 0x20 ADD PUSH0 KECCAK256 PUSH0 ADD PUSH0 DUP5 PUSH20 0xFFFFFFFFFFFFFFFFFFFFFFFFFFFFFFFFFFFFFFFF AND PUSH20 0xFFFFFFFFFFFFFFFFFFFFFFFFFFFFFFFFFFFFFFFF AND DUP2 MSTORE PUSH1 0x20 ADD SWAP1 DUP2 MSTORE PUSH1 0x20 ADD PUSH0 KECCAK256 PUSH0 PUSH2 0x100 EXP DUP2 SLOAD DUP2 PUSH1 0xFF MUL NOT AND SWAP1 DUP4 ISZERO ISZERO MUL OR SWAP1 SSTORE POP PUSH2 0xB07 PUSH2 0x987 JUMP JUMPDEST PUSH20 0xFFFFFFFFFFFFFFFFFFFFFFFFFFFFFFFFFFFFFFFF AND DUP3 PUSH20 0xFFFFFFFFFFFFFFFFFFFFFFFFFFFFFFFFFFFFFFFF AND DUP5 PUSH32 0xF6391F5C32D9C69D2A47EA670B442974B53935D1EDC7FD64EB21E047A839171B PUSH1 0x40 MLOAD PUSH1 0x40 MLOAD DUP1 SWAP2 SUB SWAP1 LOG4 PUSH1 0x1 SWAP1 POP PUSH2 0xB6E JUMP JUMPDEST PUSH0 SWAP1 POP JUMPDEST SWAP3 SWAP2 POP POP JUMP JUMPDEST PUSH2 0xB7E DUP3 DUP3 PUSH2 0x775 JUMP JUMPDEST PUSH2 0xBC1 JUMPI DUP1 DUP3 PUSH1 0x40 MLOAD PUSH32 0xE2517D3F00000000000000000000000000000000000000000000000000000000 DUP2 MSTORE PUSH1 0x4 ADD PUSH2 0xBB8 SWAP3 SWAP2 SWAP1 PUSH2 0x123F JUMP JUMPDEST PUSH1 0x40 MLOAD DUP1 SWAP2 SUB SWAP1 REVERT JUMPDEST POP POP JUMP JUMPDEST PUSH2 0x1150 DUP1 PUSH2 0x1267 DUP4 CODECOPY ADD SWAP1 JUMP JUMPDEST PUSH0 DUP1 REVERT JUMPDEST PUSH0 PUSH32 0xFFFFFFFF00000000000000000000000000000000000000000000000000000000 DUP3 AND SWAP1 POP SWAP2 SWAP1 POP JUMP JUMPDEST PUSH2 0xC0A DUP2 PUSH2 0xBD6 JUMP JUMPDEST DUP2 EQ PUSH2 0xC14 JUMPI PUSH0 DUP1 REVERT JUMPDEST POP JUMP JUMPDEST PUSH0 DUP2 CALLDATALOAD SWAP1 POP PUSH2 0xC25 DUP2 PUSH2 0xC01 JUMP JUMPDEST SWAP3 SWAP2 POP POP JUMP JUMPDEST PUSH0 PUSH1 0x20 DUP3 DUP5 SUB SLT ISZERO PUSH2 0xC40 JUMPI PUSH2 0xC3F PUSH2 0xBD2 JUMP JUMPDEST JUMPDEST PUSH0 PUSH2 0xC4D DUP5 DUP3 DUP6 ADD PUSH2 0xC17 JUMP JUMPDEST SWAP2 POP POP SWAP3 SWAP2 POP POP JUMP JUMPDEST PUSH0 DUP2 ISZERO ISZERO SWAP1 POP SWAP2 SWAP1 POP JUMP JUMPDEST PUSH2 0xC6A DUP2 PUSH2 0xC56 JUMP JUMPDEST DUP3 MSTORE POP POP JUMP JUMPDEST PUSH0 PUSH1 0x20 DUP3 ADD SWAP1 POP PUSH2 0xC83 PUSH0 DUP4 ADD DUP5 PUSH2 0xC61 JUMP JUMPDEST SWAP3 SWAP2 POP POP JUMP JUMPDEST PUSH0 PUSH20 0xFFFFFFFFFFFFFFFFFFFFFFFFFFFFFFFFFFFFFFFF DUP3 AND SWAP1 POP SWAP2 SWAP1 POP JUMP JUMPDEST PUSH0 PUSH2 0xCB2 DUP3 PUSH2 0xC89 JUMP JUMPDEST SWAP1 POP SWAP2 SWAP1 POP JUMP JUMPDEST PUSH2 0xCC2 DUP2 PUSH2 0xCA8 JUMP JUMPDEST DUP2 EQ PUSH2 0xCCC JUMPI PUSH0 DUP1 REVERT JUMPDEST POP JUMP JUMPDEST PUSH0 DUP2 CALLDATALOAD SWAP1 POP PUSH2 0xCDD DUP2 PUSH2 0xCB9 JUMP JUMPDEST SWAP3 SWAP2 POP POP JUMP JUMPDEST PUSH0 DUP1 PUSH1 0x40 DUP4 DUP6 SUB SLT ISZERO PUSH2 0xCF9 JUMPI PUSH2 0xCF8 PUSH2 0xBD2 JUMP JUMPDEST JUMPDEST PUSH0 PUSH2 0xD06 DUP6 DUP3 DUP7 ADD PUSH2 0xCCF JUMP JUMPDEST SWAP3 POP POP PUSH1 0x20 PUSH2 0xD17 DUP6 DUP3 DUP7 ADD PUSH2 0xCCF JUMP JUMPDEST SWAP2 POP POP SWAP3 POP SWAP3 SWAP1 POP JUMP JUMPDEST PUSH2 0xD2A DUP2 PUSH2 0xCA8 JUMP JUMPDEST DUP3 MSTORE POP POP JUMP JUMPDEST PUSH0 PUSH1 0x20 DUP3 ADD SWAP1 POP PUSH2 0xD43 PUSH0 DUP4 ADD DUP5 PUSH2 0xD21 JUMP JUMPDEST SWAP3 SWAP2 POP POP JUMP JUMPDEST PUSH0 DUP2 SWAP1 POP SWAP2 SWAP1 POP JUMP JUMPDEST PUSH2 0xD5B DUP2 PUSH2 0xD49 JUMP JUMPDEST DUP2 EQ PUSH2 0xD65 JUMPI PUSH0 DUP1 REVERT JUMPDEST POP JUMP JUMPDEST PUSH0 DUP2 CALLDATALOAD SWAP1 POP PUSH2 0xD76 DUP2 PUSH2 0xD52 JUMP JUMPDEST SWAP3 SWAP2 POP POP JUMP JUMPDEST PUSH0 PUSH1 0x20 DUP3 DUP5 SUB SLT ISZERO PUSH2 0xD91 JUMPI PUSH2 0xD90 PUSH2 0xBD2 JUMP JUMPDEST JUMPDEST PUSH0 PUSH2 0xD9E DUP5 DUP3 DUP6 ADD PUSH2 0xD68 JUMP JUMPDEST SWAP2 POP POP SWAP3 SWAP2 POP POP JUMP JUMPDEST PUSH2 0xDB0 DUP2 PUSH2 0xD49 JUMP JUMPDEST DUP3 MSTORE POP POP JUMP JUMPDEST PUSH0 PUSH1 0x20 DUP3 ADD SWAP1 POP PUSH2 0xDC9 PUSH0 DUP4 ADD DUP5 PUSH2 0xDA7 JUMP JUMPDEST SWAP3 SWAP2 POP POP JUMP JUMPDEST PUSH0 DUP1 PUSH1 0x40 DUP4 DUP6 SUB SLT ISZERO PUSH2 0xDE5 JUMPI PUSH2 0xDE4 PUSH2 0xBD2 JUMP JUMPDEST JUMPDEST PUSH0 PUSH2 0xDF2 DUP6 DUP3 DUP7 ADD PUSH2 0xD68 JUMP JUMPDEST SWAP3 POP POP PUSH1 0x20 PUSH2 0xE03 DUP6 DUP3 DUP7 ADD PUSH2 0xCCF JUMP JUMPDEST SWAP2 POP POP SWAP3 POP SWAP3 SWAP1 POP JUMP JUMPDEST PUSH0 PUSH1 0x20 DUP3 DUP5 SUB SLT ISZERO PUSH2 0xE22 JUMPI PUSH2 0xE21 PUSH2 0xBD2 JUMP JUMPDEST JUMPDEST PUSH0 PUSH2 0xE2F DUP5 DUP3 DUP6 ADD PUSH2 0xCCF JUMP JUMPDEST SWAP2 POP POP SWAP3 SWAP2 POP POP JUMP JUMPDEST PUSH2 0xE41 DUP2 PUSH2 0xC56 JUMP JUMPDEST DUP2 EQ PUSH2 0xE4B JUMPI PUSH0 DUP1 REVERT JUMPDEST POP JUMP JUMPDEST PUSH0 DUP2 CALLDATALOAD SWAP1 POP PUSH2 0xE5C DUP2 PUSH2 0xE38 JUMP JUMPDEST SWAP3 SWAP2 POP POP JUMP JUMPDEST PUSH0 DUP1 PUSH0 PUSH1 0x60 DUP5 DUP7 SUB SLT ISZERO PUSH2 0xE79 JUMPI PUSH2 0xE78 PUSH2 0xBD2 JUMP JUMPDEST JUMPDEST PUSH0 PUSH2 0xE86 DUP7 DUP3 DUP8 ADD PUSH2 0xCCF JUMP JUMPDEST SWAP4 POP POP PUSH1 0x20 PUSH2 0xE97 DUP7 DUP3 DUP8 ADD PUSH2 0xCCF JUMP JUMPDEST SWAP3 POP POP PUSH1 0x40 PUSH2 0xEA8 DUP7 DUP3 DUP8 ADD PUSH2 0xE4E JUMP JUMPDEST SWAP2 POP POP SWAP3 POP SWAP3 POP SWAP3 JUMP JUMPDEST PUSH0 DUP3 DUP3 MSTORE PUSH1 0x20 DUP3 ADD SWAP1 POP SWAP3 SWAP2 POP POP JUMP JUMPDEST PUSH32 0x57616C6C6574466163746F72793A206F6E6C792061646D696E206F7220726567 PUSH0 DUP3 ADD MSTORE PUSH32 0x697374657265642073616C650000000000000000000000000000000000000000 PUSH1 0x20 DUP3 ADD MSTORE POP JUMP JUMPDEST PUSH0 PUSH2 0xF1C PUSH1 0x2C DUP4 PUSH2 0xEB2 JUMP JUMPDEST SWAP2 POP PUSH2 0xF27 DUP3 PUSH2 0xEC2 JUMP JUMPDEST PUSH1 0x40 DUP3 ADD SWAP1 POP SWAP2 SWAP1 POP JUMP JUMPDEST PUSH0 PUSH1 0x20 DUP3 ADD SWAP1 POP DUP2 DUP2 SUB PUSH0 DUP4 ADD MSTORE PUSH2 0xF49 DUP2 PUSH2 0xF10 JUMP JUMPDEST SWAP1 POP SWAP2 SWAP1 POP JUMP JUMPDEST PUSH0 DUP2 PUSH1 0x60 SHL SWAP1 POP SWAP2 SWAP1 POP JUMP JUMPDEST PUSH0 PUSH2 0xF66 DUP3 PUSH2 0xF50 JUMP JUMPDEST SWAP1 POP SWAP2 SWAP1 POP JUMP JUMPDEST PUSH0 PUSH2 0xF77 DUP3 PUSH2 0xF5C JUMP JUMPDEST SWAP1 POP SWAP2 SWAP1 POP JUMP JUMPDEST PUSH2 0xF8F PUSH2 0xF8A DUP3 PUSH2 0xCA8 JUMP JUMPDEST PUSH2 0xF6D JUMP JUMPDEST DUP3 MSTORE POP POP JUMP JUMPDEST PUSH0 PUSH2 0xFA0 DUP3 DUP6 PUSH2 0xF7E JUMP JUMPDEST PUSH1 0x14 DUP3 ADD SWAP2 POP PUSH2 0xFB0 DUP3 DUP5 PUSH2 0xF7E JUMP JUMPDEST PUSH1 0x14 DUP3 ADD SWAP2 POP DUP2 SWAP1 POP SWAP4 SWAP3 POP POP POP JUMP JUMPDEST PUSH0 PUSH1 0x40 DUP3 ADD SWAP1 POP PUSH2 0xFD3 PUSH0 DUP4 ADD DUP6 PUSH2 0xD21 JUMP JUMPDEST PUSH2 0xFE0 PUSH1 0x20 DUP4 ADD DUP5 PUSH2 0xD21 JUMP JUMPDEST SWAP4 SWAP3 POP POP POP JUMP JUMPDEST PUSH0 DUP2 MLOAD SWAP1 POP SWAP2 SWAP1 POP JUMP JUMPDEST PUSH0 DUP2 SWAP1 POP SWAP3 SWAP2 POP POP JUMP JUMPDEST DUP3 DUP2 DUP4 MCOPY PUSH0 DUP4 DUP4 ADD MSTORE POP POP POP JUMP JUMPDEST PUSH0 PUSH2 0x1013 DUP3 PUSH2 0xFE7 JUMP JUMPDEST PUSH2 0x101D DUP2 DUP6 PUSH2 0xFF1 JUMP JUMPDEST SWAP4 POP PUSH2 0x102D DUP2 DUP6 PUSH1 0x20 DUP7 ADD PUSH2 0xFFB JUMP JUMPDEST DUP1 DUP5 ADD SWAP2 POP POP SWAP3 SWAP2 POP POP JUMP JUMPDEST PUSH0 PUSH2 0x1044 DUP3 DUP5 PUSH2 0x1009 JUMP JUMPDEST SWAP2 POP DUP2 SWAP1 POP SWAP3 SWAP2 POP POP JUMP JUMPDEST PUSH0 DUP2 MLOAD SWAP1 POP PUSH2 0x105D DUP2 PUSH2 0xE38 JUMP JUMPDEST SWAP3 SWAP2 POP POP JUMP JUMPDEST PUSH0 PUSH1 0x20 DUP3 DUP5 SUB SLT ISZERO PUSH2 0x1078 JUMPI PUSH2 0x1077 PUSH2 0xBD2 JUMP JUMPDEST JUMPDEST PUSH0 PUSH2 0x1085 DUP5 DUP3 DUP6 ADD PUSH2 0x104F JUMP JUMPDEST SWAP2 POP POP SWAP3 SWAP2 POP POP JUMP JUMPDEST PUSH32 0x57616C6C6574466163746F72793A20696E697469616C697A65206661696C6564 PUSH0 DUP3 ADD MSTORE POP JUMP JUMPDEST PUSH0 PUSH2 0x10C2 PUSH1 0x20 DUP4 PUSH2 0xEB2 JUMP JUMPDEST SWAP2 POP PUSH2 0x10CD DUP3 PUSH2 0x108E JUMP JUMPDEST PUSH1 0x20 DUP3 ADD SWAP1 POP SWAP2 SWAP1 POP JUMP JUMPDEST PUSH0 PUSH1 0x20 DUP3 ADD SWAP1 POP DUP2 DUP2 SUB PUSH0 DUP4 ADD MSTORE PUSH2 0x10EF DUP2 PUSH2 0x10B6 JUMP JUMPDEST SWAP1 POP SWAP2 SWAP1 POP JUMP JUMPDEST PUSH32 0x57616C6C6574466163746F72793A207A65726F20616464726573732067697665 PUSH0 DUP3 ADD MSTORE PUSH32 0x6E00000000000000000000000000000000000000000000000000000000000000 PUSH1 0x20 DUP3 ADD MSTORE POP JUMP JUMPDEST PUSH0 PUSH2 0x1150 PUSH1 0x21 DUP4 PUSH2 0xEB2 JUMP JUMPDEST SWAP2 POP PUSH2 0x115B DUP3 PUSH2 0x10F6 JUMP JUMPDEST PUSH1 0x40 DUP3 ADD SWAP1 POP SWAP2 SWAP1 POP JUMP JUMPDEST PUSH0 PUSH1 0x20 DUP3 ADD SWAP1 POP DUP2 DUP2 SUB PUSH0 DUP4 ADD MSTORE PUSH2 0x117D DUP2 PUSH2 0x1144 JUMP JUMPDEST SWAP1 POP SWAP2 SWAP1 POP JUMP JUMPDEST PUSH0 DUP2 SWAP1 POP SWAP3 SWAP2 POP POP JUMP JUMPDEST PUSH32 0xFF00000000000000000000000000000000000000000000000000000000000000 PUSH0 DUP3 ADD MSTORE POP JUMP JUMPDEST PUSH0 PUSH2 0x11C2 PUSH1 0x1 DUP4 PUSH2 0x1184 JUMP JUMPDEST SWAP2 POP PUSH2 0x11CD DUP3 PUSH2 0x118E JUMP JUMPDEST PUSH1 0x1 DUP3 ADD SWAP1 POP SWAP2 SWAP1 POP JUMP JUMPDEST PUSH0 DUP2 SWAP1 POP SWAP2 SWAP1 POP JUMP JUMPDEST PUSH2 0x11F2 PUSH2 0x11ED DUP3 PUSH2 0xD49 JUMP JUMPDEST PUSH2 0x11D8 JUMP JUMPDEST DUP3 MSTORE POP POP JUMP JUMPDEST PUSH0 PUSH2 0x1202 DUP3 PUSH2 0x11B6 JUMP JUMPDEST SWAP2 POP PUSH2 0x120E DUP3 DUP7 PUSH2 0xF7E JUMP JUMPDEST PUSH1 0x14 DUP3 ADD SWAP2 POP PUSH2 0x121E DUP3 DUP6 PUSH2 0x11E1 JUMP JUMPDEST PUSH1 0x20 DUP3 ADD SWAP2 POP PUSH2 0x122E DUP3 DUP5 PUSH2 0x11E1 JUMP JUMPDEST PUSH1 0x20 DUP3 ADD SWAP2 POP DUP2 SWAP1 POP SWAP5 SWAP4 POP POP POP POP JUMP JUMPDEST PUSH0 PUSH1 0x40 DUP3 ADD SWAP1 POP PUSH2 0x1252 PUSH0 DUP4 ADD DUP6 PUSH2 0xD21 JUMP JUMPDEST PUSH2 0x125F PUSH1 0x20 DUP4 ADD DUP5 PUSH2 0xDA7 JUMP JUMPDEST SWAP4 SWAP3 POP POP POP JUMP INVALID PUSH1 0xA0 PUSH1 0x40 MSTORE CALLVALUE DUP1 ISZERO PUSH1 0xE JUMPI PUSH0 DUP1 REVERT JUMPDEST POP CALLER PUSH20 0xFFFFFFFFFFFFFFFFFFFFFFFFFFFFFFFFFFFFFFFF AND PUSH1 0x80 DUP2 PUSH20 0xFFFFFFFFFFFFFFFFFFFFFFFFFFFFFFFFFFFFFFFF AND DUP2 MSTORE POP POP PUSH1 0x80 MLOAD PUSH2 0x10F5 PUSH2 0x5B PUSH0 CODECOPY PUSH0 PUSH2 0x38B ADD MSTORE PUSH2 0x10F5 PUSH0 RETURN INVALID PUSH1 0x80 PUSH1 0x40 MSTORE CALLVALUE DUP1 ISZERO PUSH2 0xF JUMPI PUSH0 DUP1 REVERT JUMPDEST POP PUSH1 0x4 CALLDATASIZE LT PUSH2 0x91 JUMPI PUSH0 CALLDATALOAD PUSH1 0xE0 SHR DUP1 PUSH4 0x810EC23B GT PUSH2 0x64 JUMPI DUP1 PUSH4 0x810EC23B EQ PUSH2 0x11D JUMPI DUP1 PUSH4 0x9852595C EQ PUSH2 0x14D JUMPI DUP1 PUSH4 0xA3F8EACE EQ PUSH2 0x17D JUMPI DUP1 PUSH4 0xBE9A6555 EQ PUSH2 0x1AD JUMPI DUP1 PUSH4 0xDB27B8DD EQ PUSH2 0x1CB JUMPI PUSH2 0x91 JUMP JUMPDEST DUP1 PUSH4 0xFB5A6B4 EQ PUSH2 0x95 JUMPI DUP1 PUSH4 0x19165587 EQ PUSH2 0xB3 JUMPI DUP1 PUSH4 0x38AF3EED EQ PUSH2 0xCF JUMPI DUP1 PUSH4 0x485CC955 EQ PUSH2 0xED JUMPI JUMPDEST PUSH0 DUP1 REVERT JUMPDEST PUSH2 0x9D PUSH2 0x1E9 JUMP JUMPDEST PUSH1 0x40 MLOAD PUSH2 0xAA SWAP2 SWAP1 PUSH2 0xAA6 JUMP JUMPDEST PUSH1 0x40 MLOAD DUP1 SWAP2 SUB SWAP1 RETURN JUMPDEST PUSH2 0xCD PUSH1 0x4 DUP1 CALLDATASIZE SUB DUP2 ADD SWAP1 PUSH2 0xC8 SWAP2 SWAP1 PUSH2 0xB1D JUMP JUMPDEST PUSH2 0x287 JUMP JUMPDEST STOP JUMPDEST PUSH2 0xD7 PUSH2 0x349 JUMP JUMPDEST PUSH1 0x40 MLOAD PUSH2 0xE4 SWAP2 SWAP1 PUSH2 0xB57 JUMP JUMPDEST PUSH1 0x40 MLOAD DUP1 SWAP2 SUB SWAP1 RETURN JUMPDEST PUSH2 0x107 PUSH1 0x4 DUP1 CALLDATASIZE SUB DUP2 ADD SWAP1 PUSH2 0x102 SWAP2 SWAP1 PUSH2 0xB70 JUMP JUMPDEST PUSH2 0x371 JUMP JUMPDEST PUSH1 0x40 MLOAD PUSH2 0x114 SWAP2 SWAP1 PUSH2 0xBC8 JUMP JUMPDEST PUSH1 0x40 MLOAD DUP1 SWAP2 SUB SWAP1 RETURN JUMPDEST PUSH2 0x137 PUSH1 0x4 DUP1 CALLDATASIZE SUB DUP2 ADD SWAP1 PUSH2 0x132 SWAP2 SWAP1 PUSH2 0xC1E JUMP JUMPDEST PUSH2 0x566 JUMP JUMPDEST PUSH1 0x40 MLOAD PUSH2 0x144 SWAP2 SWAP1 PUSH2 0xAA6 JUMP JUMPDEST PUSH1 0x40 MLOAD DUP1 SWAP2 SUB SWAP1 RETURN JUMPDEST PUSH2 0x167 PUSH1 0x4 DUP1 CALLDATASIZE SUB DUP2 ADD SWAP1 PUSH2 0x162 SWAP2 SWAP1 PUSH2 0xB1D JUMP JUMPDEST PUSH2 0x603 JUMP JUMPDEST PUSH1 0x40 MLOAD PUSH2 0x174 SWAP2 SWAP1 PUSH2 0xAA6 JUMP JUMPDEST PUSH1 0x40 MLOAD DUP1 SWAP2 SUB SWAP1 RETURN JUMPDEST PUSH2 0x197 PUSH1 0x4 DUP1 CALLDATASIZE SUB DUP2 ADD SWAP1 PUSH2 0x192 SWAP2 SWAP1 PUSH2 0xB1D JUMP JUMPDEST PUSH2 0x648 JUMP JUMPDEST PUSH1 0x40 MLOAD PUSH2 0x1A4 SWAP2 SWAP1 PUSH2 0xAA6 JUMP JUMPDEST PUSH1 0x40 MLOAD DUP1 SWAP2 SUB SWAP1 RETURN JUMPDEST PUSH2 0x1B5 PUSH2 0x66D JUMP JUMPDEST PUSH1 0x40 MLOAD PUSH2 0x1C2 SWAP2 SWAP1 PUSH2 0xAA6 JUMP JUMPDEST PUSH1 0x40 MLOAD DUP1 SWAP2 SUB SWAP1 RETURN JUMPDEST PUSH2 0x1D3 PUSH2 0x70B JUMP JUMPDEST PUSH1 0x40 MLOAD PUSH2 0x1E0 SWAP2 SWAP1 PUSH2 0xB57 JUMP JUMPDEST PUSH1 0x40 MLOAD DUP1 SWAP2 SUB SWAP1 RETURN JUMPDEST PUSH0 PUSH1 0x1 PUSH0 SWAP1 SLOAD SWAP1 PUSH2 0x100 EXP SWAP1 DIV PUSH20 0xFFFFFFFFFFFFFFFFFFFFFFFFFFFFFFFFFFFFFFFF AND PUSH20 0xFFFFFFFFFFFFFFFFFFFFFFFFFFFFFFFFFFFFFFFF AND PUSH4 0xFB5A6B4 PUSH1 0x40 MLOAD DUP2 PUSH4 0xFFFFFFFF AND PUSH1 0xE0 SHL DUP2 MSTORE PUSH1 0x4 ADD PUSH1 0x20 PUSH1 0x40 MLOAD DUP1 DUP4 SUB DUP2 DUP7 GAS STATICCALL ISZERO DUP1 ISZERO PUSH2 0x254 JUMPI RETURNDATASIZE PUSH0 DUP1 RETURNDATACOPY RETURNDATASIZE PUSH0 REVERT JUMPDEST POP POP POP POP PUSH1 0x40 MLOAD RETURNDATASIZE PUSH1 0x1F NOT PUSH1 0x1F DUP3 ADD AND DUP3 ADD DUP1 PUSH1 0x40 MSTORE POP DUP2 ADD SWAP1 PUSH2 0x278 SWAP2 SWAP1 PUSH2 0xC70 JUMP JUMPDEST PUSH8 0xFFFFFFFFFFFFFFFF AND SWAP1 POP SWAP1 JUMP JUMPDEST PUSH0 PUSH2 0x291 DUP3 PUSH2 0x648 JUMP JUMPDEST SWAP1 POP DUP1 PUSH0 DUP1 DUP5 PUSH20 0xFFFFFFFFFFFFFFFFFFFFFFFFFFFFFFFFFFFFFFFF AND PUSH20 0xFFFFFFFFFFFFFFFFFFFFFFFFFFFFFFFFFFFFFFFF AND DUP2 MSTORE PUSH1 0x20 ADD SWAP1 DUP2 MSTORE PUSH1 0x20 ADD PUSH0 KECCAK256 PUSH0 DUP3 DUP3 SLOAD PUSH2 0x2DE SWAP2 SWAP1 PUSH2 0xCC8 JUMP JUMPDEST SWAP3 POP POP DUP2 SWAP1 SSTORE POP DUP2 PUSH20 0xFFFFFFFFFFFFFFFFFFFFFFFFFFFFFFFFFFFFFFFF AND PUSH32 0xC0E523490DD523C33B1878C9EB14FF46991E3F5B2CD33710918618F2A39CBA1B DUP3 PUSH1 0x40 MLOAD PUSH2 0x32B SWAP2 SWAP1 PUSH2 0xAA6 JUMP JUMPDEST PUSH1 0x40 MLOAD DUP1 SWAP2 SUB SWAP1 LOG2 PUSH2 0x345 DUP3 PUSH2 0x33F PUSH2 0x349 JUMP JUMPDEST DUP4 PUSH2 0x733 JUMP JUMPDEST POP POP JUMP JUMPDEST PUSH0 PUSH1 0x2 PUSH0 SWAP1 SLOAD SWAP1 PUSH2 0x100 EXP SWAP1 DIV PUSH20 0xFFFFFFFFFFFFFFFFFFFFFFFFFFFFFFFFFFFFFFFF AND SWAP1 POP SWAP1 JUMP JUMPDEST PUSH0 CALLER PUSH20 0xFFFFFFFFFFFFFFFFFFFFFFFFFFFFFFFFFFFFFFFF AND PUSH32 0x0 PUSH20 0xFFFFFFFFFFFFFFFFFFFFFFFFFFFFFFFFFFFFFFFF AND EQ PUSH2 0x400 JUMPI PUSH1 0x40 MLOAD PUSH32 0x8C379A000000000000000000000000000000000000000000000000000000000 DUP2 MSTORE PUSH1 0x4 ADD PUSH2 0x3F7 SWAP1 PUSH2 0xD7B JUMP JUMPDEST PUSH1 0x40 MLOAD DUP1 SWAP2 SUB SWAP1 REVERT JUMPDEST PUSH0 PUSH20 0xFFFFFFFFFFFFFFFFFFFFFFFFFFFFFFFFFFFFFFFF AND DUP3 PUSH20 0xFFFFFFFFFFFFFFFFFFFFFFFFFFFFFFFFFFFFFFFF AND SUB PUSH2 0x46E JUMPI PUSH1 0x40 MLOAD PUSH32 0x8C379A000000000000000000000000000000000000000000000000000000000 DUP2 MSTORE PUSH1 0x4 ADD PUSH2 0x465 SWAP1 PUSH2 0xE09 JUMP JUMPDEST PUSH1 0x40 MLOAD DUP1 SWAP2 SUB SWAP1 REVERT JUMPDEST PUSH0 PUSH20 0xFFFFFFFFFFFFFFFFFFFFFFFFFFFFFFFFFFFFFFFF AND DUP4 PUSH20 0xFFFFFFFFFFFFFFFFFFFFFFFFFFFFFFFFFFFFFFFF AND SUB PUSH2 0x4DC JUMPI PUSH1 0x40 MLOAD PUSH32 0x8C379A000000000000000000000000000000000000000000000000000000000 DUP2 MSTORE PUSH1 0x4 ADD PUSH2 0x4D3 SWAP1 PUSH2 0xE97 JUMP JUMPDEST PUSH1 0x40 MLOAD DUP1 SWAP2 SUB SWAP1 REVERT JUMPDEST DUP2 PUSH1 0x1 PUSH0 PUSH2 0x100 EXP DUP2 SLOAD DUP2 PUSH20 0xFFFFFFFFFFFFFFFFFFFFFFFFFFFFFFFFFFFFFFFF MUL NOT AND SWAP1 DUP4 PUSH20 0xFFFFFFFFFFFFFFFFFFFFFFFFFFFFFFFFFFFFFFFF AND MUL OR SWAP1 SSTORE POP DUP3 PUSH1 0x2 PUSH0 PUSH2 0x100 EXP DUP2 SLOAD DUP2 PUSH20 0xFFFFFFFFFFFFFFFFFFFFFFFFFFFFFFFFFFFFFFFF MUL NOT AND SWAP1 DUP4 PUSH20 0xFFFFFFFFFFFFFFFFFFFFFFFFFFFFFFFFFFFFFFFF AND MUL OR SWAP1 SSTORE POP PUSH1 0x1 SWAP1 POP SWAP3 SWAP2 POP POP JUMP JUMPDEST PUSH0 PUSH2 0x5FB PUSH2 0x573 DUP5 PUSH2 0x603 JUMP JUMPDEST DUP5 PUSH20 0xFFFFFFFFFFFFFFFFFFFFFFFFFFFFFFFFFFFFFFFF AND PUSH4 0x70A08231 ADDRESS PUSH1 0x40 MLOAD DUP3 PUSH4 0xFFFFFFFF AND PUSH1 0xE0 SHL DUP2 MSTORE PUSH1 0x4 ADD PUSH2 0x5AC SWAP2 SWAP1 PUSH2 0xB57 JUMP JUMPDEST PUSH1 0x20 PUSH1 0x40 MLOAD DUP1 DUP4 SUB DUP2 DUP7 GAS STATICCALL ISZERO DUP1 ISZERO PUSH2 0x5C7 JUMPI RETURNDATASIZE PUSH0 DUP1 RETURNDATACOPY RETURNDATASIZE PUSH0 REVERT JUMPDEST POP POP POP POP PUSH1 0x40 MLOAD RETURNDATASIZE PUSH1 0x1F NOT PUSH1 0x1F DUP3 ADD AND DUP3 ADD DUP1 PUSH1 0x40 MSTORE POP DUP2 ADD SWAP1 PUSH2 0x5EB SWAP2 SWAP1 PUSH2 0xEDF JUMP JUMPDEST PUSH2 0x5F5 SWAP2 SWAP1 PUSH2 0xCC8 JUMP JUMPDEST DUP4 PUSH2 0x7B2 JUMP JUMPDEST SWAP1 POP SWAP3 SWAP2 POP POP JUMP JUMPDEST PUSH0 DUP1 PUSH0 DUP4 PUSH20 0xFFFFFFFFFFFFFFFFFFFFFFFFFFFFFFFFFFFFFFFF AND PUSH20 0xFFFFFFFFFFFFFFFFFFFFFFFFFFFFFFFFFFFFFFFF AND DUP2 MSTORE PUSH1 0x20 ADD SWAP1 DUP2 MSTORE PUSH1 0x20 ADD PUSH0 KECCAK256 SLOAD SWAP1 POP SWAP2 SWAP1 POP JUMP JUMPDEST PUSH0 PUSH2 0x652 DUP3 PUSH2 0x603 JUMP JUMPDEST PUSH2 0x65C DUP4 TIMESTAMP PUSH2 0x566 JUMP JUMPDEST PUSH2 0x666 SWAP2 SWAP1 PUSH2 0xF0A JUMP JUMPDEST SWAP1 POP SWAP2 SWAP1 POP JUMP JUMPDEST PUSH0 PUSH1 0x1 PUSH0 SWAP1 SLOAD SWAP1 PUSH2 0x100 EXP SWAP1 DIV PUSH20 0xFFFFFFFFFFFFFFFFFFFFFFFFFFFFFFFFFFFFFFFF AND PUSH20 0xFFFFFFFFFFFFFFFFFFFFFFFFFFFFFFFFFFFFFFFF AND PUSH4 0xBE9A6555 PUSH1 0x40 MLOAD DUP2 PUSH4 0xFFFFFFFF AND PUSH1 0xE0 SHL DUP2 MSTORE PUSH1 0x4 ADD PUSH1 0x20 PUSH1 0x40 MLOAD DUP1 DUP4 SUB DUP2 DUP7 GAS STATICCALL ISZERO DUP1 ISZERO PUSH2 0x6D8 JUMPI RETURNDATASIZE PUSH0 DUP1 RETURNDATACOPY RETURNDATASIZE PUSH0 REVERT JUMPDEST POP POP POP POP PUSH1 0x40 MLOAD RETURNDATASIZE PUSH1 0x1F NOT PUSH1 0x1F DUP3 ADD AND DUP3 ADD DUP1 PUSH1 0x40 MSTORE POP DUP2 ADD SWAP1 PUSH2 0x6FC SWAP2 SWAP1 PUSH2 0xC70 JUMP JUMPDEST PUSH8 0xFFFFFFFFFFFFFFFF AND SWAP1 POP SWAP1 JUMP JUMPDEST PUSH0 PUSH1 0x1 PUSH0 SWAP1 SLOAD SWAP1 PUSH2 0x100 EXP SWAP1 DIV PUSH20 0xFFFFFFFFFFFFFFFFFFFFFFFFFFFFFFFFFFFFFFFF AND SWAP1 POP SWAP1 JUMP JUMPDEST PUSH2 0x7AD DUP4 DUP5 PUSH20 0xFFFFFFFFFFFFFFFFFFFFFFFFFFFFFFFFFFFFFFFF AND PUSH4 0xA9059CBB DUP6 DUP6 PUSH1 0x40 MLOAD PUSH1 0x24 ADD PUSH2 0x766 SWAP3 SWAP2 SWAP1 PUSH2 0xF3D JUMP JUMPDEST PUSH1 0x40 MLOAD PUSH1 0x20 DUP2 DUP4 SUB SUB DUP2 MSTORE SWAP1 PUSH1 0x40 MSTORE SWAP2 POP PUSH1 0xE0 SHL PUSH1 0x20 DUP3 ADD DUP1 MLOAD PUSH28 0xFFFFFFFFFFFFFFFFFFFFFFFFFFFFFFFFFFFFFFFFFFFFFFFFFFFFFFFF DUP4 DUP2 DUP4 AND OR DUP4 MSTORE POP POP POP POP PUSH2 0x84A JUMP JUMPDEST POP POP POP JUMP JUMPDEST PUSH0 PUSH2 0x7BB PUSH2 0x66D JUMP JUMPDEST DUP3 PUSH8 0xFFFFFFFFFFFFFFFF AND LT ISZERO PUSH2 0x7D4 JUMPI PUSH0 SWAP1 POP PUSH2 0x844 JUMP JUMPDEST PUSH2 0x7DC PUSH2 0x1E9 JUMP JUMPDEST PUSH2 0x7E4 PUSH2 0x66D JUMP JUMPDEST PUSH2 0x7EE SWAP2 SWAP1 PUSH2 0xCC8 JUMP JUMPDEST DUP3 PUSH8 0xFFFFFFFFFFFFFFFF AND GT ISZERO PUSH2 0x807 JUMPI DUP3 SWAP1 POP PUSH2 0x844 JUMP JUMPDEST PUSH2 0x80F PUSH2 0x1E9 JUMP JUMPDEST PUSH2 0x817 PUSH2 0x66D JUMP JUMPDEST DUP4 PUSH8 0xFFFFFFFFFFFFFFFF AND PUSH2 0x82C SWAP2 SWAP1 PUSH2 0xF0A JUMP JUMPDEST DUP5 PUSH2 0x837 SWAP2 SWAP1 PUSH2 0xF64 JUMP JUMPDEST PUSH2 0x841 SWAP2 SWAP1 PUSH2 0xFD2 JUMP JUMPDEST SWAP1 POP JUMPDEST SWAP3 SWAP2 POP POP JUMP JUMPDEST PUSH0 PUSH2 0x874 DUP3 DUP5 PUSH20 0xFFFFFFFFFFFFFFFFFFFFFFFFFFFFFFFFFFFFFFFF AND PUSH2 0x8DF SWAP1 SWAP2 SWAP1 PUSH4 0xFFFFFFFF AND JUMP JUMPDEST SWAP1 POP PUSH0 DUP2 MLOAD EQ ISZERO DUP1 ISZERO PUSH2 0x898 JUMPI POP DUP1 DUP1 PUSH1 0x20 ADD SWAP1 MLOAD DUP2 ADD SWAP1 PUSH2 0x896 SWAP2 SWAP1 PUSH2 0x102C JUMP JUMPDEST ISZERO JUMPDEST ISZERO PUSH2 0x8DA JUMPI DUP3 PUSH1 0x40 MLOAD PUSH32 0x5274AFE700000000000000000000000000000000000000000000000000000000 DUP2 MSTORE PUSH1 0x4 ADD PUSH2 0x8D1 SWAP2 SWAP1 PUSH2 0xB57 JUMP JUMPDEST PUSH1 0x40 MLOAD DUP1 SWAP2 SUB SWAP1 REVERT JUMPDEST POP POP POP JUMP JUMPDEST PUSH1 0x60 PUSH2 0x8EC DUP4 DUP4 PUSH0 PUSH2 0x8F4 JUMP JUMPDEST SWAP1 POP SWAP3 SWAP2 POP POP JUMP JUMPDEST PUSH1 0x60 DUP2 SELFBALANCE LT ISZERO PUSH2 0x93B JUMPI ADDRESS PUSH1 0x40 MLOAD PUSH32 0xCD78605900000000000000000000000000000000000000000000000000000000 DUP2 MSTORE PUSH1 0x4 ADD PUSH2 0x932 SWAP2 SWAP1 PUSH2 0xB57 JUMP JUMPDEST PUSH1 0x40 MLOAD DUP1 SWAP2 SUB SWAP1 REVERT JUMPDEST PUSH0 DUP1 DUP6 PUSH20 0xFFFFFFFFFFFFFFFFFFFFFFFFFFFFFFFFFFFFFFFF AND DUP5 DUP7 PUSH1 0x40 MLOAD PUSH2 0x963 SWAP2 SWAP1 PUSH2 0x10A9 JUMP JUMPDEST PUSH0 PUSH1 0x40 MLOAD DUP1 DUP4 SUB DUP2 DUP6 DUP8 GAS CALL SWAP3 POP POP POP RETURNDATASIZE DUP1 PUSH0 DUP2 EQ PUSH2 0x99D JUMPI PUSH1 0x40 MLOAD SWAP2 POP PUSH1 0x1F NOT PUSH1 0x3F RETURNDATASIZE ADD AND DUP3 ADD PUSH1 0x40 MSTORE RETURNDATASIZE DUP3 MSTORE RETURNDATASIZE PUSH0 PUSH1 0x20 DUP5 ADD RETURNDATACOPY PUSH2 0x9A2 JUMP JUMPDEST PUSH1 0x60 SWAP2 POP JUMPDEST POP SWAP2 POP SWAP2 POP PUSH2 0x9B2 DUP7 DUP4 DUP4 PUSH2 0x9BD JUMP JUMPDEST SWAP3 POP POP POP SWAP4 SWAP3 POP POP POP JUMP JUMPDEST PUSH1 0x60 DUP3 PUSH2 0x9D2 JUMPI PUSH2 0x9CD DUP3 PUSH2 0xA4A JUMP JUMPDEST PUSH2 0xA42 JUMP JUMPDEST PUSH0 DUP3 MLOAD EQ DUP1 ISZERO PUSH2 0x9F8 JUMPI POP PUSH0 DUP5 PUSH20 0xFFFFFFFFFFFFFFFFFFFFFFFFFFFFFFFFFFFFFFFF AND EXTCODESIZE EQ JUMPDEST ISZERO PUSH2 0xA3A JUMPI DUP4 PUSH1 0x40 MLOAD PUSH32 0x9996B31500000000000000000000000000000000000000000000000000000000 DUP2 MSTORE PUSH1 0x4 ADD PUSH2 0xA31 SWAP2 SWAP1 PUSH2 0xB57 JUMP JUMPDEST PUSH1 0x40 MLOAD DUP1 SWAP2 SUB SWAP1 REVERT JUMPDEST DUP2 SWAP1 POP PUSH2 0xA43 JUMP JUMPDEST JUMPDEST SWAP4 SWAP3 POP POP POP JUMP JUMPDEST PUSH0 DUP2 MLOAD GT ISZERO PUSH2 0xA5C JUMPI DUP1 MLOAD DUP1 DUP3 PUSH1 0x20 ADD REVERT JUMPDEST PUSH1 0x40 MLOAD PUSH32 0x1425EA4200000000000000000000000000000000000000000000000000000000 DUP2 MSTORE PUSH1 0x4 ADD PUSH1 0x40 MLOAD DUP1 SWAP2 SUB SWAP1 REVERT JUMPDEST PUSH0 DUP2 SWAP1 POP SWAP2 SWAP1 POP JUMP JUMPDEST PUSH2 0xAA0 DUP2 PUSH2 0xA8E JUMP JUMPDEST DUP3 MSTORE POP POP JUMP JUMPDEST PUSH0 PUSH1 0x20 DUP3 ADD SWAP1 POP PUSH2 0xAB9 PUSH0 DUP4 ADD DUP5 PUSH2 0xA97 JUMP JUMPDEST SWAP3 SWAP2 POP POP JUMP JUMPDEST PUSH0 DUP1 REVERT JUMPDEST PUSH0 PUSH20 0xFFFFFFFFFFFFFFFFFFFFFFFFFFFFFFFFFFFFFFFF DUP3 AND SWAP1 POP SWAP2 SWAP1 POP JUMP JUMPDEST PUSH0 PUSH2 0xAEC DUP3 PUSH2 0xAC3 JUMP JUMPDEST SWAP1 POP SWAP2 SWAP1 POP JUMP JUMPDEST PUSH2 0xAFC DUP2 PUSH2 0xAE2 JUMP JUMPDEST DUP2 EQ PUSH2 0xB06 JUMPI PUSH0 DUP1 REVERT JUMPDEST POP JUMP JUMPDEST PUSH0 DUP2 CALLDATALOAD SWAP1 POP PUSH2 0xB17 DUP2 PUSH2 0xAF3 JUMP JUMPDEST SWAP3 SWAP2 POP POP JUMP JUMPDEST PUSH0 PUSH1 0x20 DUP3 DUP5 SUB SLT ISZERO PUSH2 0xB32 JUMPI PUSH2 0xB31 PUSH2 0xABF JUMP JUMPDEST JUMPDEST PUSH0 PUSH2 0xB3F DUP5 DUP3 DUP6 ADD PUSH2 0xB09 JUMP JUMPDEST SWAP2 POP POP SWAP3 SWAP2 POP POP JUMP JUMPDEST PUSH2 0xB51 DUP2 PUSH2 0xAE2 JUMP JUMPDEST DUP3 MSTORE POP POP JUMP JUMPDEST PUSH0 PUSH1 0x20 DUP3 ADD SWAP1 POP PUSH2 0xB6A PUSH0 DUP4 ADD DUP5 PUSH2 0xB48 JUMP JUMPDEST SWAP3 SWAP2 POP POP JUMP JUMPDEST PUSH0 DUP1 PUSH1 0x40 DUP4 DUP6 SUB SLT ISZERO PUSH2 0xB86 JUMPI PUSH2 0xB85 PUSH2 0xABF JUMP JUMPDEST JUMPDEST PUSH0 PUSH2 0xB93 DUP6 DUP3 DUP7 ADD PUSH2 0xB09 JUMP JUMPDEST SWAP3 POP POP PUSH1 0x20 PUSH2 0xBA4 DUP6 DUP3 DUP7 ADD PUSH2 0xB09 JUMP JUMPDEST SWAP2 POP POP SWAP3 POP SWAP3 SWAP1 POP JUMP JUMPDEST PUSH0 DUP2 ISZERO ISZERO SWAP1 POP SWAP2 SWAP1 POP JUMP JUMPDEST PUSH2 0xBC2 DUP2 PUSH2 0xBAE JUMP JUMPDEST DUP3 MSTORE POP POP JUMP JUMPDEST PUSH0 PUSH1 0x20 DUP3 ADD SWAP1 POP PUSH2 0xBDB PUSH0 DUP4 ADD DUP5 PUSH2 0xBB9 JUMP JUMPDEST SWAP3 SWAP2 POP POP JUMP JUMPDEST PUSH0 PUSH8 0xFFFFFFFFFFFFFFFF DUP3 AND SWAP1 POP SWAP2 SWAP1 POP JUMP JUMPDEST PUSH2 0xBFD DUP2 PUSH2 0xBE1 JUMP JUMPDEST DUP2 EQ PUSH2 0xC07 JUMPI PUSH0 DUP1 REVERT JUMPDEST POP JUMP JUMPDEST PUSH0 DUP2 CALLDATALOAD SWAP1 POP PUSH2 0xC18 DUP2 PUSH2 0xBF4 JUMP JUMPDEST SWAP3 SWAP2 POP POP JUMP JUMPDEST PUSH0 DUP1 PUSH1 0x40 DUP4 DUP6 SUB SLT ISZERO PUSH2 0xC34 JUMPI PUSH2 0xC33 PUSH2 0xABF JUMP JUMPDEST JUMPDEST PUSH0 PUSH2 0xC41 DUP6 DUP3 DUP7 ADD PUSH2 0xB09 JUMP JUMPDEST SWAP3 POP POP PUSH1 0x20 PUSH2 0xC52 DUP6 DUP3 DUP7 ADD PUSH2 0xC0A JUMP JUMPDEST SWAP2 POP POP SWAP3 POP SWAP3 SWAP1 POP JUMP JUMPDEST PUSH0 DUP2 MLOAD SWAP1 POP PUSH2 0xC6A DUP2 PUSH2 0xBF4 JUMP JUMPDEST SWAP3 SWAP2 POP POP JUMP JUMPDEST PUSH0 PUSH1 0x20 DUP3 DUP5 SUB SLT ISZERO PUSH2 0xC85 JUMPI PUSH2 0xC84 PUSH2 0xABF JUMP JUMPDEST JUMPDEST PUSH0 PUSH2 0xC92 DUP5 DUP3 DUP6 ADD PUSH2 0xC5C JUMP JUMPDEST SWAP2 POP POP SWAP3 SWAP2 POP POP JUMP JUMPDEST PUSH32 0x4E487B7100000000000000000000000000000000000000000000000000000000 PUSH0 MSTORE PUSH1 0x11 PUSH1 0x4 MSTORE PUSH1 0x24 PUSH0 REVERT JUMPDEST PUSH0 PUSH2 0xCD2 DUP3 PUSH2 0xA8E JUMP JUMPDEST SWAP2 POP PUSH2 0xCDD DUP4 PUSH2 0xA8E JUMP JUMPDEST SWAP3 POP DUP3 DUP3 ADD SWAP1 POP DUP1 DUP3 GT ISZERO PUSH2 0xCF5 JUMPI PUSH2 0xCF4 PUSH2 0xC9B JUMP JUMPDEST JUMPDEST SWAP3 SWAP2 POP POP JUMP JUMPDEST PUSH0 DUP3 DUP3 MSTORE PUSH1 0x20 DUP3 ADD SWAP1 POP SWAP3 SWAP2 POP POP JUMP JUMPDEST PUSH32 0x4D616E6167656456657374696E6757616C6C65743A206F6E6C7920666163746F PUSH0 DUP3 ADD MSTORE PUSH32 0x7279000000000000000000000000000000000000000000000000000000000000 PUSH1 0x20 DUP3 ADD MSTORE POP JUMP JUMPDEST PUSH0 PUSH2 0xD65 PUSH1 0x22 DUP4 PUSH2 0xCFB JUMP JUMPDEST SWAP2 POP PUSH2 0xD70 DUP3 PUSH2 0xD0B JUMP JUMPDEST PUSH1 0x40 DUP3 ADD SWAP1 POP SWAP2 SWAP1 POP JUMP JUMPDEST PUSH0 PUSH1 0x20 DUP3 ADD SWAP1 POP DUP2 DUP2 SUB PUSH0 DUP4 ADD MSTORE PUSH2 0xD92 DUP2 PUSH2 0xD59 JUMP JUMPDEST SWAP1 POP SWAP2 SWAP1 POP JUMP JUMPDEST PUSH32 0x4D616E6167656456657374696E6757616C6C65743A2076657374696E67206D61 PUSH0 DUP3 ADD MSTORE PUSH32 0x6E61676572206973207A65726F20616464726573730000000000000000000000 PUSH1 0x20 DUP3 ADD MSTORE POP JUMP JUMPDEST PUSH0 PUSH2 0xDF3 PUSH1 0x35 DUP4 PUSH2 0xCFB JUMP JUMPDEST SWAP2 POP PUSH2 0xDFE DUP3 PUSH2 0xD99 JUMP JUMPDEST PUSH1 0x40 DUP3 ADD SWAP1 POP SWAP2 SWAP1 POP JUMP JUMPDEST PUSH0 PUSH1 0x20 DUP3 ADD SWAP1 POP DUP2 DUP2 SUB PUSH0 DUP4 ADD MSTORE PUSH2 0xE20 DUP2 PUSH2 0xDE7 JUMP JUMPDEST SWAP1 POP SWAP2 SWAP1 POP JUMP JUMPDEST PUSH32 0x4D616E6167656456657374696E6757616C6C65743A2062656E65666963696172 PUSH0 DUP3 ADD MSTORE PUSH32 0x79206973207A65726F2061646472657373000000000000000000000000000000 PUSH1 0x20 DUP3 ADD MSTORE POP JUMP JUMPDEST PUSH0 PUSH2 0xE81 PUSH1 0x31 DUP4 PUSH2 0xCFB JUMP JUMPDEST SWAP2 POP PUSH2 0xE8C DUP3 PUSH2 0xE27 JUMP JUMPDEST PUSH1 0x40 DUP3 ADD SWAP1 POP SWAP2 SWAP1 POP JUMP JUMPDEST PUSH0 PUSH1 0x20 DUP3 ADD SWAP1 POP DUP2 DUP2 SUB PUSH0 DUP4 ADD MSTORE PUSH2 0xEAE DUP2 PUSH2 0xE75 JUMP JUMPDEST SWAP1 POP SWAP2 SWAP1 POP JUMP JUMPDEST PUSH2 0xEBE DUP2 PUSH2 0xA8E JUMP JUMPDEST DUP2 EQ PUSH2 0xEC8 JUMPI PUSH0 DUP1 REVERT JUMPDEST POP JUMP JUMPDEST PUSH0 DUP2 MLOAD SWAP1 POP PUSH2 0xED9 DUP2 PUSH2 0xEB5 JUMP JUMPDEST SWAP3 SWAP2 POP POP JUMP JUMPDEST PUSH0 PUSH1 0x20 DUP3 DUP5 SUB SLT ISZERO PUSH2 0xEF4 JUMPI PUSH2 0xEF3 PUSH2 0xABF JUMP JUMPDEST JUMPDEST PUSH0 PUSH2 0xF01 DUP5 DUP3 DUP6 ADD PUSH2 0xECB JUMP JUMPDEST SWAP2 POP POP SWAP3 SWAP2 POP POP JUMP JUMPDEST PUSH0 PUSH2 0xF14 DUP3 PUSH2 0xA8E JUMP JUMPDEST SWAP2 POP PUSH2 0xF1F DUP4 PUSH2 0xA8E JUMP JUMPDEST SWAP3 POP DUP3 DUP3 SUB SWAP1 POP DUP2 DUP2 GT ISZERO PUSH2 0xF37 JUMPI PUSH2 0xF36 PUSH2 0xC9B JUMP JUMPDEST JUMPDEST SWAP3 SWAP2 POP POP JUMP JUMPDEST PUSH0 PUSH1 0x40 DUP3 ADD SWAP1 POP PUSH2 0xF50 PUSH0 DUP4 ADD DUP6 PUSH2 0xB48 JUMP JUMPDEST PUSH2 0xF5D PUSH1 0x20 DUP4 ADD DUP5 PUSH2 0xA97 JUMP JUMPDEST SWAP4 SWAP3 POP POP POP JUMP JUMPDEST PUSH0 PUSH2 0xF6E DUP3 PUSH2 0xA8E JUMP JUMPDEST SWAP2 POP PUSH2 0xF79 DUP4 PUSH2 0xA8E JUMP JUMPDEST SWAP3 POP DUP3 DUP3 MUL PUSH2 0xF87 DUP2 PUSH2 0xA8E JUMP JUMPDEST SWAP2 POP DUP3 DUP3 DIV DUP5 EQ DUP4 ISZERO OR PUSH2 0xF9E JUMPI PUSH2 0xF9D PUSH2 0xC9B JUMP JUMPDEST JUMPDEST POP SWAP3 SWAP2 POP POP JUMP JUMPDEST PUSH32 0x4E487B7100000000000000000000000000000000000000000000000000000000 PUSH0 MSTORE PUSH1 0x12 PUSH1 0x4 MSTORE PUSH1 0x24 PUSH0 REVERT JUMPDEST PUSH0 PUSH2 0xFDC DUP3 PUSH2 0xA8E JUMP JUMPDEST SWAP2 POP PUSH2 0xFE7 DUP4 PUSH2 0xA8E JUMP JUMPDEST SWAP3 POP DUP3 PUSH2 0xFF7 JUMPI PUSH2 0xFF6 PUSH2 0xFA5 JUMP JUMPDEST JUMPDEST DUP3 DUP3 DIV SWAP1 POP SWAP3 SWAP2 POP POP JUMP JUMPDEST PUSH2 0x100B DUP2 PUSH2 0xBAE JUMP JUMPDEST DUP2 EQ PUSH2 0x1015 JUMPI PUSH0 DUP1 REVERT JUMPDEST POP JUMP JUMPDEST PUSH0 DUP2 MLOAD SWAP1 POP PUSH2 0x1026 DUP2 PUSH2 0x1002 JUMP JUMPDEST SWAP3 SWAP2 POP POP JUMP JUMPDEST PUSH0 PUSH1 0x20 DUP3 DUP5 SUB SLT ISZERO PUSH2 0x1041 JUMPI PUSH2 0x1040 PUSH2 0xABF JUMP JUMPDEST JUMPDEST PUSH0 PUSH2 0x104E DUP5 DUP3 DUP6 ADD PUSH2 0x1018 JUMP JUMPDEST SWAP2 POP POP SWAP3 SWAP2 POP POP JUMP JUMPDEST PUSH0 DUP2 MLOAD SWAP1 POP SWAP2 SWAP1 POP JUMP JUMPDEST PUSH0 DUP2 SWAP1 POP SWAP3 SWAP2 POP POP JUMP JUMPDEST DUP3 DUP2 DUP4 MCOPY PUSH0 DUP4 DUP4 ADD MSTORE POP POP POP JUMP JUMPDEST PUSH0 PUSH2 0x1083 DUP3 PUSH2 0x1057 JUMP JUMPDEST PUSH2 0x108D DUP2 DUP6 PUSH2 0x1061 JUMP JUMPDEST SWAP4 POP PUSH2 0x109D DUP2 DUP6 PUSH1 0x20 DUP7 ADD PUSH2 0x106B JUMP JUMPDEST DUP1 DUP5 ADD SWAP2 POP POP SWAP3 SWAP2 POP POP JUMP JUMPDEST PUSH0 PUSH2 0x10B4 DUP3 DUP5 PUSH2 0x1079 JUMP JUMPDEST SWAP2 POP DUP2 SWAP1 POP SWAP3 SWAP2 POP POP JUMP INVALID LOG2 PUSH5 0x6970667358 0x22 SLT KECCAK256 PUSH21 0x475C8662DFA533701EE31BEDFFCF2D0D7206985BC8 0xE5 0xE5 0xC2 CALLCODE BYTE BALANCE CALLVALUE 0xDC 0xB3 0xDE PUSH5 0x736F6C6343 STOP ADDMOD NOT STOP CALLER LOG2 PUSH5 0x6970667358 0x22 SLT KECCAK256 0xB9 CALLDATACOPY 0xEB 0xCD PUSH19 0x8D96AD682C76EF3625CFC1149FEEF18E27F284 0x4F MSIZE PUSH12 0xC162E9D55264736F6C634300 ADDMOD NOT STOP CALLER "
		},
		"gasEstimates": {
			"creation": {
				"codeDepositCost": "1839200",
				"executionCost": "infinite",
				"totalCost": "infinite"
			},
			"external": {
				"CROWDSALE_ROLE()": "370",
				"DEFAULT_ADMIN_ROLE()": "352",
				"INIT_CODE_VESTING_WALLET_HASH()": "infinite",
				"addSale(address)": "infinite",
				"createManagedVestingWallet(address,address)": "infinite",
				"getRoleAdmin(bytes32)": "infinite",
				"grantRole(bytes32,address)": "infinite",
				"hasRole(bytes32,address)": "3189",
				"removeSale(address)": "infinite",
				"renounceRole(bytes32,address)": "infinite",
				"revokeRole(bytes32,address)": "infinite",
				"supportsInterface(bytes4)": "718",
				"walletFor(address,address,bool)": "infinite"
			}
		},
		"methodIdentifiers": {
			"CROWDSALE_ROLE()": "64d2516c",
			"DEFAULT_ADMIN_ROLE()": "a217fddf",
			"INIT_CODE_VESTING_WALLET_HASH()": "af806040",
			"addSale(address)": "4a6d0292",
			"createManagedVestingWallet(address,address)": "186d268f",
			"getRoleAdmin(bytes32)": "248a9ca3",
			"grantRole(bytes32,address)": "2f2ff15d",
			"hasRole(bytes32,address)": "91d14854",
			"removeSale(address)": "30d61807",
			"renounceRole(bytes32,address)": "36568abe",
			"revokeRole(bytes32,address)": "d547741f",
			"supportsInterface(bytes4)": "01ffc9a7",
			"walletFor(address,address,bool)": "b82d15e3"
		}
	},
	"abi": [
		{
			"inputs": [],
			"stateMutability": "nonpayable",
			"type": "constructor"
		},
		{
			"inputs": [],
			"name": "AccessControlBadConfirmation",
			"type": "error"
		},
		{
			"inputs": [
				{
					"internalType": "address",
					"name": "account",
					"type": "address"
				},
				{
					"internalType": "bytes32",
					"name": "neededRole",
					"type": "bytes32"
				}
			],
			"name": "AccessControlUnauthorizedAccount",
			"type": "error"
		},
		{
			"anonymous": false,
			"inputs": [
				{
					"indexed": true,
					"internalType": "bytes32",
					"name": "role",
					"type": "bytes32"
				},
				{
					"indexed": true,
					"internalType": "bytes32",
					"name": "previousAdminRole",
					"type": "bytes32"
				},
				{
					"indexed": true,
					"internalType": "bytes32",
					"name": "newAdminRole",
					"type": "bytes32"
				}
			],
			"name": "RoleAdminChanged",
			"type": "event"
		},
		{
			"anonymous": false,
			"inputs": [
				{
					"indexed": true,
					"internalType": "bytes32",
					"name": "role",
					"type": "bytes32"
				},
				{
					"indexed": true,
					"internalType": "address",
					"name": "account",
					"type": "address"
				},
				{
					"indexed": true,
					"internalType": "address",
					"name": "sender",
					"type": "address"
				}
			],
			"name": "RoleGranted",
			"type": "event"
		},
		{
			"anonymous": false,
			"inputs": [
				{
					"indexed": true,
					"internalType": "bytes32",
					"name": "role",
					"type": "bytes32"
				},
				{
					"indexed": true,
					"internalType": "address",
					"name": "account",
					"type": "address"
				},
				{
					"indexed": true,
					"internalType": "address",
					"name": "sender",
					"type": "address"
				}
			],
			"name": "RoleRevoked",
			"type": "event"
		},
		{
			"inputs": [],
			"name": "CROWDSALE_ROLE",
			"outputs": [
				{
					"internalType": "bytes32",
					"name": "",
					"type": "bytes32"
				}
			],
			"stateMutability": "view",
			"type": "function"
		},
		{
			"inputs": [],
			"name": "DEFAULT_ADMIN_ROLE",
			"outputs": [
				{
					"internalType": "bytes32",
					"name": "",
					"type": "bytes32"
				}
			],
			"stateMutability": "view",
			"type": "function"
		},
		{
			"inputs": [],
			"name": "INIT_CODE_VESTING_WALLET_HASH",
			"outputs": [
				{
					"internalType": "bytes32",
					"name": "",
					"type": "bytes32"
				}
			],
			"stateMutability": "view",
			"type": "function"
		},
		{
			"inputs": [
				{
					"internalType": "address",
					"name": "sale_",
					"type": "address"
				}
			],
			"name": "addSale",
			"outputs": [],
			"stateMutability": "nonpayable",
			"type": "function"
		},
		{
			"inputs": [
				{
					"internalType": "address",
					"name": "beneficiary",
					"type": "address"
				},
				{
					"internalType": "address",
					"name": "vestingManager",
					"type": "address"
				}
			],
			"name": "createManagedVestingWallet",
			"outputs": [
				{
					"internalType": "address",
					"name": "",
					"type": "address"
				}
			],
			"stateMutability": "nonpayable",
			"type": "function"
		},
		{
			"inputs": [
				{
					"internalType": "bytes32",
					"name": "role",
					"type": "bytes32"
				}
			],
			"name": "getRoleAdmin",
			"outputs": [
				{
					"internalType": "bytes32",
					"name": "",
					"type": "bytes32"
				}
			],
			"stateMutability": "view",
			"type": "function"
		},
		{
			"inputs": [
				{
					"internalType": "bytes32",
					"name": "role",
					"type": "bytes32"
				},
				{
					"internalType": "address",
					"name": "account",
					"type": "address"
				}
			],
			"name": "grantRole",
			"outputs": [],
			"stateMutability": "nonpayable",
			"type": "function"
		},
		{
			"inputs": [
				{
					"internalType": "bytes32",
					"name": "role",
					"type": "bytes32"
				},
				{
					"internalType": "address",
					"name": "account",
					"type": "address"
				}
			],
			"name": "hasRole",
			"outputs": [
				{
					"internalType": "bool",
					"name": "",
					"type": "bool"
				}
			],
			"stateMutability": "view",
			"type": "function"
		},
		{
			"inputs": [
				{
					"internalType": "address",
					"name": "sale_",
					"type": "address"
				}
			],
			"name": "removeSale",
			"outputs": [],
			"stateMutability": "nonpayable",
			"type": "function"
		},
		{
			"inputs": [
				{
					"internalType": "bytes32",
					"name": "role",
					"type": "bytes32"
				},
				{
					"internalType": "address",
					"name": "callerConfirmation",
					"type": "address"
				}
			],
			"name": "renounceRole",
			"outputs": [],
			"stateMutability": "nonpayable",
			"type": "function"
		},
		{
			"inputs": [
				{
					"internalType": "bytes32",
					"name": "role",
					"type": "bytes32"
				},
				{
					"internalType": "address",
					"name": "account",
					"type": "address"
				}
			],
			"name": "revokeRole",
			"outputs": [],
			"stateMutability": "nonpayable",
			"type": "function"
		},
		{
			"inputs": [
				{
					"internalType": "bytes4",
					"name": "interfaceId",
					"type": "bytes4"
				}
			],
			"name": "supportsInterface",
			"outputs": [
				{
					"internalType": "bool",
					"name": "",
					"type": "bool"
				}
			],
			"stateMutability": "view",
			"type": "function"
		},
		{
			"inputs": [
				{
					"internalType": "address",
					"name": "beneficiary",
					"type": "address"
				},
				{
					"internalType": "address",
					"name": "vestingManager",
					"type": "address"
				},
				{
					"internalType": "bool",
					"name": "strict",
					"type": "bool"
				}
			],
			"name": "walletFor",
			"outputs": [
				{
					"internalType": "address",
					"name": "",
					"type": "address"
				}
			],
			"stateMutability": "view",
			"type": "function"
		}
	]
}