{
	"src/VestingManager/VestingManager.sol": {
		"VestingManager": {
			"abi": [
				{
					"inputs": [],
					"stateMutability": "nonpayable",
					"type": "constructor"
				},
				{
					"anonymous": false,
					"inputs": [
						{
							"indexed": true,
							"internalType": "address",
							"name": "previousOwner",
							"type": "address"
						},
						{
							"indexed": true,
							"internalType": "address",
							"name": "newOwner",
							"type": "address"
						}
					],
					"name": "OwnershipTransferred",
					"type": "event"
				},
				{
					"inputs": [],
					"name": "duration",
					"outputs": [
						{
							"internalType": "uint64",
							"name": "",
							"type": "uint64"
						}
					],
					"stateMutability": "view",
					"type": "function"
				},
				{
					"inputs": [],
					"name": "owner",
					"outputs": [
						{
							"internalType": "address",
							"name": "",
							"type": "address"
						}
					],
					"stateMutability": "view",
					"type": "function"
				},
				{
					"inputs": [],
					"name": "renounceOwnership",
					"outputs": [],
					"stateMutability": "nonpayable",
					"type": "function"
				},
				{
					"inputs": [
						{
							"internalType": "uint64",
							"name": "duration_",
							"type": "uint64"
						}
					],
					"name": "setDuration",
					"outputs": [],
					"stateMutability": "nonpayable",
					"type": "function"
				},
				{
					"inputs": [
						{
							"internalType": "uint64",
							"name": "start_",
							"type": "uint64"
						}
					],
					"name": "setStart",
					"outputs": [],
					"stateMutability": "nonpayable",
					"type": "function"
				},
				{
					"inputs": [],
					"name": "start",
					"outputs": [
						{
							"internalType": "uint64",
							"name": "",
							"type": "uint64"
						}
					],
					"stateMutability": "view",
					"type": "function"
				},
				{
					"inputs": [
						{
							"internalType": "address",
							"name": "newOwner",
							"type": "address"
						}
					],
					"name": "transferOwnership",
					"outputs": [],
					"stateMutability": "nonpayable",
					"type": "function"
				}
			],
			"devdoc": {
				"kind": "dev",
				"methods": {
					"owner()": {
						"details": "Returns the address of the current owner."
					},
					"renounceOwnership()": {
						"details": "Leaves the contract without owner. It will not be possible to call `onlyOwner` functions anymore. Can only be called by the current owner. NOTE: Renouncing ownership will leave the contract without an owner, thereby removing any functionality that is only available to the owner."
					},
					"transferOwnership(address)": {
						"details": "Transfers ownership of the contract to a new account (`newOwner`). Can only be called by the current owner."
					}
				},
				"version": 1
			},
			"evm": {
				"assembly": "    /* \"src/VestingManager/VestingManager.sol\":126:553  contract VestingManager is IVestingManager, Ownable {... */\n  mstore(0x40, 0x80)\n    /* \"src/VestingManager/VestingManager.sol\":239:331  constructor() {... */\n  callvalue\n  dup1\n  iszero\n  tag_1\n  jumpi\n  0x00\n  dup1\n  revert\ntag_1:\n  pop\n    /* \"src/VestingManager/Ownable.sol\":935:967  _transferOwnership(_msgSender()) */\n  tag_5\n    /* \"src/VestingManager/Ownable.sol\":954:966  _msgSender() */\n  tag_6\n    /* \"src/VestingManager/Ownable.sol\":954:964  _msgSender */\n  shl(0x20, tag_7)\n    /* \"src/VestingManager/Ownable.sol\":954:966  _msgSender() */\n  0x20\n  shr\n  jump\t// in\ntag_6:\n    /* \"src/VestingManager/Ownable.sol\":935:953  _transferOwnership */\n  shl(0x20, tag_8)\n    /* \"src/VestingManager/Ownable.sol\":935:967  _transferOwnership(_msgSender()) */\n  0x20\n  shr\n  jump\t// in\ntag_5:\n    /* \"src/VestingManager/VestingManager.sol\":271:287  type(uint64).max */\n  0xffffffffffffffff\n    /* \"src/VestingManager/VestingManager.sol\":263:268  start */\n  0x00\n  0x14\n    /* \"src/VestingManager/VestingManager.sol\":263:287  start = type(uint64).max */\n  0x0100\n  exp\n  dup2\n  sload\n  dup2\n  0xffffffffffffffff\n  mul\n  not\n  and\n  swap1\n  dup4\n  0xffffffffffffffff\n  and\n  mul\n  or\n  swap1\n  sstore\n  pop\n    /* \"src/VestingManager/VestingManager.sol\":308:324  type(uint64).max */\n  0xffffffffffffffff\n    /* \"src/VestingManager/VestingManager.sol\":297:305  duration */\n  0x01\n  0x00\n    /* \"src/VestingManager/VestingManager.sol\":297:324  duration = type(uint64).max */\n  0x0100\n  exp\n  dup2\n  sload\n  dup2\n  0xffffffffffffffff\n  mul\n  not\n  and\n  swap1\n  dup4\n  0xffffffffffffffff\n  and\n  mul\n  or\n  swap1\n  sstore\n  pop\n    /* \"src/VestingManager/VestingManager.sol\":126:553  contract VestingManager is IVestingManager, Ownable {... */\n  jump(tag_10)\n    /* \"src/VestingManager/utils/Context.sol\":640:736  function _msgSender() internal view virtual returns (address) {... */\ntag_7:\n    /* \"src/VestingManager/utils/Context.sol\":693:700  address */\n  0x00\n    /* \"src/VestingManager/utils/Context.sol\":719:729  msg.sender */\n  caller\n    /* \"src/VestingManager/utils/Context.sol\":712:729  return msg.sender */\n  swap1\n  pop\n    /* \"src/VestingManager/utils/Context.sol\":640:736  function _msgSender() internal view virtual returns (address) {... */\n  swap1\n  jump\t// out\n    /* \"src/VestingManager/Ownable.sol\":2432:2619  function _transferOwnership(address newOwner) internal virtual {... */\ntag_8:\n    /* \"src/VestingManager/Ownable.sol\":2505:2521  address oldOwner */\n  0x00\n    /* \"src/VestingManager/Ownable.sol\":2524:2530  _owner */\n  dup1\n  0x00\n  swap1\n  sload\n  swap1\n  0x0100\n  exp\n  swap1\n  div\n  0xffffffffffffffffffffffffffffffffffffffff\n  and\n    /* \"src/VestingManager/Ownable.sol\":2505:2530  address oldOwner = _owner */\n  swap1\n  pop\n    /* \"src/VestingManager/Ownable.sol\":2549:2557  newOwner */\n  dup2\n    /* \"src/VestingManager/Ownable.sol\":2540:2546  _owner */\n  0x00\n  dup1\n    /* \"src/VestingManager/Ownable.sol\":2540:2557  _owner = newOwner */\n  0x0100\n  exp\n  dup2\n  sload\n  dup2\n  0xffffffffffffffffffffffffffffffffffffffff\n  mul\n  not\n  and\n  swap1\n  dup4\n  0xffffffffffffffffffffffffffffffffffffffff\n  and\n  mul\n  or\n  swap1\n  sstore\n  pop\n    /* \"src/VestingManager/Ownable.sol\":2603:2611  newOwner */\n  dup2\n    /* \"src/VestingManager/Ownable.sol\":2572:2612  OwnershipTransferred(oldOwner, newOwner) */\n  0xffffffffffffffffffffffffffffffffffffffff\n  and\n    /* \"src/VestingManager/Ownable.sol\":2593:2601  oldOwner */\n  dup2\n    /* \"src/VestingManager/Ownable.sol\":2572:2612  OwnershipTransferred(oldOwner, newOwner) */\n  0xffffffffffffffffffffffffffffffffffffffff\n  and\n  0x8be0079c531659141344cd1fd0a4f28419497f9722a3daafe3b4186f6b6457e0\n  mload(0x40)\n  mload(0x40)\n  dup1\n  swap2\n  sub\n  swap1\n  log3\n    /* \"src/VestingManager/Ownable.sol\":2495:2619  {... */\n  pop\n    /* \"src/VestingManager/Ownable.sol\":2432:2619  function _transferOwnership(address newOwner) internal virtual {... */\n  pop\n  jump\t// out\n    /* \"src/VestingManager/VestingManager.sol\":126:553  contract VestingManager is IVestingManager, Ownable {... */\ntag_10:\n  dataSize(sub_0)\n  dup1\n  dataOffset(sub_0)\n  0x00\n  codecopy\n  0x00\n  return\nstop\n\nsub_0: assembly {\n        /* \"src/VestingManager/VestingManager.sol\":126:553  contract VestingManager is IVestingManager, Ownable {... */\n      mstore(0x40, 0x80)\n      callvalue\n      dup1\n      iszero\n      tag_1\n      jumpi\n      0x00\n      dup1\n      revert\n    tag_1:\n      pop\n      jumpi(tag_2, lt(calldatasize, 0x04))\n      shr(0xe0, calldataload(0x00))\n      dup1\n      0x8d562866\n      gt\n      tag_10\n      jumpi\n      dup1\n      0x8d562866\n      eq\n      tag_6\n      jumpi\n      dup1\n      0x8da5cb5b\n      eq\n      tag_7\n      jumpi\n      dup1\n      0xbe9a6555\n      eq\n      tag_8\n      jumpi\n      dup1\n      0xf2fde38b\n      eq\n      tag_9\n      jumpi\n      jump(tag_2)\n    tag_10:\n      dup1\n      0x0fb5a6b4\n      eq\n      tag_3\n      jumpi\n      dup1\n      0x4b852c03\n      eq\n      tag_4\n      jumpi\n      dup1\n      0x715018a6\n      eq\n      tag_5\n      jumpi\n    tag_2:\n      0x00\n      dup1\n      revert\n        /* \"src/VestingManager/VestingManager.sol\":210:232  uint64 public duration */\n    tag_3:\n      tag_11\n      tag_12\n      jump\t// in\n    tag_11:\n      mload(0x40)\n      tag_13\n      swap2\n      swap1\n      tag_14\n      jump\t// in\n    tag_13:\n      mload(0x40)\n      dup1\n      swap2\n      sub\n      swap1\n      return\n        /* \"src/VestingManager/VestingManager.sol\":441:551  function setDuration(uint64 duration_) public override virtual onlyOwner {... */\n    tag_4:\n      tag_15\n      0x04\n      dup1\n      calldatasize\n      sub\n      dup2\n      add\n      swap1\n      tag_16\n      swap2\n      swap1\n      tag_17\n      jump\t// in\n    tag_16:\n      tag_18\n      jump\t// in\n    tag_15:\n      stop\n        /* \"src/VestingManager/Ownable.sol\":1830:1931  function renounceOwnership() public virtual onlyOwner {... */\n    tag_5:\n      tag_19\n      tag_20\n      jump\t// in\n    tag_19:\n      stop\n        /* \"src/VestingManager/VestingManager.sol\":337:435  function setStart(uint64 start_) public override virtual onlyOwner {... */\n    tag_6:\n      tag_21\n      0x04\n      dup1\n      calldatasize\n      sub\n      dup2\n      add\n      swap1\n      tag_22\n      swap2\n      swap1\n      tag_17\n      jump\t// in\n    tag_22:\n      tag_23\n      jump\t// in\n    tag_21:\n      stop\n        /* \"src/VestingManager/Ownable.sol\":1200:1285  function owner() public view virtual returns (address) {... */\n    tag_7:\n      tag_24\n      tag_25\n      jump\t// in\n    tag_24:\n      mload(0x40)\n      tag_26\n      swap2\n      swap1\n      tag_27\n      jump\t// in\n    tag_26:\n      mload(0x40)\n      dup1\n      swap2\n      sub\n      swap1\n      return\n        /* \"src/VestingManager/VestingManager.sol\":185:204  uint64 public start */\n    tag_8:\n      tag_28\n      tag_29\n      jump\t// in\n    tag_28:\n      mload(0x40)\n      tag_30\n      swap2\n      swap1\n      tag_14\n      jump\t// in\n    tag_30:\n      mload(0x40)\n      dup1\n      swap2\n      sub\n      swap1\n      return\n        /* \"src/VestingManager/Ownable.sol\":2080:2278  function transferOwnership(address newOwner) public virtual onlyOwner {... */\n    tag_9:\n      tag_31\n      0x04\n      dup1\n      calldatasize\n      sub\n      dup2\n      add\n      swap1\n      tag_32\n      swap2\n      swap1\n      tag_33\n      jump\t// in\n    tag_32:\n      tag_34\n      jump\t// in\n    tag_31:\n      stop\n        /* \"src/VestingManager/VestingManager.sol\":210:232  uint64 public duration */\n    tag_12:\n      0x01\n      0x00\n      swap1\n      sload\n      swap1\n      0x0100\n      exp\n      swap1\n      div\n      0xffffffffffffffff\n      and\n      dup2\n      jump\t// out\n        /* \"src/VestingManager/VestingManager.sol\":441:551  function setDuration(uint64 duration_) public override virtual onlyOwner {... */\n    tag_18:\n        /* \"src/VestingManager/Ownable.sol\":1093:1106  _checkOwner() */\n      tag_36\n        /* \"src/VestingManager/Ownable.sol\":1093:1104  _checkOwner */\n      tag_37\n        /* \"src/VestingManager/Ownable.sol\":1093:1106  _checkOwner() */\n      jump\t// in\n    tag_36:\n        /* \"src/VestingManager/VestingManager.sol\":535:544  duration_ */\n      dup1\n        /* \"src/VestingManager/VestingManager.sol\":524:532  duration */\n      0x01\n      0x00\n        /* \"src/VestingManager/VestingManager.sol\":524:544  duration = duration_ */\n      0x0100\n      exp\n      dup2\n      sload\n      dup2\n      0xffffffffffffffff\n      mul\n      not\n      and\n      swap1\n      dup4\n      0xffffffffffffffff\n      and\n      mul\n      or\n      swap1\n      sstore\n      pop\n        /* \"src/VestingManager/VestingManager.sol\":441:551  function setDuration(uint64 duration_) public override virtual onlyOwner {... */\n      pop\n      jump\t// out\n        /* \"src/VestingManager/Ownable.sol\":1830:1931  function renounceOwnership() public virtual onlyOwner {... */\n    tag_20:\n        /* \"src/VestingManager/Ownable.sol\":1093:1106  _checkOwner() */\n      tag_40\n        /* \"src/VestingManager/Ownable.sol\":1093:1104  _checkOwner */\n      tag_37\n        /* \"src/VestingManager/Ownable.sol\":1093:1106  _checkOwner() */\n      jump\t// in\n    tag_40:\n        /* \"src/VestingManager/Ownable.sol\":1894:1924  _transferOwnership(address(0)) */\n      tag_42\n        /* \"src/VestingManager/Ownable.sol\":1921:1922  0 */\n      0x00\n        /* \"src/VestingManager/Ownable.sol\":1894:1912  _transferOwnership */\n      tag_43\n        /* \"src/VestingManager/Ownable.sol\":1894:1924  _transferOwnership(address(0)) */\n      jump\t// in\n    tag_42:\n        /* \"src/VestingManager/Ownable.sol\":1830:1931  function renounceOwnership() public virtual onlyOwner {... */\n      jump\t// out\n        /* \"src/VestingManager/VestingManager.sol\":337:435  function setStart(uint64 start_) public override virtual onlyOwner {... */\n    tag_23:\n        /* \"src/VestingManager/Ownable.sol\":1093:1106  _checkOwner() */\n      tag_45\n        /* \"src/VestingManager/Ownable.sol\":1093:1104  _checkOwner */\n      tag_37\n        /* \"src/VestingManager/Ownable.sol\":1093:1106  _checkOwner() */\n      jump\t// in\n    tag_45:\n        /* \"src/VestingManager/VestingManager.sol\":422:428  start_ */\n      dup1\n        /* \"src/VestingManager/VestingManager.sol\":414:419  start */\n      0x00\n      0x14\n        /* \"src/VestingManager/VestingManager.sol\":414:428  start = start_ */\n      0x0100\n      exp\n      dup2\n      sload\n      dup2\n      0xffffffffffffffff\n      mul\n      not\n      and\n      swap1\n      dup4\n      0xffffffffffffffff\n      and\n      mul\n      or\n      swap1\n      sstore\n      pop\n        /* \"src/VestingManager/VestingManager.sol\":337:435  function setStart(uint64 start_) public override virtual onlyOwner {... */\n      pop\n      jump\t// out\n        /* \"src/VestingManager/Ownable.sol\":1200:1285  function owner() public view virtual returns (address) {... */\n    tag_25:\n        /* \"src/VestingManager/Ownable.sol\":1246:1253  address */\n      0x00\n        /* \"src/VestingManager/Ownable.sol\":1272:1278  _owner */\n      dup1\n      0x00\n      swap1\n      sload\n      swap1\n      0x0100\n      exp\n      swap1\n      div\n      0xffffffffffffffffffffffffffffffffffffffff\n      and\n        /* \"src/VestingManager/Ownable.sol\":1265:1278  return _owner */\n      swap1\n      pop\n        /* \"src/VestingManager/Ownable.sol\":1200:1285  function owner() public view virtual returns (address) {... */\n      swap1\n      jump\t// out\n        /* \"src/VestingManager/VestingManager.sol\":185:204  uint64 public start */\n    tag_29:\n      0x00\n      0x14\n      swap1\n      sload\n      swap1\n      0x0100\n      exp\n      swap1\n      div\n      0xffffffffffffffff\n      and\n      dup2\n      jump\t// out\n        /* \"src/VestingManager/Ownable.sol\":2080:2278  function transferOwnership(address newOwner) public virtual onlyOwner {... */\n    tag_34:\n        /* \"src/VestingManager/Ownable.sol\":1093:1106  _checkOwner() */\n      tag_49\n        /* \"src/VestingManager/Ownable.sol\":1093:1104  _checkOwner */\n      tag_37\n        /* \"src/VestingManager/Ownable.sol\":1093:1106  _checkOwner() */\n      jump\t// in\n    tag_49:\n        /* \"src/VestingManager/Ownable.sol\":2188:2189  0 */\n      0x00\n        /* \"src/VestingManager/Ownable.sol\":2168:2190  newOwner != address(0) */\n      0xffffffffffffffffffffffffffffffffffffffff\n      and\n        /* \"src/VestingManager/Ownable.sol\":2168:2176  newOwner */\n      dup2\n        /* \"src/VestingManager/Ownable.sol\":2168:2190  newOwner != address(0) */\n      0xffffffffffffffffffffffffffffffffffffffff\n      and\n      sub\n        /* \"src/VestingManager/Ownable.sol\":2160:2233  require(newOwner != address(0), \"Ownable: new owner is the zero address\") */\n      tag_51\n      jumpi\n      mload(0x40)\n      0x08c379a000000000000000000000000000000000000000000000000000000000\n      dup2\n      mstore\n      0x04\n      add\n      tag_52\n      swap1\n      tag_53\n      jump\t// in\n    tag_52:\n      mload(0x40)\n      dup1\n      swap2\n      sub\n      swap1\n      revert\n    tag_51:\n        /* \"src/VestingManager/Ownable.sol\":2243:2271  _transferOwnership(newOwner) */\n      tag_54\n        /* \"src/VestingManager/Ownable.sol\":2262:2270  newOwner */\n      dup2\n        /* \"src/VestingManager/Ownable.sol\":2243:2261  _transferOwnership */\n      tag_43\n        /* \"src/VestingManager/Ownable.sol\":2243:2271  _transferOwnership(newOwner) */\n      jump\t// in\n    tag_54:\n        /* \"src/VestingManager/Ownable.sol\":2080:2278  function transferOwnership(address newOwner) public virtual onlyOwner {... */\n      pop\n      jump\t// out\n        /* \"src/VestingManager/Ownable.sol\":1358:1488  function _checkOwner() internal view virtual {... */\n    tag_37:\n        /* \"src/VestingManager/Ownable.sol\":1432:1444  _msgSender() */\n      tag_56\n        /* \"src/VestingManager/Ownable.sol\":1432:1442  _msgSender */\n      tag_57\n        /* \"src/VestingManager/Ownable.sol\":1432:1444  _msgSender() */\n      jump\t// in\n    tag_56:\n        /* \"src/VestingManager/Ownable.sol\":1421:1444  owner() == _msgSender() */\n      0xffffffffffffffffffffffffffffffffffffffff\n      and\n        /* \"src/VestingManager/Ownable.sol\":1421:1428  owner() */\n      tag_58\n        /* \"src/VestingManager/Ownable.sol\":1421:1426  owner */\n      tag_25\n        /* \"src/VestingManager/Ownable.sol\":1421:1428  owner() */\n      jump\t// in\n    tag_58:\n        /* \"src/VestingManager/Ownable.sol\":1421:1444  owner() == _msgSender() */\n      0xffffffffffffffffffffffffffffffffffffffff\n      and\n      eq\n        /* \"src/VestingManager/Ownable.sol\":1413:1481  require(owner() == _msgSender(), \"Ownable: caller is not the owner\") */\n      tag_59\n      jumpi\n      mload(0x40)\n      0x08c379a000000000000000000000000000000000000000000000000000000000\n      dup2\n      mstore\n      0x04\n      add\n      tag_60\n      swap1\n      tag_61\n      jump\t// in\n    tag_60:\n      mload(0x40)\n      dup1\n      swap2\n      sub\n      swap1\n      revert\n    tag_59:\n        /* \"src/VestingManager/Ownable.sol\":1358:1488  function _checkOwner() internal view virtual {... */\n      jump\t// out\n        /* \"src/VestingManager/Ownable.sol\":2432:2619  function _transferOwnership(address newOwner) internal virtual {... */\n    tag_43:\n        /* \"src/VestingManager/Ownable.sol\":2505:2521  address oldOwner */\n      0x00\n        /* \"src/VestingManager/Ownable.sol\":2524:2530  _owner */\n      dup1\n      0x00\n      swap1\n      sload\n      swap1\n      0x0100\n      exp\n      swap1\n      div\n      0xffffffffffffffffffffffffffffffffffffffff\n      and\n        /* \"src/VestingManager/Ownable.sol\":2505:2530  address oldOwner = _owner */\n      swap1\n      pop\n        /* \"src/VestingManager/Ownable.sol\":2549:2557  newOwner */\n      dup2\n        /* \"src/VestingManager/Ownable.sol\":2540:2546  _owner */\n      0x00\n      dup1\n        /* \"src/VestingManager/Ownable.sol\":2540:2557  _owner = newOwner */\n      0x0100\n      exp\n      dup2\n      sload\n      dup2\n      0xffffffffffffffffffffffffffffffffffffffff\n      mul\n      not\n      and\n      swap1\n      dup4\n      0xffffffffffffffffffffffffffffffffffffffff\n      and\n      mul\n      or\n      swap1\n      sstore\n      pop\n        /* \"src/VestingManager/Ownable.sol\":2603:2611  newOwner */\n      dup2\n        /* \"src/VestingManager/Ownable.sol\":2572:2612  OwnershipTransferred(oldOwner, newOwner) */\n      0xffffffffffffffffffffffffffffffffffffffff\n      and\n        /* \"src/VestingManager/Ownable.sol\":2593:2601  oldOwner */\n      dup2\n        /* \"src/VestingManager/Ownable.sol\":2572:2612  OwnershipTransferred(oldOwner, newOwner) */\n      0xffffffffffffffffffffffffffffffffffffffff\n      and\n      0x8be0079c531659141344cd1fd0a4f28419497f9722a3daafe3b4186f6b6457e0\n      mload(0x40)\n      mload(0x40)\n      dup1\n      swap2\n      sub\n      swap1\n      log3\n        /* \"src/VestingManager/Ownable.sol\":2495:2619  {... */\n      pop\n        /* \"src/VestingManager/Ownable.sol\":2432:2619  function _transferOwnership(address newOwner) internal virtual {... */\n      pop\n      jump\t// out\n        /* \"src/VestingManager/utils/Context.sol\":640:736  function _msgSender() internal view virtual returns (address) {... */\n    tag_57:\n        /* \"src/VestingManager/utils/Context.sol\":693:700  address */\n      0x00\n        /* \"src/VestingManager/utils/Context.sol\":719:729  msg.sender */\n      caller\n        /* \"src/VestingManager/utils/Context.sol\":712:729  return msg.sender */\n      swap1\n      pop\n        /* \"src/VestingManager/utils/Context.sol\":640:736  function _msgSender() internal view virtual returns (address) {... */\n      swap1\n      jump\t// out\n        /* \"#utility.yul\":7:108   */\n    tag_64:\n        /* \"#utility.yul\":43:50   */\n      0x00\n        /* \"#utility.yul\":83:101   */\n      0xffffffffffffffff\n        /* \"#utility.yul\":76:81   */\n      dup3\n        /* \"#utility.yul\":72:102   */\n      and\n        /* \"#utility.yul\":61:102   */\n      swap1\n      pop\n        /* \"#utility.yul\":7:108   */\n      swap2\n      swap1\n      pop\n      jump\t// out\n        /* \"#utility.yul\":114:229   */\n    tag_65:\n        /* \"#utility.yul\":199:222   */\n      tag_84\n        /* \"#utility.yul\":216:221   */\n      dup2\n        /* \"#utility.yul\":199:222   */\n      tag_64\n      jump\t// in\n    tag_84:\n        /* \"#utility.yul\":194:197   */\n      dup3\n        /* \"#utility.yul\":187:223   */\n      mstore\n        /* \"#utility.yul\":114:229   */\n      pop\n      pop\n      jump\t// out\n        /* \"#utility.yul\":235:453   */\n    tag_14:\n        /* \"#utility.yul\":326:330   */\n      0x00\n        /* \"#utility.yul\":364:366   */\n      0x20\n        /* \"#utility.yul\":353:362   */\n      dup3\n        /* \"#utility.yul\":349:367   */\n      add\n        /* \"#utility.yul\":341:367   */\n      swap1\n      pop\n        /* \"#utility.yul\":377:446   */\n      tag_86\n        /* \"#utility.yul\":443:444   */\n      0x00\n        /* \"#utility.yul\":432:441   */\n      dup4\n        /* \"#utility.yul\":428:445   */\n      add\n        /* \"#utility.yul\":419:425   */\n      dup5\n        /* \"#utility.yul\":377:446   */\n      tag_65\n      jump\t// in\n    tag_86:\n        /* \"#utility.yul\":235:453   */\n      swap3\n      swap2\n      pop\n      pop\n      jump\t// out\n        /* \"#utility.yul\":540:657   */\n    tag_67:\n        /* \"#utility.yul\":649:650   */\n      0x00\n        /* \"#utility.yul\":646:647   */\n      dup1\n        /* \"#utility.yul\":639:651   */\n      revert\n        /* \"#utility.yul\":786:906   */\n    tag_69:\n        /* \"#utility.yul\":858:881   */\n      tag_91\n        /* \"#utility.yul\":875:880   */\n      dup2\n        /* \"#utility.yul\":858:881   */\n      tag_64\n      jump\t// in\n    tag_91:\n        /* \"#utility.yul\":851:856   */\n      dup2\n        /* \"#utility.yul\":848:882   */\n      eq\n        /* \"#utility.yul\":838:900   */\n      tag_92\n      jumpi\n        /* \"#utility.yul\":896:897   */\n      0x00\n        /* \"#utility.yul\":893:894   */\n      dup1\n        /* \"#utility.yul\":886:898   */\n      revert\n        /* \"#utility.yul\":838:900   */\n    tag_92:\n        /* \"#utility.yul\":786:906   */\n      pop\n      jump\t// out\n        /* \"#utility.yul\":912:1049   */\n    tag_70:\n        /* \"#utility.yul\":957:962   */\n      0x00\n        /* \"#utility.yul\":995:1001   */\n      dup2\n        /* \"#utility.yul\":982:1002   */\n      calldataload\n        /* \"#utility.yul\":973:1002   */\n      swap1\n      pop\n        /* \"#utility.yul\":1011:1043   */\n      tag_94\n        /* \"#utility.yul\":1037:1042   */\n      dup2\n        /* \"#utility.yul\":1011:1043   */\n      tag_69\n      jump\t// in\n    tag_94:\n        /* \"#utility.yul\":912:1049   */\n      swap3\n      swap2\n      pop\n      pop\n      jump\t// out\n        /* \"#utility.yul\":1055:1382   */\n    tag_17:\n        /* \"#utility.yul\":1113:1119   */\n      0x00\n        /* \"#utility.yul\":1162:1164   */\n      0x20\n        /* \"#utility.yul\":1150:1159   */\n      dup3\n        /* \"#utility.yul\":1141:1148   */\n      dup5\n        /* \"#utility.yul\":1137:1160   */\n      sub\n        /* \"#utility.yul\":1133:1165   */\n      slt\n        /* \"#utility.yul\":1130:1249   */\n      iszero\n      tag_96\n      jumpi\n        /* \"#utility.yul\":1168:1247   */\n      tag_97\n      tag_67\n      jump\t// in\n    tag_97:\n        /* \"#utility.yul\":1130:1249   */\n    tag_96:\n        /* \"#utility.yul\":1288:1289   */\n      0x00\n        /* \"#utility.yul\":1313:1365   */\n      tag_98\n        /* \"#utility.yul\":1357:1364   */\n      dup5\n        /* \"#utility.yul\":1348:1354   */\n      dup3\n        /* \"#utility.yul\":1337:1346   */\n      dup6\n        /* \"#utility.yul\":1333:1355   */\n      add\n        /* \"#utility.yul\":1313:1365   */\n      tag_70\n      jump\t// in\n    tag_98:\n        /* \"#utility.yul\":1303:1365   */\n      swap2\n      pop\n        /* \"#utility.yul\":1259:1375   */\n      pop\n        /* \"#utility.yul\":1055:1382   */\n      swap3\n      swap2\n      pop\n      pop\n      jump\t// out\n        /* \"#utility.yul\":1388:1514   */\n    tag_71:\n        /* \"#utility.yul\":1425:1432   */\n      0x00\n        /* \"#utility.yul\":1465:1507   */\n      0xffffffffffffffffffffffffffffffffffffffff\n        /* \"#utility.yul\":1458:1463   */\n      dup3\n        /* \"#utility.yul\":1454:1508   */\n      and\n        /* \"#utility.yul\":1443:1508   */\n      swap1\n      pop\n        /* \"#utility.yul\":1388:1514   */\n      swap2\n      swap1\n      pop\n      jump\t// out\n        /* \"#utility.yul\":1520:1616   */\n    tag_72:\n        /* \"#utility.yul\":1557:1564   */\n      0x00\n        /* \"#utility.yul\":1586:1610   */\n      tag_101\n        /* \"#utility.yul\":1604:1609   */\n      dup3\n        /* \"#utility.yul\":1586:1610   */\n      tag_71\n      jump\t// in\n    tag_101:\n        /* \"#utility.yul\":1575:1610   */\n      swap1\n      pop\n        /* \"#utility.yul\":1520:1616   */\n      swap2\n      swap1\n      pop\n      jump\t// out\n        /* \"#utility.yul\":1622:1740   */\n    tag_73:\n        /* \"#utility.yul\":1709:1733   */\n      tag_103\n        /* \"#utility.yul\":1727:1732   */\n      dup2\n        /* \"#utility.yul\":1709:1733   */\n      tag_72\n      jump\t// in\n    tag_103:\n        /* \"#utility.yul\":1704:1707   */\n      dup3\n        /* \"#utility.yul\":1697:1734   */\n      mstore\n        /* \"#utility.yul\":1622:1740   */\n      pop\n      pop\n      jump\t// out\n        /* \"#utility.yul\":1746:1968   */\n    tag_27:\n        /* \"#utility.yul\":1839:1843   */\n      0x00\n        /* \"#utility.yul\":1877:1879   */\n      0x20\n        /* \"#utility.yul\":1866:1875   */\n      dup3\n        /* \"#utility.yul\":1862:1880   */\n      add\n        /* \"#utility.yul\":1854:1880   */\n      swap1\n      pop\n        /* \"#utility.yul\":1890:1961   */\n      tag_105\n        /* \"#utility.yul\":1958:1959   */\n      0x00\n        /* \"#utility.yul\":1947:1956   */\n      dup4\n        /* \"#utility.yul\":1943:1960   */\n      add\n        /* \"#utility.yul\":1934:1940   */\n      dup5\n        /* \"#utility.yul\":1890:1961   */\n      tag_73\n      jump\t// in\n    tag_105:\n        /* \"#utility.yul\":1746:1968   */\n      swap3\n      swap2\n      pop\n      pop\n      jump\t// out\n        /* \"#utility.yul\":1974:2096   */\n    tag_74:\n        /* \"#utility.yul\":2047:2071   */\n      tag_107\n        /* \"#utility.yul\":2065:2070   */\n      dup2\n        /* \"#utility.yul\":2047:2071   */\n      tag_72\n      jump\t// in\n    tag_107:\n        /* \"#utility.yul\":2040:2045   */\n      dup2\n        /* \"#utility.yul\":2037:2072   */\n      eq\n        /* \"#utility.yul\":2027:2090   */\n      tag_108\n      jumpi\n        /* \"#utility.yul\":2086:2087   */\n      0x00\n        /* \"#utility.yul\":2083:2084   */\n      dup1\n        /* \"#utility.yul\":2076:2088   */\n      revert\n        /* \"#utility.yul\":2027:2090   */\n    tag_108:\n        /* \"#utility.yul\":1974:2096   */\n      pop\n      jump\t// out\n        /* \"#utility.yul\":2102:2241   */\n    tag_75:\n        /* \"#utility.yul\":2148:2153   */\n      0x00\n        /* \"#utility.yul\":2186:2192   */\n      dup2\n        /* \"#utility.yul\":2173:2193   */\n      calldataload\n        /* \"#utility.yul\":2164:2193   */\n      swap1\n      pop\n        /* \"#utility.yul\":2202:2235   */\n      tag_110\n        /* \"#utility.yul\":2229:2234   */\n      dup2\n        /* \"#utility.yul\":2202:2235   */\n      tag_74\n      jump\t// in\n    tag_110:\n        /* \"#utility.yul\":2102:2241   */\n      swap3\n      swap2\n      pop\n      pop\n      jump\t// out\n        /* \"#utility.yul\":2247:2576   */\n    tag_33:\n        /* \"#utility.yul\":2306:2312   */\n      0x00\n        /* \"#utility.yul\":2355:2357   */\n      0x20\n        /* \"#utility.yul\":2343:2352   */\n      dup3\n        /* \"#utility.yul\":2334:2341   */\n      dup5\n        /* \"#utility.yul\":2330:2353   */\n      sub\n        /* \"#utility.yul\":2326:2358   */\n      slt\n        /* \"#utility.yul\":2323:2442   */\n      iszero\n      tag_112\n      jumpi\n        /* \"#utility.yul\":2361:2440   */\n      tag_113\n      tag_67\n      jump\t// in\n    tag_113:\n        /* \"#utility.yul\":2323:2442   */\n    tag_112:\n        /* \"#utility.yul\":2481:2482   */\n      0x00\n        /* \"#utility.yul\":2506:2559   */\n      tag_114\n        /* \"#utility.yul\":2551:2558   */\n      dup5\n        /* \"#utility.yul\":2542:2548   */\n      dup3\n        /* \"#utility.yul\":2531:2540   */\n      dup6\n        /* \"#utility.yul\":2527:2549   */\n      add\n        /* \"#utility.yul\":2506:2559   */\n      tag_75\n      jump\t// in\n    tag_114:\n        /* \"#utility.yul\":2496:2559   */\n      swap2\n      pop\n        /* \"#utility.yul\":2452:2569   */\n      pop\n        /* \"#utility.yul\":2247:2576   */\n      swap3\n      swap2\n      pop\n      pop\n      jump\t// out\n        /* \"#utility.yul\":2582:2751   */\n    tag_76:\n        /* \"#utility.yul\":2666:2677   */\n      0x00\n        /* \"#utility.yul\":2700:2706   */\n      dup3\n        /* \"#utility.yul\":2695:2698   */\n      dup3\n        /* \"#utility.yul\":2688:2707   */\n      mstore\n        /* \"#utility.yul\":2740:2744   */\n      0x20\n        /* \"#utility.yul\":2735:2738   */\n      dup3\n        /* \"#utility.yul\":2731:2745   */\n      add\n        /* \"#utility.yul\":2716:2745   */\n      swap1\n      pop\n        /* \"#utility.yul\":2582:2751   */\n      swap3\n      swap2\n      pop\n      pop\n      jump\t// out\n        /* \"#utility.yul\":2757:2982   */\n    tag_77:\n        /* \"#utility.yul\":2897:2931   */\n      0x4f776e61626c653a206e6577206f776e657220697320746865207a65726f2061\n        /* \"#utility.yul\":2893:2894   */\n      0x00\n        /* \"#utility.yul\":2885:2891   */\n      dup3\n        /* \"#utility.yul\":2881:2895   */\n      add\n        /* \"#utility.yul\":2874:2932   */\n      mstore\n        /* \"#utility.yul\":2966:2974   */\n      0x6464726573730000000000000000000000000000000000000000000000000000\n        /* \"#utility.yul\":2961:2963   */\n      0x20\n        /* \"#utility.yul\":2953:2959   */\n      dup3\n        /* \"#utility.yul\":2949:2964   */\n      add\n        /* \"#utility.yul\":2942:2975   */\n      mstore\n        /* \"#utility.yul\":2757:2982   */\n      pop\n      jump\t// out\n        /* \"#utility.yul\":2988:3354   */\n    tag_78:\n        /* \"#utility.yul\":3130:3133   */\n      0x00\n        /* \"#utility.yul\":3151:3218   */\n      tag_118\n        /* \"#utility.yul\":3215:3217   */\n      0x26\n        /* \"#utility.yul\":3210:3213   */\n      dup4\n        /* \"#utility.yul\":3151:3218   */\n      tag_76\n      jump\t// in\n    tag_118:\n        /* \"#utility.yul\":3144:3218   */\n      swap2\n      pop\n        /* \"#utility.yul\":3227:3320   */\n      tag_119\n        /* \"#utility.yul\":3316:3319   */\n      dup3\n        /* \"#utility.yul\":3227:3320   */\n      tag_77\n      jump\t// in\n    tag_119:\n        /* \"#utility.yul\":3345:3347   */\n      0x40\n        /* \"#utility.yul\":3340:3343   */\n      dup3\n        /* \"#utility.yul\":3336:3348   */\n      add\n        /* \"#utility.yul\":3329:3348   */\n      swap1\n      pop\n        /* \"#utility.yul\":2988:3354   */\n      swap2\n      swap1\n      pop\n      jump\t// out\n        /* \"#utility.yul\":3360:3779   */\n    tag_53:\n        /* \"#utility.yul\":3526:3530   */\n      0x00\n        /* \"#utility.yul\":3564:3566   */\n      0x20\n        /* \"#utility.yul\":3553:3562   */\n      dup3\n        /* \"#utility.yul\":3549:3567   */\n      add\n        /* \"#utility.yul\":3541:3567   */\n      swap1\n      pop\n        /* \"#utility.yul\":3613:3622   */\n      dup2\n        /* \"#utility.yul\":3607:3611   */\n      dup2\n        /* \"#utility.yul\":3603:3623   */\n      sub\n        /* \"#utility.yul\":3599:3600   */\n      0x00\n        /* \"#utility.yul\":3588:3597   */\n      dup4\n        /* \"#utility.yul\":3584:3601   */\n      add\n        /* \"#utility.yul\":3577:3624   */\n      mstore\n        /* \"#utility.yul\":3641:3772   */\n      tag_121\n        /* \"#utility.yul\":3767:3771   */\n      dup2\n        /* \"#utility.yul\":3641:3772   */\n      tag_78\n      jump\t// in\n    tag_121:\n        /* \"#utility.yul\":3633:3772   */\n      swap1\n      pop\n        /* \"#utility.yul\":3360:3779   */\n      swap2\n      swap1\n      pop\n      jump\t// out\n        /* \"#utility.yul\":3785:3967   */\n    tag_79:\n        /* \"#utility.yul\":3925:3959   */\n      0x4f776e61626c653a2063616c6c6572206973206e6f7420746865206f776e6572\n        /* \"#utility.yul\":3921:3922   */\n      0x00\n        /* \"#utility.yul\":3913:3919   */\n      dup3\n        /* \"#utility.yul\":3909:3923   */\n      add\n        /* \"#utility.yul\":3902:3960   */\n      mstore\n        /* \"#utility.yul\":3785:3967   */\n      pop\n      jump\t// out\n        /* \"#utility.yul\":3973:4339   */\n    tag_80:\n        /* \"#utility.yul\":4115:4118   */\n      0x00\n        /* \"#utility.yul\":4136:4203   */\n      tag_124\n        /* \"#utility.yul\":4200:4202   */\n      0x20\n        /* \"#utility.yul\":4195:4198   */\n      dup4\n        /* \"#utility.yul\":4136:4203   */\n      tag_76\n      jump\t// in\n    tag_124:\n        /* \"#utility.yul\":4129:4203   */\n      swap2\n      pop\n        /* \"#utility.yul\":4212:4305   */\n      tag_125\n        /* \"#utility.yul\":4301:4304   */\n      dup3\n        /* \"#utility.yul\":4212:4305   */\n      tag_79\n      jump\t// in\n    tag_125:\n        /* \"#utility.yul\":4330:4332   */\n      0x20\n        /* \"#utility.yul\":4325:4328   */\n      dup3\n        /* \"#utility.yul\":4321:4333   */\n      add\n        /* \"#utility.yul\":4314:4333   */\n      swap1\n      pop\n        /* \"#utility.yul\":3973:4339   */\n      swap2\n      swap1\n      pop\n      jump\t// out\n        /* \"#utility.yul\":4345:4764   */\n    tag_61:\n        /* \"#utility.yul\":4511:4515   */\n      0x00\n        /* \"#utility.yul\":4549:4551   */\n      0x20\n        /* \"#utility.yul\":4538:4547   */\n      dup3\n        /* \"#utility.yul\":4534:4552   */\n      add\n        /* \"#utility.yul\":4526:4552   */\n      swap1\n      pop\n        /* \"#utility.yul\":4598:4607   */\n      dup2\n        /* \"#utility.yul\":4592:4596   */\n      dup2\n        /* \"#utility.yul\":4588:4608   */\n      sub\n        /* \"#utility.yul\":4584:4585   */\n      0x00\n        /* \"#utility.yul\":4573:4582   */\n      dup4\n        /* \"#utility.yul\":4569:4586   */\n      add\n        /* \"#utility.yul\":4562:4609   */\n      mstore\n        /* \"#utility.yul\":4626:4757   */\n      tag_127\n        /* \"#utility.yul\":4752:4756   */\n      dup2\n        /* \"#utility.yul\":4626:4757   */\n      tag_80\n      jump\t// in\n    tag_127:\n        /* \"#utility.yul\":4618:4757   */\n      swap1\n      pop\n        /* \"#utility.yul\":4345:4764   */\n      swap2\n      swap1\n      pop\n      jump\t// out\n\n    auxdata: 0xa26469706673582212204c21f731d885d5d1450cc1a0155abc0e1bdeee1c60bdb4e0b5faff2d282d61d264736f6c63430008190033\n}\n",
				"bytecode": {
					"linkReferences": {},
					"object": "608060405234801561000f575f80fd5b5061002c61002161009160201b60201c565b61009860201b60201c565b67ffffffffffffffff5f60146101000a81548167ffffffffffffffff021916908367ffffffffffffffff16021790555067ffffffffffffffff60015f6101000a81548167ffffffffffffffff021916908367ffffffffffffffff160217905550610159565b5f33905090565b5f805f9054906101000a900473ffffffffffffffffffffffffffffffffffffffff169050815f806101000a81548173ffffffffffffffffffffffffffffffffffffffff021916908373ffffffffffffffffffffffffffffffffffffffff1602179055508173ffffffffffffffffffffffffffffffffffffffff168173ffffffffffffffffffffffffffffffffffffffff167f8be0079c531659141344cd1fd0a4f28419497f9722a3daafe3b4186f6b6457e060405160405180910390a35050565b61064e806101665f395ff3fe608060405234801561000f575f80fd5b506004361061007b575f3560e01c80638d562866116100595780638d562866146100c35780638da5cb5b146100df578063be9a6555146100fd578063f2fde38b1461011b5761007b565b80630fb5a6b41461007f5780634b852c031461009d578063715018a6146100b9575b5f80fd5b610087610137565b60405161009491906103f3565b60405180910390f35b6100b760048036038101906100b2919061043a565b610150565b005b6100c1610183565b005b6100dd60048036038101906100d8919061043a565b610196565b005b6100e76101c9565b6040516100f491906104a4565b60405180910390f35b6101056101f0565b60405161011291906103f3565b60405180910390f35b610135600480360381019061013091906104e7565b610209565b005b60015f9054906101000a900467ffffffffffffffff1681565b61015861028b565b8060015f6101000a81548167ffffffffffffffff021916908367ffffffffffffffff16021790555050565b61018b61028b565b6101945f610309565b565b61019e61028b565b805f60146101000a81548167ffffffffffffffff021916908367ffffffffffffffff16021790555050565b5f805f9054906101000a900473ffffffffffffffffffffffffffffffffffffffff16905090565b5f60149054906101000a900467ffffffffffffffff1681565b61021161028b565b5f73ffffffffffffffffffffffffffffffffffffffff168173ffffffffffffffffffffffffffffffffffffffff160361027f576040517f08c379a000000000000000000000000000000000000000000000000000000000815260040161027690610592565b60405180910390fd5b61028881610309565b50565b6102936103ca565b73ffffffffffffffffffffffffffffffffffffffff166102b16101c9565b73ffffffffffffffffffffffffffffffffffffffff1614610307576040517f08c379a00000000000000000000000000000000000000000000000000000000081526004016102fe906105fa565b60405180910390fd5b565b5f805f9054906101000a900473ffffffffffffffffffffffffffffffffffffffff169050815f806101000a81548173ffffffffffffffffffffffffffffffffffffffff021916908373ffffffffffffffffffffffffffffffffffffffff1602179055508173ffffffffffffffffffffffffffffffffffffffff168173ffffffffffffffffffffffffffffffffffffffff167f8be0079c531659141344cd1fd0a4f28419497f9722a3daafe3b4186f6b6457e060405160405180910390a35050565b5f33905090565b5f67ffffffffffffffff82169050919050565b6103ed816103d1565b82525050565b5f6020820190506104065f8301846103e4565b92915050565b5f80fd5b610419816103d1565b8114610423575f80fd5b50565b5f8135905061043481610410565b92915050565b5f6020828403121561044f5761044e61040c565b5b5f61045c84828501610426565b91505092915050565b5f73ffffffffffffffffffffffffffffffffffffffff82169050919050565b5f61048e82610465565b9050919050565b61049e81610484565b82525050565b5f6020820190506104b75f830184610495565b92915050565b6104c681610484565b81146104d0575f80fd5b50565b5f813590506104e1816104bd565b92915050565b5f602082840312156104fc576104fb61040c565b5b5f610509848285016104d3565b91505092915050565b5f82825260208201905092915050565b7f4f776e61626c653a206e6577206f776e657220697320746865207a65726f20615f8201527f6464726573730000000000000000000000000000000000000000000000000000602082015250565b5f61057c602683610512565b915061058782610522565b604082019050919050565b5f6020820190508181035f8301526105a981610570565b9050919050565b7f4f776e61626c653a2063616c6c6572206973206e6f7420746865206f776e65725f82015250565b5f6105e4602083610512565b91506105ef826105b0565b602082019050919050565b5f6020820190508181035f830152610611816105d8565b905091905056fea26469706673582212204c21f731d885d5d1450cc1a0155abc0e1bdeee1c60bdb4e0b5faff2d282d61d264736f6c63430008190033",
					"opcodes": "PUSH1 0x80 PUSH1 0x40 MSTORE CALLVALUE DUP1 ISZERO PUSH2 0xF JUMPI PUSH0 DUP1 REVERT JUMPDEST POP PUSH2 0x2C PUSH2 0x21 PUSH2 0x91 PUSH1 0x20 SHL PUSH1 0x20 SHR JUMP JUMPDEST PUSH2 0x98 PUSH1 0x20 SHL PUSH1 0x20 SHR JUMP JUMPDEST PUSH8 0xFFFFFFFFFFFFFFFF PUSH0 PUSH1 0x14 PUSH2 0x100 EXP DUP2 SLOAD DUP2 PUSH8 0xFFFFFFFFFFFFFFFF MUL NOT AND SWAP1 DUP4 PUSH8 0xFFFFFFFFFFFFFFFF AND MUL OR SWAP1 SSTORE POP PUSH8 0xFFFFFFFFFFFFFFFF PUSH1 0x1 PUSH0 PUSH2 0x100 EXP DUP2 SLOAD DUP2 PUSH8 0xFFFFFFFFFFFFFFFF MUL NOT AND SWAP1 DUP4 PUSH8 0xFFFFFFFFFFFFFFFF AND MUL OR SWAP1 SSTORE POP PUSH2 0x159 JUMP JUMPDEST PUSH0 CALLER SWAP1 POP SWAP1 JUMP JUMPDEST PUSH0 DUP1 PUSH0 SWAP1 SLOAD SWAP1 PUSH2 0x100 EXP SWAP1 DIV PUSH20 0xFFFFFFFFFFFFFFFFFFFFFFFFFFFFFFFFFFFFFFFF AND SWAP1 POP DUP2 PUSH0 DUP1 PUSH2 0x100 EXP DUP2 SLOAD DUP2 PUSH20 0xFFFFFFFFFFFFFFFFFFFFFFFFFFFFFFFFFFFFFFFF MUL NOT AND SWAP1 DUP4 PUSH20 0xFFFFFFFFFFFFFFFFFFFFFFFFFFFFFFFFFFFFFFFF AND MUL OR SWAP1 SSTORE POP DUP2 PUSH20 0xFFFFFFFFFFFFFFFFFFFFFFFFFFFFFFFFFFFFFFFF AND DUP2 PUSH20 0xFFFFFFFFFFFFFFFFFFFFFFFFFFFFFFFFFFFFFFFF AND PUSH32 0x8BE0079C531659141344CD1FD0A4F28419497F9722A3DAAFE3B4186F6B6457E0 PUSH1 0x40 MLOAD PUSH1 0x40 MLOAD DUP1 SWAP2 SUB SWAP1 LOG3 POP POP JUMP JUMPDEST PUSH2 0x64E DUP1 PUSH2 0x166 PUSH0 CODECOPY PUSH0 RETURN INVALID PUSH1 0x80 PUSH1 0x40 MSTORE CALLVALUE DUP1 ISZERO PUSH2 0xF JUMPI PUSH0 DUP1 REVERT JUMPDEST POP PUSH1 0x4 CALLDATASIZE LT PUSH2 0x7B JUMPI PUSH0 CALLDATALOAD PUSH1 0xE0 SHR DUP1 PUSH4 0x8D562866 GT PUSH2 0x59 JUMPI DUP1 PUSH4 0x8D562866 EQ PUSH2 0xC3 JUMPI DUP1 PUSH4 0x8DA5CB5B EQ PUSH2 0xDF JUMPI DUP1 PUSH4 0xBE9A6555 EQ PUSH2 0xFD JUMPI DUP1 PUSH4 0xF2FDE38B EQ PUSH2 0x11B JUMPI PUSH2 0x7B JUMP JUMPDEST DUP1 PUSH4 0xFB5A6B4 EQ PUSH2 0x7F JUMPI DUP1 PUSH4 0x4B852C03 EQ PUSH2 0x9D JUMPI DUP1 PUSH4 0x715018A6 EQ PUSH2 0xB9 JUMPI JUMPDEST PUSH0 DUP1 REVERT JUMPDEST PUSH2 0x87 PUSH2 0x137 JUMP JUMPDEST PUSH1 0x40 MLOAD PUSH2 0x94 SWAP2 SWAP1 PUSH2 0x3F3 JUMP JUMPDEST PUSH1 0x40 MLOAD DUP1 SWAP2 SUB SWAP1 RETURN JUMPDEST PUSH2 0xB7 PUSH1 0x4 DUP1 CALLDATASIZE SUB DUP2 ADD SWAP1 PUSH2 0xB2 SWAP2 SWAP1 PUSH2 0x43A JUMP JUMPDEST PUSH2 0x150 JUMP JUMPDEST STOP JUMPDEST PUSH2 0xC1 PUSH2 0x183 JUMP JUMPDEST STOP JUMPDEST PUSH2 0xDD PUSH1 0x4 DUP1 CALLDATASIZE SUB DUP2 ADD SWAP1 PUSH2 0xD8 SWAP2 SWAP1 PUSH2 0x43A JUMP JUMPDEST PUSH2 0x196 JUMP JUMPDEST STOP JUMPDEST PUSH2 0xE7 PUSH2 0x1C9 JUMP JUMPDEST PUSH1 0x40 MLOAD PUSH2 0xF4 SWAP2 SWAP1 PUSH2 0x4A4 JUMP JUMPDEST PUSH1 0x40 MLOAD DUP1 SWAP2 SUB SWAP1 RETURN JUMPDEST PUSH2 0x105 PUSH2 0x1F0 JUMP JUMPDEST PUSH1 0x40 MLOAD PUSH2 0x112 SWAP2 SWAP1 PUSH2 0x3F3 JUMP JUMPDEST PUSH1 0x40 MLOAD DUP1 SWAP2 SUB SWAP1 RETURN JUMPDEST PUSH2 0x135 PUSH1 0x4 DUP1 CALLDATASIZE SUB DUP2 ADD SWAP1 PUSH2 0x130 SWAP2 SWAP1 PUSH2 0x4E7 JUMP JUMPDEST PUSH2 0x209 JUMP JUMPDEST STOP JUMPDEST PUSH1 0x1 PUSH0 SWAP1 SLOAD SWAP1 PUSH2 0x100 EXP SWAP1 DIV PUSH8 0xFFFFFFFFFFFFFFFF AND DUP2 JUMP JUMPDEST PUSH2 0x158 PUSH2 0x28B JUMP JUMPDEST DUP1 PUSH1 0x1 PUSH0 PUSH2 0x100 EXP DUP2 SLOAD DUP2 PUSH8 0xFFFFFFFFFFFFFFFF MUL NOT AND SWAP1 DUP4 PUSH8 0xFFFFFFFFFFFFFFFF AND MUL OR SWAP1 SSTORE POP POP JUMP JUMPDEST PUSH2 0x18B PUSH2 0x28B JUMP JUMPDEST PUSH2 0x194 PUSH0 PUSH2 0x309 JUMP JUMPDEST JUMP JUMPDEST PUSH2 0x19E PUSH2 0x28B JUMP JUMPDEST DUP1 PUSH0 PUSH1 0x14 PUSH2 0x100 EXP DUP2 SLOAD DUP2 PUSH8 0xFFFFFFFFFFFFFFFF MUL NOT AND SWAP1 DUP4 PUSH8 0xFFFFFFFFFFFFFFFF AND MUL OR SWAP1 SSTORE POP POP JUMP JUMPDEST PUSH0 DUP1 PUSH0 SWAP1 SLOAD SWAP1 PUSH2 0x100 EXP SWAP1 DIV PUSH20 0xFFFFFFFFFFFFFFFFFFFFFFFFFFFFFFFFFFFFFFFF AND SWAP1 POP SWAP1 JUMP JUMPDEST PUSH0 PUSH1 0x14 SWAP1 SLOAD SWAP1 PUSH2 0x100 EXP SWAP1 DIV PUSH8 0xFFFFFFFFFFFFFFFF AND DUP2 JUMP JUMPDEST PUSH2 0x211 PUSH2 0x28B JUMP JUMPDEST PUSH0 PUSH20 0xFFFFFFFFFFFFFFFFFFFFFFFFFFFFFFFFFFFFFFFF AND DUP2 PUSH20 0xFFFFFFFFFFFFFFFFFFFFFFFFFFFFFFFFFFFFFFFF AND SUB PUSH2 0x27F JUMPI PUSH1 0x40 MLOAD PUSH32 0x8C379A000000000000000000000000000000000000000000000000000000000 DUP2 MSTORE PUSH1 0x4 ADD PUSH2 0x276 SWAP1 PUSH2 0x592 JUMP JUMPDEST PUSH1 0x40 MLOAD DUP1 SWAP2 SUB SWAP1 REVERT JUMPDEST PUSH2 0x288 DUP2 PUSH2 0x309 JUMP JUMPDEST POP JUMP JUMPDEST PUSH2 0x293 PUSH2 0x3CA JUMP JUMPDEST PUSH20 0xFFFFFFFFFFFFFFFFFFFFFFFFFFFFFFFFFFFFFFFF AND PUSH2 0x2B1 PUSH2 0x1C9 JUMP JUMPDEST PUSH20 0xFFFFFFFFFFFFFFFFFFFFFFFFFFFFFFFFFFFFFFFF AND EQ PUSH2 0x307 JUMPI PUSH1 0x40 MLOAD PUSH32 0x8C379A000000000000000000000000000000000000000000000000000000000 DUP2 MSTORE PUSH1 0x4 ADD PUSH2 0x2FE SWAP1 PUSH2 0x5FA JUMP JUMPDEST PUSH1 0x40 MLOAD DUP1 SWAP2 SUB SWAP1 REVERT JUMPDEST JUMP JUMPDEST PUSH0 DUP1 PUSH0 SWAP1 SLOAD SWAP1 PUSH2 0x100 EXP SWAP1 DIV PUSH20 0xFFFFFFFFFFFFFFFFFFFFFFFFFFFFFFFFFFFFFFFF AND SWAP1 POP DUP2 PUSH0 DUP1 PUSH2 0x100 EXP DUP2 SLOAD DUP2 PUSH20 0xFFFFFFFFFFFFFFFFFFFFFFFFFFFFFFFFFFFFFFFF MUL NOT AND SWAP1 DUP4 PUSH20 0xFFFFFFFFFFFFFFFFFFFFFFFFFFFFFFFFFFFFFFFF AND MUL OR SWAP1 SSTORE POP DUP2 PUSH20 0xFFFFFFFFFFFFFFFFFFFFFFFFFFFFFFFFFFFFFFFF AND DUP2 PUSH20 0xFFFFFFFFFFFFFFFFFFFFFFFFFFFFFFFFFFFFFFFF AND PUSH32 0x8BE0079C531659141344CD1FD0A4F28419497F9722A3DAAFE3B4186F6B6457E0 PUSH1 0x40 MLOAD PUSH1 0x40 MLOAD DUP1 SWAP2 SUB SWAP1 LOG3 POP POP JUMP JUMPDEST PUSH0 CALLER SWAP1 POP SWAP1 JUMP JUMPDEST PUSH0 PUSH8 0xFFFFFFFFFFFFFFFF DUP3 AND SWAP1 POP SWAP2 SWAP1 POP JUMP JUMPDEST PUSH2 0x3ED DUP2 PUSH2 0x3D1 JUMP JUMPDEST DUP3 MSTORE POP POP JUMP JUMPDEST PUSH0 PUSH1 0x20 DUP3 ADD SWAP1 POP PUSH2 0x406 PUSH0 DUP4 ADD DUP5 PUSH2 0x3E4 JUMP JUMPDEST SWAP3 SWAP2 POP POP JUMP JUMPDEST PUSH0 DUP1 REVERT JUMPDEST PUSH2 0x419 DUP2 PUSH2 0x3D1 JUMP JUMPDEST DUP2 EQ PUSH2 0x423 JUMPI PUSH0 DUP1 REVERT JUMPDEST POP JUMP JUMPDEST PUSH0 DUP2 CALLDATALOAD SWAP1 POP PUSH2 0x434 DUP2 PUSH2 0x410 JUMP JUMPDEST SWAP3 SWAP2 POP POP JUMP JUMPDEST PUSH0 PUSH1 0x20 DUP3 DUP5 SUB SLT ISZERO PUSH2 0x44F JUMPI PUSH2 0x44E PUSH2 0x40C JUMP JUMPDEST JUMPDEST PUSH0 PUSH2 0x45C DUP5 DUP3 DUP6 ADD PUSH2 0x426 JUMP JUMPDEST SWAP2 POP POP SWAP3 SWAP2 POP POP JUMP JUMPDEST PUSH0 PUSH20 0xFFFFFFFFFFFFFFFFFFFFFFFFFFFFFFFFFFFFFFFF DUP3 AND SWAP1 POP SWAP2 SWAP1 POP JUMP JUMPDEST PUSH0 PUSH2 0x48E DUP3 PUSH2 0x465 JUMP JUMPDEST SWAP1 POP SWAP2 SWAP1 POP JUMP JUMPDEST PUSH2 0x49E DUP2 PUSH2 0x484 JUMP JUMPDEST DUP3 MSTORE POP POP JUMP JUMPDEST PUSH0 PUSH1 0x20 DUP3 ADD SWAP1 POP PUSH2 0x4B7 PUSH0 DUP4 ADD DUP5 PUSH2 0x495 JUMP JUMPDEST SWAP3 SWAP2 POP POP JUMP JUMPDEST PUSH2 0x4C6 DUP2 PUSH2 0x484 JUMP JUMPDEST DUP2 EQ PUSH2 0x4D0 JUMPI PUSH0 DUP1 REVERT JUMPDEST POP JUMP JUMPDEST PUSH0 DUP2 CALLDATALOAD SWAP1 POP PUSH2 0x4E1 DUP2 PUSH2 0x4BD JUMP JUMPDEST SWAP3 SWAP2 POP POP JUMP JUMPDEST PUSH0 PUSH1 0x20 DUP3 DUP5 SUB SLT ISZERO PUSH2 0x4FC JUMPI PUSH2 0x4FB PUSH2 0x40C JUMP JUMPDEST JUMPDEST PUSH0 PUSH2 0x509 DUP5 DUP3 DUP6 ADD PUSH2 0x4D3 JUMP JUMPDEST SWAP2 POP POP SWAP3 SWAP2 POP POP JUMP JUMPDEST PUSH0 DUP3 DUP3 MSTORE PUSH1 0x20 DUP3 ADD SWAP1 POP SWAP3 SWAP2 POP POP JUMP JUMPDEST PUSH32 0x4F776E61626C653A206E6577206F776E657220697320746865207A65726F2061 PUSH0 DUP3 ADD MSTORE PUSH32 0x6464726573730000000000000000000000000000000000000000000000000000 PUSH1 0x20 DUP3 ADD MSTORE POP JUMP JUMPDEST PUSH0 PUSH2 0x57C PUSH1 0x26 DUP4 PUSH2 0x512 JUMP JUMPDEST SWAP2 POP PUSH2 0x587 DUP3 PUSH2 0x522 JUMP JUMPDEST PUSH1 0x40 DUP3 ADD SWAP1 POP SWAP2 SWAP1 POP JUMP JUMPDEST PUSH0 PUSH1 0x20 DUP3 ADD SWAP1 POP DUP2 DUP2 SUB PUSH0 DUP4 ADD MSTORE PUSH2 0x5A9 DUP2 PUSH2 0x570 JUMP JUMPDEST SWAP1 POP SWAP2 SWAP1 POP JUMP JUMPDEST PUSH32 0x4F776E61626C653A2063616C6C6572206973206E6F7420746865206F776E6572 PUSH0 DUP3 ADD MSTORE POP JUMP JUMPDEST PUSH0 PUSH2 0x5E4 PUSH1 0x20 DUP4 PUSH2 0x512 JUMP JUMPDEST SWAP2 POP PUSH2 0x5EF DUP3 PUSH2 0x5B0 JUMP JUMPDEST PUSH1 0x20 DUP3 ADD SWAP1 POP SWAP2 SWAP1 POP JUMP JUMPDEST PUSH0 PUSH1 0x20 DUP3 ADD SWAP1 POP DUP2 DUP2 SUB PUSH0 DUP4 ADD MSTORE PUSH2 0x611 DUP2 PUSH2 0x5D8 JUMP JUMPDEST SWAP1 POP SWAP2 SWAP1 POP JUMP INVALID LOG2 PUSH5 0x6970667358 0x22 SLT KECCAK256 0x4C 0x21 0xF7 BALANCE 0xD8 DUP6 0xD5 0xD1 GASLIMIT 0xC 0xC1 LOG0 ISZERO GAS 0xBC 0xE SHL 0xDE 0xEE SHR PUSH1 0xBD 0xB4 0xE0 0xB5 STATICCALL SELFDESTRUCT 0x2D 0x28 0x2D PUSH2 0xD264 PUSH20 0x6F6C634300081900330000000000000000000000 "
				},
				"gasEstimates": {
					"creation": {
						"codeDepositCost": "322800",
						"executionCost": "infinite",
						"totalCost": "infinite"
					},
					"external": {
						"duration()": "2467",
						"owner()": "2537",
						"renounceOwnership()": "30435",
						"setDuration(uint64)": "26957",
						"setStart(uint64)": "26984",
						"start()": "2560",
						"transferOwnership(address)": "30797"
					}
				},
				"methodIdentifiers": {
					"duration()": "0fb5a6b4",
					"owner()": "8da5cb5b",
					"renounceOwnership()": "715018a6",
					"setDuration(uint64)": "4b852c03",
					"setStart(uint64)": "8d562866",
					"start()": "be9a6555",
					"transferOwnership(address)": "f2fde38b"
				}
			},
			"storageLayout": {
				"storage": [
					{
						"astId": 7,
						"contract": "src/VestingManager/VestingManager.sol:VestingManager",
						"label": "_owner",
						"offset": 0,
						"slot": "0",
						"type": "t_address"
					},
					{
						"astId": 122,
						"contract": "src/VestingManager/VestingManager.sol:VestingManager",
						"label": "start",
						"offset": 20,
						"slot": "0",
						"type": "t_uint64"
					},
					{
						"astId": 124,
						"contract": "src/VestingManager/VestingManager.sol:VestingManager",
						"label": "duration",
						"offset": 0,
						"slot": "1",
						"type": "t_uint64"
					}
				],
				"types": {
					"t_address": {
						"encoding": "inplace",
						"label": "address",
						"numberOfBytes": "20"
					},
					"t_uint64": {
						"encoding": "inplace",
						"label": "uint64",
						"numberOfBytes": "8"
					}
				}
			},
			"userdoc": {
				"kind": "user",
				"methods": {},
				"version": 1
			}
		}
	}
}